:10200000008000204D720000357200003572000023
:1020100000000000000000000000000000000000C0
:102020000000000000000000000000003572000009
:10203000000000000000000035720000A1720000E6
:1020400035720000357200003572000035720000F4
:1020500035720000357200003168000039720000EE
:1020600035720000F5710000057200003572000045
:10207000A970000035720000157200003572000072
:1020800035720000357200003572000035720000B4
:10209000000000003572000035720000357200004B
:1020A0003572000035720000357200003572000094
:1020B0000000000010B5064C2378002B07D1054B1B
:1020C000002B02D0044800E000BF0123237010BDA4
:1020D000C002002000000000E8FC0000044B10B526
:1020E000002B03D00349044800E000BF10BDC046E8
:1020F00000000000C4020020E8FC000010B5012828
:1021000000D010BD174B9942FBD1174B8022920093
:102110009B5004329B500022822189005A52134B5B
:10212000802189015B5012495B5012495A52124C6E
:10213000124B23604B232371114B2361597861713A
:102140001A78521A010091404A42E2809B78237229
:10215000984009F053F8011CFE20800508F06CFB44
:10216000E060CEE7FFFF0000DC02002078070020DF
:10217000042000000820000060070020CC29002077
:10218000A401002070B504000D000021122005F00C
:1021900083FA2A002100044804F0CDF9012112201D
:1021A00005F07AFA70BDC0468827002070B504009B
:1021B0000D000121252005F06FFA0021242005F0F3
:1021C0006BFA0D4804F0DEF80121200001F0C8FD93
:1021D0000121132005F060FA012005F0A5F829007F
:1021E000200001F06FFC2900200001F071FC0121AA
:1021F000202005F051FA70BD40E5000010B5040044
:1022000001F060FC0F49200001F0B0FC002120200B
:1022100005F042FA0021132005F03EFA012005F0F6
:1022200083F8094804F0AEF80021200001F098FD81
:102230000021252005F030FA0121242005F02CFA98
:1022400010BDC046D800002064E500008122920045
:10225000835801338350043A8218934217D0812364
:102260009B00C358197082239B00C35A80218900A8
:102270008B4210D0591C822292008152002B04D133
:1022800081239B00C258043BC25001207047812328
:102290009B00C050E3E74358013343509A4201D0BA
:1022A0000020F3E74050FBE7134A83580133835083
:1022B000043A8218934213D00F4BC35819700F4B36
:1022C000C35A802189018B420DD0591C0B4A81527F
:1022D000002B03D1084BC258043BC2500120704769
:1022E000054BC050E8E74358013343509A4201D0B0
:1022F0000020F4E74050FBE7042000000820000025
:1023000010B503000C4A825A002A0FD08024A40181
:102310000059411C195100781C19A14202D3802197
:1023200089015B50013A04495A5210BD8022920142
:1023300083581878F9E7C046082000000A00822375
:102340009B00C35A8B420CD980239B00C158091AA9
:102350008918CB17DB0DC918C905C90DC91A405C0E
:10236000704781239B00C3581878F9E710B5030024
:1023700082229200825A002A10D08024A4000059A0
:10238000411C195100781C19A14202D380218900F7
:102390005B50013A822189005A5210BD802292007E
:1023A00083581878F9E7000070B5040082239B0079
:1023B000C35A002B40D080239B00E3581B78C02BCE
:1023C00008D082239B00E35A002B03D02000FFF7A4
:1023D000CDFFF0E782239B00E35A022B0FD9802325
:1023E0009B00E3581B78C02B09D101212000FFF787
:1023F000A5FFC02803D12000FFF7B8FFEFE70125B4
:1024000082239B00E35AAB4207DDA9B22000FFF70D
:1024100095FFC02802D00135F2E70125012D06D035
:1024200001352900054803F0ADFF280070BD0448C0
:1024300003F0A8FF0025F8E70025F6E7A4E5000073
:1024400088E500000A000A4BC35A8B420CD980234E
:102450009B01C158091A8918CB17DB0CC918C9048C
:10246000C90CC91A405C7047024BC3581878FAE788
:10247000082000000420000070B50400214BC35A5E
:10248000002B3DD080239B01E3581B78C02B07D045
:102490001C4BE35A002B03D02000FFF731FFF1E77C
:1024A000184BE35A022B0FD980239B01E3581B786A
:1024B000C02B09D101212000FFF7C4FFC02803D1A0
:1024C0002000FFF71DFFEFE701250E4BE35AAB425B
:1024D00007DDA9B22000FFF7B5FFC02802D0013503
:1024E000F3E70125012D06D001352900064803F048
:1024F00049FF280070BD054803F044FF0025F8E7B8
:102500000025F6E708200000A4E5000088E50000AB
:1025100010B502490120FFF7F1FD10BDFFFF0000DB
:1025200070B582B00121202005F086F801210E202F
:1025300005F082F801210F2005F07EF8002110201F
:1025400005F07AF80121252005F076F801212420F4
:1025500005F072F80121132005F06EF801210C201E
:1025600005F06AF801210A2005F066F8002127200D
:1025700005F062F80121052005F05EF80021022037
:1025800005F05AF80021072005F056F80121122025
:1025900005F052F80021082005F04EF80021252012
:1025A00005F07AF80121242005F076F800211320A7
:1025B00005F072F80021052005F06EF801210C20CD
:1025C00005F06AF801210A2005F066F8404804F099
:1025D00069FBE12109023F4805F0FEFF3D4805F097
:1025E000FDFF0028FAD0E12636023B4D31002800DD
:1025F00005F086FC394C3100200005F081FC38499B
:10260000344805F02BF93749280005F027F93649F9
:10261000200005F023F9354803F0B4FE344C2000C7
:1026200004F054F83349009100256B465D711D712B
:10263000019A200003F05AFF2F4C6C220021200049
:102640000AF0DFFE2C23E5542C4B6360A36130239A
:102650000122E2542A4B63632A4B636558231332E9
:10266000E254200001F092FB274D2900200001F0E8
:1026700029FA264803F086FE616B254803F082FEA6
:102680006168244803F07EFEA169234803F07AFEC6
:1026900001F036FD0100214803F074FE204E33693D
:1026A0005B681978300004F00FFD08F0A7FDF168B1
:1026B00008F08CFA0AF01EFC02000B00194803F027
:1026C00061FE2900200001F051FA02B070BDC04641
:1026D000CC2900204837002030310020342E002043
:1026E000C0E50000CCE50000DCE50000ECE5000002
:1026F00088270020404B4C00E8040020400ECF19F2
:10270000006CDC0285210000D800002004E60000F7
:1027100020E6000038E6000058E6000078E60000F9
:102720006007002088E6000030B5704CA544704872
:1027300005F042FD00283CDC6E4805F03DFD002818
:1027400049DC6D48FFF730FE82B26C4B1A80002ADC
:1027500052D16B48FFF790FE80B26A4B18806A4BEB
:102760001B78002B1CD0002850D1644B1B88002BF9
:1027700016D1644B1B88002B12D1634B00221A70B8
:10278000624801F043FB0028FAD1604C200001F0C0
:10279000C5FA5F492000FFF731FD5E4803F0F2FD06
:1027A000594B1B78002B00D16DE0C3239B009D4447
:1027B00030BD4F4805F0BFFDC1B24F4C2000FFF7C0
:1027C00045FD82239B00E25A083B9A42B4D152480D
:1027D00003F0D8FDB0E7474805F0ADFDC1B2484C65
:1027E0002000FFF761FD4D4BE25A083B9A42A8D109
:1027F0004B4803F0C7FDA4E73F4C444B4049200041
:1028000002F0E6F92000FFF7CFFDA2E7454803F00C
:10281000B9FD00243B4B1B88A34206DD3848FFF777
:102820006FFD41AB18550134F4E73F4803F0AAFDB2
:10283000344B198801AA41A802F07AFA05003B48F6
:1028400003F0A0FD00246B1EA3420BDDC2AB1B19DD
:10285000374A944663441A782100364803F092FDC3
:102860000134F0E7344803F08DFD013DABB26A4618
:1028700005322749254801F059F9244801F0C6FAE4
:102880000028FAD171E72D49204801F08FF900287E
:1028900013D11C4B1B88002B00D186E71A4B012259
:1028A0001A701A4C200001F039FA19492000FFF77C
:1028B0007DFC234803F066FD77E7204C80239B00D6
:1028C000E15A41AA200002F011FA02002378002BFD
:1028D00005D0074803685B6841A9984765E7054844
:1028E00003685B6841A998475FE7C046F4FCFFFFB7
:1028F000342E002030310020DC020020540500205E
:10290000780700205605002074070020E804002006
:10291000D80000206CE70000A0E6000008200000BE
:10292000B8E60000D0E6000014E7000024E700004D
:10293000FDFCFFFF3CE7000054E7000058050020C5
:1029400088E7000000230F2805D90E2B03D8400884
:102950000133DBB2F7E70001C0B218437047020051
:1029600000231F2A05D9062B03D852080133DBB2F6
:10297000F7E75B01D8B2D2B21043704710B503221B
:10298000282101F095FA10BD10B50422282101F08C
:102990008FFA10BDF0B5DE4657464E464546E0B5C7
:1029A00083B004008A4693461F00C821180007F030
:1029B00073FBCDB2FF23194089467E1AB6B2C82FE9
:1029C00057D9002398462A21200001F049FBC0B2C4
:1029D000EC235B1B9842F6DC53469A780E23134097
:1029E000042B49D062236A4613702A3B5370343B50
:1029F0009370A633D37004226946200001F04EFB89
:102A0000E1236A461370DC3B537013339370332217
:102A10006B46DA70552369460B714A718B71072238
:102A2000200001F03BFB53469A780E231340042B01
:102A300005D053465B7C002B01D1FE2F2BD9E1231F
:102A40006A4613706B1C53700123424613436A4657
:102A5000937003226946200001F020FB4A46594644
:102A6000200001F01BFB5D442F002000FFF78CFFCE
:102A700046E002239846A6E75E336A4613702A3B77
:102A800053702F3B93707533D37004226946200036
:102A900001F004FBC7E7E1236A461370AB1C5370D7
:102AA0000123424613436A4693700137D7700422CC
:102AB0006946200001F0F2FAD0E7F5B20223984609
:102AC00000262A21200001F0CBFAC0B2F6235B1BBE
:102AD0009842F6DCE1236A4613706B1C53706B4618
:102AE00042469A7003226946200001F0D7FAAAB242
:102AF0003900200001F0D2FA7F192000FFF744FFCF
:102B0000002E05D0C82ED8D9C83EB6B2C825D8E701
:102B100003B03CBC90469946A246AB46F0BD0000CF
:102B200070B582B004000D002A2101F099FA011E4F
:102B300001D102B070BD404803F024FC29212000DF
:102B400001F082F9010028703C4803F01BFC2B784F
:102B5000752B17D8522B07D3523BDAB2232A67D8EA
:102B60009300374AD3589F46312B09D129212000A1
:102B700001F06AF903B233481843A8800220D8E76D
:102B80000120D6E7E12B55D1DF3B01AA2921200006
:102B900001F016FA6B461A79531EEB806B465B798F
:102BA0002B7129000831200001F096FAE8880330E3
:102BB00080B2BEE72921200001F052FAA88002204D
:102BC000B7E7022301AA2921200001F0F9F96B4699
:102BD0001B792B716B465B796B710320A9E7292167
:102BE000200001F04BFA68600420A2E729212000B0
:102BF00001F044FA030202D5FF231B061843686064
:102C0000042096E72921200001F038FA68600420AA
:102C10008FE701AE032332002921200001F0D0F913
:102C200033782B7173786B71B378AB71042080E7C4
:102C300001207EE701207CE7A4E70000C4E7000054
:102C4000D4E7000000FFFFFF70B5050000241D2140
:102C5000280001F0F9F8C30701D40134F7E7210097
:102C6000014803F08FFB70BD64E8000010B500213F
:102C700001F0EAF810BD10B5012101F0E5F810BD32
:102C800010B5017060220A43D2B2022101F010F99E
:102C900010BD000070B505000C000A78102101F08D
:102CA00007F96378DB0702D5237A002B1FD16278FE
:102CB0001121280001F0FCF8237A002B04D0A2781F
:102CC0000E231340042B1AD1A2781221280001F000
:102CD000EFF8A2780E231340022B1AD000221549D8
:102CE000280001F0E5F8237A002B18D170BD1248B6
:102CF00003F048FB6378012293436370D7E70F48E2
:102D000003F040FBA3780E22934304221343A370E5
:102D1000DAE706220749280001F0CAF8E3E71322A0
:102D20001821280001F0C4F862221921280001F0BE
:102D3000BFF8DBE7720F000080E80000BCE800008D
:102D400010B504000E4B1A78212101F0B1F80D4B9B
:102D50001A782221200001F0ABF80B4B1A782321BE
:102D6000200001F0A5F8094B1A782521200001F078
:102D70009FF8074B1A782621200001F099F810BD22
:102D800004000020020000200100002000000020BC
:102D900003000020F0B5C64600B582B005000191E1
:102DA000904610000AF080F80022124B09F018FA41
:102DB00006000F00686B08F067FA0AF09BF8020043
:102DC0000B003000390008F005FE07F03FFA440020
:102DD000012004436B4699882200280001F0A2F8E4
:102DE00022004146044803F0CDFA200002B004BCA2
:102DF0009046F0BD00006041F0E8000010B504000E
:102E00004268002A03D1A269002A05D110BD3421ED
:102E1000FFF7C0FFA060F6E73C212000FFF7BAFFF4
:102E2000E061F3E770B504000E00127A022A1BD0AD
:102E30000025012B1AD0022B1CD032783021200023
:102E400001F036F872783121200001F031F82A00C3
:102E50003221200001F02CF86B070FD528220A49F7
:102E6000200001F025F870BD0425E2E720231D4372
:102E7000EDB2E2E710231D43EDB2DEE7082202497E
:102E8000200001F015F8EEE7340F000070B50500E2
:102E9000002924D0C06D0AF007F8124A124B09F03D
:102EA0009FF907F0D3F90600286E09F0FDFF0D4ADF
:102EB0000D4B09F095F907F0C9F90400002E00D177
:102EC0000136002C00D10134F2B26C21280000F050
:102ED000EFFFE2B26E21280000F0EAFF70BD01248E
:102EE000F7E7C0467B14AE47E17AE43FF8B5CE463B
:102EF000474680B504000D000B8B9946CF8A180019
:102F000008F0C2F98F21C90507F060FE061CE86BC6
:102F100008F0BAF9311C07F059FE061C4023984608
:102F2000E05C08F06BF9311C07F050FE061C606B8A
:102F300008F0AAF9011C301C07F07EFC09F0DAFF4A
:102F40000022274B08F0DCF907F080F986B28921CE
:102F500032004900200001F05FF832004946214864
:102F600003F010FA380008F08FF98F21C90507F037
:102F70002DFE061CE86B08F087F9311C07F026FED1
:102F8000061C4346E05C08F039F9311C07F01EFED0
:102F9000061C606B08F078F9011C301C07F04CFC33
:102FA00009F0A8FF00220E4B08F0AAF907F04EF92D
:102FB00086B2882132004900200001F02DF832004D
:102FC0003900094803F0DEF94D23EA5C8A21490003
:102FD000200001F021F80CBC90469946F8BDC0468F
:102FE0000000E03F04E9000020E9000070B50500A2
:102FF0000C000A8F8021490001F00EF8A16B2048D7
:1030000003F0C0F9E36BDAB281214900280000F037
:103010004FFF0421226CFF31280001F00BF88321BF
:1030200000224900280001F005F880221204636C98
:103030001A430A21FF31280000F0FCFF22780F23F9
:103040001340082B09D8072B09D24C23E25C162128
:10305000FF31280000F02CFF70BD0A2BF5D1A36CC6
:103060009AB286214900280000F0D6FFA36CDA430B
:1030700092B287214900280000F0CEFFE5E7C04664
:1030800040E90000F8B505000C00160053781B015C
:103090000022B2560F273A401A43D2B200F008FF7E
:1030A000611C89B28422280000F002FFA11C89B2B1
:1030B0000022280000F0FCFEE11C89B2002228005A
:1030C00000F0F6FE7068FFF73DFC0200211D89B29A
:1030D000280000F0EDFEB068FFF734FC0200611D2F
:1030E00089B2280000F0E4FE737B9B010C22B256EB
:1030F0003A401A4352B2D2B2A11D89B2280000F060
:10310000D7FEB27BE11D89B2280000F0D1FEF27B30
:103110002100083189B2280000F0CAFE327C21006B
:10312000093189B2280000F0C3FE727C21000A3107
:1031300089B2280000F0BCFEF27CB37C1A43210067
:103140000B3189B2280000F0B3FEB28A21000C31A5
:1031500089B2280000F060FF21000E3189B21622EA
:10316000280000F0A5FE0F34A1B20022280000F0D4
:103170009FFEF8BDF8B504000F8BCE8A380008F02A
:1031800083F89121C90507F021FD051C606B08F04B
:103190007BF8011C281C07F04FFB09F0ABFE002256
:1031A0001A4B08F0ADF807F051F885B289212A00D2
:1031B0004900200000F030FF2A003900144803F0D5
:1031C000E1F8300008F060F89121C90507F0FEFC35
:1031D000051C606B08F058F8011C281C07F02CFB3C
:1031E00009F088FE0022094B08F08AF807F02EF853
:1031F00085B288212A004900200000F00DFF2A0036
:103200003100044803F0BEF8F8BDC0460000E03FBE
:1032100054E9000070E9000010B5002806D001282C
:1032200006D0044803F0AEF8012002E0012000E0DF
:10323000022010BD90E90000F0B585B004000D003B
:10324000CB7803221A40B021490000F031FE4C2314
:10325000E05CFFF7E1FF04220243D2B2B221490051
:10326000200000F025FE2A780F231340082B24D9D4
:103270000A2B68D1AF8A380008F006F89721C905F3
:1032800007F0A4FC09F036FE5B4A5C4B08F0A8FF8F
:1032900002900391606B07F0F7FF09F02BFE02002C
:1032A0000B000298039908F095FB0022544B08F09C
:1032B00027F806F0CBFF060002E0072B45D20026D8
:1032C00062213200FF31200000F0B4FE32003900EC
:1032D0004C4803F057F8686807F0D6FF9721C905F6
:1032E00007F074FC061C606B07F0CEFF011C301C5D
:1032F00007F0A2FA09F0FEFD0022414B08F000F8A9
:1033000006F0A4FF060066210200FF31200000F055
:1033100091FE320069683C4803F034F8636B5B0946
:103320006A689A423CD2266D0021301C06F01EFFCE
:10333000002839D0EF68391C301C06F017FF002830
:1033400033D03E1C31E00026BAE7686A09F0D2FDAE
:1033500000222B4B08F044FF06000F00686809F0BC
:10336000A3FD32003B0008F03BFF06F06FFF0700B3
:1033700007F08AFF9721C90507F028FC061C606B3F
:1033800007F082FF011C301C07F056FA09F0B2FD6D
:1033900000221B4B07F0B4FF06F058FF06008FE732
:1033A0001A4802F0EFFFBEE7EE688B21C905301C1A
:1033B00007F00CFC09F09EFD0022114B07F0A0FF66
:1033C00006F044FF80B2061C80235B01984201D3C3
:1033D0000F4B1E1CB6B2B52132004900200000F090
:1033E0001BFEE86809F086FD02000B000096094804
:1033F00002F0C8FF05B0F0BD977329AE2A7BEB3F02
:103400000000E03FACE90000C4E90000DCE9000096
:10341000FF0F000020EA000010B50400C02199222F
:10342000490000F045FD84210322FF31200000F017
:103430003FFD636BD90AA166014802F0A3FF10BDEE
:1034400034EA000070B504003023C55C002D15D1AE
:10345000018F002912D003290AD008291CD00B00A3
:10346000093B9BB21E2B13D80839CDB26D00EDB2CB
:10347000C2212A004900200000F01AFD1A4B626B9D
:103480009A420DD83023E35C012B07D0032208E0D9
:10349000164802F077FFEBE70125E9E7042200E098
:1034A0000D22F1210901200000F002FD3023E35C30
:1034B000012B11D007220E49200000F0F9FC0D4B22
:1034C000626B9A420AD840230122E2540F320A4921
:1034D000200000F0EDFC70BD0022ECE7402302224A
:1034E000E2540F32F3E7C046C020900254EA0000D5
:1034F000110F0000FF6A7A01350F000010B50400BB
:10350000C4210F22490000F0D3FC8A217722FF3129
:10351000200000F0CDFC10BD70B504000D00B023FC
:10352000CB5C5B0120221A4001231A4352B2D2B273
:103530008021890000F0BCFC6B7C002B0FD00022A6
:103540000C49200000F0B4FC6A7C0B49200000F01C
:10355000AFFCFF220949200000F0AAFC70BD8022C8
:103560000449200000F0A4FC00220349200000F0E0
:103570009FFCEEE7010200000202000003020000CF
:1035800070B504000D008A780E231340042B23D05D
:1035900086211A4A890000F03FFD87218A2289008E
:1035A000200000F085FCB123EA5C1549200000F002
:1035B0007FFC8421134A8900200000F0B3FC8521A0
:1035C0001F228900200000F073FCB223EA5C0E4940
:1035D000200000F06DFC70BD86210C4A890000F0CF
:1035E0001BFD87218A228900200000F061FCB123A5
:1035F000EA5C0349200000F05BFCECE75555000055
:103600001E02000033553355160200007E7E000076
:1036100070B504000D001600B423C85AFFF79FF9D7
:10362000020088218900200000F042FCB623E85AFD
:10363000FFF795F902003949200000F039FCB82362
:10364000E85AFFF78CF902003549200000F030FC01
:10365000BA23E85AFFF783F9020089218900200084
:1036600000F026FC00222F49200000F021FCBC23A2
:10367000E85AFFF774F902002B49200000F018FC0B
:10368000BE23E85AFFF76BF902002849200000F03A
:103690000FFCC023E85AFFF762F902008A21890073
:1036A000200000F005FC002E07D0B068FFF757F9A6
:1036B00002001F49200000F0FBFBC423E85AFFF77B
:1036C0004EF902001B49200000F0F2FB002E04D04E
:1036D000327B1949200000F0EBFB00221749200043
:1036E00000F0E6FB8C210C228900200000F0E0FBBA
:1036F000B323EA5C1249200000F0DAFB5823E25CB5
:103700001049200000F0D4FB5923E25C09231A433E
:10371000D2B20D49200000F0CBFB70BD21020000A9
:1037200023020000250200002602000027020000FC
:10373000290200002A0200002D0200002F020000D2
:1037400031020000320200003302000010B5040014
:1037500000291CD0406B07F097FD09F0CBFB00223D
:103760000B4B08F037F906F071FD020080235B0275
:10377000984200D3074AD2B2C5218900200000F048
:1037800097FBC42111228900200000F091FB10BD9D
:1037900000008440FFFF000010B50400CC210C2283
:1037A000890000F085FB6423E25C0249200000F000
:1037B0007FFB10BD3203000070B504000D00032232
:1037C0001D4900F075FB07221C49200000F070FB2A
:1037D000C723EB5C012B19D05C221949200000F0B3
:1037E00067FB53221749200000F062FB762216493E
:1037F000200000F05DFB92221449200000F058FBED
:1038000025221349200000F053FB70BD68220C49AB
:10381000200000F04DFBFF220A49200000F048FB89
:1038200084220949200000F043FB98220749200028
:1038300000F03EFBE4E7C0460D0F00001C0F000047
:10384000210F0000220F0000230F0000260F0000B0
:10385000440F000070B504000D001600FFF71AFABF
:103860002000FFF76DFA31002000FFF70FFB290061
:103870002000FFF7BBFB2B7C002B2FD01821FF2251
:10388000FF31200000F014FB2A009832A8214900E3
:103890002000FFF7F7FB29002000FFF7CDFC2000F8
:1038A000FFF7BAFD2000FFF729FE29002000FFF7EF
:1038B00033FE29002000FFF763FE320029002000BC
:1038C000FFF7A6FE31002000FFF740FF2000FFF7C2
:1038D00063FF29002000FFF76FFF70BD1821F4225D
:1038E000FF31200000F0E4FA2A0050329021490014
:1038F0002000FFF7C7FB2A0068329821490020000A
:10390000FFF7C0FB2A009832A82149002000FFF7EA
:10391000B9FBC0E770B504000D002C23C35C021D89
:103920000C49FFF77FFA2A780F2313400A2B0BD09C
:10393000F0210F220901200000F0BAFA0622064900
:10394000200000F0B5FA70BD29002000FFF712FC3E
:10395000EEE7C04608000020180F000070B5040014
:103960000D002C23C35C021D0C49FFF75BFA2A787B
:103970000F2313400A2B0BD0F0210F220901200046
:1039800000F096FA02220649200000F091FA70BD7C
:1039900029002000FFF7AAFAEEE7C0460800002041
:1039A000180F0000F8B504000D001700127C002A63
:1039B00030D07A7C7A743A7A002A05D11A4A39686A
:1039C000914229D802223A723A0018492000FFF7A2
:1039D00029FA7A7C10231A43D2B22900200000F081
:1039E00067FA2900200000F02FFA06000100C30644
:1039F000F7D420231C00044003420FD10C4802F0EE
:103A0000C1FC0F231E407E740E3B3B743B68FB6081
:103A10002000F8BD0822CDE70122D4E7054802F0D6
:103A2000B1FC0124F4E7C0463FDD4A1F0C00002032
:103A300094EA000080EA000070B50400204802F01B
:103A4000A1FC636C002B00D0984705212000FFF7F4
:103A500017F92000FFF7D2F9C0219B22490020006E
:103A600000F026FA2000FFF7EFF82C26A35D221DB8
:103A700033212000FFF796FF0500A35D22001832D6
:103A80003B212000FFF78EFF060000212000FFF7FA
:103A9000F7F8A36C002B00D09847002D02D0636884
:103AA000002B06D1002E06D0A369002B05D00120E3
:103AB00070BD0120FCE70020FAE70020F8E7C046CF
:103AC000B0EA000010B50A00203200F053FE10BD2D
:103AD00070B504000D002023CB5C512B03D011489E
:103AE00002F050FCFEE7104802F04CFC00222900D6
:103AF0002000FFF7AFFE29002000FFF70BFF636CEB
:103B0000002B00D098472000FEF738FF0D21200041
:103B1000FFF7B6F82000FFF797F8A36C002B00D052
:103B2000984770BDCCEA000004EB0000F8B5070030
:103B30000C0015001E0003780D2B0FD10321380057
:103B400000F082F90307F9D533002A00210038007C
:103B5000FEF720FF034802F015FCF8BD024802F012
:103B600011FCFAE750EB00001CEB000070B50400FC
:103B70000D002023CB5C512B03D00B4802F002FC3C
:103B8000FEE70022FFF766FE09212000FFF778F824
:103B900029002000FFF7E2FE636C002B00D098475D
:103BA0002000FEF7EBFE70BDCCEA0000F0B5CE467B
:103BB000474680B5C5B0050088465823C35C1E271C
:103BC0003B409E3F1F43FFB2002400264FE03129B7
:103BD0001ED0522945D102AB9A885001801A80002C
:103BE0008018000107F00AFBDE21890506F0EEFFD0
:103BF00009F080F902000B003F4802F0C3FB0223EA
:103C00001C43E4B213E03D4802F0BCFB00206EE030
:103C100002AB0421595E3A4802F0B4FB02AB042225
:103C20009A5E384B4146CA5210231C43E4B2BC4250
:103C30001DD101205BE0039B01931900324802F083
:103C4000A1FB039A81239B004146CA5004231C43D5
:103C5000E4B2ECE72D4802F095FB08231C43E4B2E4
:103C6000E5E72B4802F08EFBE1E7002E3ED002A9EB
:103C70002800FEF755FF0028F7D002AB197873290A
:103C8000D9D0A4D97429E5D0E129EAD102ABDB88E7
:103C9000994602AB19791F4802F074FB49461E4849
:103CA00002F070FB002E03D102AB1B79DB07BED5FF
:103CB0004B469B19802292009342A4DC43469819FC
:103CC0004A46092102AB9C46614409F091FB4E44EF
:103CD000B6B202AB1B799B07A9D580239B00424655
:103CE000D65280235B421C43E4B2A0E7002045B0DB
:103CF0000CBC90469946F0BDB8EB000088EB000084
:103D000094EB000002020000A4EB0000CCEB0000EA
:103D1000DCEB00006CEB00007CEB000010B5040055
:103D20001C21200000F090F80F2318400428F7D041
:103D30000628F5D00728F3D000212000FEF7A0FFC9
:103D4000014802F01FFB10BDFCEB000010B50A009B
:103D5000024B1970232100F0ABF810BD01000020C8
:103D6000F8B505004C27C155B2267600310000F0A9
:103D70006BF803239843C4B2E85DFFF74DFA0443A0
:103D8000E2B23100280000F093F8F8BD70B50400ED
:103D9000436D002B2FD0FEF76EFF05000100174882
:103DA00002F0F0FAC52D1CD12000FEF75FFF0500E0
:103DB0000100134802F0E6FA512D17D180220221AA
:103DC000200000F075F800212000FEF759FF2000C8
:103DD000FFF738FB2000FFF72FFE002805D0052055
:103DE00003E0084802F0CEFA022070BD064802F057
:103DF000C9FA0320F9E70420F7E7C04610EC0000F9
:103E000038EC000020EC000050EC000010B51C2144
:103E100000F01AF80F23184010BD000010B582B052
:103E20000B127022134301AC23706170FF23A37047
:103E3000436D0321200098470022024B1A80A0788E
:103E400002B010BD8427002010B582B0702914D8AC
:103E50007F23194001AC217080336370436D0221D0
:103E60002000984706490A88FF231A4023781B023E
:103E700013430B80607802B010BDFFF7CFFFFAE765
:103E80008427002010B582B00B12102464421C431A
:103E900001AB1C7059709A70426D03211800904755
:103EA0000020024B188002B010BDC04684270020BD
:103EB00010B582B0702913D880235B42194301AC3E
:103EC00021706270436D022120009847064A1388D2
:103ED000FF200340207800021843108002B010BD7C
:103EE000FFF7D0FFFAE7C0468427002010B582B064
:103EF0000C1210235B4223436C4623706170130E37
:103F0000A370130CE370130A23716271436D0621D1
:103F1000684698470020024B188002B010BDC0468A
:103F20008427002000B583B070291BD880235B4212
:103F300019436B461970130E69464B70130C8B7046
:103F4000130ACB700A71436D052168469847074AEA
:103F50001388FF2003406946087800021843108048
:103F600003B000BDFFF7C2FFFAE7C0468427002078
:103F700070B582B0060015001C00042B02D9002089
:103F800002B070BD0B12702213436A4613706B4669
:103F900051702200FF21981C09F033FA736DA11CA7
:103FA000C9B268469847054E0023338022006B460D
:103FB000991C280009F01CFA3088E1E784270020CA
:103FC00070B582B0050016001C00702903D9FFF7F8
:103FD000CFFF02B070BD7F2319406B4619702200DD
:103FE000FF21581C09F00DFA6B6D611CC9B26846BF
:103FF0009847084D2A88FF231A406B461B781B02FE
:1040000013432B8022006B46591C300009F0F0F955
:104010002888DEE78427002070B506000C00150014
:10402000120AFFF745FFEAB20134A1B23000FFF7F0
:104030003FFF70BD70B506000C001500120CD2B227
:10404000FFF736FF2A0AD2B2611C89B23000FFF7AF
:104050002FFFEAB20234A1B23000FFF729FF70BD92
:1040600000B583B0022301AAFFF7AAFF6B461B79B4
:104070001B026A465079184303B000BD10B582B0E8
:1040800001AC03232200FFF79BFF20780004637834
:104090001B021843A378184302B010BD30B5C1B05D
:1040A00005001400A9236A46137022006B46581CB1
:1040B00009F09EF96B6D0134E1B268469847054AF4
:1040C0001388FF20034069460878000218431080D7
:1040D00041B030BD8427002010B50C0029230B709F
:1040E000436DD1B220009847044B1A88FF2010403E
:1040F0001880227812021043188010BD84270020F7
:10410000014B18887047C0468427002070B5050011
:104110000C00406B07F0B8F8061C4023E85C6043D5
:10412000800007F0B1F8011C301C06F085FB05F09B
:104130007BFC08F0DFFE0022034B07F0E1F806F0FD
:1041400085F8C0B270BDC0460000E03FF8B506007B
:104150000F004023C05C08F077FEC022D205184B48
:1041600008F03EF804000D00380008F09DFE220023
:104170002B0008F035F804000D00706B07F084F890
:1041800008F0B8FE02000B002000290007F022FC16
:1041900008F0F8FE011CFE20800506F031FE05F057
:1041A0004DFC011CFE20800506F02AFE05F03CFCBB
:1041B00080231B069C46604406F030F8C0B2F8BD70
:1041C000FB216940012313720023537270470000E2
:1041D000F0B5D646474680B583B082460E0017003C
:1041E0000A780F231340082B25D8072B28D2012B40
:1041F00001D9042B3AD17368FB60FB689900C91898
:104200003961924802F0BEF832780F231340082B30
:1042100033D8072B00D3F3E0012B01D9042B2FD186
:1042200073688B4A944663447B618A4A93422CD8D4
:10423000894B7B6129E00A2B18D18B8AFB60DCE774
:104240004B689846786808F055FE844A844B07F01E
:1042500057F804000D00404608F026FE22002B000F
:1042600007F0BEFF05F0F2FFF860C6E77D4802F0F8
:1042700089F873689B00FB60BFE70A2B00D1BFE0A1
:10428000794802F07FF8FB687B617C69200006F0CA
:10429000FBFF051C4023984653464246985C06F0B7
:1042A000ADFF291C06F092FC9321C90506F08EFC97
:1042B000051C5346586B06F0E7FF011C281C06F04E
:1042C000BBFA08F017FE0022684B07F019F805F05A
:1042D000BDFF0200B8612100654802F053F8534663
:1042E000586B06F0D1FF08F005FE04000D005346A0
:1042F0004246985C08F0A8FD00225E4B07F070FF74
:1043000000900191386908F0CFFD009A019B07F0F9
:1043100067FF02000B002000290007F05BFB002272
:10432000524B06F0EDFF05F091FFF8617F2800D9B0
:1043300074E0F969504802F025F85346586B06F0CE
:10434000A3FF8621C90506F041FC041C4023524608
:10435000D05C06F099FF051C706806F095FF291CDB
:1043600006F034FC051CF86906F08EFF291C06F0E7
:104370002DFC011C201C06F05FFA08F0BBFD00229A
:104380003A4B06F0BDFF05F061FF0200386271682C
:104390003A4801F0F7FFF369002B02D1FA239B00A2
:1043A000F361F06906F070FF9721C90506F00EFC75
:1043B000041C5346586B06F067FF011C201C06F0D6
:1043C0003BFA08F097FD0022284B06F099FF05F014
:1043D0003DFF02007862F169294801F0D3FF32788D
:1043E0000F231340082B1FD8072B1FD28023BB623B
:1043F0002C230022FA5403B00CBC90469A46F0BD20
:10440000FB689800C018062105F0C0FD78611D4BBF
:10441000984200D939E71C4B7B6136E77F23FB616B
:104420001A4801F0AFFF84E70A2BDFD118497868FA
:1044300006F0CCFB05F0F2FE01239843B862C143BD
:104440000904090C134801F09DFFD1E7A8EC000016
:10445000581B0000A3240000A4240000ABAAAAAAB1
:10446000AAAAEA3F70EC0000C0EC00000000E03FA8
:10447000F8EC00000000304038ED00004CED00008A
:1044800068ED00006B0C00006C0C000018ED0000E3
:104490000000824388ED0000F0B583B004000F00F7
:1044A0001600406B06F0F0FE051C7B684022A05C05
:1044B0005843F3695843400106F0E6FE011C281CEE
:1044C00006F0BAF9051C05F0AFFA011C06F018F861
:1044D00005F0A4FEC4B22D23F454281C08F00AFDF4
:1044E00002000B000094024801F04CFF03B0F0BD45
:1044F000A4ED0000F0B5D6464F464646C0B50700CD
:104500000E001400984608AB1D784968FFF71EFEA0
:104510002070C31DDBB26370022D0CD0032D58D068
:104520002378082B01D90823237063780E2B05D933
:104530000E23637002E00F2363702370217862788A
:104540006D4801F01FFF002D48D0012D49D11023E7
:104550009A464346186A06F097FE8146504606F092
:1045600093FE011C484606F067F905F057FE6060AF
:1045700043461B6A614A94466344984234D2616858
:104580005F4801F0FFFE002D33D0012D34D1802390
:104590005B009A464346186A06F076FE814650460E
:1045A00006F072FE011C484606F046F905F036FE9C
:1045B0000100A060534801F0E5FE33780F2211009E
:1045C00019401A421CD004291AD0032363732373A1
:1045D0001AE00230207002336370A1E704239A4688
:1045E000B7E720239A46B4E76360474801F0CAFE64
:1045F000C5E780239A46CDE780239B009A46C9E70A
:1046000003236373002323730F23A3731033E37314
:104610003278103B1340082B04D8072B04D2736860
:10462000990002E00A2BFAD171683800FFF76EFD9D
:104630000700AB1E012B2ED9337A002B00D0023796
:104640000D2F00D90D273900304801F09BFEFFB235
:104650002774677433780F22110019401A421CD056
:1046600004291AD00023E3740633A37432780F238D
:104670001340082B1FD8072B1FD20023A382A18A27
:10468000234801F07FFE234801F07CFE1CBC9046CD
:104690009946A246F0BD071DCEE7C023E374012D65
:1046A00006D9AB1EDBB2012BE0D80823A374DDE7EB
:1046B0000223A374DAE70A2BDFD1022D05D8002DDF
:1046C00006D1DCD10023A382D9E7032DD7D1F9E7A6
:1046D000434658688621C90506F078FA08F00AFCB6
:1046E0000D4A0E4B07F07CFD00220D4B06F008FE34
:1046F00005F0ACFDA082C2E7C0ED000000F0FFFFB6
:1047000004EE000014EE0000E8ED000028EE0000CA
:1047100048EE00005CEE00009A9999999999E93F5A
:104720000000E03F90230021D154704791230A21DB
:10473000D15401331231D154704710B50023932165
:104740005354262401315452142002315052023164
:104750005452743410538830115206315352A033DE
:104760009B39D15204331431D15210BDA7230021FB
:10477000D1547047F0B583B006000D0014000A78DC
:104780000F231340082B06D00A2B48D0072B42D00A
:104790000023636001E04B696360606808F0AAFB76
:1047A00002000B00344801F0EDFD2200290030002A
:1047B000FFF708FD220029003000FFF709FD220065
:1047C00029003000FFF768FE2C4801F0DBFD2B7C50
:1047D000002B34D0220078320323009323002900D9
:1047E0003000FFF787FE220029003000FFF79AFF14
:1047F000220029003000FFF799FF22002900300035
:10480000FFF79BFF220029003000FFF7AFFF512385
:10481000237003B0F0BDFC239B056360BDE7888A6D
:1048200006F032FD011C05F06BFE071C686806F0FF
:104830002BFD011C381C05F0FFFF6060ADE7220076
:10484000303200230093230029003000FFF752FE8E
:104850002200483201230093230029003000FFF793
:1048600049FE220078320223009323002900300001
:10487000FFF740FEB7E7C04660EE00005CEE0000C8
:1048800010B50121132002F007FF0121202002F0C2
:1048900003FF0121052002F0FFFE9620800002F0B8
:1048A00043FD0021052002F0F7FE0021132002F055
:1048B000F3FE0021202002F0EFFEC82002F034FDBC
:1048C00010BD10B50121132002F0E6FE01212020C9
:1048D00002F0E2FE0121052002F0DEFEC82002F017
:1048E00023FD0021052002F0D7FE0021132002F055
:1048F000D3FE0021202002F0CFFEC82002F014FDDC
:1049000010BD000070B586B004000D00614B1A6840
:1049100000929A8869468A809B798B7111220021C6
:104920006B46D81D08F06DFD2178684609F056F9F0
:10493000684609F060F9060001212800FFF710FA27
:104940002800FFF723FA544C21002800FFF7BAF89B
:1049500084212800FFF7FAF90121252002F09CFEAE
:104960000021242002F098FE21002800FFF7B0F873
:10497000002404E0FFF7A5FFFFF782FF0134731E58
:10498000A34247DD6B46195D444801F0FBFC6B46D2
:104990001B5D413BDAB2382AF0D89300404AD35825
:1049A0009F46FFF76DFFFFF78CFFFFF78AFFFFF7CA
:1049B00088FFE3E7FFF764FFFFF783FFFFF760FF80
:1049C000FFF77FFFDAE7FFF75BFFFFF77AFFFFF7FD
:1049D00078FFD3E7FFF775FFFFF752FFFFF771FF8F
:1049E000FFF76FFFCAE7FFF74BFFFFF749FFC5E788
:1049F000FFF746FFFFF744FFFFF763FFFFF740FFB6
:104A0000BCE7FFF73DFFFFF75CFFFFF739FFFFF75C
:104A100037FFB3E7FFF774FB0100224C200001F0E1
:104A2000B1FC0021132002F037FE0021252002F006
:104A300033FE0121242002F02FFE84212800FFF7FD
:104A400085F900212800FFF78BF92800FFF79EF970
:104A5000154801F097FC154E31002800FFF732F899
:104A60004C23E95C124801F08DFC124801F08AFCED
:104A700031002800FFF77AF80F4801F083FCFFF7B8
:104A80003FFB0100200001F07DFC0C4801F07AFCA6
:104A900006B070BDE4EF0000100000207CEE0000C6
:104AA00000EF000078E6000094EE0000D80000203F
:104AB000A4EE0000B8EE0000D0EE0000E0EE000032
:104AC00010B582B00400094801F05CFC084B1A687C
:104AD00000929A8869468A809B798B714C7105484F
:104AE00003685B680722984702B010BDFCEF000026
:104AF00028F100003031002030B583B004000848B0
:104B000001F040FC6946074B08330A0021CB21C263
:104B10008C71054803685B680722984703B030BD75
:104B200004F0000028F100003031002010B504002E
:104B3000054801F027FC16220449200008F058FC23
:104B4000200009F058F810BD10F0000040F00000FF
:104B500010B50400054801F015FC0E2204492000A0
:104B600008F046FC200009F046F810BD58F000009F
:104B700048F0000010B5024801F004FC10BDC0462A
:104B800078F0000070B582B005000E000D4801F00D
:104B9000F9FB0D4B1A6900921B7D6A4613710B4C91
:104BA00023685B68052269462000984723685B6894
:104BB0003200290020009847C021200003F0E6FBC6
:104BC00002B070BD98F0000028F1000030310020E4
:104BD000F0B5C64600B5CCB006000C009046019377
:104BE000FDF7C4FB3000FDF7C1FB070001003A48A8
:104BF00001F0C8FB0A2F67D8BB00384AD3589F463C
:104C0000C0212000FDF750FB39002000FDF74CFBD0
:104C10000225454508DA3000FDF7A8FB0100200019
:104C2000FDF742FB0135F4E72D4801F0ABFB002511
:104C30002C4BE35AAB421EDDA9B22000FDF702FC6B
:104C400002002900284801F09DFB0135F0E73800FB
:104C5000FFF736FF0024EF2C06DC3000FDF786FB63
:104C600003AA10550134F6E73000FDF77FFB0199E8
:104C700003A8FFF747FE4CB004BC9046F0BD3800D7
:104C8000FFF71EFF3FA8FFF751FF01003FA8FFF706
:104C900079FF3000FDF76AFBEDE73800FFF710FF02
:104CA0003FA8FFF755FF01003FA8FFF76BFF30005B
:104CB000FDF75CFBDFE73800FFF702FFFFF75AFF65
:104CC0003000FDF753FBD6E73800FFF715FF300043
:104CD000FDF74CFBCFE7C046B0F00000FCF0000051
:104CE000C8F0000008200000E4F0000070B5C02308
:104CF00013700023012409E0651CDB2616550136DC
:104D00005655023401E01555013401338B420BDA5C
:104D1000C55CC02DF0D0DB2DF5D1651CDB2616550A
:104D2000023656550234F0E7601CC023135570BD9F
:104D3000F0B5D6464F464646C0B505008846924671
:104D400001290FDD4318013B1B78C02B14D1C13B57
:104D50009C46E0442B78C02B12D0002400239946B7
:104D6000002627E01F4801F00DFB002630001CBC88
:104D700090469946A246F0BD1B4801F003FBE9E7C7
:104D80000124EBE7194801F0FDFA19E0DB23524654
:104D900093550136002399460BE0154801F0F2FACD
:104DA0000023994605E03B78DB2B18D052469355FB
:104DB00001360134A045D9DD2F192B5DC02BE1D080
:104DC0004B46002BEFD03978DD29DFD0DC29E4D148
:104DD000C02352469355013600239946E9E7012343
:104DE0009946E6E740F1000068F100008CF1000010
:104DF000BCF100007047010000200A681378303BC6
:104E0000DBB2092B08D883001B185B00501C08601C
:104E10001078C0183038F0E77047F0B5DE465746D6
:104E20004E464546E0B583B093461F000C9B9A461C
:104E30000D9C0E9B99460F9B9B0724D10192A34684
:104E400088464E46B9460700B44207D2551C4B4629
:104E500041462020B84701342A00F5E73D004F467F
:104E60005C46019B9B46B1464646B84637002E003D
:104E7000002C0CD0013C551C5346185D43463900AC
:104E8000B0472A00F4E7B8460F000600F0E7350007
:104E90003E0047460F9B9B070ED5B0464E46B9468F
:104EA0002F005D46531BB34206D2541C4B4641466D
:104EB0002020B8472200F5E7100003B03CBC904624
:104EC0009946A246AB46F0BDF0B5D6464F4646469B
:104ED000C0B584B0944698460C9E0EAB1B789A469B
:104EE0000FAB1B789946109B119A129FBC0715D4E3
:104EF000002A08D0FC0706D55446002C02D10C34F9
:104F00003C4200D0013A0D9CFD0708D5944206D2E0
:104F10001F2C04D8302535550134F5E70D9C9C42F3
:104F200005D21F2C03D8302535550134F7E74D46FF
:104F3000082D2ED0324D2F4215D07D0505D4002CE2
:104F400003D09C422BD0944229D04B46102B34D016
:104F50004B46102B39D04B46022B3ED01F2C02D88B
:104F60003023335501341F2C05D85346002B3AD03B
:104F70002D23335501340397029201940096434642
:104F80006246FFF74AFF04B01CBC90469946A24611
:104F9000F0BD0D9DAC42CDD91025AF43CAE70D9BA6
:104FA0009C4200D9013C002CCFD04B46102BCCD1D9
:104FB0000D9B9C42C9D9013CC7E7BB06C8D41F2C36
:104FC000C6D8782333550134C8E7BB06C3D51F2C98
:104FD000C1D8582333550134C0E71F2CBED86033E5
:104FE00033550134BAE77B0703D52B2333550134FE
:104FF000C1E73B07BFD5202333550134BBE7C0468B
:1050000010100000F0B5DE4657464E464546E0B566
:1050100095B0834609910A920B931E9E1F9C20AB6C
:105020001B78984621AB1D783300234315D1249B70
:105030005B0508D40CAB30221A701023249A9A43D3
:105040002492012741E0102D01D000273DE01023DC
:10505000249A9A432492002737E00023994616E0C9
:105060003033DAB201234B449A460CAB49465A54CA
:105070002A0000233000210005F0B0F8A74223D811
:105080001BD053461F2B1DD8D14606000C00089597
:1050900000272A0000233000210005F09FF8D3B23A
:1050A000092BDDD9249A920605D54122D218D2B215
:1050B0000A3AD2B2D6E76122F8E7089BB342E0D9B8
:1050C000574602E0574600E05746249B0693239B31
:1050D0000593229B049303954346029301970CABDF
:1050E00000930B9B0A9A09995846FFF7EDFE15B0FD
:1050F0003CBC90469946A246AB46F0BDF0B589B09F
:10510000070005921E00DB0F037403D080231B06EB
:105110009C466644059D2800310005F0B5F80290D4
:105120000391029B039C3B607C601800210005F00A
:10513000E7F802000B002800310007F0BDFA0E9AD4
:10514000D200464B9B181A685B680692079307F0DB
:1051500047F804000D0005F097F800900191009ABF
:10516000019BBA60FB601000190005F0C9F802004D
:105170000B002000290007F09FFA04000D00002218
:10518000374B04F0B9FF00284CD001200021009AD1
:10519000019B12184B4110001900B860F96005F02E
:1051A000AFF802000B000698079904F09BFF002857
:1051B0000DD000220023BA60FB6001220023029878
:1051C00003998018594102000B003A607B600E9BE6
:1051D000002B24D13C687D682000290005F090F860
:1051E00002000B000598310007F066FA00221C4B04
:1051F0000090019104F06CFF002807D00022184BAA
:105200000098019904F078FF002808D00123234278
:1052100005D001220023A4185D413C607D60380068
:1052200009B0F0BD00220E4B2000290004F04AFF17
:105230000028CCD00099019A0B00134302D001231F
:105240000B42C4D001200021009B019C1B184C4143
:1052500018002100B860F960B9E7C046F8F3000013
:105260000000E03F84B0F0B5DE46574680B585B01B
:105270000C900D910E920F93169B9A46199F1A9EB1
:10528000002B62D081231B01189A1A409346103BD1
:105290009A420BD00E9A0F9B002B27DC01D1002ADB
:1052A00024D180231B019B4520D158E00E9A0F9BEF
:1052B000002B15DD0E9C0F9D0A22002320002900E3
:1052C00004F068FF1343E5D1013B9C46E2440A2207
:1052D00000232000290004F05DFF0E900F91E9E704
:1052E000002BD7D1002AE5D1D4E75E461F2E1AD86D
:1052F00001235B429C46E2440E9C0F9D0A22002340
:105300002000290004F046FF731C9B463032BA553A
:105310000A2200232000290004F03CFF0E900F9188
:105320000143E2D15E461F2E09D85346013B524647
:10533000002A04D03022BA559A460136F3E71F2ED0
:105340000DD82E23BB55013609E0189BDB0606D588
:105350001F2E04D82E23BB55013600E056461F2EC3
:1053600016D80C9C0D9D0A2200232000290004F071
:1053700011FF731C9A463032BA550A2200232000CE
:10538000290004F007FF0C900D910143E6D1564629
:105390000323189A1340012B1CD01F2E06D80CABE8
:1053A0001B7C002B2CD02D23BB550136189B03935F
:1053B000179B029301960097159B149A13991298C4
:1053C000FFF72BFD05B00CBC92469B46F0BC08BC19
:1053D00004B01847179B002B09D00CAB1B7C002B8B
:1053E00002D10C33134202D0179B013B1793179B3A
:1053F000B342D2D91F2ED0D83023BB550136F6E7A1
:10540000189B5B0703D52B23BB550136CEE7189BB2
:105410001B07CBD52023BB550136C7E7F0B593B0AA
:1054200004000D0016001F001A9B0093189A199B88
:105430000CA8FFF763FE1E9B0A931D9B09931C9B00
:1054400008931B9B07931A9B069305970496039555
:105450000294082210A9684607F0CAFF0C980D991B
:105460000E9A0F9BFFF7FEFE13B0F0BD82B010B591
:105470000292039302AB1B7A002B09D002000B00AF
:105480000298039906F0ACFE10BC08BC02B01847A5
:10549000029A039B06F09EFAF6E782B010B50292DC
:1054A000039302AB1B7A002B07D0029A039B06F0F2
:1054B00091FA10BC08BC02B0184702000B00029819
:1054C000039906F08DFEF4E782B0F8B50400069269
:1054D00007930A980B9906AB1B7A002B0ED0012379
:1054E000237202000B000698079906F079FE2060EF
:1054F00061602000F8BC08BC02B01847069E079DFA
:105500002A0D5205520D114B9C4662440B0D5B0552
:105510005B0D6344D717D2197A40DF17DB197B4044
:105520009A420ADD0023237202000B00300029009A
:1055300006F050FA20606160DBE70123237232003D
:105540002B0006F047FA20606160D2E701FCFFFF04
:10555000F0B5D646474680B58FB08046924616AE27
:1055600030CE01743700083708223900684607F04A
:105570003FFF189A736820002900FFF777FF04F0B7
:1055800083FE049005914146049A059B0A604B6096
:105590001000190004F0B4FE0690079108223900AB
:1055A000684607F025FF189A736806980799FFF771
:1055B00074FF02000B002000290007F07DF80400B2
:1055C0000D005346DA004F4B9B181A685B68069231
:1055D00007930292039308223900684607F008FFF8
:1055E000189A73680AA8FFF76FFF08220CA968468B
:1055F00007F0FEFE0A9A0B9B20002900FFF736FFFA
:1056000006000F005346002B2ED1002200234146F6
:105610008A60CB600124002500223B4B300039001A
:1056200004F074FD002801D100240025049A059B94
:1056300012196B4114001D0043461C605D6000227E
:10564000314B3000390004F03DFD002806D0012325
:1056500022009A43130042461360556040460FB043
:105660000CBC90469A46F0BD04F00EFE04000D00FE
:1056700004F046FE02000B003000390007F01CF871
:1056800006000F00012200230892099300221E4BFE
:1056900004F03CFD002803D1002200230892099366
:1056A000089A099BA4185D4143469C60DD60002276
:1056B000154B3000390004F005FD002806D0012309
:1056C00022009A43130042469360D560434698688F
:1056D000D96804F015FE069A079B04F017FD002810
:1056E000BCD00022002341468A60CB600124002503
:1056F000049A059B12196B4114001D000C604D604B
:10570000ACE7C046F8F300000000E03FF0B5DE462D
:1057100057464E464546E0B5A1B082468B46904678
:1057200012932A990D912B9E0024F30F99461393FF
:10573000002E03DA8021090673181E0000220023C0
:105740000D9D2800310004F0BDFC002800D0DAE0F7
:105750000D95300D4005400DD14A9446604432030A
:10576000120B2C00CF4B13431D0007F06DFBCE4AEC
:10577000CE4B06F035FDCE4ACE4B05F0C1FD0E9066
:105780000F910022CC4B2000290006F095FFCB4A58
:10579000CB4B06F025FD02000B000E980F9905F08B
:1057A000AFFD07F01BFB070007F04EFB04000D00E8
:1057B000C44AC54B06F014FD0022C44B05F0A0FD01
:1057C00007F00CFB0E90C24AC24B2000290006F0E5
:1057D00007FD04000D000E9807F036FBBE4ABF4BD4
:1057E00006F0FEFC02000B002000290006F064FF1A
:1057F00004000D0002000B0006F0F2FC1090119165
:105800000E9A1000D117B64A002312184B41120508
:105810000F9200220E9222002B002000290005F09A
:105820006FFD1490159122002B0000208021C905E6
:1058300006F042FF04000D000022AA4B10981199B7
:1058400006F0C8F80022A84B05F05AFD02000B0034
:105850001098119906F0BEF80022A44B05F050FDF7
:1058600002000B001098119906F0B4F802000B002A
:105870002000290005F044FD02000B001498159942
:1058800006F0A8F80022874B05F03AFD0E9A0F9B10
:1058900006F0A6FC04000D000E940F950D9A33003F
:1058A00004F02AFC002808D0013F00228E4B200083
:1058B000290006F08FF80E900F913B001133002461
:1058C00022229A426441E4B2222B19D8FB17FA181B
:1058D0005A40D200864B9B18186859681C901D913D
:1058E0002E9B1B0536D52C9B002B00D101233A1D86
:1058F0000BDB9F4209DA2C9B013BDB1B012507E0F8
:105900000E980F99EAE70027EAE72C9B013B002558
:10591000002B1DDB2C938023DB002E9A1A432E9242
:10592000002F00DB00241CAB1C72002D14D1002FB3
:1059300012D002A81022190007F05AFD0D9A330068
:10594000009201932C9A139916A8FFF701FE11E01B
:105950000023DFE70025E3E74B46002B03D080213F
:10596000090673181E002C9B00930D9A330016A88D
:10597000FFF7C4FB002D17D02E9B1B0524D57B1CE5
:1059800022DB1698179904F0BBFC7C1CE200584BF4
:105990009B181A685B6804F095FB002814D02C9BB8
:1059A000013B2C9327000FE0169A179B002B02DC7B
:1059B0000AD1092A08D90137012200231692179328
:1059C0000022002318921993002D05D13B00633368
:1059D000C62B5CD8042400E0002402232E9E1E4027
:1059E0002E9A134201D0002C53D12D9B9C4252D2AF
:1059F0001B1B309A0A922F9A09922E9A08920793AB
:105A00002C9B0693129B0593434604935B4603939A
:105A10005346029308221AA9684607F0E9FC169833
:105A20001799189A199BFFF71DFC0200002D61D1F0
:105A30002E9B9B0631D54520551C129B99465946F5
:105A4000D047F9177A184A4005230693013C05947C
:105A5000002304930A210391F80F0290009201930E
:105A60004B462A0059465046FFF7CCFA0200002E5A
:105A700040D057464646C8462D9D931BAB4239D26F
:105A8000541C434659462020B8472200F5E7052418
:105A9000A3E70023ADE70023ABE76520CCE7C046D2
:105AA00001FCFFFF0000F03FFB799F501344D33F00
:105AB000B3C8608B288AC63F0000F83F61436F631C
:105AC000A787D23F71A379094F930A400000E03FB6
:105AD0001655B5BBB16B0240EF39FAFE422EE63FD8
:105AE000FF03000000002C4000002440000018408C
:105AF000F8F30000100021B03CBC90469946A24645
:105B0000AB46F0BDF0B5DE4657464E464546E0B5DD
:105B100091B00500884691469A461A9E1B9F1C9C90
:105B20001FAB1B789B4632003B003000390004F06D
:105B3000C9FA002828D001225242544B30003900C3
:105B400004F0C6FA002834D101225242504B3000F2
:105B5000390004F0D1FA00283ED004231E9A1A40DE
:105B60001E990B4234D04B4B002A33D004221E998D
:105B700003911D9902910192009353464A46414672
:105B80002800FFF74AF90DE01E9B03931D9B02932B
:105B900003230193404B009353464A464146280055
:105BA000FFF73BF911B03CBC90469946A246AB4684
:105BB000F0BD1E9B03931D9B029304230193374B5F
:105BC000009353464A4641462800FFF726F9E9E785
:105BD000334BC9E70322CAE75B46002B21D10022E1
:105BE000304B3000390004F087FA002807D100223A
:105BF0002D4B3000390004F06BFA002811D000233F
:105C0000069308AB05931E9B04931D9B039302947C
:105C10000096019753464A4641462800FFF776FD15
:105C2000C0E71E9B5B0500D4062400231F2B07D86A
:105C3000112C05D908AA3021D154013C0133F5E7D4
:105C40005A46002A10D0069308AB05931E9B049376
:105C50001D9B039302940096019753464A46414682
:105C60002800FFF753FD9DE7069308AB05931E9BA5
:105C700004931D9B039302940096019753464A4652
:105C800041462800FFF7CAFB8CE7C046FFFFEFFF45
:105C9000FFFFEF7FF0F10000F8F10000FCF10000E1
:105CA000ECF1000065CDCD4165CDCDC1F0B5DE464E
:105CB00057464E464546E0B591B082468B469046E3
:105CC0000F93002912D0002655460F9B1878002804
:105CD00000D13DE325280CD0741C434632005946C0
:105CE000A8470F9B01330F932600EEE7C94B9A4656
:105CF000E9E701330F9300241BE00B00303BDBB2DC
:105D0000092B35D92A2938D0002399460F9B1A78B8
:105D10002E2A42D000270F9A1378683BD9B2122955
:105D20007ED88B00BC49CB589F4601231C430132CF
:105D30000F920F9A11780B00203BD8B21028DCD8B4
:105D40008300B648C3589F4602231C4301320F927A
:105D5000EFE704231C4301320F92EAE708231C43B8
:105D600001320F92E5E710231C4301320F92E0E766
:105D70000FA8FFF740F88146C8E71A9B1A1D1A9230
:105D80001868002804DB81460F9B01330F93BDE7A1
:105D900002231C4343429946F6E78022D200144373
:105DA0005A1C0F925A781300303BDBB2092B03D9EF
:105DB0002A2A06D00027AEE70FA8FFF71CF8070035
:105DC000A9E71A9B1A1D1A921F68002F03DB0F9B6D
:105DD00001330F939FE70027F9E780235B002343FC
:105DE000511C0F9152786C2A01D01C0018E0C0237E
:105DF0009B001C4301310F9112E080232343511C6F
:105E00000F915278682A01D01C0009E0C0231C437E
:105E100001310F9104E080235B001C4301320F929B
:105E20000F9B18780300253BDAB2532A00D985E28C
:105E300093007B4AD3589F4680239B001C4301322A
:105E40000F92EDE780235B001C4301320F92E7E7DE
:105E500078280AD058283BD06F283CD062283DD003
:105E600010239C43063B9C4601E010239C46582887
:105E700037D0692803D0642801D00C2294436305ED
:105E800001D50122944369282ED064282CD0A30583
:105E900000D5A4E0E30500D5C4E0630600D4D7E054
:105EA0001A9A111D1A911168FF220A4006944B4656
:105EB0000593049763460393002302930092019392
:105EC0004346320059462800FFF79CF806002BE0B5
:105ED00010239C46CBE708239C46C8E702239C4638
:105EE000C5E720221443C4E7A30521D4E3054FD41A
:105EF000630667D51A9A111D1A91127852B2D317F8
:105F0000D118594006944B46059304976346039372
:105F1000D20F02920091002301934346320059466A
:105F20002800FFF76FF806000F9B01330F93CCE6B4
:105F30001A9BDA1D07218A43110008311A91116852
:105F400053689A46DB170A930B930A9A0B9B10002F
:105F500048400C90524653400D930C980D990A9A64
:105F60000B9B801A99410C900D9106944B4605931A
:105F70000497634603935346DA0F0292009001910F
:105F80004346320059462800FFF73CF80600CBE7AD
:105F90001A9A111D1A911268D317D11859400694F4
:105FA0004B460593049763460393D20F02920091E8
:105FB000002301934346320059462800FFF722F898
:105FC0000600B1E7230605D51A9A111D1A91002380
:105FD000D25E94E71A9A111D1A9112688FE71A9BE4
:105FE000DA1D07218A43110008311A91536812689B
:105FF0000092019306944B460593049763460393DE
:10600000002302934346320059462800FEF7FAFF68
:10601000060089E7F54D000014F2000060F2000070
:10602000A4F200001A9A111D1A91136800930694A5
:106030004B46059304976346039300230293019311
:106040004346320059462800FEF7DCFF06006BE7A6
:10605000230606D51A9A111D1A9112681204120C01
:1060600024E71A9A111D1A9112681FE746281BD0BF
:106070001A9B0733072293431A0008321A92002210
:10608000059204944A46039202975C681B68009349
:1060900001944346320059462800FFF733FD0600BD
:1060A0000F9B01330F9310E620231C43E0E7672882
:1060B00001D0472802D180231B011C43452801D071
:1060C000472801D120231C431A9B073307229343FF
:1060D0001A0008321A920122059204944A46039249
:1060E00002975C681B68009301944346320059464E
:1060F0002800FFF707FD06000F9B01330F93E4E52F
:1061000002231A0022400892234212D001241A9B33
:106110001A1D1A92721C924618784346320059464C
:10612000A847089B002B15D10F9B01330F935646B0
:10613000CBE5013B4F4632005C1C9F4207D9561C01
:10614000434659462020A84723003200F4E7B946C9
:106150001600DCE752462B004D469946661CA542C8
:1061600007D9571C434659462020C84734003A00F7
:10617000F4E792464D46D7E71A9B1A1D1A921B6800
:106180009A46002B0CD0002F19D03A0053461978AC
:10619000002917D0511E002A14D001330A00F6E757
:1061A00003944B46029306230193734B009343469B
:1061B000320059462800FEF730FE060049E0012271
:1061C0005242E3E75246991A0E918023DB002200E7
:1061D0001A4008921C4202D08F4200D80E97022328
:1061E0001A0022400992234205D03200089E5446EC
:1061F000AA463D001EE032004E46B9460E9B2F00D7
:1062000006E0551C434659462020B84723002A0083
:106210005C1C9E42F5D83D004F46B1460E94089E48
:106220005446AA463D0005E00134571C43465946F2
:10623000D0473A002078002806D0002EF4D06B1EFC
:10624000002D01D01D00EFE716005546099B002BDD
:1062500003D10F9B01330F9337E54F460E9B06E0AA
:10626000561C434659462020A847230032005C1C98
:106270009F42F5D81600ECE7404B1C431A9B1A1DB1
:106280001A921B68002B14D006940A2205920497D8
:10629000063203920022029200930192434632009A
:1062A00059462800FEF7AEFE06000F9B01330F9300
:1062B0000BE503940A330293053B0193304B0093A3
:1062C0004346320059462800FEF7A7FD0600ECE7DA
:1062D000741C4346320059462520A8470F9B0133C2
:1062E0000F932600F1E4630608D51A9B1A1D1A9233
:1062F0001B681E700F9B01330F93E6E4230605D540
:106300001A9B1A1D1A921B681E80F3E7E30505D538
:106310001A9B1A1D1A921B681E60EBE7A30507D58E
:106320001A9B1A1D1A921B681E6000225A60E1E730
:106330001A9B1A1D1A921B681E60DBE7741C4346E9
:1063400032005946A8470F9B01330F932600BCE447
:10635000AA4646450DD343465A1E43465946002099
:10636000D047300011B03CBC90469946A246AB469F
:10637000F0BD3200F1E7C04604F200000110000059
:106380000CF200000FB400B585B006A908C903914E
:1063900001220091524202A90348FFF787FC05B091
:1063A00008BC04B01847C046C163000010B5010026
:1063B000024B186801F042FA10BDC046A00100204F
:1063C00010B5002800D110BDFFF7F0FFFBE700007B
:1063D00010B500F083FB8000024BC2584923002116
:1063E000D15410BDDC270020F0B5D6464F464646B6
:1063F000C0B504000D0017001E0008AB1B789A46BC
:1064000009AB1B7899460AAB1B789846103000F010
:10641000D3F92000243000F0CFF90020A063E0631E
:10642000206460644823E0540133E0546072002D1E
:106430000ED025602771A671534663714B46E371F8
:106440004346237220001CBC90469946A246F0BDEC
:10645000024B034A2721034806F054FF88F400004A
:106460009CF40000F0F4000000B585B0012801D0D4
:1064700005B000BD0A4B9942FAD10A4A0A4B136093
:106480000023537113710293013301931C33009362
:1064900001331C2205490648FFF7A6FFE8E7C0467E
:1064A000FFFF0000D427002000093D0038370020FE
:1064B0008827002030B585B0040002AD0291039218
:1064C000006801F0A0FA227AE1796B790093002349
:1064D000206801F0B9FC2979029A206801F0BAFA23
:1064E000206801F086FA05B030BD000000B583B029
:1064F00000910192837A002B07D09A070BD5EFF316
:1065000010835A425341C37272B60099019AFFF741
:10651000D1FF03B000BDDB07F7D5C3681B041B0C1C
:10652000014A9360F1E7C0460018004010B50068CA
:1065300001F072FA10BDF8B507000C001600002536
:10654000B54207D221783800FFF7F0FF2070013400
:106550000135F5E7F8BD000010B5006801F0CCFB8F
:10656000002805DB430018188000024BC05810BDFE
:106570000020FCE744F5000010B5006801F0BCFB0A
:10658000002806DB430018188000034B18184068E9
:1065900010BD01204042FBE744F5000010B5006843
:1065A00001F0AAFB002806DB430018188000034B0B
:1065B0001818806810BD01204042FBE744F5000038
:1065C000F0B5C64600B586B00400050010352800B9
:1065D00000F050F9002803D006B004BC9046F0BD8E
:1065E00027002437380000F045F9002865D1200045
:1065F000FFF7D4FFC1B2280000F028FA02212800DA
:1066000000F048FA01222F49280000F01BFA280068
:1066100000F064FA2C4E800084512000FFF7ACFF9C
:10662000C1B2380000F012FA0221380000F032FA4C
:10663000380000F053FA800084512000FFF78CFFEF
:1066400001000026049603960123984602930196C2
:10665000009600230022280000F042FAA0632000E8
:10666000FFF77AFF020004960396029643460193D1
:10667000009600230021380000F032FAE063402049
:1066800006F0A2FE206400280FD048230122E25425
:10669000606408E03001636C9C4660441022E16B4A
:1066A00006F0A6FE0136032EF4DD4823E35C002B42
:1066B00000D091E7380000F07DF9280000F07AF969
:1066C0008AE7C046D1630000DC27002070B50400D3
:1066D000437A002B04D18372C372C36001334372C7
:1066E0004823E35C002B22D02079134D43001B1874
:1066F000DB00EB180821595600F0FAFFA07943009F
:106700001B18DB00EB180821595600F0F1FF6079E7
:1067100043001B18DB00ED180821695600F0E8FF64
:10672000064B19685A682000FFF7C4FE70BD2000B0
:10673000FFF746FFD8E7C046B0F50000D427002099
:1067400010B502490120FFF78FFE10BDFFFF0000CA
:106750000B4B1B68002B09D1EFF31083002B0AD1E0
:1067600072B6BFF35F8F074B01221A70044A136899
:10677000013313607047034B00221A70F6E7C046DE
:106780009829002094290020094B1B68002B0DD06C
:10679000074B1A68013A1A601B68002B06D1054B9B
:1067A0001B78002B02D0BFF35F8F62B67047C046E4
:1067B000982900209429002010B50400FF230370BD
:1067C000002343708370C370037103334371083037
:1067D0000C22002106F015FE200010BD10B5CB07DD
:1067E0000AD5124A4E230121D1544A3B4370836893
:1067F000002B00D0984710BD8B070AD50B4A4E23BB
:106800000221D15400234370C368002BF3D0984772
:10681000F1E74B07EFD5054A4E230421D154473BFE
:1068200043700369002BE6D09847E4E70048004135
:1068300070B5FFF78DFF0D4B1B8C1B071B0F0B2B30
:1068400010D89A000A49505800280BD007493F2415
:106850000A5D0F25AA4313430B554E23C95CC9B2E9
:10686000FFF7BCFFFFF790FF70BDC0460048004136
:106870009C29002070B5040003780B2B00D881E020
:106880000023037023780B2B08D801229A403E493D
:106890000968114202D001332370F3E70B2B01D9B1
:1068A000012070E0FFF754FF374B1B68002B3BD0F3
:1068B000257801210B00AB40334A10680343136075
:1068C000AA00324BD450324B3F269A5D0F2028400D
:1068D0000F25AA4302439A554022985C0D3DA843D8
:1068E0009854985C0125284398541A69207881406F
:1068F0008A431A615A6C60218A435A642279213989
:1069000011405A6C0902234802400A435A646079D4
:106910005A6C0321014089051F4802400A435A640A
:10692000FFF732FF00202EE01C4B5A6920210A435A
:106930005A61DA6910390A43DA61154D2B8802224F
:1069400093432B802B88012213432B8014486863C8
:10695000144EAE63C022002106F053FDC022002178
:10696000300006F04EFD104B2B80104B40221A6079
:10697000C12080001A580E491140C02212040A4357
:106980001A5095E7002070BD902900209C29002016
:1069900000480041FFC0FFFFFFFF3FFF0004004031
:1069A000D028002010280020020F000000E100E0A5
:1069B000FFFF00FF70B50400FFF7CAFE63785DB209
:1069C000062B2DD022780B2A2ED801239340184A6B
:1069D00012681A422AD0164A116899431160136846
:1069E000002B15D1134A80334021D150BFF34F8F74
:1069F000BFF36F8F104A13883E398B4313800F4BC0
:106A0000DA690E318A43DA615A6910318A435A6170
:106A100023789B000A4A00219950FF232370002508
:106A2000FFF7B2FE280070BD0225F9E70225F7E75F
:106A30009029002000E100E00048004100040040EF
:106A40009C290020023292001150704770B504005A
:106A50000D00017103780B2B00D970BDFFF778FE94
:106A600024780A4A3F20135C0F2121400F24A343BE
:106A70000B4313543F212940556C0902044B1D4020
:106A80000D435564FFF780FEE7E7C046004800412C
:106A9000FFC0FFFF70B504000D00417103780B2BA0
:106AA00000D970BDFFF754FE24780A4A3F20135CDA
:106AB0000F2121400F24A3430B431354536C032194
:106AC00029408905044D1D400D435564FFF75CFEC8
:106AD000E7E7C04600480041FFFF3FFF00787047EE
:106AE000F0B5CE46474680B585B0040002910392CA
:106AF00001930CAB1B7898460DAB1D780EAB1F783D
:106B000010AB1E7800780B2800D9A6E06378062B1E
:106B100000D1A4E0A378002B00D073E00001514B1A
:106B2000C0180123A3704346012B00D17FE0022B44
:106B300000D07FE002339946028801210A43028097
:106B4000028806218A430280028812318A43028029
:106B500002881539434619400902434B1A400A433B
:106B600002800188012213002B409B029C463F4B70
:106B70001940634619430180018813003B40DB0242
:106B80009C463B4B194063461943018001883240C3
:106B90001203384B19400A43028007210F9B19400A
:106BA00002884903D204D20C0A430280019B9AB2A4
:106BB0004280029A4260002D09D0002E3DD04268EA
:106BC00049464B4319000F9B994052184260039B62
:106BD0008360002F09D0002E36D18268019B494680
:106BE0004B430F998B40D3188360E378002B32D04E
:106BF00023781B011B4A9B18C36005B00CBC904650
:106C00009946F0BD1021102006F0D4FB0028F4D0E6
:106C100021780901134BC9180B00DA68002A04D047
:106C2000DA688A4201D0DB68F7E7D86079E70223A7
:106C3000994681E7012399467EE7426801994B46D0
:106C4000594352184260C2E78268019D4B465D433A
:106C500055198560C9E70023CEE70020CDE7002065
:106C6000CBE7C046D0280020FFFCFFFFFFFBFFFF63
:106C7000FFF7FFFFFFEFFFFF00207047F8B50500AB
:106C80000F0016000024B44209D22B681B68395D3E
:106C900028009847002801D00134F4E7260030008E
:106CA000F8BD704770B504000D49006901F0F8F8AF
:106CB000206900F0F5FE207D0A4D43001B18DB0023
:106CC000EB180821595600F013FD607D43001B1896
:106CD000DB00EB180821595600F00AFD70BDC046D4
:106CE000A0860100B0F500000023802252008350EE
:106CF00004328350704710B50400802252000021F6
:106D000006F07FFB2000FFF7EFFF200010BD000022
:106D1000F0B5C64600B504000F00160098460025E1
:106D20004560FA239B008360094B083303601830E9
:106D3000FFF7E1FF20002130FF30FFF7DCFF276184
:106D4000267543466375A575200004BC9046F0BDCA
:106D50008CF5000010B5012800D010BD074B9942FA
:106D6000FBD11B231A2206490648FFF7D1FF032354
:106D7000042205490548FFF7CBFFEEE7FFFF0000BF
:106D800034370020CC29002030370020002C002090
:106D900010B504008A239B00C1542130FF30FFF757
:106DA000A3FF0123A37510BD80235B00C35882227B
:106DB00052008058181A00D470470130FF30FBE7AA
:106DC00010B51830FFF7F0FF10BD82235B00C258EA
:106DD000043BC3589A4204D082235B00C358C05C72
:106DE000704701204042FBE710B51830FFF7EDFF78
:106DF00010BD0131FF200840704770B504000D0040
:106E000080235B00C158FFF7F4FF82235B00E35847
:106E1000834204D080235B00E258A554E05070BD4B
:106E2000F0B583B004000D00161E019302D10020BE
:106E300003B0F0BD070018373800FFF755FF0122F7
:106E40002900206900F0E9FE002802D10025E8B2FF
:106E5000EEE7206900F03DFF01003800FFF7CDFFAD
:106E60000125B5420FD2206900F070FE0221206991
:106E700000F080FE206900F02CFF01003800FFF7D1
:106E8000BCFF0135EDE7206900F04BFE019B002BB4
:106E9000DDD02069032100F06DFED8E710B5012395
:106EA000FFF7BEFF10BD70B5040082235B00C2581F
:106EB000043BC3589A4209D0822676008359C55CA8
:106EC0008159FFF796FFA051280070BD0120404274
:106ED000FBE7F8B506000D00002383758A239B00AD
:106EE000C15C0022006900F098FE002817D0340031
:106EF0002134FF342000FFF757FF002815D03769F1
:106F00002000FFF7D0FFC1B2380000F0DDFD0028FF
:106F1000EDD13069032100F02DFE0320F8BD30696A
:106F2000032100F027FE0220F8E7002D01D1002008
:106F3000F4E73069032100F01DFE0020EEE710B5F4
:106F40000121FFF7C6FF10BD10B51830FFF7ABFFEA
:106F500010BD10B5040080235B00C158FFF749FF46
:106F600082235B00E358C01A43425841C0B210BDAF
:106F700070B50D00837D002B01D1002070BD213044
:106F8000FF300400FFF7E5FF0028F6D129002000BC
:106F9000FFF733FF0120F1E770B50400006900F04E
:106FA0000BFE002800D170BD206900F07EFE002895
:106FB0002BD1206900F083FE002804D0206900F066
:106FC00079FE00281CD1206900F079FE002832D11A
:106FD000206900F065FE0028E5D0206900F074FE0D
:106FE000002847D025002135FF352800FFF7DCFEBB
:106FF00000283AD1FF21206900F07AFDA075D2E780
:10700000206900F061FE0028DDD1206900F09EFDBE
:107010000321206900F0AEFD8C239B00E558002D74
:1070200004D023681B6920009847A8472000183027
:10703000FFF75AFEB7E7206900F088FD03212069B9
:1070400000F098FD206900F03FFE0028ABD0200042
:107050002130FF30FFF748FE0123A3758B239B00EF
:10706000E358002B9FD098479DE72800FFF71BFFB0
:10707000C1B2C0E7250018352800FFF76AFF0028D5
:1070800007D0206900F04DFD2069032100F072FD5A
:1070900089E7206900F01DFE01002800FFF7ADFE22
:1070A000206900F053FDEFE710B50248FFF774FFC9
:1070B00010BDC046CC29002010B502490120FFF7C1
:1070C00049FE10BDFFFF000070B504000D000179FE
:1070D0000068FFF75DFE206803681B682900984779
:1070E0002068FFF72CFF206821796379082B18D8D6
:1070F0000122FFF7D3FE206803685B69984700020E
:1071000085B26379082B05D9206803685B699847C5
:107110000543ADB22068FFF712FFE088284000B2B7
:1071200070BD0222E5E70000F0B5C64600B582B0AA
:10713000012803D002B004BC9046F0BD1D4B99421B
:10714000F8D11D4B98461D49180000F0B1FB1C4FAB
:107150001C49380000F0ACFB1B491C4800F0A8FBA0
:107160001B491C4800F0A4FB1B491C4800F0A0FB75
:107170001B4D1C49280000F09BFB012401940326B1
:107180000096230000224146174800F0DBFF002351
:10719000019300940D330B223900144800F0D2FF04
:1071A00001940096072306222900114800F0CAFF27
:1071B000C0E7C046FFFF000028370020000800425B
:1071C0002C370020000C0042001000423037002015
:1071D00000140042343700200018004238370020E5
:1071E0003C370020001C004230310020342E0020AB
:1071F0002C34002010B5024801F049F810BDC046FB
:107200003031002010B5024801F041F810BDC046F1
:10721000342E002010B5024801F039F810BDC046E8
:107220002C34002010B502490120FFF77DFF10BD6E
:10723000FFFF0000FEE70000034B10B51B68002BAA
:1072400000D0984710BDC046403700200F4A104874
:10725000110010B50F4B824202D0934209D11300A6
:10726000824209D100F084F800F0A2FAFEE710CBC8
:1072700010C18142FBD3F3E7074A8B42F2D00021D1
:10728000064B9A42EED202C2FBE7C0460000002045
:10729000C002002050FD0000C00200204C3D002034
:1072A00010B500F062F8002801D100F053F810BDCD
:1072B000014B18607047C04640370020014B1868EA
:1072C0007047C04644370020F7B513480122844672
:1072D0001249134C8E68636805689B0E1340019237
:1072E00088686268019F920E3A4067463F68934201
:1072F0000ED1BD420CD186420AD35B19FA254868EB
:10730000AD00861B07486B437043000DC018FEBDDF
:107310003D0013000600E3E74437002010E000E0E2
:1073200000ED00E05555000070B5041E11D0FFF7C8
:10733000CBFFFA260500B60000F016F8FFF7C4FFF1
:10734000401BB042F8D3FA23013C9B00ED18002CFF
:10735000F4D170BD10B5034A13680133136000F017
:1073600095FA10BD44370020704700207047000098
:107370001E2270B546484749436893431C3A13435D
:10738000436008238C6923438B61434C434B9C82AD
:107390009C8A14439C82DC681442FCD00124404A3D
:1073A00014701578254203D055786DB2002DF8DBA6
:1073B00001249460547864B2002CFBDB394C546097
:1073C000547864B2002CFBDB8224E40154805478AE
:1073D00064B2002CFBDB02249C840E34DD68254261
:1073E000FCD0314CDC621024DD682542FCD09D8C41
:1073F0002E4C2C439C841024DD682542FCD00224B2
:107400009D8C80262C439C844024DD683542FCD032
:10741000DD682542F9D01024DD682542FCD0002427
:107420009460547864B2002CFBDB214C5460547897
:1074300064B2002CFBDB1C6A1E4D2C4080251C62B4
:107440001C6AAC431C62032393601B4B536053784C
:107450005BB2002BFBDB0023FF240B72174A4B723D
:107460008B72CB72164B1A60164B174A1B68116849
:107470009A065B01C90E2340520F12020B431343BD
:10748000124A1385802342681343436070BDC0468F
:1074900000400041000400400C06000000080040CD
:1074A000000C004001050100B905FF7D040A000041
:1074B00000070300FFFCFFFF03060100006CDC0275
:1074C000B001002024608000206080000040004265
:1074D000FA212E4B10B51868890002F057FD802361
:1074E00001385B0498424FD229492A4A4860C0209B
:1074F000136A00061B021B0A0343136200238B60FE
:1075000007330B608021136A09061B021B0A0B4319
:107510001362FC22204B196A0A431A62FF22196A7D
:1075200012020A431A62A022196AD2020A431A629C
:107530001A4B1C005A7852B2002AFBDB184A5A80B8
:10754000184B1A00597EC9090129FBD0C8218900AE
:1075500099800521D970537EDB09012BFBD0C02314
:1075600000205B011361907000F022F863785BB239
:10757000002BFBDB0C4B0D4A6380D379DB09012B1D
:10758000FBD04123537010BDFEE7C046B001002080
:1075900010E000E000ED00E000040040000C0040BE
:1075A0001E40000000400042214000000048004210
:1075B0001F4900B50B004A7ED209012AFBD00138D1
:1075C0000A282FD802F0D8FC1B2E2E2E2E2E062E87
:1075D0002E2411001A6917490A400F211A615A789E
:1075E0008A43110001220A4310E01A6911490A4036
:1075F0000F211A615A788A4311000322F3E71A69AE
:107600000C490A400F211A615A788A435A7000BD0A
:107610001A6908490A400F211A615A788A431100F1
:107620000222E0E7F022196912050A43F3E7C04697
:1076300000400042FFFFFFF0182310B50824584314
:10764000134A13181C57013412D001245B68825668
:107650009C4003290CD808000E49D2015218D318B7
:10766000403302F089FC0210060B022119705460AD
:1076700010BD0621197054609461F9E70621197054
:1076800054605461F4E7422119709460F0E7C046F9
:10769000B0F50000004400411823F0B50824584319
:1076A000114A13181C5701341BD0012635005F689E
:1076B0008356BD400D4ADB019A18906805420BD1F4
:1076C0000C00601E8441D2194032107834400336D9
:1076D000A400B04320431070044A9B18002901D134
:1076E0005D61F0BD9D61FCE7B0F500000044004124
:1076F000182370B5082643432A4AD518AE573400DC
:10770000013607D0072907DC00291DDA01314C4278
:107710004C416442200070BD0B00083BDBB20024EA
:10772000032BF7D8092903D12100FFF785FFF1E7E3
:107730000A2904D10839FFF77FFF0024EAE7002473
:107740000B29E7D10A39F0E76C68012520009B5628
:10775000C9B262082840DB012C4211D012480E3514
:107760001B189A1830321078090128400143C9B219
:10777000117041221B19403319780A431A70DCE753
:107780000F26094D5B199A18303215781B19B5432D
:107790002943117041224033197804000A431A70BA
:1077A000B8E7C046B0F50000004400417047000053
:1077B00010B5FFF78DFE05F0D9FDFFF7F7FF0120AB
:1077C000FFF7B2FD094C200001F0A6F9200001F0FE
:1077D0001FFAFAF7A5FE01E000E000BFFAF7A4FFE8
:1077E000FFF7C2FD024B002BF6D1F7E7643700200C
:1077F00000000000F8B504000025561E002A0BD03A
:1078000023681B684F1C097820009847002803D084
:10781000013532003900F0E72800F8BD70B50500E9
:107820000C1E09D003685E68080006F0E4F9020047
:1078300021002800B04770BD0020FCE710B50368A8
:107840001B68984710BD000010B503685B680222F2
:107850000149984710BDC0460CEC000070B505000A
:10786000FFF7DCFF04002800FFF7EEFF201870BDD3
:10787000014B18607047C046B4010020024B012242
:1078800052421A607047C046B401002010B5064B42
:107890001B685A1C04D0013B034A1360002B00D024
:1078A00010BD024B9847C046B4010020EDFC00001B
:1078B00001607047F0B5944605AC257807683E68CE
:1078C0009C1E621E94412406624692071443344370
:1078D0003C600468606807220A40AD012A43022B1D
:1078E00004D05B031A4302436260F0BD0023F9E752
:1078F00070B505682C680904C0239B021940120565
:10790000C026B60332401143214329600268516802
:107910000B43536070BD0268136801210B43136071
:1079200003681A68D207FBD4DB69DB07F8D4704719
:107930000268136802210B4313600368DB699B072D
:10794000FBD47047036800225A8370470368187E8F
:107950004007C00F70470368187EC009704702686F
:10796000117E80235B420B43137670470368588B6C
:107970008007C00F70470268538B02210B4353836B
:1079800070470368187EC007C00F704710B5040029
:10799000FFF7F7FF002803D123681B7E9B07FBD569
:1079A00010BD0368188DC005C00DC0B2704770B51A
:1079B00004000D002000FFF7E4FF0028FAD0236840
:1079C000ADB21D85012070BD036801229A75704714
:1079D000036801221A7570470268136801210B437E
:1079E000136003681A68D207FBD4DB69DB07F8D49D
:1079F00070470268136802210B4313600368DB6958
:107A00009B07FBD470470368DA699207FBD41A68B6
:107A100002218A431A6070470268936A5B0A5B021C
:107A20000B43936203681A7E5207FBD5986AC00520
:107A3000C00DC0B27047000010B54900044802F004
:107A4000A5FA80B2002801D0013880B2C0B210BDC2
:107A5000006CDC0270B50C001100E3070FD40023AA
:107A6000A2070ED4002405682A681B076407234375
:107A700013432B600468FFF7DFFF207370BD012301
:107A8000EEE70124EFE70268136801210B4313605E
:107A900003681A68D207FBD4DB69DB07F8D47047A8
:107AA0000268136802210B4313600368DA699207C6
:107AB000FBD45A8B30218A4310210A435A8303682E
:107AC000DB695B07FBD4704710B50400282302680C
:107AD000D1542268137EDB07D80F002B03D1538BC0
