:1020000000800020213A0000093A0000093A00004F
:1020100000000000000000000000000000000000C0
:10202000000000000000000000000000093A00006D
:102030000000000000000000093A0000753A0000AE
:10204000093A0000093A0000093A0000093A000084
:10205000093A0000093A0000093A00000D3A000070
:10206000093A0000C9390000D9390000093A0000D6
:10207000093A0000093A0000E9390000093A000075
:10208000093A0000093A0000093A0000093A000044
:1020900000000000093A0000093A0000093A000077
:1020A000093A0000093A0000093A0000093A000024
:1020B0000000000010B5064C2378002B07D1054B1B
:1020C000002B02D0044800E000BF0123237010BDA4
:1020D0000001002000000000FC9C0000044B10B533
:1020E000002B03D00349044800E000BF10BDC046E8
:1020F0000000000004010020FC9C000010B5394CD9
:10210000A544E1214902384802F03CFC374801F07F
:10211000EFFC374801F0CCFB002304E0DA43FFA9D1
:102120001431CA54013380229200934205DAFF2B06
:10213000F4DCFFAA1432D354F4E7802182AA890088
:10214000FFA8143000F067F804002A4B98422BD106
:102150006A46010082A800F081F880239B00984223
:1021600028D1802292006946FFA8143006F024F896
:10217000002825D1611E6A461F48684400F06EF8A9
:1021800080239B00984221D1802292006946FFA8BB
:10219000143006F011F800281ED1184801F088FB11
:1021A000C223DB009D4410BD154B164A362116484C
:1021B00005F09CFF154B134A3921134805F096FF93
:1021C000134B104A3A21104805F090FF0F4B0D4A6F
:1021D0003D210D4805F08AFF0D4B0A4A3E210A4871
:1021E00005F084FFF0F9FFFF300A0020881300009B
:1021F00080920000060200000902000030930000F7
:1022000090920000A0920000B0920000089300009D
:1022100014930000704770B5C0231370002301248D
:1022200009E0651CDB26165501365655023401E0DF
:102230001555013401338B420BDAC55CC02DF0D04B
:10224000DB2DF5D1651CDB261655023656550234BA
:10225000F0E7601CC023135570BD0000F0B5D646F2
:102260004F464646C0B505008846924601290FDD17
:102270004318013B1B78C02B14D1C13B9C46E04462
:102280002B78C02B12D0002400239946002627E08B
:102290001F4801F00DFB002630001CBC90469946FB
:1022A000A246F0BD1B4801F003FBE9E70124EBE780
:1022B000194801F0FDFA19E0DB2352469355013627
:1022C000002399460BE0154801F0F2FA00239946E5
:1022D00005E03B78DB2B18D052469355013601348C
:1022E000A045D9DD2F192B5DC02BE1D04B46002B2B
:1022F000EFD03978DD29DFD0DC29E4D1C023524684
:102300009355013600239946E9E701239946E6E70C
:102310004C9300007493000098930000C893000051
:102320007047010000200A681378303BDBB2092BAC
:1023300008D883001B185B00501C08601078C01878
:102340003038F0E77047F0B5DE4657464E46454612
:10235000E0B583B093461F000C9B9A460D9C0E9BE4
:1023600099460F9B9B0724D10192A34688464E466F
:10237000B9460700B44207D2551C4B4641462020BF
:10238000B84701342A00F5E73D004F465C46019B03
:102390009B46B1464646B84637002E00002C0CD06E
:1023A000013C551C5346185D43463900B0472A008E
:1023B000F4E7B8460F000600F0E735003E00474658
:1023C0000F9B9B070ED5B0464E46B9462F005D4683
:1023D000531BB34206D2541C4B4641462020B847FB
:1023E0002200F5E7100003B03CBC90469946A24697
:1023F000AB46F0BDF0B5D6464F464646C0B584B0B4
:10240000944698460C9E0EAB1B789A460FAB1B78F1
:102410009946109B119A129FBC0715D4002A08D028
:10242000FC0706D55446002C02D10C343C4200D0A7
:10243000013A0D9CFD0708D5944206D21F2C04D802
:10244000302535550134F5E70D9C9C4205D21F2CF3
:1024500003D8302535550134F7E74D46082D2ED0E9
:10246000324D2F4215D07D0505D4002C03D09C425F
:102470002BD0944229D04B46102B34D04B46102BF6
:1024800039D04B46022B3ED01F2C02D83023335577
:1024900001341F2C05D85346002B3AD02D23335539
:1024A0000134039702920194009643466246FFF777
:1024B0004AFF04B01CBC90469946A246F0BD0D9D53
:1024C000AC42CDD91025AF43CAE70D9B9C4200D941
:1024D000013C002CCFD04B46102BCCD10D9B9C4205
:1024E000C9D9013CC7E7BB06C8D41F2CC6D878237E
:1024F00033550134C8E7BB06C3D51F2CC1D85823B8
:1025000033550134C0E71F2CBED860333355013436
:10251000BAE77B0703D52B2333550134C1E73B07CB
:10252000BFD5202333550134BBE7C046101000004F
:10253000F0B5DE4657464E464546E0B595B0834673
:1025400009910A920B931E9E1F9C20AB1B78984604
:1025500021AB1D783300234315D1249B5B0508D4A0
:102560000CAB30221A701023249A9A43249201272C
:1025700041E0102D01D000273DE01023249A9A431A
:102580002492002737E00023994616E03033DAB270
:1025900001234B449A460CAB49465A542A00002367
:1025A0003000210003F0F6FCA74223D81BD053468D
:1025B0001F2B1DD8D14606000C00089500272A00C5
:1025C00000233000210003F0E5FCD3B2092BDDD954
:1025D000249A920605D54122D218D2B20A3AD2B232
:1025E000D6E76122F8E7089BB342E0D9574602E0FC
:1025F000574600E05746249B0693239B0593229B56
:10260000049303954346029301970CAB00930B9BF5
:102610000A9A09995846FFF7EDFE15B03CBC904662
:102620009946A246AB46F0BDF0B589B007000592C9
:102630001E00DB0F037403D080231B069C466644F8
:10264000059D2800310003F0E3FC02900391029BFA
:10265000039C3B607C601800210003F015FD020024
:102660000B002800310004F0EBFF0E9AD200464B1D
:102670009B181A685B680692079304F075FD0400C6
:102680000D0003F0C5FC00900191009A019BBA6017
:10269000FB601000190003F0F7FC02000B002000A3
:1026A000290004F0CDFF04000D000022374B03F099
:1026B00039FC00284CD001200021009A019B1218FF
:1026C0004B4110001900B860F96003F0DDFC020016
:1026D0000B000698079903F01BFC00280DD0002280
:1026E0000023BA60FB60012200230298039980183E
:1026F000594102000B003A607B600E9B002B24D1F5
:102700003C687D682000290003F0BEFC02000B003D
:102710000598310004F094FF00221C4B00900191B9
:1027200003F0ECFB002807D00022184B0098019919
:1027300003F0F8FB002808D00123234205D0012232
:102740000023A4185D413C607D60380009B0F0BDF5
:1027500000220E4B2000290003F0CAFB0028CCD039
:102760000099019A0B00134302D001230B42C4D0FD
:1027700001200021009B019C1B184C4118002100E6
:10278000B860F960B9E7C046009600000000E03F7D
:1027900084B0F0B5DE46574680B585B00C900D91FB
:1027A0000E920F93169B9A46199F1A9E002B62D089
:1027B00081231B01189A1A409346103B9A420BD072
:1027C0000E9A0F9B002B27DC01D1002A24D18023F5
:1027D0001B019B4520D158E00E9A0F9B002B15DD65
:1027E0000E9C0F9D0A2200232000290003F0AEFB5F
:1027F0001343E5D1013B9C46E2440A22002320001A
:10280000290003F0A3FB0E900F91E9E7002BD7D12D
:10281000002AE5D1D4E75E461F2E1AD801235B4279
:102820009C46E2440E9C0F9D0A22002320002900B2
:1028300003F08CFB731C9B463032BA550A220023EE
:102840002000290003F082FB0E900F910143E2D19A
:102850005E461F2E09D85346013B5246002A04D03B
:102860003022BA559A460136F3E71F2E0DD82E2393
:10287000BB55013609E0189BDB0606D51F2E04D890
:102880002E23BB55013600E056461F2E16D80C9C51
:102890000D9D0A2200232000290003F057FB731C22
:1028A0009A463032BA550A2200232000290003F04C
:1028B0004DFB0C900D910143E6D156460323189A27
:1028C0001340012B1CD01F2E06D80CAB1B7C002BF9
:1028D0002CD02D23BB550136189B0393179B0293D5
:1028E00001960097159B149A13991298FFF72BFDE8
:1028F00005B00CBC92469B46F0BC08BC04B018471F
:10290000179B002B09D00CAB1B7C002B02D10C3386
:10291000134202D0179B013B1793179BB342D2D9A6
:102920001F2ED0D83023BB550136F6E7189B5B0726
:1029300003D52B23BB550136CEE7189B1B07CBD500
:102940002023BB550136C7E7F0B593B004000D0056
:1029500016001F001A9B0093189A199B0CA8FFF7EA
:1029600063FE1E9B0A931D9B09931C9B08931B9B54
:1029700007931A9B069305970496039502940822E1
:1029800010A9684605F026FC0C980D990E9A0F9B2D
:10299000FFF7FEFE13B0F0BD82B010B502920393B4
:1029A00002AB1B7A002B09D002000B00029803999E
:1029B00004F0DAFB10BC08BC02B01847029A039B73
:1029C00003F0CCFFF6E782B010B50292039302AB9E
:1029D0001B7A002B07D0029A039B03F0BFFF10BCA9
:1029E00008BC02B0184702000B000298039904F0DB
:1029F000BBFBF4E782B0F8B50400069207930A988F
:102A00000B9906AB1B7A002B0ED001232372020018
:102A10000B000698079904F0A7FB20606160200076
:102A2000F8BC08BC02B01847069E079D2A0D520547
:102A3000520D114B9C4662440B0D5B055B0D6344CC
:102A4000D717D2197A40DF17DB197B409A420ADD8B
:102A50000023237202000B003000290003F07EFFE8
:102A600020606160DBE70123237232002B0003F05A
:102A700075FF20606160D2E701FCFFFFF0B5D6462C
:102A8000474680B58FB08046924616AE30CE017470
:102A90003700083708223900684605F09BFB189A72
:102AA000736820002900FFF777FF03F0B1FA049064
:102AB00005914146049A059B0A604B60100019007D
:102AC00003F0E2FA0690079108223900684605F003
:102AD00081FB189A736806980799FFF774FF020044
:102AE0000B002000290004F0ABFD04000D0053464C
:102AF000DA004F4B9B181A685B68069207930292A4
:102B0000039308223900684605F064FB189A73683D
:102B10000AA8FFF76FFF08220CA9684605F05AFBC8
:102B20000A9A0B9B20002900FFF736FF06000F00D2
:102B30005346002B2ED10022002341468A60CB60F1
:102B40000124002500223B4B3000390003F0F4F94A
:102B5000002801D100240025049A059B12196B411D
:102B600014001D0043461C605D600022314B3000A4
:102B7000390003F0BDF9002806D0012322009A4352
:102B8000130042461360556040460FB00CBC90469F
:102B90009A46F0BD03F03CFA04000D0003F074FA0D
:102BA00002000B003000390004F04AFD06000F005F
:102BB000012200230892099300221E4B03F0BCF966
:102BC000002803D10022002308920993089A099B48
:102BD000A4185D4143469C60DD600022154B300027
:102BE000390003F085F9002806D0012322009A431A
:102BF000130042469360D56043469868D96803F055
:102C000043FA069A079B03F097F90028BCD00022EC
:102C1000002341468A60CB6001240025049A059B6D
:102C200012196B4114001D000C604D60ACE7C046EA
:102C3000009600000000E03FF0B5DE4657464E46E5
:102C40004546E0B5A1B082468B46904612932A993C
:102C50000D912B9E0024F30F99461393002E03DA57
:102C60008021090673181E00002200230D9D2800F4
:102C7000310003F03DF9002800D0DAE00D95300D69
:102C80004005400DD14A944660443203120B2C009B
:102C9000CF4B13431D0005F09BF8CE4ACE4B04F0FA
:102CA00063FACE4ACE4B03F0EFFA0E900F9100225A
:102CB000CC4B2000290004F0C3FCCB4ACB4B04F0E2
:102CC00053FA02000B000E980F9903F0DDFA05F09D
:102CD00049F8070005F07CF804000D00C44AC54B14
:102CE00004F042FA0022C44B03F0CEFA05F03AF8A1
:102CF0000E90C24AC24B2000290004F035FA0400AD
:102D00000D000E9805F064F8BE4ABF4B04F02CFA93
:102D100002000B002000290004F092FC04000D00CA
:102D200002000B0004F020FA109011910E9A10008E
:102D3000D117B64A002312184B4112050F920022F8
:102D40000E9222002B002000290003F09DFA14901F
:102D5000159122002B0000208021C90504F070FC91
:102D600004000D000022AA4B1098119903F0F6FD03
:102D70000022A84B03F088FA02000B00109811996A
:102D800003F0ECFD0022A44B03F07EFA02000B00DE
:102D90001098119903F0E2FD02000B0020002900B9
:102DA00003F072FA02000B001498159903F0D6FD97
:102DB0000022874B03F068FA0E9A0F9B04F0D4F9B7
:102DC00004000D000E940F950D9A330003F0AAF83D
:102DD000002808D0013F00228E4B2000290003F07C
:102DE000BDFD0E900F913B001133002422229A4228
:102DF0006441E4B2222B19D8FB17FA185A40D200CA
:102E0000864B9B18186859681C901D912E9B1B05BA
:102E100036D52C9B002B00D101233A1D0BDB9F42A2
:102E200009DA2C9B013BDB1B012507E00E980F996B
:102E3000EAE70027EAE72C9B013B0025002B1DDB7E
:102E40002C938023DB002E9A1A432E92002F00DB56
:102E500000241CAB1C72002D14D1002F12D002A82C
:102E60001022190005F0B6F90D9A33000092019373
:102E70002C9A139916A8FFF701FE11E00023DFE753
:102E80000025E3E74B46002B03D080210906731889
:102E90001E002C9B00930D9A330016A8FFF7C4FB6D
:102EA000002D17D02E9B1B0524D57B1C22DB1698EA
:102EB000179903F0E9F87C1CE200584B9B181A683C
:102EC0005B6803F015F8002814D02C9B013B2C9371
:102ED00027000FE0169A179B002B02DC0AD1092A63
:102EE00008D90137012200231692179300220023EC
:102EF00018921993002D05D13B006333C62B5CD883
:102F0000042400E0002402232E9E1E402E9A134229
:102F100001D0002C53D12D9B9C4252D21B1B309AC6
:102F20000A922F9A09922E9A089207932C9B069345
:102F3000129B0593434604935B46039353460293C7
:102F400008221AA9684605F045F916981799189AA3
:102F5000199BFFF71DFC0200002D61D12E9B9B06E3
:102F600031D54520551C129B99465946D047F91733
:102F70007A184A4005230693013C059400230493E4
:102F80000A210391F80F0290009201934B462A0008
:102F900059465046FFF7CCFA0200002E40D0574663
:102FA0004646C8462D9D931BAB4239D2541C43461E
:102FB00059462020B8472200F5E70524A3E700235F
:102FC000ADE70023ABE76520CCE7C04601FCFFFF7F
:102FD0000000F03FFB799F501344D33FB3C8608B90
:102FE000288AC63F0000F83F61436F63A787D23F3E
:102FF00071A379094F930A400000E03F1655B5BB15
:10300000B16B0240EF39FAFE422EE63FFF030000AB
:1030100000002C40000024400000184000960000F2
:10302000100021B03CBC90469946A246AB46F0BD8C
:10303000F0B5DE4657464E464546E0B591B0050030
:10304000884691469A461A9E1B9F1C9C1FAB1B7874
:103050009B4632003B003000390002F049FF002857
:1030600028D001225242544B3000390002F046FF72
:10307000002834D101225242504B3000390002F076
:1030800051FF00283ED004231E9A1A401E990B427D
:1030900034D04B4B002A33D004221E9903911D9942
:1030A00002910192009353464A4641462800FFF799
:1030B0004AF90DE01E9B03931D9B0293032301938A
:1030C000404B009353464A4641462800FFF73BF9E0
:1030D00011B03CBC90469946A246AB46F0BD1E9B43
:1030E00003931D9B029304230193374B0093534694
:1030F0004A4641462800FFF726F9E9E7334BC9E77E
:103100000322CAE75B46002B21D10022304B30005E
:10311000390002F007FF002807D100222D4B3000B4
:10312000390002F0EBFE002811D00023069308AB13
:1031300005931E9B04931D9B039302940096019795
:1031400053464A4641462800FFF776FDC0E71E9BDE
:103150005B0500D4062400231F2B07D8112C05D9AA
:1031600008AA3021D154013C0133F5E75A46002A20
:1031700010D0069308AB05931E9B04931D9B0393ED
:1031800002940096019753464A4641462800FFF7AD
:1031900053FD9DE7069308AB05931E9B04931D9B6F
:1031A000039302940096019753464A4641462800ED
:1031B000FFF7CAFB8CE7C046FFFFEFFFFFFFEF7F83
:1031C000FC9300000494000008940000F8930000B1
:1031D00065CDCD4165CDCDC1F0B5DE4657464E46F5
:1031E0004546E0B591B082468B4690460F93002944
:1031F00012D0002655460F9B1878002800D13DE3D9
:1032000025280CD0741C434632005946A8470F9B12
:1032100001330F932600EEE7C94B9A46E9E70133E5
:103220000F9300241BE00B00303BDBB2092B35D998
:103230002A2938D0002399460F9B1A782E2A42D08B
:1032400000270F9A1378683BD9B212297ED88B00D9
:10325000BC49CB589F4601231C4301320F920F9A61
:1032600011780B00203BD8B21028DCD88300B64878
:10327000C3589F4602231C4301320F92EFE70423F9
:103280001C4301320F92EAE708231C4301320F92DC
:10329000E5E710231C4301320F92E0E70FA8FFF788
:1032A00040F88146C8E71A9B1A1D1A921868002830
:1032B00004DB81460F9B01330F93BDE702231C43C0
:1032C00043429946F6E78022D20014435A1C0F92DB
:1032D0005A781300303BDBB2092B03D92A2A06D0D7
:1032E0000027AEE70FA8FFF71CF80700A9E71A9B15
:1032F0001A1D1A921F68002F03DB0F9B01330F93D7
:103300009FE70027F9E780235B002343511C0F91BF
:1033100052786C2A01D01C0018E0C0239B001C438B
:1033200001310F9112E080232343511C0F915278F9
:10333000682A01D01C0009E0C0231C4301310F9111
:1033400004E080235B001C4301320F920F9B18782E
:103350000300253BDAB2532A00D985E293007B4A69
:10336000D3589F4680239B001C4301320F92EDE708
:1033700080235B001C4301320F92E7E778280AD0D4
:1033800058283BD06F283CD062283DD010239C4366
:10339000063B9C4601E010239C46582837D06928FC
:1033A00003D0642801D00C229443630501D5012287
:1033B000944369282ED064282CD0A30500D5A4E01E
:1033C000E30500D5C4E0630600D4D7E01A9A111DC6
:1033D0001A911168FF220A4006944B460593049700
:1033E0006346039300230293009201934346320005
:1033F00059462800FFF79CF806002BE010239C4656
:10340000CBE708239C46C8E702239C46C5E7202259
:103410001443C4E7A30521D4E3054FD4630667D55D
:103420001A9A111D1A91127852B2D317D118594015
:1034300006944B460593049763460393D20F02927A
:103440000091002301934346320059462800FFF7BC
:103450006FF806000F9B01330F93CCE61A9BDA1D21
:1034600007218A43110008311A91116853689A465E
:10347000DB170A930B930A9A0B9B100048400C90A1
:10348000524653400D930C980D990A9A0B9B801A43
:1034900099410C900D9106944B4605930497634611
:1034A00003935346DA0F0292009001914346320093
:1034B00059462800FFF73CF80600CBE71A9A111D81
:1034C0001A911268D317D118594006944B460593A8
:1034D000049763460393D20F029200910023019355
:1034E0004346320059462800FFF722F80600B1E7AC
:1034F000230605D51A9A111D1A910023D25E94E76E
:103500001A9A111D1A9112688FE71A9BDA1D07216A
:103510008A43110008311A9153681268009201938E
:1035200006944B4605930497634603930023029346
:103530004346320059462800FEF7FAFF060089E7A5
:1035400021230000209400006C940000B09400003F
:103550001A9A111D1A911368009306944B4605930D
:10356000049763460393002302930193434632007A
:1035700059462800FEF7DCFF06006BE7230606D558
:103580001A9A111D1A9112681204120C24E71A9A41
:10359000111D1A9112681FE746281BD01A9B07338A
:1035A000072293431A0008321A92002205920494CB
:1035B0004A46039202975C681B6800930194434655
:1035C000320059462800FFF733FD06000F9B0133F8
:1035D0000F9310E620231C43E0E7672801D047281B
:1035E00002D180231B011C43452801D0472801D16B
:1035F00020231C431A9B0733072293431A000832E7
:103600001A920122059204944A46039202975C683A
:103610001B68009301944346320059462800FFF787
:1036200007FD06000F9B01330F93E4E502231A0008
:1036300022400892234212D001241A9B1A1D1A928A
:10364000721C92461878434632005946A847089B98
:10365000002B15D10F9B01330F935646CBE5013B51
:103660004F4632005C1C9F4207D9561C43465946C0
:103670002020A84723003200F4E7B9461600DCE713
:1036800052462B004D469946661CA54207D9571C49
:10369000434659462020C84734003A00F4E7924692
:1036A0004D46D7E71A9B1A1D1A921B689A46002BA3
:1036B0000CD0002F19D03A0053461978002917D0A2
:1036C000511E002A14D001330A00F6E703944B463A
:1036D000029306230193734B0093434632005946ED
:1036E0002800FEF730FE060049E001225242E3E7DF
:1036F0005246991A0E918023DB0022001A4008924C
:103700001C4202D08F4200D80E9702231A0022409A
:103710000992234205D03200089E5446AA463D0035
:103720001EE032004E46B9460E9B2F0006E0551CA7
:10373000434659462020B84723002A005C1C9E427D
:10374000F5D83D004F46B1460E94089E5446AA4611
:103750003D0005E00134571C43465946D0473A0026
:103760002078002806D0002EF4D06B1E002D01D04A
:103770001D00EFE716005546099B002B03D10F9B58
:1037800001330F9337E54F460E9B06E0561C434628
:1037900059462020A847230032005C1C9F42F5D8E0
:1037A0001600ECE7404B1C431A9B1A1D1A921B682B
:1037B000002B14D006940A22059204970632039235
:1037C000002202920093019243463200594628009B
:1037D000FEF7AEFE06000F9B01330F930BE503943B
:1037E0000A330293053B0193304B0093434632006A
:1037F00059462800FEF7A7FD0600ECE7741C434677
:10380000320059462520A8470F9B01330F9326000D
:10381000F1E4630608D51A9B1A1D1A921B681E70E4
:103820000F9B01330F93E6E4230605D51A9B1A1D5F
:103830001A921B681E80F3E7E30505D51A9B1A1D33
:103840001A921B681E60EBE7A30507D51A9B1A1D89
:103850001A921B681E6000225A60E1E71A9B1A1D2B
:103860001A921B681E60DBE7741C434632005946FF
:10387000A8470F9B01330F932600BCE4AA46464598
:103880000DD343465A1E434659460020D0473000C8
:1038900011B03CBC90469946A246AB46F0BD320002
:1038A000F1E7C046109400000110000018940000D9
:1038B0000FB400B585B006A908C903910122009193
:1038C000524202A90348FFF787FC05B008BC04B0C8
:1038D0001847C046ED38000010B50100024B1868CB
:1038E00000F080FB10BDC0460000002010B500288D
:1038F00000D110BDFFF7F0FFFBE70000F0B5C646B2
:1039000000B582B0012803D002B004BC9046F0BDDF
:103910001D4B9942F8D11D4B98461D49180000F0E7
:1039200087FB1C4F1C49380000F082FB1B491C48D8
:1039300000F07EFB1B491C4800F07AFB1B491C4829
:1039400000F076FB1B4D1C49280000F071FB0124A0
:10395000019403260096230000224146174800F0F8
:10396000C7FD0023019300940D330B223900144846
:1039700000F0BEFD0194009607230622290011489D
:1039800000F0B6FDC0E7C046FFFF0000100A0020AF
:1039900000080042140A0020000C004200100042FF
:1039A000180A0020001400421C0A002000180042DF
:1039B000200A0020240A0020001C004218040020D5
:1039C0001C0100201407002010B5024800F035FE4D
:1039D00010BDC0461804002010B5024800F02DFEAE
:1039E00010BDC0461C01002010B5024800F025FEA5
:1039F00010BDC0461407002010B502490120FFF792
:103A00007DFF10BDFFFF0000FEE70000034B10B577
:103A10001B68002B00D0984710BDC046280A002024
:103A20000F4A1048110010B50F4B824202D093424A
:103A300009D11300824209D100F07EF800F09CFA0F
:103A4000FEE710CB10C18142FBD3F3E7074A8B425C
:103A5000F2D00021064B9A42EED202C2FBE7C046EA
:103A60000000002000010020649D000000010020F3
:103A70003410002010B500F05CF8002801D100F0EF
:103A80004DF810BD014B18607047C046280A002051
:103A9000F7B51348012284461249134C8E686368B7
:103AA00005689B0E1340019288686268019F920E20
:103AB0003A4067463F6893420ED1BD420CD18642E0
:103AC0000AD35B19FA254868AD00861B07486B438B
:103AD0007043000DC018FEBD3D0013000600E3E773
:103AE0002C0A002010E000E000ED00E05555000039
:103AF00070B5041E11D0FFF7CBFFFA260500B60003
:103B000000F016F8FFF7C4FF401BB042F8D3FA23C9
:103B1000013C9B00ED18002CF4D170BD10B5034A98
:103B200013680133136000F071FA10BD2C0A0020F5
:103B300070470020704700001E2270B54648474974
:103B4000436893431C3A1343436008238C6923431F
:103B50008B61434C434B9C829C8A14439C82DC685F
:103B60001442FCD00124404A14701578254203D039
:103B700055786DB2002DF8DB01249460547864B25E
:103B8000002CFBDB394C5460547864B2002CFBDB16
:103B90008224E4015480547864B2002CFBDB0224BC
:103BA0009C840E34DD682542FCD0314CDC6210244C
:103BB000DD682542FCD09D8C2E4C2C439C84102427
:103BC000DD682542FCD002249D8C80262C439C84F9
:103BD0004024DD683542FCD0DD682542F9D0102450
:103BE000DD682542FCD000249460547864B2002C37
:103BF000FBDB214C5460547864B2002CFBDB1C6A64
:103C00001E4D2C4080251C621C6AAC431C620323A1
:103C100093601B4B536053785BB2002BFBDB00239C
:103C2000FF240B72174A4B728B72CB72164B1A60C1
:103C3000164B174A1B6811689A065B01C90E234090
:103C4000520F12020B431343124A1385802342681A
:103C50001343436070BDC046004000410004004073
:103C60000C06000000080040000C004001050100A7
:103C7000B905FF7D040A000000070300FFFCFFFFF9
:103C800003060100006CDC020400002024608000B8
:103C90002060800000400042FA212E4B10B51868C9
:103CA000890002F089F8802301385B0498424FD2E2
:103CB00029492A4A4860C020136A00061B021B0AD1
:103CC0000343136200238B6007330B608021136A68
:103CD00009061B021B0A0B431362FC22204B196AC4
:103CE0000A431A62FF22196A12020A431A62A022C8
:103CF000196AD2020A431A621A4B1C005A7852B24D
:103D0000002AFBDB184A5A80184B1A00597EC90951
:103D10000129FBD0C821890099800521D970537EE3
:103D2000DB09012BFBD0C02300205B0113619070E5
:103D300000F022F863785BB2002BFBDB0C4B0D4AE2
:103D40006380D379DB09012BFBD04123537010BD75
:103D5000FEE7C0460400002010E000E000ED00E0B7
:103D600000040040000C00401E40000000400042E3
:103D700021400000004800421F4900B50B004A7E68
:103D8000D209012AFBD001380A282FD802F00AF8FC
:103D90001B2E2E2E2E2E062E2E2411001A691749A8
:103DA0000A400F211A615A788A43110001220A43FE
:103DB00010E01A6911490A400F211A615A788A43A2
:103DC00011000322F3E71A690C490A400F211A6116
:103DD0005A788A435A7000BD1A6908490A400F216F
:103DE0001A615A788A4311000222E0E7F022196929
:103DF00012050A43F3E7C04600400042FFFFFFF010
:103E0000182310B508245843134A13181C570134BB
:103E100012D001245B6882569C4003290CD808000C
:103E20000E49D2015218D318403301F0BBFF0210E3
:103E3000060B02211970546010BD062119705460E0
:103E40009461F9E70621197054605461F4E7422146
:103E500019709460F0E7C04690960000004400415D
:103E60001823F0B508245843114A13181C5701347D
:103E70001BD0012635005F688356BD400D4ADB012B
:103E80009A18906805420BD10C00601E8441D2192B
:103E90004032107834400336A400B0432043107001
:103EA000044A9B18002901D15D61F0BD9D61FCE7CA
:103EB0009096000000440041182370B50826434343
:103EC0002A4AD518AE573400013607D0072907DC37
:103ED00000291DDA01314C424C416442200070BD82
:103EE0000B00083BDBB20024032BF7D8092903D1D0
:103EF0002100FFF785FFF1E70A2904D10839FFF710
:103F00007FFF0024EAE700240B29E7D10A39F0E714
:103F10006C68012520009B56C9B262082840DB016D
:103F20002C4211D012480E351B189A1830321078D6
:103F3000090128400143C9B2117041221B194033C5
:103F400019780A431A70DCE70F26094D5B199A1895
:103F5000303215781B19B543294311704122403383
:103F6000197804000A431A70B8E7C046909600001A
:103F7000004400417047000010B5FFF78DFE04F0CB
:103F8000E3F8FFF7F7FF0120FFF7B2FD094C20002F
:103F900000F080FF200000F0F9FFFEF7AFF801E02D
:103FA00000E000BFFEF736F9FFF7C2FD024B002B21
:103FB000F6D1F7E74C0A002000000000F8B5040035
:103FC0000025561E002A0BD023681B684F1C097859
:103FD00020009847002803D0013532003900F0E76F
:103FE0002800F8BD10B503681B68984710BD000095
:103FF000014B18607047C04608000020024B0122A8
:1040000052421A607047C0460800002010B5064BA7
:104010001B685A1C04D0013B034A1360002B00D0DC
:1040200010BD024B9847C04608000020019D0000CB
:1040300001607047F0B5944605AC257807683E6886
:104040009C1E621E94412406624692071443344328
:104050003C600468606807220A40AD012A43022BD5
:1040600004D05B031A4302436260F0BD0023F9E70A
:1040700070B505682C680904C0239B02194012051D
:10408000C026B603324011432143296002685168BB
:104090000B43536070BD0268136801210B4313602A
:1040A00003681A68D207FBD4DB69DB07F8D47047D2
:1040B0000268136802210B4313600368DB699B07E6
:1040C000FBD47047036800225A8370470368187E48
:1040D0004007C00F70470368187EC0097047026828
:1040E000117E80235B420B43137670470368588B25
:1040F0008007C00F70470268538B02210B43538324
:1041000070470368187EC007C00F704710B50400E1
:10411000FFF7F7FF002803D123681B7E9B07FBD521
:1041200010BD0368188DC005C00DC0B2704770B5D2
:1041300004000D002000FFF7E4FF0028FAD02368F8
:10414000ADB21D85012070BD036801229A757047CC
:10415000036801221A7570470023052B0AD8DA007C
:10416000064952580168914202D00133DBB2F4E7AC
:1041700058B201E0012040427047C046989A0000C2
:1041800070B5FFF7E9FF002836DBC000264B181892
:1041900004790523C356002B07DB1F211940012298
:1041A0008A402248C02149004250002B25DB9A0852
:1041B0001E4DC0329200505903211940C900FF26FC
:1041C0008E40B043C0268E40310001435151002B38
:1041D00006DB1F2213401E3A9A401300134A136055
:1041E0003F2323408024E4011C43114B5C80104B8F
:1041F0005B785BB2002BFADB70BD0F221A40083AE5
:104200009208063292000B498C46624450680321A2
:104210001940C900FF258D40A843C0258D402900C5
:1042200001435160D3E7C046989A000000E100E0E6
:10423000000C004000ED00E0F8B504000E0017008F
:104240001D00FFF79DFF2000FFF725FFB3001C2096
:1042500018407B071B0C22681843106084232268D7
:104260009375012E00D0F8BD012F19D008210D4AF9
:104270001068C000694301F09FFD216807220240D9
:104280008B895203DB04DB0C13438B81C00822684B
:104290009389C004C00C5B0B5B0318439081E2E779
:1042A0001021E4E7040000200120704710B50368E6
:1042B0001B6A014A984710BD13040000F0230B400D
:1042C000302B01D0002070470120FCE7F0231B01B8
:1042D000194080239B0099420BD00133FF33994250
:1042E00009D080235B00994201D00020704705204F
:1042F000FCE70620FAE70720F8E70F231940012919
:1043000003D0022903D1012070470020FCE70220DE
:10431000FAE70000F0B5C64600B582B004000F0011
:104320001500B9239B00C05C3D4E43001B18DB0009
:10433000F31808215956FFF7BFFD3A4BE05C4300E4
:104340001B18DB00F61808217156FFF7B5FD364B38
:10435000E35C022B2FD0BA239B00E05CFF2839D10D
:104360003B00012201212069FFF766FF236998467F
:1043700029002000FFF7AAFF060029002000FFF710
:10438000BCFF070029002000FFF798FF00903B00CA
:10439000012231004046FFF74DFE244BE25C224BE8
:1043A000E15C2069FFF764FE2069FFF781FE02B03F
:1043B00004BC9046F0BDBE239B00E05CFF28CAD041
:1043C00043001B18DB00164AD31808215956FFF783
:1043D00073FDC0E70121FFF713FDBA239B00E05CEA
:1043E0000F4B984642001318DB0041465B56DB0139
:1043F0000F4EB4469C44BB26B6006146A1510D4900
:104400008C4663440436A3511218D20042445168CA
:1044100001228A40BD21890062501A60A0E7C0468F
:1044200090960000E5020000E7020000E6020000AE
:1044300018440041144400410023B022520083502C
:1044400004328350704710B50400AF22520000219F
:1044500003F0C9FE2000FFF7EFFF200010BD0000B1
:10446000F8B5DE4657464E464546E0B504000F0017
:1044700016001D000AAB1B789B460BAB1B789A46B7
:104480000CAB1B7899460DAB1B7898460023436014
:10449000FA239B008360124B083303601430FFF74C
:1044A000D2FF20007D30FF30FFF7CDFF2761B92319
:1044B0009B00E6540B4BE5540B4B5A46E2540B4B16
:1044C0005246E25401334A46E25410334246E25423
:1044D00020003CBC90469946A246AB46F8BDC0467B
:1044E000C89A0000E5020000E6020000E7020000B2
:1044F00070B584B0040008A8057809A80678FF20E4
:1045000003900290019600952000FFF7A9FF20007C
:1045100004B070BD10B504000069FFF7BCFD2000B9
:104520001430FFF789FF20007D30FF30FFF784FF54
:1045300010BDB0235B00C358B22252008058181A35
:1045400000D470475F30FF30FBE710B50400200057
:104550007D30FF30FFF7EDFF0028F8D12069FFF72D
:10456000D5FD10BD10B51430FFF7E3FF10BDB0232B
:104570005B00C2580433C3589A420ADBB0235B0085
:10458000C2585E23FF339B1AB2225200805818187B
:104590007047B2235B00C358B02252008058181AEB
:1045A0000138F5E710B57D30FF30FFF7E0FF10BDB3
:1045B000B2235B00C258043BC3589A4204D0B223D2
:1045C0005B00C358C05C704701204042FBE710B558
:1045D0001430FFF7EDFF10BD10B5481CAF214900A6
:1045E00001F070FC080010BD70B504000D00B02390
:1045F0005B00C158FFF7F0FFB2235B00E358834232
:1046000004D0B0235B00E258A554E05070BD70B5F3
:104610000400B2235B00C258043BC3589A4209D03D
:10462000B22676008359C55C8159FFF7D5FFA051AA
:10463000280070BD01204042FBE770B5040000690E
:10464000FFF754FD00280FD12069FFF73FFD002838
:1046500011D12069FFF755FD002827D12069FFF708
:104660003AFD002836D170BD2069FFF75AFD206958
:10467000FFF741FDE8E7250014352069FFF751FDFC
:1046800001002800FFF7B0FFBA239B00E35CFF2B7B
:10469000DFD02800FFF76BFF0928DADCBB239B0083
:1046A000E358BD229200A2581A60D2E725007D355A
:1046B000FF352800FFF73DFF002807D02800FFF74F
:1046C000A6FFC1B22069FFF732FDC7E72069FFF7F7
:1046D0003FFDC3E72069FFF702FD2069FFF7F2FC09
:1046E000C1E770B50400060014363000FFF78FFFF5
:1046F0000500BA239B00E35CFF2B01D1280070BDAD
:104700003000FFF734FF0A28F8DDBC239B00E35894
:10471000BD229200A2581A60F0E710B50400B02341
:104720005B00C158FFF758FFB2235B00E358C01A83
:1047300043425841C0B210BD70B504000E0000697C
:10474000FFF7DFFC002823D020007D30FF30FFF78B
:10475000F0FE00281CD120693100FFF7E8FC45E09D
:104760000F230B40083B9B0806339B00204A9446CE
:1047700063445B6803220A40D200D3409A090323B2
:104780001340032B04D82069FFF7BBFC002822D17B
:1047900025007D35FF352800FFF7BFFF00281ED01C
:1047A000EFF31083DB07EED4114B5B68DB05DA0D0A
:1047B000002BEDD0103A51B21306D1D48B08C03380
:1047C0009B000C4A9B5803220A40D200D3409A090E
:1047D00003231340D5E72000FFF72FFFD8E7310070
:1047E0002800FFF701FF2069FFF7AEFC012070BD34
:1047F00000ED00E000E100E03F20704710B503004D
:10480000054A1068421C05D11A6852691800904781
:10481000014B186010BDC0465C00002010B582B08E
:104820006B46D97107330268546801221900A0470A
:1048300002B010BD012800D07047084B9942FBD14F
:10484000074B00215960FA2292009A60054A08320B
:104850001A60054A1A611976EEE7C046FFFF0000AC
:10486000300A0020FC9A00004C0A002010B50069B4
:10487000022100F0FFFC10BD10B50300064A1068CD
:10488000421C04D0044B012252421A6010BD186928
:10489000022100F011FEF9E75C00002010B500696C
:1048A000032100F0FFFC10BD10B50400084BDB79BC
:1048B000002B03D101236360002010BD13000A0008
:1048C0000321006900F008FE0028F6D1F2E7C04697
:1048D0001000002010B50378023303704222024911
:1048E000024800F0BFFE10BD180000204C0A002056
:1048F00070B5040003784578A12B03D0212B0AD092
:10490000002070BD212DF9D107221B491B4800F062
:10491000A9FE0120F5E7202D09D0222D0DD0202D54
:104920000FD0222D0DD0232D1DD00020E9E7072226
:104930001149124800F008FDEFE7A2780E4BDA713A
:10494000EDE70D4B1A689623DB009A4203D10A4B20
:10495000DB79DB0703D5FFF751FB0020D1E7FA2015
:10496000FFF746FBF9E7E3781B02A2781343044AFA
:1049700013600020C5E7C046100000204C0A00204C
:104980000C0000207047000010B502490120FFF71D
:1049900051FF10BDFFFF00007047000070B582B0EE
:1049A00003000569002D00D07DE0EFF3108000903A
:1049B0000120019072B60198441E019400280CD089
:1049C0002420185C0028F6D1009B002B02D162B68F
:1049D000BFF36F8F280002B070BD009C002C02D185
:1049E00062B6BFF36F8F90420CD2DC691D6AAC4295
:1049F00008D2651CDD619D69AC46644424780C5482
:104A00000130F0E71A6AD9699142E4D10022DA61F3
:104A100001321A61EFF310810091019272B6019A8E
:104A2000511E0191002A37D02422002199541132BD
:104A30009A5C002AF3D0352299545A681168FF22F3
:104A40009C681440640109190931FF314C78012533
:104A50002C434C709968114049015C686518A9683D
:104A6000DC68A40424094F4E31402143A9609968B1
:104A7000114049015C686418A168890B8903A16031
:104A8000596809689C682240083252018A181179D5
:104A9000402421431171C2E7009B002B9BD162B6D9
:104AA000BFF36F8F97E7EFF3108000900120019024
:104AB00072B60198441E019400280BD03420185C73
:104AC0000028F6D1009B002B02D162B6BFF36F8F96
:104AD000002080E7009C002C02D162B6BFF36F8FEC
:104AE00090420CD2DC6A1D6BAC4208D2651CDD62C0
:104AF0009D6AAC46644424780C540130F0E71A6B8C
:104B0000D96A914200D066E70022DA621A61EFF3B7
:104B1000108200920122019272B6019A511E0191F7
:104B2000002A37D034220021995401329A5C002A9D
:104B3000F3D0352299545A681168FF229C681440BA
:104B4000640109190931FF314C7801252C434C705F
:104B50009968114049015C686518A968DC68A4047B
:104B60002409104E31402143A96099681140490140
:104B70005C686418A168890B8903A1605968096899
:104B80009C682240083252018A181179402421433E
:104B90001171C2E7009B002B00D01CE762B6BFF387
:104BA0006F8F18E7FF3F00F030B583B04368196896
:104BB000FF23826813401A00083252018A18D27902
:104BC000D2076CD508335B01CB180122DA71436937
:104BD000002B66D14168FE3283681A405301CB181E
:104BE0009B689B049B0C0362036A002B29D0012362
:104BF000436152018A18816A5160EFF3108200927A
:104C0000019372B6019B5A1E0192002B13D02423EC
:104C10000122C2541033C35C002B03D13523002280
:104C2000C254EFE73523C254009B002B37D162B644
:104C3000BFF36F8F33E0009B002B02D162B6BFF34E
:104C40006F8F43681A68FF23816819404901521821
:104C50000932FF32517801242143517082681A4091
:104C6000520141688C18A268C16889040909294D5C
:104C70002A400A43A26082681A405201416889189A
:104C80008A68920B92038A604268816812680B40BE
:104C900008335B01D3181A7940210A431A7103B013
:104CA00030BD4168FF2283681A405301CB189B68CE
:104CB0009B049B0C0363036B002BC2D00023436156
:104CC00052018A1883695360EFF310830093012324
:104CD000019372B6019B5A1E0192002B13D034230C
:104CE0000122C254103BC35C002B03D135230022A8
:104CF000C254EFE73523C254009B002BCFD162B6DC
:104D0000BFF36F8FCBE7009B002B9AD162B6BFF346
:104D10006F8F96E7FF3F00F082B002000369002B1F
:104D20001CD1EFF3108300930123019372B600238B
:104D30000198411E0191002803D02423D35CDBB2EB
:104D4000F6E70099002902D162B6BFF36F8F002BFE
:104D500002D0136AD069181A02B07047EFF31083BB
:104D600000930123019372B600230198411E019123
:104D7000002803D03423D35CDBB2F6E70099002986
:104D800002D162B6BFF36F8F002BE5D0136BD06AF0
:104D9000181AE1E710B5002204E030330724A41A02
:104DA0000B550132072A06DC0F2303400009092BAB
:104DB000F3DD3733F2E710BD012800D07047064B12
:104DC0009942FBD1054B064A1A60072300E0013BDC
:104DD000002BFCDAF2E7C046FFFF0000080F0020BE
:104DE0000050004110B50400806903F0DBF9A06AAF
:104DF00003F0D8F9200010BD10B50400806903F05D
:104E0000D1F9A06A03F0CEF9200000F02BFF2000BA
:104E100010BD10B582B00C0000236A46D371D01DBE
:104E2000FFF758FD23689C466044206000F05AFF5D
:104E30006B46D91D00F01AFF23689C466044206031
:104E40006B46D87902B010BD10B5032902D00129F4
:104E50000FD010BD0E4B1B68B22040001C5C80229E
:104E6000524222431A546822FF326338FF38985462
:104E7000EDE7074B1B682431FF31585C802252421A
:104E800002435A542822FF322339FF399954E0E76C
:104E9000080F002070B505000024334B1C70012161
:104EA0002020FEF7ADFF01212020FEF7D9FF2F4B78
:104EB0001C7001211F20FEF7A3FF01211F20FEF718
:104EC000CFFF2B4AD36920210B43D361294B3831C3
:104ED0005A5C012422435A543C22985C4939884345
:104EE0009854995C06200143C9B299545920195C21
:104EF00021431954995C4A3801409954995C6020C7
:104F00000143C9B299541C4B1C4A5A801A4B5B7816
:104F1000DB09FBD11A48FEF7B5FD1A4C200000F062
:104F2000F3FE200000F008FF226811787F230B4079
:104F300013702268137804210B43137022681389BD
:104F40000C218B431381104AC121890053581B0245
:104F50001B0A5350802313602268137802210B43ED
:104F6000137001232B7070BD6D0A00206C0A0020A5
:104F70000004004000440041000C004006400000D6
:104F80003D5C0000080F002000E100E000780028F0
:104F900010D0094B1B681A8901218A431A811A8B88
:104FA00008210A431A831A8B04210A431A83034BEC
:104FB00000221A607047C046080F0020000F002032
:104FC00010B50800114A93699B0B9B03936112680B
:104FD0000823FF330221D1540621FF31545C883B62
:104FE000FF3B234353540823FF33D35C9B07FAD57D
:104FF000074B997A7F2202407F20814311439972A7
:10500000997A802252420A439A7210BD080F0020FA
:1050100000500041F8B50C00832A40D0022A58D035
:10502000032A00D1CFE0822A00D1D6E0002A4FD156
:10503000FF320A40794F500138188368784E334068
:10504000C025AD052B4383608C017649641844600C
:105050003968130008335B015A5C0724A24301241A
:1050600022435A5482691640354385616E4A426133
:105070005A5C7024A243102422435A5482686B4C19
:10508000144080225203224382608268920B920372
:105090008260CB185A7940210A435A7118E0FF23E5
:1050A0000B405E4E5A01B21891695D480840C0211C
:1050B000890501439161A4015B4964185461316819
:1050C00008335B015A5C70208243402002435A54EB
:1050D000F8BD8B00564A9858002802D003685B69D7
:1050E0009847382000F0BAFD0500524B03604B4E44
:1050F0004660846080277F00C760002303614361AE
:10510000C361036224228354C36203631032835455
:1051100001328354380003F03BF8A861380003F0F3
:1051200037F8A862FF231A0022405201B618B2686D
:105130003B491140C02292050A43B2606A68106878
:10514000AA681A4008325201115C0726B1430326AF
:1051500031431154AA681A40520169688C4662446E
:10516000A96951606A681268A96819404901521812
:105170000932FF325178012001435170AA681A4068
:105180005201696888188268E96889040909274E0C
:1051900032400A438260AA681A405201696889183D
:1051A0008A68920B92038A606A681268A9680B4049
:1051B00008335B01D3181A7940210A431A71A400FD
:1051C0001B4BE55084E78C00194BE058002800D1B8
:1051D0007EE70368DB6898477AE7FF230B400F4DB3
:1051E0005A01AA1891690E480840C0218905014357
:1051F0009161A4010C4964185461296808335B016A
:10520000C818047980225242224302715A5C7020ED
:105210008243302002435A545AE7C046080F002008
:10522000FFFFFF8F380C0020780A0020FF3F00F0BE
:10523000500A0020589B000070B505000124272C5F
:105240000BD8A300054A9A58002A06D0210028004E
:10525000FFF7E0FE0134E4B2F1E770BD600000202A
:1052600008314901024B9C46614420234B71704731
:105270000050004110B58A00084BD058002803D0D8
:1052800003689B68984710BDFF2319404901044BF0
:10529000591888688004800CF5E7C046500A002041
:1052A000080F002010B50C00FFF7E4FF00280DD018
:1052B000074B1B68FF210C40083464011C196279FC
:1052C00080235B42134363710223E37110BDC04628
:1052D000080F002010B58A01184BD218FF2319407F
:1052E000174C4B01E3185A609A6816481040802208
:1052F000920202439A609A68920B92039A60226823
:105300000B0008335B01D31818794024204318712F
:105310000B0008335B01D3189B795B06F8D50B00B3
:1053200008335B01D318DB79DB07F8D54901044B5F
:10533000591888688004800CC0B210BD380C002059
:10534000080F0020FF3F00F070B50E0015000B4B5A
:105350001968822252008B5C402423438B54002125
:10536000FFF7B8FFA84200D928000023AB4204D2BF
:10537000034CE45CF4540133F8E770BD080F0020DF
:10538000380C0020FF2319404A01104B9B189B68E2
:105390009B049B0C3F2B11D9403B0C488018826822
:1053A0009B049B0C920B9203134383604901074BB0
:1053B000591888688004800CC0B270474B01034ABA
:1053C000D21893689B0B9B039360EFE7080F0020B4
:1053D000F0B5C64600B507000C0015001E00314BA5
:1053E0001B68002B5BD0304B1B78002B11D02E4B51
:1053F00064221A70A3002D4A985800280ED0036822
:105400005B683200290098470600300004BC9046D3
:10541000F0BD00211F20FEF723FDE8E72100380042
:10542000FFF728FFB04234D321003800FFF7AAFF6E
:105430001F4B1B68FF222240904652019B180933E4
:10544000FF331A7801210A431A70A3011949591828
:105450003200280002F0BEFE002ED6D02100380017
:10546000FFF708FF0028D0D1114B1A6843460833D4
:105470005B01D31819794020014319710121D971B9
:1054800043465B01D3180933FF335A780A435A70F5
:10549000BBE721003800FFF7EDFE0600C4E7012658
:1054A0007642B2E7000F00206C0A0020500A00206C
:1054B000080F0020380C002000B583B001236A4695
:1054C0000732FFF785FF012803D16B46D87903B077
:1054D00000BD01204042FAE7F8B5DE4657464E4689
:1054E0004546E0B50F0091469846444B1B68002B9B
:1054F00000D17BE08023DB01984500D97AE0404B66
:105500001B78002B05D03E4B64221A7000239A466C
:1055100056E000212020FEF7A3FCF4E7394B186881
:10552000394900F049FC394B5843172100F044FC3D
:1055300000E018002C00083464013419E3799B075B
:105540004CD4334BDB5D002B02D1431E0028F0D13D
:105550002F4B0122DA556D012E4B5D19AB699B0B68
:105560009B03AB6101235B429A4650463CBC90468C
:105570009946A246AB46F8BD4446BB01264A9B4627
:10558000934422004946584602F024FE6A01214B0A
:105590009B185A465A619A69A104890C920B92038E
:1055A0000A439A6108356D0176190223F371727905
:1055B000823B13437371A24443461B1B9846A1448C
:1055C0004346002BD1D0134B1E68FF253D402B00D6
:1055D00008335B01F3189B79DB099FD10C4B002248
:1055E000DA554346402BC7D94024C6E701235B4226
:1055F0009A46BAE701235B429A46B6E7000F0020BD
:105600006D0A00200400002040420F0070110100CC
:10561000700A0020080F0020780A002070B50E00E4
:1056200011001C00B5010C4BED182200280002F0FF
:10563000D1FDFF2232405101084A52185561936949
:1056400007490B4093619169A3049B0C890B890363
:1056500019439161200070BD780A0020080F0020D6
:10566000FF3F00F0F0B5C64600B507000E009046BB
:10567000104B1B78002B18D10F4B1B78002B0CD133
:1056800014000025002C10D07219230000213800CE
:10569000FFF7C4FF2D18241AF4E7084D2C8808489A
:1056A000201802F097FD44442C80404604BC9046EC
:1056B000F0BDC046F80D0020FC0E0020FE0E0020BC
:1056C000FC0D0020F8B500AF0C001500012A29D907
:1056D000D31DDB08DB006A46D31A9D466E460800E0
:1056E00003F028F901304000307003237370022268
:1056F00003E00021F1540232D2B2AA4209D2217849
:10570000002906D00134531CDBB2B1549D42F0D1C4
:105710001A0031000448FFF7A5FF431E9841C0B2AC
:10572000BD46F8BD0020FBE74C0A002010B500295B
:1057300006D0084B01221A70074B00221A8010BDB8
:10574000044B00221A70044B1A880449FFF78AFFA1
:10575000F5E7C046FC0E0020FE0E0020FC0D0020E8
:10576000F0B5C64600B584B004008846002603960E
:105770001B4F01253D7003A9FFF74BFB6B469E7144
:1057800009236A461370073B53705571A023D371E8
:105790006E3B1372039B0933538010713E70434676
:1057A000092B17D00023039301212000FFF7BEFF30
:1057B000092269462000FFF755FF03A92000FFF7E3
:1057C00028FB00212000FFF7B1FF012004B004BC3A
:1057D0009046F0BD092269462000FFF743FFF4E739
:1057E000F80D002070B592B005000C00CE78022EA6
:1057F00012D000F077FA210000F04CFA002814D102
:10580000012E16D0032E5BD1A278002A17D1E3888F
:10581000032B46D92C4949E0C9882C48FFF7A0FF43
:10582000431E9841C0B212B070BDC317181AC00F02
:10583000F9E7E288112A37D8D2B2254936E0022AA0
:1058400005D0012A09D0032A0DD00020EBE7A27968
:1058500020492800FFF736FFE5E7A2791E49280016
:10586000FFF730FFDFE71D4B186801AE3100FFF78F
:1058700091FA1B4B186803A9FFF78CFA194B1868AB
:1058800005A9FFF787FA184B186807A9FFF782FAEE
:1058900020230022F254A27931002800FFF712FFE2
:1058A000C1E7DAB2084901E009490022002909D01C
:1058B000002A00D10A782800FFF7D4FE0120B2E7C1
:1058C0000020B0E70020AEE7849B00004C0A0020D7
:1058D000949B0000709B0000889B00000CA080003F
:1058E00040A0800044A0800048A08000FF230B401F
:1058F0005B010349C9188B699B0B9B038B61704744
:10590000080F002070B505000C000B79002B08D0A3
:1059100000F0E8F9210000F0CDF9041E0DD02000C0
:1059200070BD0800FEF7E4FF002801D00124F6E76F
:1059300000212800FFF7DAFFF8E700212800FFF731
:10594000D5FFECE730B583B005000C004B780B2B8E
:1059500000D999E09B004E4AD3589F46002094E01E
:105960000B78002B0ED001AB00221A80494B1B781C
:10597000012B0FD0022301AA00212800FFF74EFEC1
:10598000012082E001AA138002330021FFF746FEC6
:1059900001207AE001AB01321A70EBE78B78012B22
:1059A00012D101AB00221A803B4B1B78012B07D090
:1059B000022301AA00212800FFF730FE012064E045
:1059C00001AB01321A70F3E7324B00221A7000214A
:1059D000FFF78CFF012058E08B78012B03D0002BC0
:1059E0000ED0002051E02C4B01221A7001AA2B4B43
:1059F0001B78137001230021FFF710FE012044E003
:105A0000244B01221A700021FFF770FF01203CE0B7
:105A10008978FFF7D5FA012037E0FFF7E3FE34E09D
:105A200001231F4A0021FFF7F9FD01202DE00B782B
:105A3000DB0601D0002028E0FFF7FEFBA278184B20
:105A40001A60184B1B682A21FF315A5C022002435E
:105A50005A544A21FF315A5C012002435A54002112
:105A60002800FFF743FF01200FE001230E4A002129
:105A7000FFF7D4FD012008E08A780B4B1A60002163
:105A8000FFF734FF012000E0012003B030BDC04625
:105A9000209B00006E0A0020770A0020AC920000D4
:105AA000000F0020080F0020040F0020F8B50700A9
:105AB0005B4B1B78002B00D0B1E05A4B1B689B8BD3
:105AC0001B075AD4574B1B689A8B520719D50422CF
:105AD0009A83554B1B78002B07D0534A1378013B10
:105AE000DBB213701378002B59D0504B1B78002B6E
:105AF00007D04E4A1378013BDBB213701378002BAA
:105B000052D0484B1B680822FF329A5CD2062CD533
:105B10000822FF3210219954F4315A5C402002438C
:105B20005A54434B1B7860221A4242D140493800F4
:105B3000FFF708FF002841D03A4B19680622FF32D0
:105B4000885C80235B4203438B54364B1B680822DE
:105B5000FF329A5C520608D50822FF324021995440
:105B6000C8315A5C402002435A542E4B1B681E8C8D
:105B7000F6B201239E43002434E000220021FFF707
:105B800049FA284B1B680A21FF315A5C1020024356
:105B90005A54284A0021116008229A8392E7012171
:105BA0002020FEF75DF9A0E701211F20FEF758F93C
:105BB000A7E71F493800FFF7A5FEBBE70021380023
:105BC000FFF74EFBC1E7AB001B4A9858002821D0D5
:105BD00003681B6898470123AB409E430134E4B23D
:105BE000082C1CD8002E1AD0250033002341DB07D7
:105BF000F4D50C4B1A68230008335B01D318DB790A
:105C0000DB07E0D4230008335B01D218D3799B076C
:105C1000E1D5D8E721003800FFF716F9DBE7F8BD3A
:105C2000FC0E0020080F00206D0A00206C0A0020E6
:105C3000380C0020000F0020500A002010B5024848
:105C4000FFF734FF10BDC0464C0A002010B50249D2
:105C50000120FFF7B1F810BDFFFF000010B502F002
:105C600097FA10BD10B502F09DFA10BD70B50E0088
:105C700044680025002C0BD023685B6831002000AD
:105C80009847002802DB2D18E468F3E701256D42F0
:105C9000280070BD70B50D004468002C08D0236842
:105CA0009B68290020009847002802D1E468F4E7A7
:105CB000002070BD70B50D004468002C08D023682A
:105CC0001B68290020009847002802D1E468F4E707
:105CD000002070BD02230370023343700023436031
:105CE0007047000010B5064B1B68DB0701D505485F
:105CF00010BD0448FFF7EEFF014B01221A60F6E7E2
:105D00000C1000201010002070B50400050004CD18
:105D1000137801210B4313708022520000212800C8
:105D200002F061FA23689A78D207FBD49A78920736
:105D3000F8D45D6270BD0000F0B5174B1A68530BC4
:105D40001F210B40940C2140D20D072422401F2B11
:105D50001CD01F291CD0072A1CD004681F263340E2
:105D6000258D9B010D4F3D402B4323850468238DDA
:105D70000E401F218B431900314321850068038D9C
:105D80001103074A1A400A430285F0BD1A3BE0E7B7
:105D90000239E0E7043AE0E7246080003FF8FFFFC3
:105DA000FF8FFFFF02B4714649084900095C4900B2
:105DB0008E4402BC7047C046002243088B4274D315
:105DC00003098B425FD3030A8B4244D3030B8B42FC
:105DD00028D3030C8B420DD3FF22090212BA030C05
:105DE0008B4202D31212090265D0030B8B4219D3E6
:105DF00000E0090AC30B8B4201D3CB03C01A524106
:105E0000830B8B4201D38B03C01A5241430B8B424D
:105E100001D34B03C01A5241030B8B4201D30B0336
:105E2000C01A5241C30A8B4201D3CB02C01A52415D
:105E3000830A8B4201D38B02C01A5241430A8B4220
:105E400001D34B02C01A5241030A8B4201D30B0209
:105E5000C01A5241CDD2C3098B4201D3CB01C01A23
:105E6000524183098B4201D38B01C01A524143092D
:105E70008B4201D34B01C01A524103098B4201D31B
:105E80000B01C01A5241C3088B4201D3CB00C01A88
:105E9000524183088B4201D38B00C01A5241430800
:105EA0008B4201D34B00C01A5241411A00D2014625
:105EB000524110467047FFE701B5002000F006F898
:105EC00002BDC0460029F7D076E770477047C0464C
:105ED0008446101C62468C46191C634600E0C0468E
:105EE0001FB501F0D1F8002801D40021C8421FBD20
:105EF00010B501F01BF84042013010BD10B501F0A3
:105F0000C3F8002801DB002010BD012010BDC046F1
:105F100010B501F0B9F8002801DD002010BD012006
:105F200010BDC04610B501F03DF8002801DC00208E
:105F300010BD012010BDC04610B501F033F8002897
:105F400001DA002010BD012010BDC046002B15D184
:105F5000002A13D1002906DB01DC002806D000202E
:105F6000C043410802E080210906002007B402482E
:105F700001A14018029003BD55FFFFFF03B468461E
:105F800001B5029800F062F9019B9E4602B00CBC7C
:105F90007047C046002B11D1002A0FD1002900D133
:105FA000002802D00021C943081C07B4024802A1FE
:105FB0004018029003BDC04615FFFFFF03B46846BA
:105FC00001B5029800F076F8019B9E4602B00CBC29
:105FD0007047C04670B500220C4B04000D00FFF75F
:105FE000ABFF002804D12000290001F0BBFE70BDEA
:105FF000064B00222000290001F022FB01F0B2FE36
:1060000080231B069C466044F1E7C0460000E04147
:1060100070B505000C000022002328002100FFF7C6
:106020006DFF002808D12800210000F00FF80200C1
:106030000B001000190070BD80231B06E11828001A
:1060400000F004F8002342428B41F2E770B50022D1
:106050000B4B0D00040001F087F8FFF7BBFF0600B3
:1060600001F0E6FE0022074B01F07EF802000B0073
:106070002000290001F0E4FAFFF7ACFF310070BD09
:106080000000F03D0000F04170B50600080001F08E
:106090009FFE0022064B01F067F80D00040030005F
:1060A00001F0C6FE2B00220000F0EEF870BDC046E5
:1060B0000000F041F0B557464E464546DE46E0B595
:1060C00004000D009246994683B08B4230D82DD003
:1060D0004946504601F0F0FE29000600200001F07C
:1060E000EBFE331A9846203B9B4633D45A46534620
:1060F000934042461F00534693401E00AF423AD899
:10610000AF4200D178E05B46A41BBD41002B00DA12
:1061100075E0002200230092019301235A46934028
:106120000193012342469340009328E08242CFD955
:1061300000220023009201930C9B002B01D01C60D5
:106140005D600098019903B03CBC90469946A24618
:10615000AB46F0BD424620239B1A5246DA404146E8
:1061600013004A468A40170042461F435346934055
:106170001E00AF42C4D9002200230092019343467F
:10618000002BD9D0FB0772081A4346467B080EE065
:10619000AB4201D1A2420CD8A41A9D41012024197E
:1061A0006D410021013E24184D41002E06D0AB4226
:1061B000EED9013E24196D41002EF8D100980199C5
:1061C0005B4600196941002B24DB2B005A464446EC
:1061D000D3402A00E2401C005B461500002B2ADB5E
:1061E00026009E40330026004746BE403200801AFB
:1061F0009941009001919FE7A342BCD883E74246B2
:10620000202300219B1A0022009101920122DA40F2
:10621000019286E7424620239B1A2A0046469A406E
:106220002300F340444613432A00E2401C005B462F
:106230001500002BD4DA42462F0020232600974079
:106240009B1ADE403B003343CDE7C046F8B5CE464F
:10625000474680B59146984604000D0001F060FE67
:1062600007000E0002000B004846414601F030FED8
:10627000241A8D41089B380031001C605D600CBC05
:1062800090469946F8BDC046F0B54F46D6464646BC
:106290000D0001001800C0B517002B035A0A4B0F60
:1062A0001343CA00914602036E004100520AEC0FEC
:1062B0007D0F1543760D490DC00F8246AC46FF0099
:1062C000721A844200D198E0002A00DC81E00029A3
:1062D00000D1B6E0C9498E4200D172E18021280088
:1062E000090408438446382A00DD5EE11F2A00DDE8
:1062F000EEE1202039006546801A8740D140854074
:106300000D4339004F1EB9416746D7402943DB1B77
:106310004A46551AA945894149425B1A984643465F
:106320001B0200D4CCE043465B025B0A984643461E
:10633000002B00D12CE1404601F0A0FD01000839FE
:10634000202228004346521A8B40D0408D40034300
:106350008E4200DD17E18E1B721C1F2A00DDA7E1B3
:10636000202118002E00891A8D408840D640D34045
:10637000691E8D4130439846002605436B0709D0BE
:106380000F232B40042B05D02B1DAB42AD416D429A
:10639000A8441D0043461B0200D494E0974B721C96
:1063A0009A4200D19DE04146954BED0819400B0003
:1063B000520549075B0229431B0B520D120513437B
:1063C000E4072343080019001CBC90469946A246E6
:1063D000F0BD002A43D08A1B002E00D02AE14C4693
:1063E0001C4300D1D1E1541E012A00D11FE2834D8C
:1063F000AA4200D172E2220023E1002A00DC98E0E8
:10640000002942D07D498E4200D1DAE08021280067
:10641000090408438446382A00DD29E11F2A00DCEC
:1064200087E1110065462039CD40202A04D0402064
:106430006146821A91400F4339004F1EB9410D4306
:106440001BE12900394300D1B5E0511E012A00D1DA
:10645000ABE16A48824200D1B2E10A0043E76949F0
:10646000751C0D4200D0CFE0002E00D093E14946CC
:10647000194300D1D1E16146394300D0E3E14946F7
:106480005807C9080143DB0826E02900394300D139
:1064900091E0511E012A05D05848824200D18FE177
:1064A0000A00B8E73D004D444D4589416344984694
:1064B00049428844434602261B0200D5EBE0013ED8
:1064C0006B0700D05CE74346E9085A0711433200E6
:1064D000DB084A48824221D01B0352051B0B520D98
:1064E0006CE70023002169E72A003A4369D04A4655
:1064F0005807D108DA0880231B0308431A4207D043
:106500002900ED081D4203D12A00FF08480738433F
:10651000430FC1005B07C908194313000A001A435F
:1065200000D113E28022120313431B03334A1B0BD7
:1065300044E7002A4BD08A1B002E00D1E7E02F4809
:10654000814200D195E1802000040343382A00DD18
:1065500043E11F2A00DDDBE120201D004E46801AAA
:106560008540D64035434E4686403000D340461ED7
:10657000B0419C440543ED19BD429B415B426344DD
:1065800098460E007FE01E4A761A13409846F5E6BC
:10659000280001F073FC010018311F2900DCCFE650
:1065A0002B00083883400025D2E662463A431100AA
:1065B0004F1EB941ACE649465807C9080143DB08FC
:1065C00087E749465A07C9081143DB08A6E70D4982
:1065D000701C084200D0BBE0002E00D014E14946F8
:1065E000194300D175E12900394300D07EE14946C5
:1065F0005807C9080143DB086EE7C046FF070000E3
:10660000FFFF7FFFFE0700004946CD1B6146581A79
:10661000A94589414942884601004046091A8846F1
:10662000090200D5A6E04146294300D07FE60023B9
:10663000002451E7C74CA14200D1C7E080242404C4
:106640002343382A54DC1F2A00DDCCE020244846AE
:10665000A41A1D004E46A040D640A5400400D340D9
:1066600062463543661EB441D31A9C46254344E036
:1066700062463A4315006F1EBD414D444D45894168
:1066800049428846984443461B0200D418E7B14B60
:1066900001369E4249D04246AF4B01211A401300B9
:1066A0006A080D401543D9075B0898460D4365E617
:1066B00018001F3EF040202A03D040218A1A934040
:1066C0001D43691E8D410023002698460543F7E6C9
:1066D000110065462039CD40202A04D04020614673
:1066E000821A91400F4339004F1EB94129430FE6EA
:1066F0004A4613431D006B1E9D417D1BAF429B41CB
:1067000062465B42D31A984654460E0007E6484656
:10671000184300D1B3E0501E012A00D10DE18D4D88
:10672000AA4200D1A5E0020010E7320000230021B8
:1067300044E620213800891A65468F408D40D040BC
:10674000791E8F4105433D436746D740DB1994E7E7
:10675000804A904200D1ECE03900494449459241D9
:10676000634452429B18DD0749085B0898460600BF
:106770000D43A5E64A46BD1AAF42894162464942E9
:10678000D31A5B1A98465446D1E56C07F9082143A1
:10679000EB0804009DE64A461A4375D16146394329
:1067A00014D1802300241B03BCE64A46D51BA9450F
:1067B0008941624649429B1A5B1A98460126AEE51A
:1067C0004A46D1085A071143DB08A7E66346F90891
:1067D0005A0754461143DB08A0E64A4613431D00FE
:1067E0006B1E9D41C7E614001E00203CE640202A97
:1067F00005D04024A21A93404A461A4391464D467A
:106800006B1E9D41354378E74A461A4300D06BE63C
:106810006B07F9081943EB0880E66146394354D009
:106820006346F9085C072143DB08040054E64A4646
:10683000BD1AAF42894162464942D31A5B1A984653
:10684000040001266BE54A46D51BA94589416246ED
:1068500049429A1A521A9046120232D54A46BD1A35
:10686000AF42894162464942D31A5B1A98460400F6
:1068700084E56346F9085A071143DB084EE6F90838
:1068800068070143EB0824E662463A4300D198E6E4
:106890004A46D1085A071143DA0880231B031A42DB
:1068A00008D06046C5081D4204D154462A00F908A4
:1068B000430719434B0FC9005B07C908194313006D
:1068C0002CE64146294300D0FAE500230A000024C3
:1068D00002E66B07F9081943EB08FDE56346F90882
:1068E0005B07194363460400DB0817E63D004D448F
:1068F00063444D45894198464942884443461B02BA
:1069000000D4DDE54246144B01261A409046D7E5F7
:1069100010001E002038C640202A05D04020821AD0
:1069200093404A461A4391464D466B1E9D4135435E
:1069300021E602000023002140E54A46D519BD4268
:1069400089416344984649428844B3E50021014A9D
:106950000B0033E5FF070000FFFF7FFFF0B5574650
:106960004E464546DE46E0B5814605000C0348002C
:1069700092461F0085B0240B400DCE0F002859D041
:10698000874B984200D198E06B0FE4001C438023B2
:106990001B0423439846834BED009B4600239946F6
:1069A000834400933C037B005046240B5B0DFF0F98
:1069B000002B67D07A4A934218D07A49420F8C460E
:1069C000E40059461443802263441204CB1A144352
:1069D0009B46C200002033007B409A464B460F2B5B
:1069E00000D9EFE070499B00CB589F466F4B524651
:1069F0009C462243E344002A00D095E04946022306
:106A00001943894600240220E5E7002300240025DD
:106A100052461B052343D20713432800190005B033
:106A20003CBC90469946A246AB46F0BD00240025EA
:106A30005B4BEDE74B462343984600D189E0002CA1
:106A400000D1E0E1200001F019FA010002000B3949
:106A50001D235B1A49461000D940083884400B00BA
:106A60004D4623439846854051483C03831A9B4634
:106A70000023994600937B005046240B5B0DFF0FCB
:106A8000002B97D15246224355D0002C00D1CAE1A9
:106A9000200001F0F3F902000B3A1D2301009B1ABC
:106AA00052460839DA408C40144352468A40414BE2
:106AB00058449B46834400208DE74B462343984629
:106AC00040D108239946063B00258346009369E799
:106AD000B246009B022BA9D0032B00D111E2012B5F
:106AE00093D0354A5A44002A00DC3CE16B0700D0C1
:106AF000A7E1ED084346DB0106D542462F4B1A407D
:106B000090468022D2005A442D4B9A428EDC434656
:106B1000520558075C020543240B530D78E7BA462B
:106B2000A04615000090D4E74A4603231A43914635
:106B3000032052464FE74946012319438946002462
:106B4000012048E70C239946093BA0468346009361
:106B500028E70423994600239B4601330025009330
:106B600020E7002380249A4600250D4B24034FE79D
:106B7000802341461B03194208D01C4206D11C4306
:106B80002403BA461500064B240B41E780244346F4
:106B900024031C432403B246014B240B38E7C046B0
:106BA000FF07000001FCFFFFA89B000001F8FFFFAA
:106BB0000DFCFFFFF3030000FF030000FFFFFFFEDB
:106BC000FE070000444500D216E100D111E1012387
:106BD0005B429C462E0040460025E3442302140EEF
:106BE0001C431B0C994623041F0C120249460092B9
:106BF0000197FFF767F902007A430B04310C8046D6
:106C000019438A420BD901235B429C460919E0448F
:106C10008C4204D88A4202D9831E98460919881AE0
:106C20004946FFF74FF909048C4631046646019A3C
:106C3000090C4243030031438A4204D90919013B3C
:106C40008C4200D811E1891A4246009E12041A4370
:106C5000330C1F00100C9046029313043204160CE0
:106C600032001B0C5A4303967B4346437843170C70
:106C7000BC469B1963449E4203D980267602B446E3
:106C800060441E0C301816041B04360C9E198142F9
:106C900000D29CE000D197E0AE1B091AB5428041BA
:106CA0004042081A844200D111E14946FFF70AF92F
:106CB000019A0B044243310C050019438A4207D95B
:106CC0000919013D8C4203D88A4201D9851E091950
:106CD000881A4946FFF7F6F809048C4631046646DF
:106CE000019A090C4243030031438A4207D909192A
:106CF000013B8C4203D88A4201D9831E0919039EA5
:106D0000891A32002D041D43029F2B041B0C5A4389
:106D10007B439C46280C4643130CB444634478439D
:106D20009E4203D980267602B44660441E0C1204AB
:106D30001B04120C30189B18814206D302D0012389
:106D40001D43CEE6002B00D1CBE661186E1EA1429A
:106D500000D2A4E0814200D2C9E000D1D9E03500E0
:106D6000EDE701256D420121891A382900DD4CE645
:106D70001F2900DC7FE01F235B429A1A4346D34061
:106D8000202904D04446654A5A44944025436A1E4B
:106D9000954107222B43150000241D401A4200D1C3
:106DA000A1E00F2200241A40042A00D198E01A1D05
:106DB0009A429B415B42E4181300220200D48FE008
:106DC00001230024002523E6B54200D364E74346AF
:106DD0005A1E009B9C4665441F009D429B415B429E
:106DE0001B19C9188C423AD2884263D860D09046A9
:106DF00052E7AA4200D9EAE64346DE0758086B0884
:106E00001E43ED07EAE6484601F038F801000200AB
:106E1000153120321C2900DC1AE64B460838834025
:106E20000025984620E601F029F803001A001532E3
:106E300020301C2A00DC30E65446083B00229C40EF
:106E400035E60F232B40042B00D152E605235B428D
:106E5000AB429B4104355B42ED0898444AE68C42C4
:106E6000C5D1AF42C0D9904616E78A4200D8EAE6BB
:106E7000831E0919E7E62A4A28005A4443469540EA
:106E80009340C8406A1E9541444603432B43CC407F
:106E90005A0792D00F221A40042A88D18DE7350074
:106EA000814200D04BE7009A934200D047E718E6B2
:106EB000AE429CD902235B429C46009BE0449C4628
:106EC00065449D429B415B421B19C918E4E6154A83
:106ED0005A44002A00DC44E701230025984409E6CF
:106EE00065076402240BDB081D43002390E5009E28
:106EF000023D7200B242BF417F423C190919009223
:106F0000CEE78024434624031C432403064B240B72
:106F10007EE5009A9A42EAD33500C4E73E040000B9
:106F20001E040000FF030000FF070000F0B54F46FD
:106F30004646D646944691461A03120B184DC0B5E4
:106F40004C000F0392465A00060080463F0B01207A
:106F5000640DC90F520DDB0FAC420AD0AA4203D018
:106F6000944201D157450DD01CBC90469946A2468B
:106F7000F0BD3D003543F7D1A242F5D152466546FA
:106F80002A43F1D10120C845EED1994206D0002C08
:106F9000EAD13E433000461EB041E5E70020E3E77A
:106FA000FF070000F0B54E4645465746DE46040052
:106FB0001800E0B516001B031B0B324D0F034A00EF
:106FC00099464300A446B0463F0B520DC90F5B0DD6
:106FD000C00FAA4229D0AB4218D0002A2AD13C4384
:106FE000A34665426541002B02D14C46264327D07B
:106FF000002D15D1814228D00220013908400138E6
:107000003CBC90469946A246AB46F0BD4D462E4349
:107010002FD1002AEED13C4365426541002DE9D0D5
:107020000028EDD101204042EAE73D00254320D170
:107030009342EBD0002BDDD14C462643DAD1DBE77F
:107040005B460020002BDBD0D6E79A420ADCE7DB68
:107050004F45D1D810D000204F45D1D20029E1D0E2
:107060000800CDE74342584102234042184001380E
:10707000C6E702204042C3E7C445BDD80020C4454E
:10708000BED2EBE7FF070000F0B54E464546574637
:10709000DE4604001800E0B516001B031B0B314D43
:1070A0000F034A0099464300A446B0463F0B520DD9
:1070B000C90F5B0DC00FAA4211D0AB4214D0002AF9
:1070C0002FD13C43A34665426541002B14D14C4669
:1070D000264311D15B460020002B17D010E03D0065
:1070E000254312D193421CD14D462E430DD1002A87
:1070F00004D13C4365426541002D0DD1814216D03B
:10710000022001390840013800E002203CBC9046D2
:107110009946A246AB46F0BD0028F7D10120404277
:10712000F4E7002BEAD14C462643E7D1E8E79A4240
:1071300006DD434258410223404218400138E5E74A
:107140009A42E9DB4F45DBD806D000204F45DDD21F
:107150000029E3D00800D9E7C445D1D80020C445B0
:10716000D4D2F5E7FF070000F0B557464E46454636
:10717000DE46E0B598460C034B000600924687B009
:10718000240B5B0DCF0F002B6CD0DD4A934200D156
:1071900086E0420FE4001443802212041443D94ACB
:1071A000C500944663440093002399469B4643469A
:1071B00042461E03D20F5B0050469046360B5B0DD5
:1071C00000D178E0CE4A93421DD0CE49420F8C4682
:1071D00000996344F6008C46164380229C441204B6
:1071E00063461643C20000200093009943460131D4
:1071F0008C4649467B4001930F2900D97EE0C24B63
:10720000890059588F465246009B324300D056E1C0
:10721000BB4900268C466344494600930223194328
:1072200089460220E1E74346019334001500834676
:107230005B46022B5ED0032B00D1F3E1012B00D083
:1072400018E1002200240025019B12052243DB07E0
:107250001A432800110007B03CBC90469946A2464C
:10726000AB46F0BD2500054300D141E1002C00D123
:10727000ADE1200000F002FE010002000B391D23E9
:1072800010005B1A3100350008388440D940854031
:107290000C439E48831A0093002399469B4686E739
:1072A0000500254300D01CE108220093022300249E
:1072B00091469B467BE75246324300D10AE1002EBD
:1072C00000D176E1300000F0D9FD02000B3A1D2319
:1072D00001009B1A52460839DA408E401643524646
:1072E0008A40009B8949181A03008C466344002099
:1072F00000937AE700240025814AA5E72F0C2D048E
:107300002D0C2B00110C1204120C53439846130041
:1073100028007B43994648434844834640460B0037
:10732000000C824658467B4350440293814506D95F
:107330009A4680235B029946CA4453460293030C43
:107340009B4643461B0400041B0C98460300434421
:107350000493330C99462B003604360C734398463D
:1073600033007B439A464B465D435F434346554457
:10737000180C4019824503D980235B029A46574472
:10738000050CEB19059343461D042D0C0004401910
:10739000250C2404240C270057436A4390462A00F6
:1073A0003B0C9A464A4361434144514483448845D7
:1073B00003D980235B02984642443F040B0C3F0CE8
:1073C0000904C919270098464B4677435C436E432E
:1073D0005D433B0C9946A4194C4442440395A64294
:1073E00004D980235B02984645440395029B3F04E1
:1073F0005B441E008342804123049846059B3F0C5A
:107400004744984676188E428941474440423D1889
:10741000A846934649428A46C3449F42BF4180459D
:107420008041039BDA449846534640427F420743DB
:10743000240C934592418A4589413F19DC0D049BF8
:1074400075021D43681E85415346524249420A4314
:10745000BF184744F60D7F0235435A023C4315439B
:10746000FB0100D4C1E001216A080D401543E20789
:107470001543640826496144002956DD6B0709D08D
:107480000F222A40042A05D02A1DAA42AD416D428E
:1074900064191500E30104D580211E4AC900144077
:1074A00061441D4A914200DD24E76207ED08640251
:1074B00049051543240B4A0DC6E60197B8E6104A64
:1074C0000320944663444A46009303231A4391469B
:1074D00052468AE64946012319438946002601207F
:1074E00083E60C2200930323050091469B465EE64B
:1074F0000423994600230093013300249B4656E65B
:10750000FF07000001FCFFFFE89B00000DFCFFFFF0
:10751000FF030000FFFFFFFEFE07000000238024A2
:107520000025444A019324038EE60120401A38289E
:1075300000DD86E61F285BDD1F2223005242511A20
:10754000CB401900202803D03B4A62449440254395
:107550006A1E95412A000A4307210D0000241540A8
:1075600011425BD00F2100241140042953D0111D7A
:10757000914292415242A4180A0023024BD50122A3
:107580000024002560E680231B031C4209D01E4214
:1075900007D133431C0343461500240B254A0193AE
:1075A00052E68022120314432403224A240B01973B
:1075B0004AE600F063FC03001A00153220301C2A52
:1075C00000DC84E65646083B00229E4089E600F037
:1075D00055FC01000200153120321C2900DC4EE66A
:1075E000340008380025844053E6009B9C4641E760
:1075F0001249220061442E008D408A40C640691E17
:107600008D4132432A43C4405307B6D00F21114065
:107610000429ACD1B1E765076402240BD2081543F5
:10762000002211E68022120314432403014A240B92
:107630000AE6C046FF0700003E0400001E040000EA
:10764000F8B557464E464546DE460400E0B51F00F5
:1076500010000B03620F4E00CD0F5B0A390313437A
:10766000490AE200440F2143C24C91469246C000B1
:107670007A008046760D520DFF0FA24200D1B4E091
:1076800001246740BB46BD4200D188E0B41AA4463D
:10769000002C00DCB2E0002A00D1C5E0B54A9642D9
:1076A00000D18BE28022120411436246382A00DDA9
:1076B000A1E11F2A00DD16E220270C00BF1ABC4002
:1076C0000200A0466446B840E2404446144302002B
:1076D000501E82416046C14022435B1A49468C1AC3
:1076E000A145924152429B1A984643461B0200D440
:1076F00017E143465B025B0A98464346002B00D1E4
:107700006CE1404600F0BAFB0200083A202120005C
:107710004346891A9340C84094400343964200DD93
:1077200057E1961B711C1F2900DDCBE120221800B8
:107730002600521A94409040CE40CB40621E9441A5
:107740003043984600260443630709D00F232340A3
:10775000042B05D0231DA342A4416442A0441C0075
:1077600043461B0200D4DFE0824B01369E4200D12B
:10777000FBE04246804BE4081A40130071055207B3
:107780005B0222431B0B490D0905ED0719432943F1
:1077900010003CBC90469946A246AB46F8BDB41AD0
:1077A000A446002C58DD002A00D19EE0714A964282
:1077B00000D13BE18022120411436246382A00DDE9
:1077C000C1E01F2A00DCBBE10C00203AD4402200BB
:1077D0006446202C04D040273F1BB9400843804614
:1077E0004446611E8C411443B1E00C0004432AD08E
:1077F000BB46BD422DD0614CA446B4446446002C27
:107800005CD0941BA446002E00D015E14D461D43CC
:1078100000D1C3E1651E012C00D10CE2554EB442EB
:1078200000D1F8E1AC460EE10A00024300D136E196
:107830002200013A012C00D1C6E14E4CA44500D1F2
:10784000F4E0944631E701246740BB46BD4200D0D6
:107850001CE74A4CA446B4446446002C00D1CFE057
:10786000941BA446002E00D15CE1424EB24200D1EE
:10787000ECE18026360433436446382C00DDB3E166
:107880001F2C00DD38E22026361B1C00B4404F467A
:10789000A0466446E74044463C434F46B7403E005E
:1078A000771EBE4134436646F340C918241884420B
:1078B0009B415B429846160088444EE0304A741C57
:1078C000144200D0D6E04A461A43002E00D05BE1B5
:1078D000002A00D1A5E10A00024300D0BBE14A46DC
:1078E0005907D2080A43DB0827E00A00024300D107
:1078F00074E12200013A012C05D01E4CA44500D1B0
:1079000094E0944659E74844484592415B189846AC
:10791000040052429044434602261B0200D5C4E0B4
:10792000013E630700D011E74346B4465907E20819
:107930000A43DB080F498C4540D061461B034905CB
:107940001B0B490D20E701430C00611E8C414C4488
:107950004C45924152429046984443461B02E0D522
:10796000044B01369E4200D09FE0310000230022EC
:107970000AE7C046FF070000FFFF7FFF01F8FFFF97
:10798000FE070000002A00D160E10A0002434DD04A
:107990004A465C07D20822438024DB0824032342A2
:1079A00007D0CE08264204D15D463300C2084907FD
:1079B0000A43510FD200D20849070A431100194364
:1079C00000D1C8E1802109030B431B03D5491B0BE0
:1079D000DAE6D549B61A0B409846B5E6200000F025
:1079E0004DFA020018321F2A00DC8FE62300083807
:1079F0008340002492E608430200501E82416DE657
:107A0000CA4C721C224200D0ADE04A461A43002EF6
:107A1000B8D1002A00D158E10A00024300D059E150
:107A20004A465907D2080A43DB0886E74A465907FF
:107A3000D2080A43DB08C1E7BA4DAA4200D11EE1D1
:107A400080252D042B436446382C5DDC1F2C00DD83
:107A5000D0E0202567462D1B4E461C00FE40AC4062
:107A600034434E46AE403500FB406E1EB541C91A48
:107A70002C434EE04A46141AA14592415242904688
:107A80005F1A3A004746D21B9046120200D58BE09F
:107A90004246224300D030E6002300254DE74A4607
:107AA0005907D2080A43DB0844E742469E4B610867
:107AB0001A401300012214400C43DA075B08984671
:107AC000144341E61A001F3EF2401600202903D05D
:107AD0004022511A8B401C43621E944100233443C0
