:100000000080002041980000D19400002998000051
:1000100000000000000000000000000000000000E0
:10002000000000000000000000000000299800000F
:1000300000000000000000002998000095980000D2
:1000400029980000299800002998000029980000AC
:100050009594000029980000817200002D980000FE
:100060002998000069760000797600002998000040
:100070003D6D000029980000897600002998000055
:10008000299800002998000029980000299800006C
:10009000000000002998000029980000299800001D
:1000A000299800002998000029980000299800004C
:1000B0000000000010B5064C2378002B07D1054B3B
:1000C000002B02D0044800E000BF0123237010BDC4
:1000D000E00700200000000074400100044B10B550
:1000E000002B03D00349044800E000BF10BDC04608
:1000F00000000000E4070020744001001823436062
:100100000160704710B501210400006809F0ACFEE1
:1001100009F0CEFBA06010BD10B5040009F0C8FBCB
:10012000A368C01A636898420AD90121206809F0BF
:10013000CBFE0021206809F0C7FE09F0B9FBA060E2
:1001400010BD0000194BF0B51D78194B87B01E7813
:10015000184B04901B7805910393174B15701B786F
:100160000293002301930133059F019CD118581C71
:10017000BC4217DA049F3F5D1418BD4209D1981C98
:1001800023000E7002991970019B01330193030043
:10019000EAE7B74204D10E70981C03992300F2E7F6
:1001A0000F70F1E70D7007B0F0BDC046EC1801000C
:1001B000ED180100EF180100EE1801000CB40368FF
:1001C00037B504000D008B4222DBC368002B01D041
:1001D000806898472379002B0FD007220E49684684
:1001E0000DF086FB2900694401390978A06807F001
:1001F000D3FA0A49A06807F0CBFA07AA20000699AB
:10020000009206F055FB2369002B01D0A0689847A7
:1002100037BC08BC02B018475C090100AB180100EC
:10022000F0B585B00D0002900392012908DC02218F
:100230002A4A2B48FFF7C2FF0024200005B0F0BD7A
:10024000284B1B780193029B019A5B18013B1B789A
:10025000934224D1013D0026029B34001F78019B6C
:10026000FF1A7B425F41BD42E7DD029B019ADB5DE5
:10027000934204D102211C4A1948FFF79FFF029BB9
:10028000DB5D002E1FD0194A12789A420DD1184B0F
:10029000039A1B781355013400260137E3E7022146
:1002A000144A0F48FFF78AFFD5E7134A12789A429B
:1002B00003D1039B019A1A55EDE702210F4A084822
:1002C000FFF77CFFE8E70A4A12789A4203D0039AC4
:1002D00013550134E1E70126DFE7C0466309010059
:1002E000CC320020EC180100BA090100EF1801001F
:1002F000ED1801008C090100EE180100F60901005B
:1003000001604260704710B504000121006809F0E7
:10031000ABFD0121606809F0A7FD09F0C9FAA060F2
:1003200010BD000070B505000C000E20012109F081
:10033000CBFD00210F2009F0C7FD09F0B9FAAB6829
:10034000C01A084B984203D82000FFF7E5FEF4E7F7
:1003500000210E2009F0B8FD00210F2009F0B4FDA6
:1003600070BDC0462F75000070B505000C000E2052
:10037000002109F0A9FD01210F2009F0A5FD09F0D8
:1003800097FAAB68C01A084B984203D82000FFF7D1
:10039000C3FEF4E700210E2009F096FD00210F2096
:1003A00009F092FD70BDC0462F75000070B50500C4
:1003B0000C000E20012109F087FD01210F2009F01A
:1003C00083FD09F075FAAB68C01A084B984203D850
:1003D0002000FFF7A1FEF4E700210E2009F074FDD4
:1003E00000210F2009F070FD70BDC0462F75000080
:1003F0000CB4036837B504000D008B4222DBC368E0
:10040000002B01D0806898472379002B0FD007225A
:100410000E4968460DF06CFA2900694401390978E3
:10042000A06807F0B9F90A49A06807F0B1F907AA6E
:1004300020000699009206F053FA2369002B01D0A0
:10044000A068984737BC08BC02B018475C09010097
:10045000AB18010070B50D001C001100432D0BD12D
:10046000FFF7A4FF0A4A04210A48FFF7C1FF200052
:10047000094909F0DAF870BD422D03D1FFF774FF86
:10048000064AF0E7412DF6D1FFF74CFF044AEAE7B0
:10049000320A0100CC32002040210100490A01004B
:1004A000640A010000231F2805D9072B03D001335C
:1004B0004008DBB2F7E75B011843C0B2704710B5E4
:1004C00004000322282101F0EDFDC8222E21200086
:1004D00001F088FE10BD10B50422282101F0E2FDD4
:1004E00010BD10B5002101F0AFFD10BD10B5012108
:1004F00001F0AAFD10BD602210B50A43017002216F
:1005000001F0D0FD10BD000010B504000E4B2121FC
:100510001A7801F0C7FD0D4B22211A78200001F056
:10052000C1FD0B4B23211A78200001F0BBFD094BC4
:1005300025211A78200001F0B5FD074B2621200067
:100540001A7801F0AFFD10BD080000200600002061
:10055000050000200400002007000020F8B5147AF0
:100560000500023C624254410F00A400012B04D05C
:100570002600022B03D1102600E02026264330213E
:100580003A78280001F08EFD31217A78280001F0B8
:1005900089FD012232213243280001F083FD282207
:1005A000002C00D108222800014901F07BFDF8BD94
:1005B000340F000070B50600012500291DD0C06D64
:1005C0000CF0DEFF104A114B0CF058F90AF0C8FA93
:1005D0000400306E0CF0D4FF0B4A0C4B0CF04EF9BB
:1005E0000AF0BEFA051E00D10135002C00D10134FD
:1005F0006C213000E2B201F055FD3000EAB26E210C
:1006000001F050FD70BDC0467B14AE47E17AE43F77
:1006100070B516000C000F210500527833781201D6
:100620000B401A432100D2B201F03CFD611C842230
:1006300089B2280001F036FDA11C002289B22800F1
:1006400001F030FDE11C0022280089B201F02AFDF2
:10065000002273680F2B05D90F2A03D001325B08E3
:10066000D2B2F7E71B011A43211DD2B2280089B28A
:1006700001F018FD0022B3680F2B05D90F2A03D013
:1006800001325B08D2B2F7E71B011A43611D280053
:10069000D2B289B201F006FD0F21727B337B920149
:1006A0000B401A43A11D2800D2B289B201F0FAFC16
:1006B000E11DB27B280089B201F0F4FC2100083171
:1006C000F27B280089B201F0EDFC21000931327C77
:1006D000280089B201F0E6FC21000A31727C280072
:1006E00089B201F0DFFC2100B37CF27C0B311A43AC
:1006F000280089B201F0D6FC21000C31B28A280012
:1007000089B201F06FFD21000E312800162289B256
:100710000F3401F0C7FC28000022A1B201F0C2FC96
:1007200070BDC42110B50F224900040001F0BAFCCD
:100730008A2177222000FF3101F0B4FC10BD0000B7
:100740000B0070B5B0331A7820230D00897A52015E
:1007500004001A40002901D060331A438021200090
:10076000890001F09FFC6E7C002E0FD0002220003B
:100770000A4901F097FC6A7C2000094901F092FCCB
:10078000FF222000074901F08DFC70BD802220006F
:10079000024901F087FC3200EEE7C046010200008A
:1007A000020200000302000070B50E008B78B23127
:1007B0000E220D00862113400400294AB13689001B
:1007C000042B28D101F00EFD87218A228900200008
:1007D00001F068FC32782349200001F063FC00221C
:1007E0002149200001F05EFC8421204A890020007C
:1007F00001F08AFC85219E228900200001F052FC34
:100800002A7820001A4901F04DFC002220001949E5
:1008100001F048FC70BD01F0E5FC87218A228900C7
:10082000200001F03FFC32780E49200001F03AFC34
:1008300001220D49200001F035FC84210E4A890077
:10084000200001F061FC85211F228900200001F0B9
:1008500029FC2A782000064901F024FC0122D5E772
:10086000555500001E0200001D020000555555554B
:100870001602000015020000335533550B0070B509
:10088000B433040018880D001600FFF70BFE882112
:1008900002008900200001F005FC2B00B633188807
:1008A000FFF700FE42490200200001F0FBFB2B0095
:1008B000B8331888FFF7F6FD3E490200200001F02A
:1008C000F1FB2B00BA331888FFF7ECFD89210200F9
:1008D0008900200001F0E6FB00223749200001F0EA
:1008E000E1FB2B00BC331888FFF7DCFD3349020025
:1008F000200001F0D7FB2B00BE331888FFF7D2FD94
:100900002F490200200001F0CDFB2B00C0331888D6
:10091000FFF7C8FD8A2102008900200001F0C2FB18
:10092000002E3ED0B068FFF7BDFD26490200200032
:1009300001F0B8FB2B00C4331888FFF7B3FD224940
:100940000200200001F0AEFB002E04D02000327B1C
:100950001E4901F0A7FB00221D49200001F0A2FB67
:100960008C210C228900200001F09CFB2B00B3336A
:100970001A781849200001F095FB230058331A78A3
:100980002000154901F08EFB2300AA7A59331B7809
:10099000012A0AD12B32200010491A4301F082FBB0
:1009A00070BD2B00C2331888BDE72822F3E7C0468C
:1009B00021020000230200002502000026020000A0
:1009C00027020000290200002A0200002D02000078
:1009D0002F0200003102000032020000330200004A
:1009E00010B5040000291BD0406B0AF09BFF0CF0EF
:1009F000EDFD0C4B00220BF03BFB0AF0B1F880231D
:100A00005B02984200D30848C521C2B28900200089
:100A100001F048FBC42111222000890001F042FBB3
:100A200010BDC04600008440FFFF0000CC2110B57F
:100A300004000C22890001F035FB23006433200000
:100A40001A78024901F02EFB10BDC04632030000A7
:100A500070B504000D0003221B4901F023FBC735CC
:100A600007222000194901F01DFB2B78012B19D119
:100A700068221749200001F015FBFF2215492000CC
:100A800001F010FB84222000134901F00BFB982297
:100A90002000124901F006FB25222000104901F038
:100AA00001FB70BD5C220A49200001F0FBFA5322D1
:100AB0000849200001F0F6FA76222000064901F0EC
:100AC000F1FA9222E4E7C0460D0F00001C0F00006F
:100AD000210F0000220F0000230F0000260F00004E
:100AE000440F00000A0010B5203201F07DFF10BD58
:100AF00010B5034B0A001970232101F0D3FA10BD81
:100B00000500002010B5402101F09EFA10BD10B57F
:100B10001C2101F099FA0F23184010BDF8B53021BF
:100B2000040001F091FA38210600200001F08CFA4F
:100B30007F27320005003A403021200001F0B2FA50
:100B40002A0038213A40200001F0ACFA0020F8BD1C
:100B5000F8B53021050001F077FA382104002800AB
:100B600001F072FA802607007642344328003E43A3
:100B7000E2B2302101F096FA2800F2B2382101F0F9
:100B800091FA0120F8BD10B50621040001F04EFBDA
:100B90004022024392B20621200001F023FB0821EB
:100BA000200001F043FB012202430821200092B201
:100BB00001F018FB10BD10B513000A000521FFF766
:100BC000FDFA10BD70B5050030352E780400002EFA
:100BD00035D1038F002B21D1214B616B0D2299421E
:100BE00000D80A3AF1212000090101F05BFA2B78C4
:100BF0000022012B00D0073220001A4901F052FADE
:100C0000194B626B9A4227D90223112221004031ED
:100C10000B702000154901F045FA70BD032B08D078
:100C2000082B17D01A00093A1E2A0DD8083B5B0082
:100C3000DEB2C22132002000490001F033FA2B78E5
:100C4000012BC9D10422CDE70521094A0948FFF744
:100C5000B5FAEEE70126ECE701231022D6E7C046FD
:100C6000C0209002110F0000FF6A7A01350F0000CA
:100C70007F0A0100CC32002010B50A000221FFF7E4
:100C80009DFA10BDF7B50F00117C14000600082274
:100C9000002900D0627C6274227A002A05D11949A9
:100CA0002068814252410132227210252200300018
:100CB0001549FFF753FC627C390030002A4301F0EC
:100CC000F1F901953900300001F0BEF9019B0500F2
:100CD0001842F7D1060020230C481E401D4205D0C3
:100CE0000B49FFF7C9FF01263000FEBD2A00094964
:100CF000FFF761FF01230F2023742368054065740B
:100D0000E360F1E73FDD4A1F09000020CC320020FC
:100D1000A80A0100B90A010010B50A000521FFF771
:100D20004DFA10BD70B504000F251C21200001F004
:100D30008BF928400428F8D006380128F5D920007E
:100D40000021FFF7D8FB02490248FFF7E5FF70BD1D
:100D5000190B0100CC32002070B5050000240126DB
:100D60001D21280001F070F9304201D10134F7E76C
:100D700023000521024A0348FFF720FA70BDC04650
:100D80002C0B0100CC320020C02110B59922490063
:100D9000040001F087F9842105222000FF3101F0D1
:100DA00081F9636B05215B0B024A0348A366FFF7D9
:100DB00005FA10BD460B0100CC320020F0B505004D
:100DC00085B01000140003910CF0DAFB0022124BE6
:100DD0000BF054FD0600686B0F000AF0A3FD0CF049
:100DE000F5FB02000B00300039000BF041F909F06F
:100DF000B7FE01266B464000064332009989280061
:100E000001F082F923000521044A05480096FFF706
:100E1000D5F9300005B0F0BD00006041650B010060
:100E2000CC320020426810B50400002A03D03421DF
:100E3000FFF7C4FFA060A269002A04D03C21200073
:100E4000FFF7BCFFE06110BD10B54160FFF7EAFF9E
:100E5000002010BD10B58161FFF7E4FF002010BD38
:100E6000F8B5040020492148FFF756FF636C002BBA
:100E700000D0984705212000FFF73DFB2000FFF739
:100E8000D1FFC02125009B224900200001F00AF972
:100E90002C352000FFF760FF2B783321221D200026
:100EA000FFF7F0FE22002B783B21183207002000CC
:100EB000FFF7E8FE0021060005002000FFF71BFBFE
:100EC000A36C002B00D09847002F02D06368002B42
:100ED00007D1002E03D0A5696B1E9D41EDB22800FD
:100EE000F8BD0125FBE7C046740B0100CC320020A1
:100EF000426D70B504230400002A0FD0FFF7F6FA04
:100F00001A4D060002001A492800FFF754FEC52EAC
:100F100006D028001749FFF7AFFE0223180070BD66
:100F20002000FFF7DEFA1449060002002800FFF750
:100F300042FE512E05D028001049FFF79DFE0323E5
:100F4000ECE780220221200001F0ACF80021200013
:100F5000FFF7D1FA2000FFF735FE2000FFF780FFF2
:100F600000239842DAD00533D8E7C046CC320020BF
:100F70008E0B01009B0B0100AF0B0100C50B0100A4
:100F8000F8B5037804000E002D4D012B04D1280084
:100F90002C49FFF771FEFEE7232101F055F8842864
:100FA00007D128002849FFF7B7FE05212000FFF7E9
:100FB000A2FA1C21200001F047F80F2707403A0051
:100FC00028002249FFF7F7FD062FF2D0216966605D
:100FD0000B0A891BCA17891851408B4218D2280066
:100FE0001B49FFF799FE0023280023732375052171
:100FF0006368184AFFF7E2F82000FFF731FF002886
:101000000DD028001449FFF737FE05263000F8BD43
:1010100028001249FFF780FE2000FFF703FF23217D
:10102000200001F011F800268428EFD128000C4997
:10103000FFF772FE0D212000FFF75DFAE6E7C046DC
:10104000CC320020E30B0100030C0100190C01005D
:10105000350C0100500C0100660C0100770C0100FA
:10106000A20C0100F0B50F8B85B004003800CE8AC9
:101070000AF058FC9121C9050AF0F6F8051C606BCE
:101080000AF050FC011C281C09F024FF0CF09EFA09
:1010900000221E4B0AF082FC09F062FD892183B216
:1010A0001A0020004900039301F09CF8184D039B9F
:1010B000184A0521280000933B00FFF77FF8300015
:1010C0000AF030FC9121C9050AF0CEF8071C606BCC
:1010D0000AF028FC011C381C09F0FCFE0CF076FA22
:1010E0000A4B00220AF05AFC09F03AFD882187B227
:1010F0003A002000490001F075F83300052128006E
:10110000054A0097FFF75AF805B0F0BD0000E03F30
:10111000CC320020B80C0100D00C0100030070B5E7
:101120002C330D001B78021D0C490400FFF716FA42
:101130000F222B7813400A2B03D129002000FFF740
:1011400091FFF0210F222000090100F0ABFF0622E1
:101150002000034900F0A6FF70BDC0460D0000202E
:10116000180F0000F0B50B8B87B00393CB8A0500F6
:10117000039804930C000AF0D5FB8F21C9050AF0EF
:1011800073F8061CE06B0AF0CDFB011C301C0AF062
:101190006BF82B0040330593061C18780AF07CFB93
:1011A000011C301C0AF060F8061C686B0AF0BAFBE0
:1011B000011C301C09F08EFE0CF008FA294B0022AD
:1011C0000AF0ECFB09F0CCFC892186B23200280041
:1011D000490001F007F8244F244A039B05213800F9
:1011E0000096FEF7EBFF04980AF09CFB8F21C905DF
:1011F0000AF03AF8061CE06B0AF094FB011C301C64
:101200000AF032F8059B061C18780AF045FB011C11
:10121000301C0AF029F8061C686B0AF083FB011CDD
:10122000301C09F057FE0CF0D1F90E4B00220AF0E9
:10123000B5FB09F095FC882186B2320028004900F0
:1012400000F0D0FF3800049B0521094A0096FEF704
:10125000B5FF8A214D3428002278490000F0C2FFF2
:1012600007B0F0BD0000E03FCC320020F90C0100D7
:10127000110D01000300020070B52C330D001B7826
:1012800018320C490400FFF769F90F222B7813403C
:101290000A2B03D129002000FFF764FFF0210F2261
:1012A0002000090100F0FEFE02222000024900F0A9
:1012B000F9FE70BD0B000020180F000070B58B6B9D
:1012C0000C0080219AB24900050000F08BFF052137
:1012D000A36B234A2348FEF771FF8121E36B49008A
:1012E000DAB2280000F0DEFE0421226CFF31280073
:1012F00000F086FF832100224900280000F080FFD3
:1013000080220A21636C12041A432800FF3100F086
:1013100077FF0F2223781340082B11D8062B11D901
:101320008621A36C28009AB2490000F05BFFA36CF1
:101330008721DA43280092B2490000F053FF01E010
:101340000A2BEDD016214C3428002278FF3100F012
:10135000A9FE94212800F722890000F0A3FE70BDA9
:101360002A0D0100CC320020F8B5037804000E00ED
:10137000274D012B05D103212800264AFEF71EFF29
:10138000FEE7232100F060FE842807D128002249CF
:10139000FFF7C2FC05212000FFF7ADF81C2120005B
:1013A00000F052FE1D4907002800FFF7B5FC0F238F
:1013B0001F40062FF2D0636AA6611A0A9B1BD91739
:1013C0005B184B409A4215D20022631CDA77273310
:1013D0001A70280033000521114AFEF7EFFE2000A5
:1013E000FFF73EFD00280CD028000E49FFF744FC13
:1013F0000520F8BD28000C49FFF78EFC2000FFF700
:1014000011FD20000921FFF776F80020F1E7C04622
:10141000CC320020E30B0100030C01003C0D010065
:10142000500C0100660C0100770C010070B50C0037
:1014300001260A781021050000F034FE637833425B
:101440000AD0237A002B07D003211E4A1E48FEF73C
:10145000B5FE6378B343637011212800627800F011
:1014600021FE237A002B0ED00E26A3783340042BC6
:1014700009D0164A03211448FEF7A0FE0423A278DF
:10148000B2431343A370A2781221280000F00AFE91
:101490000E22A3781340083A022B00D00022280025
:1014A0000B4900F0FFFD237A002B09D013221821ED
:1014B000280000F0F7FD62221921280000F0F2FD5B
:1014C00070BDC046540D0100CC320020900D0100CB
:1014D000720F0000F0B50323CA780D00B02104009C
:1014E0001A4087B0490000F0DDFD23004C331B7823
:1014F0006F4E012B03D930006E49FFF7BDFBB221BF
:1015000005222000490000F0CDFD0F222B7813406A
:10151000082B00D980E0062B00D99CE0002304931F
:101520006221049AFF31200000F06AFE049B624AA7
:101530000521300000933B00FEF740FE68680AF08A
:10154000F1F99721C90509F08FFE071C606B0AF0BD
:10155000E9F9011C381C09F0BDFC0CF037F8574BB9
:1015600000220AF01BFA09F0FBFA662107000200CC
:10157000FF31200000F044FE6B68514A0521300025
:101580000097FEF71BFE636B6A685B099A4204D3FF
:10159000032130004B4AFEF711FE236D0021181C79
:1015A000EF68049309F0B0FA002806D00498391CBB
:1015B00009F0AAFA002800D1049F8B21381CC90524
:1015C00009F052FE0CF002F83C4B00220AF0E6F95A
:1015D00009F0C6FA802380B2071C5B01984201D350
:1015E000394B1F88BFB23B0030000521374AFEF758
:1015F000E5FDB5213A002000490000F0F3FDE86860
:1016000002970BF0E3FF324A009001910521300070
:10161000FEF7D4FD07B0F0BD0A2B00D07EE7AF8AFD
:1016200038000AF07FF99721C90509F01DFE0BF07B
:10163000CDFF284A284B0BF021F904900591606BEF
:101640000AF070F90BF0C2FF02000B000498059934
:101650000AF00EFD24E0686A0BF0B8FF0022174B79
:101660000BF00CF90490059168680BF089FF0200FB
:101670000B00049805990BF001F909F071FA0700C5
:101680000AF050F99721C90509F0EEFD0490606B4E
:101690000AF048F9011C049809F01CFC0BF096FFB5
:1016A0000022064B0AF07AF909F05AFA049037E75B
:1016B000CC320020000B0100C20D01000000E03F11
:1016C000D30D0100E50D01003A0E0100270E0100C7
:1016D000E90C0100977329AE2A7BEB3FF8B50D00AA
:1016E000040016002F00FFF7A1FE2000FEF70CFFFC
:1016F00031002000FEF75EFF29002000FFF7DEFD2D
:101700002B7C9837002B2ED01821FF222000FF3190
:1017100000F0C8FCA8213A0020004900FEF778FF3D
:1017200029002000FFF7D6FE2000FFF72DFB200048
:10173000FEF7F7FF29002000FFF702F8290020003C
:10174000FFF732F8320029002000FFF797F8310048
:101750002000FFF745F92000FFF768F92900200075
:10176000FFF776F9F8BD1821F4222000FF3100F0D0
:1017700099FC2A009021200050324900FEF748FFD2
:101780002A009821200068324900FEF741FFC1E796
:1017900070B54B1CDB7F04000D00512B04D00D49AC
:1017A0000D48FFF769FAFEE70022FFF797FF0921CE
:1017B0002000FEF7A0FE29002000FFF75BFD2000BF
:1017C000FFF7C6F9636C002B00D098472000FEF7A6
:1017D00076FE70BD3C0E0100CC32002070B54B1C73
:1017E000DB7F04000D001348512B03D01249FFF793
:1017F00043FAFEE71149FFF78FFA00222900200083
:10180000FFF76CFF29002000FFF788FC636C002BBA
:1018100000D098472000FEF752FE0D212000FEF771
:101820006AFE2000FFF798FAA36C002B00D09847BF
:1018300070BDC046CC3200203C0E0100740E010089
:10184000F0B58DB004910600EF2118001F0005923D
:1018500009F0F0F8CBB27D4C06938BB20793FB1ADC
:101860009BB2CAB220000D0079490293FFF7A3F999
:10187000029B05212000774AFEF7A0FC002303937A
:10188000EF2F01D8023303932A21300000F0CEFC61
:10189000EF2403000621704A6C48FEF7A9FD631B84
:1018A00009932A21300000F0C1FC684C6B4A089073
:1018B00006212000FEF79CFD089B099A9342F0DC6C
:1018C00006212000664AFEF793FD0E21654B0AAC07
:1018D0001A78049B9B78A2700B4063492180042BEB
:1018E0003DD1049B1A7A7E23012A00D02C33042296
:1018F0000AA9CB70300000F0B3FC0E22049B9B7849
:101900001340042B05D0049B5B7C002B01D1FE2FE0
:1019100035D9E1230AA90B70069B039A01334B705A
:101920000123134303228B70300000F099FC079AC7
:101930000599300000F094FC05214C4A4348FEF71D
:1019400057FD0024059BA5422ED01B5D0621009368
:10195000474A23003D48FEF74BFD0134F2E7AA2336
:10196000042221003000E37000F07AFC414B072292
:101970000A93414B2100A3805523A371BAE7049B2E
:10198000069A987AE12302320AA9D2B201370B7083
:10199000FFB24A70D83B012800D00123039ACF70D0
:1019A00013438B700422BFE75F193000FEF793FDED
:1019B000029B002B47D0EF2B3ED9EF24EF3B9BB28D
:1019C0000293F6231B1B05932A21300000F02EFC06
:1019D0001E4D2A4A049006212800FEF709FD049BAB
:1019E000059A9342F0DC280006211D4AFEF700FD0F
:1019F000E1230AA90B70631C4B70039B0322300088
:101A00008B7000F02DFC3900A2B2300000F028FCF1
:101A1000280005211A4AFEF7EBFC00257A5D029B9F
:101A200000925B190621124A08480135FEF7E0FCD6
:101A3000AC42F3D13F19B8E76B461C7A02230393FB
:101A400000230293BDE70DB0F0BDC046CC320020AC
:101A50008C0E0100A00E0100B20E0100C90E0100A3
:101A60003E210100E418010062380000CB0E0100A5
:101A7000E80E0100E105183355330000FE0E0100A9
:101A8000000F0100F8B51F00037804000D001600D8
:101A90000D2B04D00B490C48FFF7EEF8F8BD0321DD
:101AA000200000F0D1FA08231842F8D029002000C5
:101AB0003B003200FFF7C4FE04490348FFF72CF94E
:101AC000ECE7C046CF0A0100CC3200201C0F010019
:101AD000F0B50C0085B02821050000F0B5FA2A21E8
:101AE0000190280000F0A2FB071E5FD0019B4C4E26
:101AF0001B0703D530004B49FFF7BEF8019B5B077E
:101B000003D530004849FFF7B7F8019B9B0703D581
:101B100030004649FFF7B0F83B00454A0521300048
:101B2000FEF74CFB2921280000F08EFA4149020003
:101B300020703000FFF73FF82378752B12D86F2BF9
:101B400007D8522B3DD0552B41D0312B30D001201E
:101B50002CE0703B1800052BF9D808F0DDFD4FF89C
:101B6000F8434F540120E12B20D12921DF3B03AA68
:101B7000280000F011FB210002AB1A790831531E36
:101B8000E38002AB5B792800237100F085FB3B000A
:101B900006213000284AFEF72BFC30000621E3889E
:101BA000264AFEF725FCE088033080B205B0F0BD80
:101BB0002921280000F048FA214B0343A38002208A
:101BC000F4E72921280000F031FBA080F7E703AEFD
:101BD000022332002921280000F0DEFA3388032096
:101BE000A380E3E72921280000F02CFB030202D5A3
:101BF000FF231B06184360600420D7E72921280033
:101C000000F020FBF7E7032303AA2921280000F0B6
:101C1000C3FA02AB02AA9B799288A371A280EBE778
:101C2000CC320020360F0100430F0100510F01009C
:101C30005E0F01007E0F01008B0F01009C0F010061
:101C400000FFFFFFF0B50300D24C5833A5440592C6
:101C50001E2204901B780F00134062321343069338
:101C600000231E000293BCAD29000498FFF730FF4B
:101C7000002800D189E12B78C74C732B00D17FE07D
:101C80000BD8312B00D16FE0522B00D186E002211E
:101C90002000C24AFEF792FA51E0742B00D192E084
:101CA000E12BF4D1EB88200003932A79BC49FEF79D
:101CB00082FF05212000039BBA4AFEF77FFA33001A
:101CC00005212000B84AFEF779FA2D79EB070AD4EE
:101CD000002E08D12000B549FFF71EF80020FF2391
:101CE0009B009D44F0BD60232A001A4007921D42CC
:101CF00002D0AF49A848EFE7039BF41880239B006C
:101D00009C4204DDAB49A448FEF7B6FFE6E7AA49CA
:101D100006ABB819C918039A0BF0EAFD059BA6B2E9
:101D20009B7A012B01D0002ED8D0AB0707D580239A
:101D30009B00FE52813BFF3B029A1A430292029B98
:101D4000069A934200D08EE780260024B600BB5B43
:101D5000A3423FDD3B5D06210093984A23008E4855
:101D6000FEF72CFA0134F2E70422AB5E0421944A18
:101D70002000FEF723FA934BAA88FA52F33BDAE7E6
:101D80006B68914A04212000FEF718FA6B680393F0
:101D90008123039A9B00FA500423CDE7FA20AB88F5
:101DA000C000584309F078FDDE21890509F05CFA8E
:101DB0000BF00CFC854A0090019104212000FEF7F5
:101DC000FDF90223B8E704212000814AFEF7F6F965
:101DD0000823B1E70498FEF772FB059B01209B7A6C
:101DE000002B00D17BE76C4C06212000BB5B794ABD
:101DF000FEF7E4F9062120007B78774AFEF7DEF94A
:101E00003A797B780192FA780621200003930092B8
:101E1000BB78724AFEF7D2F9BB5B0621FB181A1F8A
:101E20001578DA1E12782D06120415435A1E023B4D
:101E300012781B7815431B021D432B00684A2000B3
:101E4000FEF7BCF911A801F0BFFF062120007B7945
:101E5000644AFEF7B3F9BB5B0621FB18053B200083
:101E60001B78614AFEF7AAF9BB5B604A0A3B062170
:101E70002000FEF7A3F9290011A801F0F3FF0222C8
:101E80000D21049009AB781D02F00EFC0621030021
:101E90000500574A2000FEF791F95649002D35DB21
:101EA0000D220DA909A801F05DFF06212000524A6C
:101EB000FEF784F90025384C0DABEB5C06212000C1
:101EC0004E4A0135FEF77AF90D2DF4D10621200096
:101ED0004B4AFEF773F9062120003B7E494AFEF784
:101EE0006DF9802338009B00FD5A1022283D2900FF
:101EF0003CAB143002F0D8FB062106000300424A36
:101F00002000FEF75BF9002E02DA40492000FBE6D4
:101F10007CAE2A0031003CA801F024FF2A003100E9
:101F200011A801F083FF3A4A030002900421200027
:101F3000FEF75EFA049B029A934204D1042120002A
:101F4000344AFEF755FA144C06212000324AFEF7B7
:101F500035F92B4A06212000FEF730F9039B7A1C45
:101F60003B700023AB4203DAF15CD1540133F9E753
:101F700080229200BB5A2000273B9BB2BB52062115
:101F8000264AFEF71BF90120A9E6002E00D06AE6DA
:101F9000A4E6C04604FCFFFFCC3200205F10010025
:101FA000B50F0100C00F0100CC0F0100E10F0100CF
:101FB0000510010050240100E10200007A10010028
:101FC0001E100100020200002C1001003E10010052
:101FD0004F100100881001009B100100B510010096
:101FE000DC100100EF1001000411010017110100C5
:101FF00028110100451101006A1101008211010040
:102000003E2101008711010098110100B311010068
:10201000D6110100EB11010002120100181201009B
:10202000702313B50A1201AC13432370FF236170B0
:10203000A3700321436D200098470022014B1A80B2
:10204000A07816BDFC07002037B5702902D9FFF72C
:10205000E7FF3EBDFF2501AC436D2170200002214A
:1020600065709847044923780A881B0215402B4362
:102070000B806078EDE7C046FC07002037B51024E0
:102080000D12644201AB2C431C7059709A700321ED
:10209000426D180090470020014B18803EBDC0469D
:1020A000FC07002013B5702902D9FFF7E7FF16BD22
:1020B00080235B4201AC19432170436D62702000A4
:1020C00002219847034B20781A78000210431880A9
:1020D000EDE7C046FC070020102313B55B420C124D
:1020E00023436C462370130EA370130C52BA617015
:1020F000E3700621436DA280684698470020014B9B
:10210000188016BDFC07002007B5702902D9FFF71B
:10211000E3FF0EBD80235B4219436B46197069468D
:10212000130E4B70130C8B70130ACB700A71436D36
:102130000521684698476B461878034B00021A78C9
:1021400010431880E5E7C046FC070020F7B50700FC
:1021500016001C000025042B19D870230A12134303
:102160006A4613706B465170981C2200FF210BF0D9
:10217000DBFBA11C7B6D6846C9B298476B46054FD7
:1021800022003000991C3D800BF0B2FB3D882800F6
:10219000FEBDC046FC07002073B5060015001C00FC
:1021A000702902D9FFF7D2FF76BD6B462200197065
:1021B000581CFF210BF0B8FB611C736D6846C9B257
:1021C00098476B46064E1B7832781B0213433380C8
:1021D0006B4622002800591C0BF08AFB3088E3E78D
:1021E000FC07002070B50C00050016000134120A2F
:1021F000FFF758FF2800F2B2A1B2FFF753FF70BDFE
:1022000070B516000C000500120CD2B2FFF74AFFA1
:10221000320A611C2800D2B289B20234FFF742FFB1
:102220002800F2B2A1B2FFF73DFF70BD07B502234F
:1022300001AAFFF7B1FF6B466A461B7950791B0272
:1022400018430EBD13B501AC03232200FFF7A4FF12
:102250002078637800041B021843A378184316BD46
:1022600030B5C1B01400A9236A4613706B4605004F
:102270002200581C01340BF03BFB68466B6DE1B249
:1022800098476B461878034B00021A781043188061
:1022900041B030BDFC070020292310B50C000B70A5
:1022A000436DD1B220009847034B187818802278EC
:1022B00012021043188010BDFC070020014B188843
:1022C0007047C046FC070020074B084A1B68D360D4
:1022D000074AD360074AD360074AD360074AD360EE
:1022E000074AD3607047C046F0180100680200201A
:1022F000A0010020D800002010000020F8030020DA
:102300003003002013000021933319701100074B94
:1023100094310B604B601300E0219C33490019603D
:102320000349A43259601723138070476C003C00A6
:1023300003000A00F0B50F00140085B00500406BE3
:1023400009F0F0FAE2697B6840355343061C2878AF
:102350002D345843400109F0E5FA011C301C08F007
:10236000B9FD051C07F030FF011C08F017FC08F050
:10237000DFFBC0B220700290281C0BF027F9044A42
:102380000090019105210348FDF718FF05B0F0BD4D
:1023900032120100CC3200200F23F0B589B0039037
:1023A00008780F001400AA4D18400A2837D808F002
:1023B000BDF90606363606363609093634004B684E
:1023C000E3600FE0486809F0ADFAFE21061C8905BC
:1023D000606808F0E3FB011C301C08F045FF08F0C2
:1023E000A7FBE0600521E36828004B43994A23617D
:1023F000FDF7E4FE0F23387818400A2800D912E1CF
:1024000008F09EF9150015001101110115001101C8
:10241000110104010401110104018B8AD0E7052197
:1024200028008D4AFDF7CAFE7B689B00C8E78B4AEF
:102430007B689B188A4A934200D8E5E06361039B5E
:10244000666940330493187809F026FA051C3000B9
:1024500009F068FA011C281C08F006FF9321C90541
:1024600008F002FF039B051C586B09F05BFA011C86
:10247000281C08F02FFD0BF0A9F80022794B09F079
:102480008DFA08F06DFB724D774A0521A06133008B
:1024900000902800FDF792FE039B586B09F042FA6A
:1024A0000BF094F806900791049B18780BF038F81D
:1024B00000226E4B0AF0E2F90490059120690BF0BE
:1024C0005FF802000B00049805990AF0D7F90200A2
:1024D0000B000698079909F0CBFD0022614B09F02B
:1024E0005DFA08F03DFB7F2800D9A3E0E0617B7A2C
:1024F000012B01D11333E3615D4A05212800E36913
:10250000FDF75CFE7B680493039B586B09F00AFAA5
:102510008621C90508F0A8FE039B06904033187871
:1025200009F000FA061C049809F0FCF9011C301CA3
:1025300008F09AFE061CE06909F0F4F9011C301C51
:1025400008F092FE011C069808F0C4FC0BF03EF85F
:102550000022444B09F022FA08F002FB049B20629F
:1025600005210090434A2800FDF728FEFB69002B57
:1025700003D1414B1B680493FB61FE69300009F0F5
:10258000D1F99721C90508F06FFE039B051C586B14
:1025900009F0C8F9011C281C08F09CFC0BF016F887
:1025A0000022304B09F0FAF908F0DAFA284D60629F
:1025B0003300324A009005212800FDF7FFFD0F226D
:1025C0003B781340082B3DD8062B3DD92C49606839
:1025D00008F04AFE08F0ACFA012302009A43294BA6
:1025E00005210340A2622800274AFDF7E7FDA36A00
:1025F0000521DB432800254A9BB2FDF7DFFD0023C0
:102600002C34237009B0F0BD214B17E7E368214A51
:10261000934206D963617B7A012B00D00FE71E4BF2
:102620000CE71E4BF6E7052128001D4AFDF7C6FD05
:10263000E36803E77F23052128001A4AE361FDF7D9
:10264000BDFD54E70A2BC1D08023A362D7E7C04663
:10265000CC320020811201004B120100581B0000F7
:10266000A32400000000E03FCC1201000000304035
:10267000081301001A130100E818010035130100C6
:1026800000008243FEFF0000541301006F1301009D
:10269000A42400006B0C0000E02E00006C0C000075
:1026A00096120100EA120100F0B589B006930EAB54
:1026B0001B780590039303000491403318781400AD
:1026C0000AF02EFFC022B64BD2050AF0D7F8049BC1
:1026D000060058680F000AF053FF02000B0030009C
:1026E00039000AF0CBF8059B0600586B0F0009F083
:1026F00019F90AF06BFF02000B003000390009F0F5
:10270000B7FC0AF0ABFF011CFE20800508F0C6FEF6
:1027100007F064FD011CFE20800508F0BFFE07F0F5
:1027200053FD80231B06C01808F002FAC0B22070C7
:10273000049B033060705B7A012B01D1994B23809D
:10274000039B022B0CD0032B43D02378082B01D9F9
:102750000823237063780E2B04D90E23637001E0E5
:10276000914B2380914D05212800039B904AFDF752
:1027700025FD627823780521009228008D4AFDF717
:102780001DFD039B0427002B03D00C37012B00D029
:102790001037069B1E6A300009F0C4F80790380015
:1027A00009F0C0F8011C079808F094FB08F0C0F984
:1027B000814BF318984213D26060049B5B7A012B23
:1027C00018D1039B002B12D0012B3CD0F0235B00CF
:1027D0000FE0237802332370637802336370B4E729
:1027E00005212800754A6360FDF7E8FCE5E7F02362
:1027F0001B016360636805212800714AFDF7DEFC58
:10280000039B8026002B03D0012B1FD08136FF367F
:10281000069B186A09F086F8051C300009F082F85A
:10282000011C281C08F056FB08F082F9049BA060EC
:102830005B7A012B0FD1039B002B0AD0012B00D117
:1028400088E0122306E0F0239B00D2E78026760082
:10285000DEE73C23A360554FA3685A4A05213800A0
:10286000FDF7ACFC049B1A780B231A4274D1C023E9
:102870009B000F22A381544BE381049B1B781340E0
:10288000049A5568082B69D8062B69D9059B586BA3
:1028900009F048F8061C059840300078684380002D
:1028A00009F040F8011C301C08F014FB07F08CFC08
:1028B0000AF08CFE454B002209F070F808F050F940
:1028C000039BC5B2023B012B00D80435049B1B7A45
:1028D000002B00D002350D2D00D90D252B003C4AD0
:1028E00005213800FDF76AFCEDB2049B2574657480
:1028F0001A780B231A423AD1B533E374039B012BA8
:1029000030D9023B012B30D90F22049B1B78134096
:10291000082B2FD8062B2FD9039B022B2FD8002B47
:102920002AD08621069BC905586808F09DFC0AF04C
:102930004DFE284A284B09F0A1FF244B002209F044
:102940002DF808F00DF9049BA0825B7A012B19D1B8
:10295000423312E01E237DE7204B8AE70A2B95D0F5
:10296000AD0093E70223A374CEE70823FBE7062319
:102970006382C9E70A2BCFD00023A38202E0039B26
:10298000032BF9D0A38A094C05212000144AFDF736
:1029900015FC05212000134AFDF710FC09B0F0BD1D
:1029A000FB216940050C00000F0F0000CC32002015
:1029B0008A1301009C13010000F0FFFFBC1301000B
:1029C000D8130100E71301000F1F00000000E03FD3
:1029D000FA1301009A9999999999E93F0303000024
:1029E0001814010029140100F7B514000F220B7808
:1029F00006000D001340082B06D00A2B07D0072B2A
:102A000050D1FC239B0500E04B6963600EE0888A8F
:102A100008F088FF011C08F0C1F8071C686808F07E
:102A200081FF011C381C08F055FA606060680AF0EC
:102A3000CDFD274F00900191264A38000521FDF772
:102A4000BDFB01232200238129003000FFF7A4FCF5
:102A5000220029003000FFF76DFC38002700052117
:102A60001D4AFDF7ABFB2B7C7837002B1CD00323D2
:102A70003A002900300000932300FFF715FE2300E1
:102A8000A022903312011A801F22290030009A7070
:102A90002200FFF737FC23000122A7331A705123CD
:102AA0002370F7BD0023B0E7220029003000009317
:102AB00030322300FFF7F8FD0123220000932900A4
:102AC000230030004832FFF7EFFD0223D0E7C04675
:102AD000CC3200202D1401002914010010B50A0089
:102AE000032102F0F3F810BD10B50A00012102F035
:102AF000EDF810BDF0B585B00A9D019028001C00CE
:102B000002910392002702F0EBF9029BB14E9F4223
:102B100000DB52E1019BB04A04213000DB5DFDF790
:102B20004DFB019BD85D0BF021FF0322AB4B2038FE
:102B30001B68534300935A2800D938E107F000FE80
:102B400033013701370137013701370137013701C9
:102B500037013701370137013701370137013701B5
:102B60002901D900E7006400F400FE000801160105
:102B70005B001F013701370137013701370137018A
:102B80003701370137013701370137013701370185
:102B90003701370137013701370137013701370175
:102BA0003701370137013701370137013701370165
:102BB0003701370137013701370137013701370155
:102BC0003701B2001A017500980081008600A50047
:102BD0008B009C00EB00AE00940070007D00EF00C5
:102BE000A100AA0079008F00B600CA00C6006C00E0
:102BF000CF00D4005F0021002800FFF76FFF210005
:102C00002800FFF76BFF33E021002800FFF76CFF7F
:102C100021002800FFF768FF21002800FFF764FF6C
:102C200021002800FFF75AFF40E021002800FFF7AD
:102C300055FF21002800FFF757FF21002800FFF76C
:102C40004DFF21002800FFF74FFF33E0210028004F
:102C5000FFF74AFFEDE721002800FFF745FF2100BD
:102C60002800FFF741FF07E021002800FFF73CFFA5
:102C700021002800FFF732FF21002800FFF734FF72
:102C8000DFE721002800FFF72FFF21002800FFF7D2
:102C900025FFD2E721002800FFF720FF21002800B0
:102CA000FFF71CFF21002800FFF71EFF210028006E
:102CB000FFF714FF009806F031FE0398FDF72CFA99
:102CC0000121200000F09EFF01371EE721002800AF
:102CD000FFF70AFF21002800FFF706FFE2E72100C7
:102CE0002800FFF7FBFEF5E721002800FFF7F6FEBE
:102CF00092E721002800FFF7F7FE0426013E21009D
:102D00002800F6B2FFF7EAFE002EF7D1D2E7210045
:102D10002800FFF7E9FE21002800FFF7E5FE21006B
:102D20002800FFF7DBFE7BE70426013E2100280098
:102D3000F6B2FFF7D9FE002EF7D1B7E70526013E20
:102D400021002800F6B2FFF7CFFE002EF7D1B1E741
:102D500021002800FFF7C2FE0426013E21002800C2
:102D6000F6B2FFF7C1FE002EF7D1A3E7210028003D
:102D7000FFF7B4FE21002800FFF7B0FE6FE704263E
:102D8000013E21002800F6B2FFF7A8FE002EF7D181
:102D900057E70526013E21002800F6B2FFF79EFE08
:102DA000002EF7D186E7009806F0B8FD82E70221F1
:102DB0000B4A0848FDF71CFB7CE7280002F078F975
:102DC000FFF77CFA05210300064A3000FDF7F6F90B
:102DD00005B0F0BDCC32002047140100F41801000A
:102DE0005E1401006C14010010B51C0002AB100051
:102DF0001B780A00210001F015FEFF2803DD2000EA
:102E0000014906F012FC10BD7914010030B5802490
:102E10000300114AA40180581D190130A8420FD0A7
:102E2000985080249858A40101700C48195AA14266
:102E30000AD15A580132954204D05A50002030BD70
:102E40009B50EEE75B50F9E74D1C1D520120002915
:102E5000F5D19A581A51F2E704200000082000002A
:102E600070B50C000B4B20001E7800253100FFF7D9
:102E7000CDFFAA212000FFF7C9FF074B2000595DB5
:102E80000135FFF7C3FF062DF7D131002000FFF712
:102E9000BDFF70BDEC180100F818010010B50A0064
:102EA0000421FDF78BF910BD10B513000A000421B1
:102EB000FDF784F910BD000070B51E000B00FC3357
:102EC000150000210A22D8680BF03AFD040063289F
:102ED0000BDD6324220007490748FFF7E5FF3200B6
:102EE0002800210002F04CF970BD0028F2DC01241A
:102EF000F0E7C0469C140100CC320020F0B5100071
:102F000085B00C000393150001F084FDFC340A2207
:102F100000210290E0680BF013FD0A220700002157
:102F2000A0690BF00DFD0A2206000021606A0BF07B
:102F300007FD0A2200210090206B0BF001FD009993
:102F40000400F01B07F090FC344902000190344863
:102F5000FFF7AAFF334BFA18334B9A4200D9334F8D
:102F6000334B344A0093964203DD00969E4200DDC7
:102F70000093FA239B009C4242DB2F4C390028002F
:102F800002F014F8280001F0ABFF009BBB423BDBD2
:102F90003A002A492248FFF787FF3900280002F04B
:102FA00005F8061EF9D1280001F06CFF2200244923
:102FB0001B48FFF779FF0121032006F085FF01215F
:102FC000202006F081FF0121052006F07DFF200072
:102FD00006F0A4FC3100052006F076FF3100032046
:102FE00006F072FF3100202006F06EFF15490C48F4
:102FF000FFF754FF0398FDF78FF8019BFF18C4E714
:103000000A2CBBDA0A24B9E7280002F051F828009C
:10301000029901F0CBFF05B0F0BDC046AB14010032
:10302000CC320020007C28E8405973070084D71771
:1030300040DD4A1FFF83D717E7030000BB140100E0
:10304000D3140100F014010073B516008A680B7BDD
:10305000002100926A4668461371517110220BF0EC
:103060006FFC0400094D020009492800FFF71CFF0E
:103070002100300001F097FE040003000421280025
:10308000044AFDF79BF8200076BDC046CC320020F4
:10309000661D0100F7140100F0B510008BB00D00A3
:1030A0000993140001F0BAFCFC350A2200210790B4
:1030B000E8680BF045FC0A2207000021A8690BF024
:1030C0003FFC0A2200210490686A0BF039FC0A22B6
:1030D00006000021286B0BF033FC049B3100050037
:1030E000D81B07F0C1FB4449020006904348FFF794
:1030F000DBFE434BFA18434B9A4200D9424F434BF5
:10310000434A04990393914203DD0391994200DD00
:103110000393FA239B009E425CDB3E4A04929D424D
:103120005DDB3C4E3900200001F0BCFE200002F0C7
:10313000F3F9039BBB4257DB304D3A002800364978
:10314000FFF7B2FE3900200001F0ACFE200001F0D4
:103150006DFE05210300314A2800FDF72FF83200EB
:1031600028002F49FFF7A0FE06F0A2FB08900120DF
:1031700006F0D4FB00231D000593200001F0E4FDC0
:10318000059B05211B18274A059300902B001B481F
:10319000FDF714F8322006F0C1FB06F089FB089B0E
:1031A0000135C01AB042E8D32A001F491348FFF77F
:1031B0007BFE2900059807F0CDFA3B0004211B4A4D
:1031C00000900E48FCF7FAFF0998FCF7A5FF069B54
:1031D000FF18AEE70496002EA1DC01229EE72E0028
:1031E0000A2D9FDA0A269DE72000079901F05AFE72
:1031F00004980BB0F0BDC046AB140100CC320020E7
:10320000007C28E8405973070084D71740DD4A1F27
:10321000FF83D717E70300000C15010024150100F8
:103220005715010077150100871501009F15010052
:1032300010B508000C0001F0F9FD05210300044A57
:103240000448FCF7BBFF200001F07EFD10BDC04626
:10325000B9150100CC32002010B5FFF7E9FF0200DC
:10326000002379320FDB0200093348320BDA0621E2
:1032700007F0FAFA0AF054F9044B002208F08EFB2A
:1032800007F06EFCC3B2180010BDC0460000354008
:10329000F0B506000D0000218BB0049310AB80CB7D
:1032A00003921B78082208A8059307910AF03CFBBB
:1032B00039003000FFF7D0FF059B07AC2030A0722B
:1032C000002B07D006F0F4FA194B984202D8A37AE3
:1032D0000A33A372A37A1033DBB2392B25D007222D
:1032E00020001449A3720AF003FB134E0723300099
:1032F0000521124AFCF762FF2023A3712B7A3000CC
:10330000E3716B7A05212372AB7A0D4A6372002355
:10331000E3722300FCF752FF0C212000049B039A68
:103320000097FFF7E7FB0BB0F0BD6E23D7E7C04671
:10333000C0655200F8180100CC320020DF150100F2
:10334000F5150100F7B50F7A1500092F26D83800BA
:1033500008F0E8FA134907F087FF134907F0BAFDB0
:10336000041CA023114E9B003000EC50104A3B007F
:103370000421FCF723FF201C0AF028F90D4A0090D5
:10338000019130000421FCF719FF280001F090FEA4
:1033900030000949FFF782FD201CFEBDFE24A40574
:1033A000DFE7C046000020410000C842CC320020C8
:1033B00009160100221601003E160100F7B51C0097
:1033C0000B00FC33150000210A22D8680BF0B8FA74
:1033D0000700280001F0F0FC144E03000421300027
:1033E000134AFCF7EBFE280001F0E6FCB84211D1CD
:1033F00030001049FFF752FD6B46200062692169D9
:10340000DF7103F033FD6A462000636921690732EA
:1034100003F0E0FCFCB22800210001F025FD3000A3
:103420003A000549FFF740FD2000FEBDCC320020E8
:103430004C1601006016010073160100F0B585B04E
:1034400003930B00FC33170000210A22D8680BF00D
:1034500077FA041E00D101341D4D230004212800F9
:103460001C4AFCF7ABFE06F023FA0290FA2080001B
:103470006043002426000190380001F065FC3618F6
:10348000642006F04BFA0398FCF746FE06F010FAAB
:10349000029B0134C01A019B9842EDD321003000F9
:1034A00007F058F907000300042128000A4AFCF736
:1034B00085FE330028000521084AFCF77FFE28001E
:1034C00023000521064AFCF779FE380005B0F0BD5F
:1034D000CC32002092160100A9160100BF1601008F
:1034E000CE16010013B5082407490848FFF7D6FC9B
:1034F0002200684606490AF0FBF9220069460548A1
:1035000004F022F913BDC046DA160100CC320020C7
:10351000C5180100AC3D0020F0B50D0087B0FC35AA
:10352000E8680091140000210A2201930BF008FAC8
:10353000254F0200060025493800FFF7B5FC0A2296
:103540000021A8690BF0FCF92149020005003800B0
:10355000FFF7AAFC1F49204B72189A4202D86A183A
:103560009A4203D9FFF7BEFF07B0F0BD310020003B
:1035700001F01CFD2900200001F094FC200001F066
:1035800049FA164902003800FFF78EFC200001F0CE
:1035900045FA134902003800FFF786FC310020008D
:1035A00001F004FD2900200001F07CFC009903A833
:1035B000083105F0E5FF019803A906F02EF803A8ED
:1035C00005F096FFD0E7C046CC320020E31601009C
:1035D000FF160100007C28E8405973071A17010004
:1035E0003B17010070B50B7A1400134D002B11D15D
:1035F000C82212499D239B00E0180AF079F92000A7
:1036000001F056FD0E4B28000521E35C0D4AFCF746
:10361000D5FD70BD012B02D1C8220B49EAE7022B70
:1036200002D1C8220949E5E702212800084AFCF72F
:10363000C5FDFFF757FFE5E7CC320020A0010020D1
:103640007602000078170100680200203003002095
:103650005B170100F7B51D000B00FC33D868002193
:1036600016000A220BF06CF90400300001F0D2F9C8
:103670001E4F02001E493800FFF716FC1D4BE218D2
:103680001D4B9A4204D9FFF72DFF00242000FEBDF8
:10369000300001F0BFF9A0420FD138001749FFF701
:1036A000FDFB28006A692969019403F0DFFB28000B
:1036B0006B69296901AA03F08DFB38001049FFF7F7
:1036C000EDFB2100300001F071FC38000D49FFF7DF
:1036D000E5FB2100300001F0E5FB300001F09AF934
:1036E000094902003800FFF7DFFBCFE7CC320020AA
:1036F00086170100007C28E8405973076016010016
:103700009A170100BB170100DB1701007FB50E00FF
:1037100014000E210F2268461D00FCF7F1FD6846DB
:10372000FCF7F1FD317A0B00413B022B02D9FFF788
:10373000D9FE7FBD2B0022006846FCF78BFEF8E720
:1037400030B506250C0085B014491548FFF7A6FBD7
:1037500014492A00083102A80AF0CAF823000321FC
:10376000114A01A80AF0DCFF6A46104B104C1B7886
:1037700002A9137020002A0003F0E6FF01A80BF055
:103780002BF801A90200200003F0DEFF01226946A8
:10379000200003F0D9FF05B030BDC046DB160100A4
:1037A000CC320020C518010099130100F91701005F
:1037B000AC3D002070B506260C00B6B01C491D4873
:1037C0001500FFF76BFB1C4932000E3102A80AF00E
:1037D0008FF823000321194A01A80AF0A1FF6A46C5
:1037E000174B28001B7804A91370AB685A1C0023E0
:1037F00005F0B4FF134C320002A9200003F0A4FF2F
:1038000001A80AF0E9FF01A90200200003F09CFFD3
:103810002021200005F0F0FCAA6804A9200003F094
:1038200093FF01226946200003F08EFF36B070BD81
:10383000FB170100CC320020C518010099130100CC
:10384000F9170100AC3D0020F0B515008DB01F0048
:1038500014AB1B780391049318AB1B78AE4904009A
:1038600006A80593139E05F08BFEAC49AC48FFF704
:1038700015FBAB4804212B78AA4AFCF79FFC28785B
:10388000073818281DD806F05BFF190031004400E6
:1038900054005F0072008B009A001C001C001C008A
:1038A0001C001C001C001C001C00A700BA00C90062
:1038B000D600E600FE002A011C0038016B68062BCA
:1038C00002D0FFF70FFE0CE007212000FFF738FFC2
:1038D000059B3A00019329002000129B0096FFF7F8
:1038E000D7FC06A805F004FE0DB0F0BD6B68042BF4
:1038F000E7D108212000FFF723FF3A00290020002C
:1039000006ABFFF703FF2000297806AAFFF752FF56
:10391000E7E76B68032BD4D120000921FFF710FFE4
:10392000049B320000932000129906ABFFF75CFA6B
:10393000E9E76B68032BC4D120000A21FFF700FFE1
:10394000794805F0EBFFCCE76B680C2BB9D10B2164
:103950002000FFF7F5FE320029002000159BFFF73D
:1039600079FE01000A2209A805F081FE10E06B68CB
:10397000042BA6D10C212000FFF7E2FE3200290023
:103980002000FFF72FFE0A22297A09A805F05EFE23
:1039900009A906A805F041FE09A805F0A9FDB2E7AE
:1039A0006B68162B00D08CE720000D21FFF7C8FEB6
:1039B00032002900200006ABFFF7AEFDA3E76B68DD
:1039C000032B00D07DE720000E21FFF7B9FE200079
:1039D0000399FFF745FA84E76B68052B00D070E781
:1039E00017212000FFF7ACFE29003B003200200029
:1039F000FFF762FA4D4906A805F017FE83E76B68EA
:103A0000052B00D05DE720001821FFF799FE3B0051
:103A1000320029002000FFF711FDA2E76B68032B9D
:103A200000D04EE720001921FFF78AFE3100200068
:103A3000FFF7FEFB95E76B681E2B00D041E71A21CC
:103A40002000FFF77DFE29003B0032002000FFF739
:103A500055FA3749CFE76B681E2B00D031E72000BD
:103A60001B21FFF76DFE334906A805F0DEFD20009F
:103A7000297806AAFFF79EFE3B00320029002000AD
:103A8000FFF70AFB2DE76B68062B00D019E7200033
:103A90001C21FFF755FE320029002000FFF7D4FA61
:103AA0000600254906A805F0C0FD0222310009A83C
:103AB00005F0DDFD09A906A805F030FE09A805F00E
:103AC00017FD1E4906A805F02FFE3100102209A897
:103AD00005F0CDFD09A906A805F020FE5CE76B689E
:103AE000042B00D0EDE620001D21FFF729FE320057
:103AF00029002000FFF726FCF3E66B68062B00D0B8
:103B0000DFE620001F21FFF71BFE32002900200006
:103B1000169BFFF753FCE4E6402101001218010058
:103B2000CC3200202C180100B80B00003E18010018
:103B30004F1801007C18010097180100AE18010011
:103B400010B5054C0549200005F01AFD2000044A77
:103B5000044906F031FB10BD00080020D91801000F
:103B600000000020F194000010B58360084B016054
:103B70004361084B42600361074B04000362074B3B
:103B80008361074BC36105F093FE6062200010BDA6
:103B90005C8F2A4200202E453333533B00004844BB
:103BA0000000484210B504000021406806F05CF9AE
:103BB0000021A06806F058F910BD000010B50400FF
:103BC000006806F0D9F807F067FE216A07F04CFBA1
:103BD0000A4907F049FB616907F060FC216907F0B9
:103BE00079F909F0F3FC064B002208F047FE09F0D2
:103BF00061FCA36A834200DAA06210BD00007A442F
:103C000000408F4070B50400C669002900D0866965
:103C1000206806F0B1F807F03FFE216A07F024FBA8
:103C2000194907F021FB616907F038FC216907F0A9
:103C300051F9154907F018FB051CA06A07F02CFE86
:103C4000291C06F04DFF002803D0281C07F004FEB5
:103C5000A062291C301C06F043FF00280CD005F0A0
:103C600027FE636AC01AFA235B00984209D905F05F
:103C70001FFE6062012005E0606806F051F900282F
:103C8000EDD0002070BDC04600007A44806A7047C5
:103C9000002383627047F0B585B000910290002147
:103CA0000098019209F040FE00200F2380220100BD
:103CB0000125019CA04235DA08248026A4461C0078
:103CC000029B1B5C33405F1EBB4180276340BF00EB
:103CD0005B023B400393102327011F40039B674077
:103CE0003B435B10002801D1042E01D0002D10D1E0
:103CF00025116C4001252C4204D0009C009D645C81
:103D000014436C5400255210AA4202D1150080229F
:103D1000013101246442A44464467610002CCED1C3
:103D20000130C6E7802080000524102784466646BF
:103D300018011D11384058405D405B023340034379
:103D400001205B10054204D00098009D405C1043A8
:103D50006854521001D101318032013C002CE6D16F
:103D600005B0F0BDF7B50C000600002120001500DD
:103D700009F0DAFDF823220000965B00111B8D424A
:103D800020DD08278026009909783140481E8141AE
:103D9000080058405B109C46019060460B020343AC
:103DA0000120C9004B400199014202D011783143F2
:103DB0001170013F7610002FE5D1009901320131D9
:103DC0000091DBE7F7BD000070B5102604000B4D35
:103DD0003200290009F08CFDA0198022084909F061
:103DE00087FD2000A9193200903009F081FD2000E4
:103DF000A83002F099FD200070BDC0462B190100CB
:103E00004B19010010B50F220C000B0BC35C1440C2
:103E1000045D1B0623430C1214400911045D11407C
:103E2000405C240423430002184310BD70B5050014
:103E30000023B6B090356E46EC5C9C550133102BD8
:103E4000F9D10023934205DA1C00CD5C6C44257443
:103E50000133F7E769461032A83002F029FE36B088
:103E600070BD000070B5FF220C000F25144004192E
:103E7000247C0B0E2C40F025C3181B7C2D011B034A
:103E80001C430B0C1340C3181B7C090A11401B0276
:103E90002B4041181C430B7C05481B0113401C435D
:103EA000A4B223000621034AFCF788F9200070BD64
:103EB000CC3200200C19010003004268080010B544
:103EC000824206D8801A01001C681040214108185F
:103ED000F6E710BDF0B5D14CA54402934369040048
:103EE00001930023079204910DAA01998B4217D1E7
:103EF00063680093049B5E1C049B009AF31A9A4229
:103F000013D800273A000DAB069301998A4228D0B6
:103F10001978E0680F43415C013219700133F4E70E
:103F20000499097899540133DFE70025019B9D42EC
:103F300015D00DABEA5C3778002A0CD0237E617E69
:103F40005B195943E36820009B5CC918FFF7B4FF75
:103F5000A3681B5C5F400DAB5F550135E6E701369A
:103F6000CAE7002F00D149E1C52001250CABC018DC
:103F70000021019A09F0D8FC029B3DAE3570002B60
:103F800034DCE368019A03930023013208923DA8D0
:103F90004EAA08998B4268D3029A029B94460A93D0
:103FA0000DAB634409930592029B01330293029A7D
:103FB000019B934200D2C5E000263500029B9D4242
:103FC00059DA3DABEA5C002A0ED009996B42CB5C12
:103FD0000099994208D003992000895CC918FFF71D
:103FE0006BFFA3681B5C5E400135E7E7A368200018
:103FF0000393637E0593079B1B68D9430893009B3B
:10400000C918059B5943FFF757FF039B1B5C73704F
:10401000E3680993029B9D42B3D00799AA00009BD5
:104020008958013B591A059B20005943FFF744FF6B
:104030006F1C3E003DAB08905D19099A2B78013E3C
:10404000D35C009A9A420BD0FF22089920001140BD
:10405000C918FFF731FF039B6A781B5C53406B70F4
:10406000013D002EE9D13D00D4E7195C039D695C58
:10407000995401338DE7039B9E5D009BB3420ED1A3
:104080000A200CAB4EADFF30C0182900019A09F090
:1040900038FC009B2B70099B0133099384E70025B2
:1040A0003DAB1A785FAB1A70019B9D4214D08422FD
:1040B0000CAB52009B18595D3DAB0135EF5C009B8A
:1040C0008B4206D020007118FFF7F6FEA3681B5C38
:1040D0005F405FABEF54E7E70A9A029B9B18059A93
:1040E000520093421FDD0025059A9B1A05933DABB4
:1040F000EB5C002B0DD16B4618784EAB5855019BED
:104100000135AB42F3D2089A5FA93DA809F0F0FB54
:10411000C1E7039A2000D15C009B891BC918FFF7F7
:10412000CBFEC0B2E9E70A200CABFF30019AC01801
:104130004EA909F0E6FB84220CAB52009B18009AB2
:104140001A70E0E700233DAA0293995C0398415C52
:1041500000989954884200D00293089901339942FB
:10416000F3D8D620C521002701260CABFF30C91893
:10417000C018019A09F0BCFBA37E0993013B05938B
:10418000009BB34235D30123029D0893002D19D023
:10419000EA230CAA5B00D218515D009A8A420FD024
:1041A00020004919FFF788FEEA230CAA5B00D31808
:1041B0005855FF231840A368089A1B5C5A40089280
:1041C000013DE3E7089B002B08D11DAB059ADE55A6
:1041D0002DABDA55029B0137BB4221D0099A059BD2
:1041E0009446634419002000FFF766FE01360590EF
:1041F000C6E7029BBB4213D001277F42079B002BDF
:1042000000D1B6E000232DA8BB4200DBB1E0195C71
:10421000079C9A00A1500133F6E7C046B4FDFFFFAA
:1042200000250995019B9D4229D0029EAE4200DDEA
:104230002E0000230593069A7342D15C009B8B42AB
:104240000DD03DABF35C009A9A4208D0C91820000B
:10425000FFF732FEA368059A1B5C5A400592013EA7
:10426000E9D2059B002B00D00995039B059A9A5C27
:1042700070ABEA54069B013501330693D2E7009AEE
:1042800070AB5A557A1E94467B1E01931DAB634456
:104290000693019B002BB1DB6368099D0093A36823
:1042A0000593069B1E780023039370ABEB5C009A8A
:1042B00093420AD0290071432000C918FFF7FCFD82
:1042C000059B039A1B5C5A400392013DEDD2217E6F
:1042D000009B013971432000C918FFF7EDFD6369A8
:1042E0000A905D1E029B9D4200D91D0001239D4343
:1042F00073006E43089600265B420B933DABEB18B0
:104300005978009B8B4207D0089B2000C918FFF703
:10431000D3FD059B1B5C5E400B9A089B9446023DB7
:1043200063440893AB1CE9D1002E00D164E7039BE2
:10433000002B18D00A99059AE368525C2000995C1A
:10434000039A9A5C9B5D8918009A8918C91AFFF72D
:10435000B3FD019A2DABD25C0499059B895C1B5C73
:104360004B4004998B54019B013B0193069B013BFD
:104370008EE7380093239B009D44F0BDF0B5040008
:104380001500344F85B03800334A03910621FBF7FE
:1043900015FF00216269280009F0C6FA06213800DD
:1043A0002B782E4AFBF70AFF0621380063692C4A56
:1043B000FBF704FF6368062138002A4AFBF7FEFE7C
:1043C00000230193626863690199D31A8B423AD939
:1043D000039B5B5C29784B40E168CB5C02939A427B
:1043E00012D001266369B3420ED922699B1BD15CAE
:1043F000029B2000C918FFF75FFDA368AA5D1B5C44
:104400005340AB550136EDE7636928005A1E691C1D
:1044100009F077FA029B626893420FD0236920006B
:104420001978029BC918FFF747FDA3681A5C6369F6
:10443000EB18013B1A70019B0133C2E7636900224C
:10444000EB18013BF6E706213800074AFBF7B6FEFA
:1044500005B0F0BDCC320020CB190100DF190100FE
:10446000E9190100F7190100011A0100F0B585B042
:10447000070002910192009308284DD801252E00D3
:104480008640964248D9009B002B45D09E4243D996
:104490000A9B9E4240D91C21280009F0A3F9041E62
:1044A00007D152480121524AFBF788FE012009F04A
:1044B000B7F9731E0760436029003000039309F0C9
:1044C00091F9071EA060ECD02900300009F08AF9AC
:1044D000E0600028E5D0731E03700023721EBB54F9
:1044E0002F0062689A420CD9E268D355A268D7546B
:1044F0007F00374201D0029A57406268013317406B
:10450000EFE7012F0CD0A06809F0E8F9E06809F0A6
:10451000E5F9200009F0E2F90024200005B0F0BD23
:104520000A9B3900581C09F05DF92061002807D169
:104530002E4839002E4AFBF741FE2E4805F0EEF9D1
:10454000019B2376009B63760A9B63613800009988
:1045500006F086F90D1E02D06368FF18F6E7012306
:1045600022690099A0761370019A03934A4301923D
:104570000A9BAB422FD02E002369039A5B195A7015
:104580002769002E15D0BB190293029ABB5D013A30
:104590001778002B09D0E2682000D15C019BC91874
:1045A000FFF78AFCA3681B5C5F40029B013E1F7003
:1045B000E6E7E2683B782000D15C019B0135C91831
:1045C000FFF77AFC009AA36894461B5C3B70019B42
:1045D00063440193CCE700230A9A9A429DD322694F
:1045E000E068D15C415CD1540133F5E7CC32002066
:1045F000161A0100B80B000037B50025074C2369D7
:1046000001350093E368A26861682068FFF72EFF18
:1046100060611834052DF2D137BDC046C0040020BA
:104620000E4A70B5030000241500116999420AD1A1
:1046300023000B4806210B4AFBF7C0FD18235C43FF
:104640002C19606970BD01341832052CEDD1044875
:104650000221054AFBF7CCFE6869F3E7C00400209D
:10466000CC320020341A0100441A0100F0B5FF24B6
:1046700015000E000700C3B02200002102A801931C
:1046800009F052F9601B02AB801B32003900C018E0
:1046900009F02EF92800FFF7C3FF019A02A9FFF7DE
:1046A0006DFE43B0F0BD0000F0B5FF2605001F4CC5
:1046B0008F18A5441400F61B3200029104A80021B3
:1046C000039309F031F904AAB31818003A0029003D
:1046D000019309F00DF9164D0621164A2800FBF743
:1046E00087FE44AF2000FFF79BFF00233A0004A998
:1046F000FFF7F0FB029A04000199039809F0F8F81B
:104700000023A34207DA9A00BA58964201D801332F
:10471000F7E701246442280023000621064AFBF73C
:1047200067FE200085239B009D44F0BDECFDFFFF4C
:10473000CC320020931A0100E41A010070B5050084
:10474000060000230400093539364360FF35FF3683
:10475000280006490C3504F013FFAE42F8D12300BF
:104760000022FC332000DA6370BDC0464021010006
:10477000822270B580249200815AA400030000595F
:10478000002901D1007870BD8026451CB6001D515E
:104790009E190078B54200D31B5101399952F2E7B6
:1047A000F0B50400002605008BB0FC344149E663F7
:1047B00001A804F0E5FE290004A8083104F0E0FE99
:1047C0003D4907A804F0DCFE320007A904A804F064
:1047D000DFFF070007A804F08BFE7B1C1AD0320015
:1047E0003B0004A907A804F0E3FF07A901A804F00F
:1047F00014FF07A804F07CFE0C23E06B01A95843CA
:104800000930FF30281804F0EEFEE36B7E1C013304
:10481000E363D5E7069B002B14D00C27E26B04A9B9
:1048200057430937FF37320007A8EF1904F0C0FFDC
:1048300007A9380004F0F1FE07A804F059FEE36B65
:104840000133E3631D4E05213000049B1C4AFBF736
:10485000B5FC052130002B781A4AFBF7AFFC052187
:104860003000E36B184AFBF7A9FC05213000174A1A
:10487000FBF7A4FC0027E36BBB420CDD0C222B00F2
:104880007A430933FF339B5805213000104AFBF768
:10489000AFFD0137EFE705210E4A3000FBF7A8FD19
:1048A000E46B04A804F024FE01A804F021FE20001B
:1048B0000BB0F0BD40210100C83D0100CC3200200A
:1048C000411B0100531B0100661B0100761B010008
:1048D000221101003E210100F7B50D00040008007F
:1048E0000192FFF745FF2800FFF742FF2A4E030021
:1048F000207005213000294AFBF760FC2778AA2F99
:1049000025D1274B01981978FEF780FA39000198D4
:10491000FEF77CFAA83F6368BB4208DD2800FFF77A
:1049200027FF01000198FEF771FA0137F3E705212F
:1049300030001C4AFBF742FC019A1B4B0521D35A5D
:1049400030001A4AFBF73AFC00252800FEBD062776
:104950003000052126006368154AFBF72FFC7F42D3
:1049600008363F1B6368BA19591E914205DD2800BD
:10497000FFF7FEFE30700136F4E70022E31828004E
:104980005A71FFF7F5FE63680125032BDDDD20007A
:10499000FFF706FFD9E7C046CC3200209F10010088
:1049A000EC180100831B010008200000971B010088
:1049B0001E12010070B50400022515482554213847
:1049C0002150D02189006250D1229200A350D223DD
:1049D000049A9B00E250059A0433E250069A04338D
:1049E000E250079A0433E250089A0433E250513BF4
:1049F000FF3BE0186C22002108F096FF9D239B00EE
:104A0000C8220021E01808F08FFF200070BDC046CA
:104A10005D03000083239B00C058704788239B00E0
:104A2000C0587047F0B587B00C000500974903A83F
:104A300016001F0004F0A4FD83239B00E9580A22FE
:104A4000684604F026FE694603A804F07AFE0100D9
:104A5000200004F0C8FD684604F04AFD03A804F0F5
:104A600047FD8B4903A804F08BFD88239B00E95880
:104A70000A22684604F00DFE694603A804F061FEB0
:104A80000100200004F04AFE684604F031FD03A84E
:104A900004F02EFD7F4903A804F072FD68467E49AC
:104AA00004F0B1FD694603A804F04BFE01002000AC
:104AB00004F034FE684604F01BFD03A804F018FD62
:104AC000764903A804F05CFD0A223900684604F028
:104AD000CEFD694603A804F034FE0100200004F076
:104AE0001DFE684604F004FD03A804F001FD6C49B6
:104AF00003A804F045FD3000FFF760F80A2201002A
:104B0000684604F0B4FD694603A804F01AFE0100EB
:104B1000200004F003FE684604F0EAFC03A804F059
:104B2000E7FC604903A804F02BFD3000FFF7AEF866
:104B30000A220100684604F09AFD694603A804F0C1
:104B400000FE0100200004F0E9FD684604F0D0FCFE
:104B500003A804F0CDFC544903A804F011FD534B05
:104B60001022E95C684604F071FD694603A804F070
:104B7000E8FD0100200004F0D1FD684604F0B8FC17
:104B800003A804F0B5FC4A4903A804F0F9FC9E23ED
:104B90009B00E9580A22684604F07BFD694603A899
:104BA00004F0CFFD0100200004F0B8FD684604F0D9
:104BB0009FFC03A804F09CFC3E4903A804F0E0FC21
:104BC0003D4B0A22E95C684604F040FD694603A8B3
:104BD00004F0B7FD0100200004F0A0FD684604F0D9
:104BE00087FC03A804F084FC344903A804F0C8FC43
:104BF000334B0A22E95C0E236846194004F037FD66
:104C0000694603A804F09DFD0100200004F086FD24
:104C1000684604F06DFC03A804F06AFC294903A867
:104C200004F0AEFCD7239B00E95C0A22684604F03E
:104C30000DFD694603A804F084FD0100200004F086
:104C40006DFD684604F054FC03A804F051FC1E49B5
:104C500003A804F095FCA0239B00E95803226846B2
:104C600004F029FD694603A804F06BFD0100200053
:104C700004F054FD684604F03BFC03A804F038FC43
:104C80003000FFF705F8A06807B0F0BDB01B0100C9
:104C9000B81B0100C21B010000080020CD1B010051
:104CA000DC1B0100EA1B0100FF1B01007702000072
:104CB000081C0100151C01007E020000251C0100DB
:104CC00076020000301C0100411C0100D123F7B521
:104CD000D5250400D4279B00C058AD0000910121C8
:104CE0000192BF0005F0F0F86059012105F0ECF8E1
:104CF0000121E05905F0E8F80D4B00981E6870435B
:104D000004F00CFE0198FEF759FFE059002105F070
:104D1000DBF8D1239B00E058002105F0D5F860595D
:104D2000002105F0D1F8300004F0F8FDF7BDC046D1
:104D3000F418010082239B0010B5C018FBF7E7FEB2
:104D4000431E9841C0B210BD822310B59B00C0180D
:104D5000FBF7D8FE10BDD1239B0070B504000E00F8
:104D6000C0580121150005F0AFF8D5239B00E0588D
:104D7000012105F0A9F89D229200A1186C3AABB26E
:104D8000A0183200FCF77EFE70BD9D239B00C21868
:104D90006C3B010010B5C018FCF754FF01384342CA
:104DA0005841C0B210BD82239B0010B589B2C01813
:104DB000FDF74AF980B210BDD7239B00C05C704755
:104DC000F7B50C00060004F079FD154B041B1B68B9
:104DD000002001939C4221D9FA27052504007F0178
:104DE00082239B00F018FBF78DFE031CA04200D22B
:104DF000231CDCB23B00013BFDD1013D002DEFD176
:104E0000D7239B00F35C0120A34207D204F056FD98
:104E1000044822000449FBF7CEFE2800FEBDC04630
:104E200004190100CC320020491C010082239B00A0
:104E300070B5C0183021FDF707F9084D04000200D5
:104E400007492800FBF7B7FE802328000521054A03
:104E50002340FBF7B3F9E0B2C00970BDCC320020AB
:104E60005E1C01007E1C0100D72310B59B00C154BD
:104E7000024A04210248FBF7A1F910BD8C1C010075
:104E8000CC320020822310B59B00C018FBF746FEF1
:104E90000421024A0248FBF791F910BDA01C010051
:104EA000CC32002088239B0070B5C150183BC61837
:104EB00004003000FCF758FA05003000FBF748FE0C
:104EC0002000FFF7B3FF012804D00221024A034863
:104ED000FBF774F9280070BDAE1C0100CC32002035
:104EE000F8B582239B00C51804002800FBF71AFFC1
:104EF0002800FBF7FDFF254F28003900FBF7F2FDE6
:104F0000D4239B00E058002104F0DEFF8421204BD5
:104F10002800E154FBF7ECFDCF239B00E058012172
:104F200004F0D2FFD0239B00E058002104F0CCFF16
:104F3000184E19493000FBF7EFFE8F239B0030001D
:104F4000E3580621154AFBF739F983239B0030000B
:104F5000E3580521124AFBF731F988239B00300002
:104F6000E35805210F4AFBF729F9FDF7A7F90E4A87
:104F7000030006213000FBF721F92800FBF7CEFDE6
:104F800039002800FCF72AFCF8BDC046D8000020F4
:104F90005D030000CC320020CF1C0100E91C0100A1
:104FA000FE1C01001C1D01006C14010083239B00EA
:104FB00070B5C150043BC61804003000FBF7E0FF99
:104FC00005003000FBF7AAFD2000FFF72FFF0028A7
:104FD00004D00221024A0348FBF7F0F8280070BD14
:104FE000AE1C0100CC32002082239B0070B5C51896
:104FF00004002800FBF792FD30212800FDF724F87B
:10500000264E020026493000FBF7D5FD83239B0086
:10501000E1582800FBF718FF05212800FBF76BFA81
:1050200007212800FBF767FACF239B00E0580121F6
:1050300004F04AFFD0239B00E058002104F044FF15
:105040009D239B00E1182800FCF7C8FB2800FBF714
:1050500065FDD5239B00E058012104F035FF302188
:105060002800FCF7F1FF062103000E4A3000FBF791
:10507000A5F82000FFF7DAFE062103000A4A3000F7
:10508000FBF79CF82000FFF7D1FE002804D0022196
:105090003000064AFBF792F870BDC046CC320020C3
:1050A0003A1D01005E1D0100751D0100AE1C0100CE
:1050B000D1239B0070B500210400C05804F004FF08
:1050C000D5239B00E058002104F0FEFECF239B0077
:1050D000E058002104F0F8FED0239B00E0580121A5
:1050E00004F0F2FE02211E4BE154563BFF3BE61852
:1050F0003000FBF7FDFC3000FBF714FE3000FBF73F
:10510000F7FE184D18492800FBF706FE9D239B006B
:10511000E41830002100FBF7E5FC28001349FBF7F9
:10512000FBFD30002100FCF733FB30003021FCF7A1
:105130008BFF0F4902002800FBF73DFD28000D49B9
:10514000FBF7EAFDFDF7BAF8062103000A4A28003A
:10515000FBF734F828000421084AFBF72FF870BD4C
:105160005D030000CC320020841D0100911D010070
:105170003A1D01003E1601006C140100A91D01003A
:105180008223F0B59B00C51887B004002800049264
:105190000391FBF7ADFEA0239B00E0584F4F504E0C
:1051A000F86008F013FA4F4A009001910421300092
:1051B000FBF704F839002800FBF794FC8421280051
:1051C000FBF796FCCF239B00E058012104F07CFE06
:1051D000D0239B00E058002104F076FED4239B00EE
:1051E000E058012104F070FE39002800FCF7F6FABF
:1051F0003D4A04213000039BFAF7E0FFD1239B00D6
:10520000E058012104F060FED5239B00E058012105
:1052100004F05AFED4239B000121E05804F054FE10
:1052200004F046FBFA21039B89004B430393D423EC
:1052300007009B00059304F03BFB039BC01B9842B7
:1052400003D20498FAF768FFF5E7059B0021E058C0
:1052500004F03AFECF239B00E058002104F034FE16
:10526000D0239B00E058012104F02EFED1239B00A7
:10527000E058002104F028FED5239B00E0580021CF
:1052800004F022FE194A30000421FAF797FF0221A8
:105290002800FBF72DFC2800FBF72AFE9D239B002E
:1052A000E41821002800FBF71DFC30001049FBF733
:1052B00033FD21002800FCF76BFA30000D4A042171
:1052C000FAF77CFF30212800FCF7BEFE0A490200F5
:1052D0003000FBF770FC07B0F0BDC046D8000020DE
:1052E000CC320020C81D0100D81D0100F0140100BF
:1052F000911D01003E1601003A1D0100F0B585B078
:105300000193CF239B0004000091C0580121150098
:1053100004F0AAFDD0229200A058012104F0A4FDBF
:10532000D12080002058012104F09EFDD2239B0053
:10533000E058002104F098FDD323D426D5279B0004
:10534000E058B600002104F08FFDBF00A0590121F4
:1053500004F08AFDE059012104F086FDD6239B006C
:10536000E058002104F080FDCF239B00E05800218D
:1053700004F0AAFDD0229200A058012104F0A4FD5F
:10538000D12080002058002104F09EFDE05900212A
:1053900004F09AFDA059002104F096FD8D2300260B
:1053A00003AF9B00E6543A0028006B69296901F0BD
:1053B0006FFD8323039A9B00E25028003A006B693B
:1053C000296901F065FD8822039901239200A1500B
:1053D0008F211832A354444A890062509622FE213C
:1053E000009892008905A15040490432A05018321B
:1053F000A150962104328901A15080210432490034
:10540000A1523B4AA220A3543A4B80001A68A02321
:105410009B00E2500433E65231000822201808F0C5
:1054200083FAA223A520344A9B00E250800008336F
:10543000E650A8223100201808F076FA8220800079
:1054400026183000FBF754FD9D2080002018010035
:1054500000903000FBF746FB30000099FBF7F8FAAC
:10546000264D06212800264AFAF7A8FE8F2189003A
:10547000635828000621234AFAF7A0FE83239B00E5
:105480002800E3580621204AFAF798FE8822920065
:10549000A358062128001D4AFAF790FEFCF70EFFDC
:1054A0001B4A030006212800FAF788FE3000FBF7AC
:1054B0006AFB30000099FCF76BF930213000FCF7F3
:1054C000C3FD144902002800FBF775FB019B0199FD
:1054D0003A005B690969019801F0DAFCD7233A7850
:1054E0009B00E25405B0F0BD006CDC02080006032E
:1054F0007E020000F01801001F852B3FCC320020F7
:10550000CF1C0100E91C0100FE1C01001C1D010054
:105510006C1401003A1D0100D1239B0070B50021DD
:105520000400C05804F0D0FCD5239B00E0580021B3
:1055300004F0CAFC82239B00E61830213000FCF7FF
:1055400083FD274D020027492800FBF734FB882301
:105550009B00E1583000FBF77DFC234B1B68002BC0
:1055600006D030200321584305F0F4F80138FDD16E
:10557000CF239B00E058002104F0A6FCD0239B0021
:10558000E058012104F0A0FC28001849FBF7C4FBF7
:105590009D239B00E1183000FCF7FAF83000FBF780
:1055A000D7FA30213000FCF74FFD06210300104AE6
:1055B0002800FAF703FE2000FFF738FC062103005D
:1055C0000C4A2800FAF7FAFD2000FFF72FFC01280B
:1055D00004D002212800084AFAF7F0FD70BDC04649
:1055E000CC3200203315010000190100F31D010029
:1055F0005E1D0100751D0100AE1C010010B51300F9
:105600000A000621FAF7F4FE10BD0000F8B5A82341
:10561000474D9B000400C35806212800454AFAF76D
:10562000E7FEA9239B002800E3580621424AFAF727
:10563000DFFEAA239B002800E35806213F4AFAF721
:10564000D7FEAB239B002800E35806213C4AFAF71B
:10565000CFFEAC239B002800E3580621394AFAF715
:10566000C7FEB0239B002800E35C0621364AFAF708
:10567000BFFE364B2800E35C0621354AFAF7B8FE38
:10568000344B2800E35C0621334AFAF7B1FE334B72
:105690002800E35C0621324AFAF7AAFECA239B00DF
:1056A0002800E25A2F49FFF7A9FF2F4B2800E25AA2
:1056B0002E49FFF7A3FFCB239B002800E25A2C4979
:1056C000FFF79CFF2B4B2800E25A2B49FFF796FF70
:1056D000CC239B002800E25A2849FFF78FFF284B74
:1056E0002800E25A2749FFF789FFCD239B00E25AA1
:1056F00028002549FFF782FF244F254E280031005E
:10570000E25BFFF77BFF31002800E25BFFF776FFEB
:10571000204B2800E35C06211F4AFAF769FE1F4B65
:1057200028000621E35C1E4AFAF762FEF8BDC04677
:10573000CC320020091E01001D1E01002F1E010099
:10574000431E0100511E0100631E010025030000DD
:10575000761E0100260300008F1E010027030000B3
:10576000A81E0100BE1E01002A030000D71E010072
:10577000F11E01002E0300000A1F0100241F01007A
:1057800032030000391F0100501F010036030000E2
:10579000681F01003A030000821F01003B03000064
:1057A000961F010010B50021032004F08DFB00219D
:1057B000202004F089FB0122014B1A6010BDC04675
:1057C0009430002070B50500060004003935093614
:1057D000FF35FF36B54204D00C3D280003F088FEAB
:1057E000F8E7200070BD10B504000C30FFF7EAFFA9
:1057F000200003F07DFE200010BD000070B50D00FC
:1058000004000021082004F05FFB2A002100044866
:1058100001F0C7FB0121082004F056FB70BDC04613
:10582000643B002007B5002009F096F86B4607336B
:10583000181A0EBD812270B5802403009200805892
:10584000A40001301D19A84211D098509858802406
:105850000170822189005E5AA400B0B2A6420AD12A
:105860001A580132954204D01A50002070BD9B5046
:10587000ECE71B50F9E75D5A681C80B258520120D2
:10588000002DF3D19A581A51F0E70000802130B56D
:105890000B4A8901845A03004058002C01D100783A
:1058A00030BD8025441CAD015C505D190078AC42D0
:1058B00000D35B50995A013989B29952F0E7C0463A
:1058C0000820000010B513000A000521FAF776FC45
:1058D00010BD000082239B00C35A0A008B4204D8EB
:1058E00081239B00C3581878704780239B00C158C0
:1058F000054B091A8918194003D5044B013919437E
:105900000131405CF0E7C046FF01008000FEFFFF70
:105910000B4B0A00C35A8B4203D80A4BC358187862
:10592000704780239B01C158074B091A89181940F9
:1059300003D5064B013919430131405CF0E7C046FD
:105940000820000004200000FF1F008000E0FFFF8F
:1059500070B581208024822100228025374B890068
:10596000A40080005A521B511B50354BAD015B51B6
:10597000344D86B05B51344D5A53344B01251B5185
:10598000334C5A521B502000FEF7D8FE314E2000F7
:105990003200314904F010FC304C314B28002360B8
:1059A0004B2323712F4B236159781A786171521A56
:1059B000290091404A42E2809B782372984005F08A
:1059C0006BFF011CFE20800505F084FA0721E060D2
:1059D0002548FAF793FB0923042212212348FEF7F6
:1059E000C3F80C2320210493073B02935B19019316
:1059F000043B1F22039100931D485B19FEF7DAFF59
:105A00001C4C1D49200003F0BBFD1C48FEF796FE10
:105A1000320020001A4904F0CFFB042219491A4829
:105A200001F0C0F92A001949194801F0BBF9194BD6
:105A30001A78194B1A7006B070BDC0462C080020A9
:105A4000880B00200420000008200000B430002053
:105A5000942B002000000020C55700009C3000203F
:105A6000E03200203C050020C0320020D82C00206D
:105A7000342D00203C0A002040210100480A00206B
:105A8000E7570000002701001C2D00200026010020
:105A900010080020DD18010028080020F0B5584843
:105AA00085B0FEF77FF8E121564C0902200002F094
:105AB00079FA554E012322000421300000F056FEF1
:105AC000524D02AA6B692800296901F0E1F9029B95
:105AD000002B0ED14E4B28001B686A69296901937F
