:100000000080002085970000159400006D97000087
:1000100000000000000000000000000000000000E0
:100020000000000000000000000000006D970000CC
:1000300000000000000000006D970000D99700004C
:100040006D9700006D9700006D9700006D970000A0
:10005000D99300006D970000C571000071970000F2
:100060006D970000AD750000BD7500006D97000034
:10007000816C00006D970000CD7500006D97000049
:100080006D9700006D9700006D9700006D97000060
:10009000000000006D9700006D9700006D97000054
:1000A0006D9700006D9700006D9700006D97000040
:1000B0000000000010B5064C2378002B07D1054B3B
:1000C000002B02D0044800E000BF0123237010BDC4
:1000D000E007002000000000743E0100044B10B552
:1000E000002B03D00349044800E000BF10BDC04608
:1000F00000000000E4070020743E01001823436064
:100100000160704710B501210400006809F04EFE3F
:1001100009F070FBA06010BD10B5040009F06AFB87
:10012000A368C01A636898420AD90121206809F0BF
:100130006DFE0021206809F069FE09F05BFBA060FC
:1001400010BD0000194BF0B51D78194B87B01E7813
:10015000184B04901B7805910393174B15701B786F
:100160000293002301930133059F019CD118581C71
:10017000BC4217DA049F3F5D1418BD4209D1981C98
:1001800023000E7002991970019B01330193030043
:10019000EAE7B74204D10E70981C03992300F2E7F6
:1001A0000F70F1E70D7007B0F0BDC04628180100D0
:1001B000291801002B1801002A1801000CB403684B
:1001C00037B504000D008B4222DBC368002B01D041
:1001D000806898472379002B0FD007220E49684684
:1001E0000DF028FB2900694401390978A06807F05F
:1001F00075FA0A49A06807F06DFA07AA2000069967
:10020000009206F0F7FA2369002B01D0A068984706
:1002100037BC08BC02B01847A0080100E61701006F
:10022000F0B585B00D0002900392012908DC02218F
:100230002A4A2B48FFF7C2FF0024200005B0F0BD7A
:10024000284B1B780193029B019A5B18013B1B789A
:10025000934224D1013D0026029B34001F78019B6C
:10026000FF1A7B425F41BD42E7DD029B019ADB5DE5
:10027000934204D102211C4A1948FFF79FFF029BB9
:10028000DB5D002E1FD0194A12789A420DD1184B0F
:10029000039A1B781355013400260137E3E7022146
:1002A000144A0F48FFF78AFFD5E7134A12789A429B
:1002B00003D1039B019A1A55EDE702210F4A084822
:1002C000FFF77CFFE8E70A4A12789A4203D0039AC4
:1002D00013550134E1E70126DFE7C046A708010016
:1002E000CC32002028180100FE0801002B18010064
:1002F00029180100D00801002A1801003A0901005C
:1003000001604260704710B504000121006809F0E7
:100310004DFD0121606809F049FD09F06BFAA0600C
:1003200010BD000070B505000C000E20012109F081
:100330006DFD00210F2009F069FD09F05BFAAB6843
:10034000C01A084B984203D82000FFF7E5FEF4E7F7
:1003500000210E2009F05AFD00210F2009F056FD62
:1003600070BDC0462F75000070B505000C000E2052
:10037000002109F04BFD01210F2009F047FD09F094
:1003800039FAAB68C01A084B984203D82000FFF72F
:10039000C3FEF4E700210E2009F038FD00210F20F4
:1003A00009F034FD70BDC0462F75000070B5050022
:1003B0000C000E20012109F029FD01210F2009F078
:1003C00025FD09F017FAAB68C01A084B984203D80C
:1003D0002000FFF7A1FEF4E700210E2009F016FD32
:1003E00000210F2009F012FD70BDC0462F750000DE
:1003F0000CB4036837B504000D008B4222DBC368E0
:10040000002B01D0806898472379002B0FD007225A
:100410000E4968460DF00EFA290069440139097841
:10042000A06807F05BF90A49A06807F053F907AA2A
:1004300020000699009206F0F5F92369002B01D0FF
:10044000A068984737BC08BC02B01847A008010054
:10045000E617010070B50D001C001100432D0BD1F3
:10046000FFF7A4FF0A4A04210A48FFF7C1FF200052
:10047000094909F07CF870BD422D03D1FFF774FFE4
:10048000064AF0E7412DF6D1FFF74CFF044AEAE7B0
:1004900076090100CC320020712001008D09010095
:1004A000A809010000231F2805D9072B03D0013319
:1004B0004008DBB2F7E75B011843C0B2704710B5E4
:1004C00004000322282101F0DDFDC8222E21200096
:1004D00001F078FE10BD10B50422282101F0D2FDF4
:1004E00010BD10B5002101F09FFD10BD10B5012118
:1004F00001F09AFD10BD602210B50A43017002217F
:1005000001F0C0FD10BD000010B504000E4B21210C
:100510001A7801F0B7FD0D4B22211A78200001F066
:10052000B1FD0B4B23211A78200001F0ABFD094BE4
:1005300025211A78200001F0A5FD074B2621200077
:100540001A7801F09FFD10BD080000200600002071
:10055000050000200400002007000020F8B5147AF0
:100560000500023C624254410F00A400012B04D05C
:100570002600022B03D1102600E02026264330213E
:100580003A78280001F07EFD31217A78280001F0C8
:1005900079FD012232213243280001F073FD282227
:1005A000002C00D108222800014901F06BFDF8BDA4
:1005B000340F000070B50600012500291DD0C06D64
:1005C0000CF080FF104A114B0CF0FAF80AF06AFAAE
:1005D0000400306E0CF076FF0B4A0C4B0CF0F0F878
:1005E0000AF060FA051E00D10135002C00D101345B
:1005F0006C213000E2B201F045FD3000EAB26E211C
:1006000001F040FD70BDC0467B14AE47E17AE43F87
:1006100070B516000C000F210500527833781201D6
:100620000B401A432100D2B201F02CFD611C842240
:1006300089B2280001F026FDA11C002289B2280001
:1006400001F020FDE11C0022280089B201F01AFD12
:10065000002273680F2B05D90F2A03D001325B08E3
:10066000D2B2F7E71B011A43211DD2B2280089B28A
:1006700001F008FD0022B3680F2B05D90F2A03D023
:1006800001325B08D2B2F7E71B011A43611D280053
:10069000D2B289B201F0F6FC0F21727B337B92015A
:1006A0000B401A43A11D2800D2B289B201F0EAFC26
:1006B000E11DB27B280089B201F0E4FC2100083181
:1006C000F27B280089B201F0DDFC21000931327C87
:1006D000280089B201F0D6FC21000A31727C280082
:1006E00089B201F0CFFC2100B37CF27C0B311A43BC
:1006F000280089B201F0C6FC21000C31B28A280022
:1007000089B201F05FFD21000E312800162289B266
:100710000F3401F0B7FC28000022A1B201F0B2FCB6
:1007200070BDC42110B50F224900040001F0AAFCDD
:100730008A2177222000FF3101F0A4FC10BD0000C7
:100740000B0070B5B0331A780D00202380215201C0
:100750001A408900040001F095FC6E7C002E0FD039
:10076000002220000A4901F08DFC6A7C2000094922
:1007700001F088FCFF222000074901F083FC70BDD6
:1007800080222000024901F07DFC3200EEE7C046E5
:1007900001020000020200000302000070B50E001A
:1007A0008B78B2310E220D00862113400400294AB5
:1007B000B1368900042B28D101F004FD87218A225B
:1007C0008900200001F05EFC32782349200001F00E
:1007D00059FC00222149200001F054FC8421204AC8
:1007E0008900200001F080FC85219E2289002000E4
:1007F00001F048FC2A7820001A4901F043FC00224D
:100800002000194901F03EFC70BD01F0DBFC87219E
:100810008A228900200001F035FC32780E49200040
:1008200001F030FC01220D49200001F02BFC842155
:100830000E4A8900200001F057FC85211F22890003
:10084000200001F01FFC2A782000064901F01AFC64
:100850000122D5E7555500001E0200001D020000D0
:1008600055555555160200001502000033553355F5
:100870000B0070B5B433040018880D001600FFF7A4
:1008800011FE882102008900200001F0FBFB2B00F3
:10089000B6331888FFF706FE42490200200001F037
:1008A000F1FB2B00B8331888FFF7FCFD3E4902002E
:1008B000200001F0E7FB2B00BA331888FFF7F2FDA8
:1008C000892102008900200001F0DCFB0022374969
:1008D000200001F0D7FB2B00BC331888FFF7E2FDA6
:1008E00033490200200001F0CDFB2B00BE331888F5
:1008F000FFF7D8FD2F490200200001F0C3FB2B00B9
:10090000C0331888FFF7CEFD8A210200890020003D
:1009100001F0B8FB002E3ED0B068FFF7C3FD2649BA
:100920000200200001F0AEFB2B00C4331888FFF753
:10093000B9FD22490200200001F0A4FB002E04D0E2
:100940002000327B1E4901F09DFB00221D49200042
:1009500001F098FB8C210C228900200001F092FB11
:100960002B00B3331A781849200001F08BFB2300C9
:1009700058331A782000154901F084FB2300AA7A25
:1009800059331B78012A0AD12B32200010491A430F
:1009900001F078FB70BD2B00C2331888BDE7282218
:1009A000F3E7C046210200002302000025020000F8
:1009B0002602000027020000290200002A0200008F
:1009C0002D0200002F020000310200003202000060
:1009D0003302000010B5040000291BD0406B0AF060
:1009E00043FF0CF095FD0C4B00220BF0E3FA0AF0EC
:1009F00059F880235B02984200D30848C521C2B24F
:100A00008900200001F03EFBC42111222000890052
:100A100001F038FB10BDC04600008440FFFF00001D
:100A2000CC2110B504000C22890001F02BFB23001F
:100A3000643320001A78024901F024FB10BDC0463F
:100A40003203000070B504000D0003221B4901F0C1
:100A500019FBC73507222000194901F013FB2B7839
:100A6000012B19D168221749200001F00BFBFF224E
:100A70001549200001F006FB84222000134901F0F3
:100A800001FB98222000124901F0FCFA25222000E7
:100A9000104901F0F7FA70BD5C220A49200001F00C
:100AA000F1FA53220849200001F0ECFA76222000E6
:100AB000064901F0E7FA9222E4E7C0460D0F000074
:100AC0001C0F0000210F0000220F0000230F000068
:100AD000260F0000440F00000A0010B5203201F07C
:100AE00073FF10BD10B5034B0A001970232101F0EC
:100AF000C9FA10BD0500002010B5402101F094FA9C
:100B000010BD10B51C2101F08FFA0F23184010BD45
:100B1000F8B53021040001F087FA382106002000E2
:100B200001F082FA7F27320005003A403021200090
:100B300001F0A8FA2A0038213A40200001F0A2FA78
:100B40000020F8BDF8B53021050001F06DFA38211C
:100B50000400280001F068FA80260700764234433A
:100B600028003E43E2B2302101F08CFA2800F2B2B4
:100B7000382101F087FA0120F8BD10B506210400E4
:100B800001F044FB4022024392B20621200001F012
:100B900019FB0821200001F039FB01220243082142
:100BA000200092B201F00EFB10BD10B513000A0038
:100BB0000521FFF703FB10BD70B5050030352E7819
:100BC0000400002E35D1038F002B21D1214B616B06
:100BD0000D22994200D80A3AF1212000090101F0C2
:100BE00051FA2B780022012B00D0073220001A493D
:100BF00001F048FA194B626B9A4227D9022311225D
:100C0000210040310B702000154901F03BFA70BD06
:100C1000032B08D0082B17D01A00093A1E2A0DD82A
:100C2000083B5B00DEB2C22132002000490001F027
:100C300029FA2B78012BC9D10422CDE70521094AD5
:100C40000948FFF7BBFAEEE70126ECE70123102283
:100C5000D6E7C046C0209002110F0000FF6A7A015B
:100C6000350F0000C3090100CC32002010B50A0086
:100C70000221FFF7A3FA10BDF7B50F00117C140095
:100C800006000822002900D0627C6274227A002AC1
:100C900005D1194920688142524101322272102542
:100CA000220030001549FFF759FC627C3900300002
:100CB0002A4301F0E7F901953900300001F0B4F959
:100CC000019B05001842F7D1060020230C481E4066
:100CD0001D4205D00B49FFF7C9FF01263000FEBDBC
:100CE0002A000949FFF761FF01230F2023742368BD
:100CF00005406574E360F1E73FDD4A1F090000200D
:100D0000CC320020EC090100FD09010010B50A00F9
:100D10000521FFF753FA10BD70B504000F251C2103
:100D2000200001F081F928400428F8D00638012875
:100D3000F5D920000021FFF7DEFB02490248FFF74A
:100D4000E5FF70BD5D0A0100CC32002070B50500E2
:100D5000002401261D21280001F066F9304201D14E
:100D60000134F7E723000521024A0348FFF726FA7A
:100D700070BDC046700A0100CC320020C02110B501
:100D800099224900040001F07DF984210522200008
:100D9000FF3101F077F9636B05215B0B024A0348D1
:100DA000A366FFF70BFA10BD8A0A0100CC320020BF
:100DB000F0B5050085B01000140003910CF082FB23
:100DC0000022124B0BF0FCFC0600686B0F000AF0CF
:100DD0004BFD0CF09DFB02000B00300039000BF0C6
:100DE000E9F809F05FFE01266B4640000643320039
:100DF0009989280001F078F923000521044A054863
:100E00000096FFF7DBF9300005B0F0BD000060414F
:100E1000A90A0100CC320020426810B50400002A63
:100E200003D03421FFF7C4FFA060A269002A04D0D8
:100E30003C212000FFF7BCFFE06110BD10B5416010
:100E4000FFF7EAFF002010BD10B58161FFF7E4FF56
:100E5000002010BDF8B5040020492148FFF756FFD7
:100E6000636C002B00D0984705212000FFF743FB5F
:100E70002000FFF7D1FFC02125009B224900200060
:100E800001F000F92C352000FFF760FF2B783321AB
:100E9000221D2000FFF7F0FE22002B783B211832A4
:100EA00007002000FFF7E8FE0021060005002000F3
:100EB000FFF721FBA36C002B00D09847002F02D036
:100EC0006368002B07D1002E03D0A5696B1E9D41DE
:100ED000EDB22800F8BD0125FBE7C046B80A0100C5
:100EE000CC320020426D70B504230400002A0FD0DC
:100EF000FFF7FCFA1A4D060002001A492800FFF716
:100F000054FEC52E06D028001749FFF7AFFE022376
:100F1000180070BD2000FFF7E4FA14490600020033
:100F20002800FFF742FE512E05D028001049FFF798
:100F30009DFE0323ECE780220221200001F0A2F8AD
:100F400000212000FFF7D7FA2000FFF735FE200030
:100F5000FFF780FF00239842DAD00533D8E7C04678
:100F6000CC320020D20A0100DF0A0100F30A01009E
:100F7000090B0100F8B5037804000E002D4D012B7C
:100F800004D128002C49FFF771FEFEE7232101F070
:100F90004BF8842807D128002849FFF7B7FE052120
:100FA0002000FFF7A8FA1C21200001F03DF80F27D0
:100FB00007403A0028002249FFF7F7FD062FF2D03C
:100FC000216966600B0A891BCA17891851408B4238
:100FD00018D228001B49FFF799FE0023280023732D
:100FE000237505216368184AFFF7E8F82000FFF72A
:100FF00031FF00280DD028001449FFF737FE0526E1
:101000003000F8BD28001249FFF780FE2000FFF7EE
:1010100003FF2321200001F007F800268428EFD1E8
:1010200028000C49FFF772FE0D212000FFF763FA3C
:10103000E6E7C046CC320020270B0100470B010039
:101040005D0B0100790B0100940B0100AA0B01005C
:10105000BB0B0100E60B0100F0B50F8B85B004005F
:101060003800CE8A0AF000FC9121C9050AF09EF8EA
:10107000051C606B0AF0F8FB011C281C09F0CCFE73
:101080000CF046FA00221E4B0AF02AFC09F00AFD79
:10109000892183B21A0020004900039301F092F8DD
:1010A000184D039B184A0521280000933B00FFF7C9
:1010B00085F830000AF0D8FB9121C9050AF076F8CE
:1010C000071C606B0AF0D0FB011C381C09F0A4FE61
:1010D0000CF01EFA0A4B00220AF002FC09F0E2FCB6
:1010E000882187B23A002000490001F06BF83300F4
:1010F00005212800054A0097FFF760F805B0F0BD0C
:101100000000E03FCC320020FC0B0100140C010079
:10111000030070B52C330D001B78021D0C49040030
:10112000FFF71CFA0F222B7813400A2B03D129005A
:101130002000FFF791FFF0210F222000090100F0AD
:10114000A1FF06222000034900F09CFF70BDC046AD
:101150000D000020180F0000F0B50B8B87B0039333
:10116000CB8A0500039804930C000AF07DFB8F21C5
:10117000C9050AF01BF8061CE06B0AF075FB011CA0
:10118000301C0AF013F82B0040330593061C187826
:101190000AF024FB011C301C0AF008F8061C686BDE
:1011A0000AF062FB011C301C09F036FE0CF0B0F9AD
:1011B000294B00220AF094FB09F074FC892186B2C5
:1011C00032002800490000F0FDFF244F244A039B11
:1011D000052138000096FEF7F1FF04980AF044FB61
:1011E0008F21C90509F0E2FF061CE06B0AF03CFB09
:1011F000011C301C09F0DAFF059B061C18780AF068
:10120000EDFA011C301C09F0D1FF061C686B0AF0D6
:101210002BFB011C301C09F0FFFD0CF079F90E4B83
:1012200000220AF05DFB09F03DFC882186B2320005
:101230002800490000F0C6FF3800049B0521094A38
:101240000096FEF7BBFF8A214D3428002278490022
:1012500000F0B8FF07B0F0BD0000E03FCC32002046
:101260003D0C0100550C01000300020070B52C3349
:101270000D001B7818320C490400FFF76FF90F229C
:101280002B7813400A2B03D129002000FFF764FFBD
:10129000F0210F222000090100F0F4FE02222000BC
:1012A000024900F0EFFE70BD0B000020180F000097
:1012B00070B58B6B0C0080219AB24900050000F0DC
:1012C00081FF0521A36B234A2348FEF777FF812185
:1012D000E36B4900DAB2280000F0D4FE0421226C4E
:1012E000FF31280000F07CFF832100224900280004
:1012F00000F076FF80220A21636C12041A43280052
:10130000FF3100F06DFF0F2223781340082B11D816
:10131000062B11D98621A36C28009AB2490000F04F
:1013200051FFA36C8721DA43280092B2490000F0F4
:1013300049FF01E00A2BEDD016214C342800227819
:10134000FF3100F09FFE94212800F722890000F071
:1013500099FE70BD6E0C0100CC320020F8B5037808
:1013600004000E00274D012B05D103212800264A39
:10137000FEF724FFFEE7232100F056FE842807D164
:1013800028002249FFF7C2FC05212000FFF7B3F82F
:101390001C21200000F048FE1D4907002800FFF72F
:1013A000B5FC0F231F40062FF2D0636AA6611A0A0C
:1013B0009B1BD9175B184B409A4215D20022631C25
:1013C000DA7727331A70280033000521114AFEF717
:1013D000F5FE2000FFF73EFD00280CD028000E4946
:1013E000FFF744FC0520F8BD28000C49FFF78EFCF0
:1013F0002000FFF711FD20000921FFF77CF80020F5
:10140000F1E7C046CC320020270B0100470B01005A
:10141000800C0100940B0100AA0B0100BB0B010022
:1014200070B50C0001260A781021050000F02AFE94
:10143000637833420AD0237A002B07D003211E4A57
:101440001E48FEF7BBFE6378B3436370112128008A
:10145000627800F017FE237A002B0ED00E26A378B8
:101460003340042B09D0164A03211448FEF7A6FE88
:101470000423A278B2431343A370A2781221280058
:1014800000F000FE0E22A3781340083A022B00D091
:10149000002228000B4900F0F5FD237A002B09D02B
:1014A00013221821280000F0EDFD622219212800E6
:1014B00000F0E8FD70BDC046980C0100CC32002061
:1014C000D40C0100720F0000F0B50323CA780D00A0
:1014D000B02104001A4087B0490000F0D3FD23007A
:1014E0004C331B786F4E012B03D930006E49FFF748
:1014F000BDFBB22105222000490000F0C3FD0F22F0
:101500002B781340082B00D980E0062B00D99CE0F3
:10151000002304936221049AFF31200000F060FE52
:10152000049B624A0521300000933B00FEF746FE13
:1015300068680AF099F99721C90509F037FE071C78
:10154000606B0AF091F9011C381C09F065FC0BF086
:10155000DFFF574B00220AF0C3F909F0A3FA662116
:1015600007000200FF31200000F03AFE6B68514A8C
:10157000052130000097FEF721FE636B6A685B0966
:101580009A4204D3032130004B4AFEF717FE236D25
:101590000021181CEF68049309F058FA002806D0BF
:1015A0000498391C09F052FA002800D1049F8B21BD
:1015B000381CC90509F0FAFD0BF0AAFF3C4B0022CC
:1015C0000AF08EF909F06EFA802380B2071C5B01E5
:1015D000984201D3394B1F88BFB23B003000052130
:1015E000374AFEF7EBFDB5213A002000490000F034
:1015F000E9FDE86802970BF08BFF324A00900191F9
:1016000005213000FEF7DAFD07B0F0BD0A2B00D04F
:101610007EE7AF8A38000AF027F99721C90509F05B
:10162000C5FD0BF075FF284A284B0BF0C9F8049054
:101630000591606B0AF018F90BF06AFF02000B00CD
:10164000049805990AF0B6FC24E0686A0BF060FF84
:101650000022174B0BF0B4F80490059168680BF06A
:1016600031FF02000B00049805990BF0A9F809F06E
:1016700019FA07000AF0F8F89721C90509F096FD54
:101680000490606B0AF0F0F8011C049809F0C4FBA8
:101690000BF03EFF0022064B0AF022F909F002FA95
:1016A000049037E7CC320020440A0100060D010007
:1016B0000000E03F170D0100290D01007E0D010023
:1016C0006B0D01002D0C0100977329AE2A7BEB3FB7
:1016D000F8B50D00040016002F00FFF7A1FE200052
:1016E000FEF712FF31002000FEF764FF2900200002
:1016F000FFF7DEFD2B7C9837002B2ED01821FF2220
:101700002000FF3100F0BEFCA8213A002000490073
:10171000FEF77EFF29002000FFF7D6FE2000FFF72E
:101720002DFB2000FEF7FDFF29002000FFF708F841
:1017300029002000FFF732F8320029002000FFF7CF
:1017400097F831002000FFF745F92000FFF768F90E
:1017500029002000FFF776F9F8BD1821F4222000B7
:10176000FF3100F08FFC2A00902120005032490008
:10177000FEF74EFF2A009821200068324900FEF74C
:1017800047FFC1E770B54B1CDB7F04000D00512BF8
:1017900004D00D490D48FFF769FAFEE70022FFF774
:1017A00097FF09212000FEF7A6FE29002000FFF781
:1017B0005BFD2000FFF7C6F9636C002B00D0984753
:1017C0002000FEF77CFE70BD800D0100CC320020B1
:1017D00070B54B1CDB7F04000D001348512B03D068
:1017E0001249FFF743FAFEE71149FFF78FFA00228B
:1017F00029002000FFF76CFF29002000FFF788FC7C
:10180000636C002B00D098472000FEF758FE0D2196
:101810002000FEF770FE2000FFF798FAA36C002B63
:1018200000D0984770BDC046CC320020800D01002A
:10183000B80D0100F0B58DB004910600EF2118003D
:101840001F00059209F098F8CBB27D4C06938BB23D
:101850000793FB1A9BB2CAB220000D00794902938C
:10186000FFF7A3F9029B05212000774AFEF7A6FCAB
:1018700000230393EF2F01D8023303932A21300072
:1018800000F0C4FCEF2403000621704A6C48FEF708
:10189000AFFD631B09932A21300000F0B7FC684CB0
:1018A0006B4A089006212000FEF7A2FD089B099ACA
:1018B0009342F0DC06212000664AFEF799FD0E21D6
:1018C000654B0AAC1A78049B9B78A2700B40634965
:1018D0002180042B3DD1049B1A7A7E23012A00D05B
:1018E0002C3304220AA9CB70300000F0A9FC0E2290
:1018F000049B9B781340042B05D0049B5B7C002B3E
:1019000001D1FE2F35D9E1230AA90B70069B039A5A
:1019100001334B700123134303228B70300000F01E
:101920008FFC079A0599300000F08AFC05214C4A8B
:101930004348FEF75DFD0024059BA5422ED01B5DAC
:1019400006210093474A23003D48FEF751FD01342C
:10195000F2E7AA23042221003000E37000F070FCBB
:10196000414B07220A93414B2100A3805523A371C9
:10197000BAE7049B069A987AE12302320AA9D2B206
:1019800001370B70FFB24A70D83B012800D0012309
:10199000039ACF7013438B700422BFE75F193000A6
:1019A000FEF799FD029B002B47D0EF2B3ED9EF2489
:1019B000EF3B9BB20293F6231B1B05932A213000B9
:1019C00000F024FC1E4D2A4A049006212800FEF750
:1019D0000FFD049B059A9342F0DC280006211D4A66
:1019E000FEF706FDE1230AA90B70631C4B70039BF5
:1019F000032230008B7000F023FC3900A2B23000CB
:101A000000F01EFC280005211A4AFEF7F1FC002513
:101A10007A5D029B00925B190621124A0848013543
:101A2000FEF7E6FCAC42F3D13F19B8E76B461C7AEF
:101A30000223039300230293BDE70DB0F0BDC0461F
:101A4000CC320020D00D0100E40D0100F60D0100A4
:101A50000D0E01006F200100201801006238000007
:101A60000F0E01002C0E0100E10518335533000064
:101A7000420E0100440E0100F8B51F000378040077
:101A80000D0016000D2B04D00B490C48FFF7EEF8A3
:101A9000F8BD0321200000F0C7FA08231842F8D04F
:101AA000290020003B003200FFF7C4FE0449034830
:101AB000FFF72CF9ECE7C046130A0100CC320020F6
:101AC000600E0100F0B50C0085B02821050000F083
:101AD000ABFA2A210190280000F098FB071E5FD086
:101AE000019B4C4E1B0703D530004B49FFF7BEF856
:101AF000019B5B0703D530004849FFF7B7F8019B0E
:101B00009B0703D530004649FFF7B0F83B00454A34
:101B100005213000FEF752FB2921280000F084FA4D
:101B20004149020020703000FFF73FF82378752B01
:101B300012D86F2B07D8522B3DD0552B41D0312BCB
:101B400030D001202CE0703B1800052BF9D808F0AC
:101B500085FD4FF8F8434F540120E12B20D1292176
:101B6000DF3B03AA280000F007FB210002AB1A7933
:101B70000831531EE38002AB5B792800237100F02B
:101B80007BFB3B0006213000284AFEF731FC300089
:101B90000621E388264AFEF72BFCE088033080B25A
:101BA00005B0F0BD2921280000F03EFA214B034387
:101BB000A3800220F4E72921280000F027FBA08061
:101BC000F7E703AE022332002921280000F0D4FAFF
:101BD00033880320A380E3E72921280000F022FBBB
:101BE000030202D5FF231B06184360600420D7E7D9
:101BF0002921280000F016FBF7E7032303AA292177
:101C0000280000F0B9FA02AB02AA9B799288A3716E
:101C1000A280EBE7CC3200207A0E0100870E010093
:101C2000950E0100A20E0100C20E0100CF0E0100B0
:101C3000E00E010000FFFFFFF0B50300CD4C58336C
:101C4000A54405921E2204901B780F0013406232B7
:101C50001343069300231E000293B8AD2900049895
:101C6000FFF730FF002800D17FE12B78C24C732BA7
:101C700000D17FE00BD8312B00D16FE0522B00D187
:101C800086E002212000BD4AFEF798FA51E0742B4D
:101C900000D192E0E12BF4D1EB88200003932A7964
:101CA000B749FEF782FF05212000039BB54AFEF7E6
:101CB00085FA330005212000B34AFEF77FFA2D791B
:101CC000EB070AD4002E08D12000B049FFF71EF818
:101CD0000020FB239B009D44F0BD60232A001A4096
:101CE00007921D4202D0AA49A348EFE7039BF418CC
:101CF00080239B009C4204DDA6499F48FEF7B6FF67
:101D0000E6E7A54906ABB819C918039A0BF092FD8E
:101D1000059BA6B29B7A012B01D0002ED8D0AB0731
:101D200007D580239B00FE52813BFF3B029A1A435A
:101D30000292029B069A934200D08EE780260024EE
:101D4000B600BB5BA3423FDD3B5D06210093934A97
:101D500023008948FEF732FA0134F2E70422AB5E31
:101D600004218F4A2000FEF729FA8E4BAA88FA52E6
:101D7000F33BDAE76B688C4A04212000FEF71EFA79
:101D80006B6803938123039A9B00FA500423CDE7E9
:101D9000FA20AB88C000584309F020FDDE218905F8
:101DA00009F004FA0BF0B4FB804A00900191042181
:101DB0002000FEF703FA0223B8E7042120007C4A42
:101DC000FEF7FCF90823B1E70498FEF778FB059BC2
:101DD00001209B7A002B00D17BE7674D062128006C
:101DE000BB5B744AFEF7EAF9062128007B78724A49
:101DF000FEF7E4F93A797B780192FA780621280017
:101E000002930092BB786D4AFEF7D8F9BB5B0621BE
:101E1000FB181A1F1478DA1E1278240612041443D1
:101E20005A1E023B12781B7814431B021C432300EA
:101E3000634A2800FEF7C2F911A801F0B5FF062198
:101E400028007B795F4AFEF7B9F9BB5B0621FB18D6
:101E5000053B28001B785C4AFEF7B0F9BB5B062106
:101E600028005A4A0A3BFEF7A9F9BA5B7B1D039387
:101E70000A3A2300791D11A801F0C6FF544A002830
:101E800000D0544A28000621FEF798F902220D21BD
:101E900009AB781D02F0F2FB374C03000621050068
:101EA0004D4A2000FEF78AF94C49002D34DB0D2203
:101EB0000DA909A801F046FF06212000484AFEF7B7
:101EC0007DF900250DABEB5C06212000454A01356C
:101ED000FEF774F90D2DF5D106212000424AFEF7D8
:101EE0006DF9062120003B7E404AFEF767F980230A
:101EF00038009B00FD5A1022283D290038AB1430D1
:101F000002F0BCFB062106000300394A2000FEF760
:101F100055F9002E02DA37492000EFE678AE2A00A4
:101F2000310038A801F00EFF06212000324AFEF7EA
:101F300045F92D4A06212000FEF740F9029B7A1C44
:101F40003B700023AB4203DAF15CD1540133F9E773
:101F500080229200BB5A0848273B9BB2BB52062105
:101F6000264AFEF72BF90120B3E6002E00D074E6D6
:101F7000AEE6C04614FCFFFFCC320020AE0F0100DD
:101F8000F90E0100040F0100100F0100250F0100E0
:101F9000490F0100620F0100D1020000C90F0100CA
:101FA0006D0F0100020200007B0F01008D0F010088
:101FB0009E0F0100D70F0100EA0F0100041001007D
:101FC0002B1001003E1001005310010066100100AB
:101FD00077100100821001008F100100AC10010089
:101FE000D1100100E91001006F200100EE10010086
:101FF000FF1001001A1101003D11010053110100F1
:10200000702313B50A1201AC13432370FF236170D0
:10201000A3700321436D200098470022014B1A80D2
:10202000A07816BDFC07002037B5702902D9FFF74C
:10203000E7FF3EBDFF2501AC436D2170200002216A
:1020400065709847044923780A881B0215402B4382
:102050000B806078EDE7C046FC07002037B5102400
:102060000D12644201AB2C431C7059709A7003210D
:10207000426D180090470020014B18803EBDC046BD
:10208000FC07002013B5702902D9FFF7E7FF16BD42
:1020900080235B4201AC19432170436D62702000C4
:1020A00002219847034B20781A78000210431880C9
:1020B000EDE7C046FC070020102313B55B420C126D
:1020C00023436C462370130EA370130C52BA617035
:1020D000E3700621436DA280684698470020014BBB
:1020E000188016BDFC07002007B5702902D9FFF73C
:1020F000E3FF0EBD80235B4219436B4619706946AE
:10210000130E4B70130C8B70130ACB700A71436D56
:102110000521684698476B461878034B00021A78E9
:1021200010431880E5E7C046FC070020F7B507001C
:1021300016001C000025042B19D870230A12134323
:102140006A4613706B465170981C2200FF210BF0F9
:102150008DFBA11C7B6D6846C9B298476B46054F45
:1021600022003000991C3D800BF064FB3D88280064
:10217000FEBDC046FC07002073B5060015001C001C
:10218000702902D9FFF7D2FF76BD6B462200197085
:10219000581CFF210BF06AFB611C736D6846C9B2C5
:1021A00098476B46064E1B7832781B0213433380E8
:1021B0006B4622002800591C0BF03CFB3088E3E7FB
:1021C000FC07002070B50C00050016000134120A4F
:1021D000FFF758FF2800F2B2A1B2FFF753FF70BD1E
:1021E00070B516000C000500120CD2B2FFF74AFFC2
:1021F000320A611C2800D2B289B20234FFF742FFD2
:102200002800F2B2A1B2FFF73DFF70BD07B502236F
:1022100001AAFFF7B1FF6B466A461B7950791B0292
:1022200018430EBD13B501AC03232200FFF7A4FF32
:102230002078637800041B021843A378184316BD66
:1022400030B5C1B01400A9236A4613706B4605006F
:102250002200581C01340BF0EDFA68466B6DE1B2B8
:1022600098476B461878034B00021A781043188081
:1022700041B030BDFC070020292310B50C000B70C5
:10228000436DD1B220009847034B1878188022780C
:1022900012021043188010BDFC070020014B188863
:1022A0007047C046FC070020074B084A1B68D360F4
:1022B000074AD360074AD360074AD360074AD3600E
:1022C000074AD3607047C0462C18010068020020FE
:1022D000A0010020D800002010000020F8030020FA
:1022E0003003002013000021933319701100074BB5
:1022F00094310B604B601300E0219C33490019605E
:102300000349A43259601723138070476C003C00C6
:1023100003000A00F0B50F00140085B00500406B03
:1023200009F0A2FAE2697B6840355343061C28781D
:102330002D345843400109F097FA011C301C08F075
:102340006BFD051C07F0E2FE011C08F0C9FB08F05C
:1023500091FBC0B220700290281C0BF0D9F8044AFF
:102360000090019105210348FDF728FF05B0F0BD5D
:102370006D110100CC3200200F23F0B589B003901D
:1023800008780F001400AA4D18400A2837D808F022
:102390006FF90606363606363609093634004B68BC
:1023A000E3600FE0486809F05FFAFE21061C89052A
:1023B000606808F095FB011C301C08F0F7FE08F07F
:1023C00059FBE0600521E36828004B43994A2361EB
:1023D000FDF7F4FE0F23387818400A2800D912E1DF
:1023E00008F050F915001500110111011500110137
:1023F000110104010401110104018B8AD0E70521B8
:1024000028008D4AFDF7DAFE7B689B00C8E78B4AFF
:102410007B689B188A4A934200D8E5E06361039B7E
:10242000666940330493187809F0D8F9051C300028
:1024300009F01AFA011C281C08F0B8FE9321C905FE
:1024400008F0B4FE039B051C586B09F00DFA011C43
:10245000281C08F0E1FC0BF05BF80022794B09F036
:102460003FFA08F01FFB724D774A0521A061330047
:1024700000902800FDF7A2FE039B586B09F0F4F9C9
:102480000BF046F806900791049B18780AF0EAFFD3
:1024900000226E4B0AF094F90490059120690BF02C
:1024A00011F802000B00049805990AF089F902005E
:1024B0000B000698079909F07DFD0022614B09F099
:1024C0000FFA08F0EFFA7F2800D9A3E0E0617B7AE9
:1024D000012B01D11333E3615D4A05212800E36933
:1024E000FDF76CFE7B680493039B586B09F0BCF905
:1024F0008621C90508F05AFE039B069040331878E0
:1025000009F0B2F9061C049809F0AEF9011C301C60
:1025100008F04CFE061CE06909F0A6F9011C301C0D
:1025200008F044FE011C069808F076FC0AF0F0FF63
:102530000022444B09F0D4F908F0B4FA049B20625D
:1025400005210090434A2800FDF738FEFB69002B67
:1025500003D1414B1B680493FB61FE69300009F015
:1025600083F99721C90508F021FE039B051C586BD0
:1025700009F07AF9011C281C08F04EFC0AF0C8FF8B
:102580000022304B09F0ACF908F08CFA284D60625B
:102590003300324A009005212800FDF70FFE0F227C
:1025A0003B781340082B3DD8062B3DD92C49606859
:1025B00008F0FCFD08F05EFA012302009A43294B63
:1025C00005210340A2622800274AFDF7F7FDA36A10
:1025D0000521DB432800254A9BB2FDF7EFFD0023D0
:1025E0002C34237009B0F0BD214B17E7E368214A72
:1025F000934206D963617B7A012B00D00FE71E4B13
:102600000CE71E4BF6E7052128001D4AFDF7D6FD15
:10261000E36803E77F23052128001A4AE361FDF7F9
:10262000CDFD54E70A2BC1D08023A362D7E7C04673
:10263000CC320020BC11010086110100581B0000A3
:10264000A32400000000E03F07120100000030401A
:1026500043120100551201002418010070120100FC
:1026600000008243FEFF00008F120100AA12010049
:10267000A42400006B0C0000E02E00006C0C000095
:10268000D111010025120100F0B589B006930EABFF
:102690001B780590039303000491403318781400CD
:1026A0000AF0E0FEC022B64BD2050AF089F8049B7E
:1026B000060058680F000AF005FF02000B0030000A
:1026C00039000AF07DF8059B0600586B0F0009F0F1
:1026D000CBF80AF01DFF02000B003000390009F0B2
:1026E00069FC0AF05DFF011CFE20800508F078FE01
:1026F00007F016FD011CFE20800508F071FE07F0B2
:1027000005FD80231B06C01808F0B4F9C0B2207084
:10271000049B033060705B7A012B01D1994B2380BD
:10272000039B022B0CD0032B43D02378082B01D919
:102730000823237063780E2B04D90E23637001E005
:10274000914B2380914D05212800039B904AFDF772
:1027500035FD627823780521009228008D4AFDF727
:102760002DFD039B0427002B03D00C37012B00D039
:102770001037069B1E6A300009F076F80790380083
:1027800009F072F8011C079808F046FB08F072F98E
:10279000814BF318984213D26060049B5B7A012B43
:1027A00018D1039B002B12D0012B3CD0F0235B00EF
:1027B0000FE0237802332370637802336370B4E749
:1027C00005212800754A6360FDF7F8FCE5E7F02372
:1027D0001B016360636805212800714AFDF7EEFC68
:1027E000039B8026002B03D0012B1FD08136FF36A0
:1027F000069B186A09F038F8051C300009F034F817
:10280000011C281C08F008FB08F034F9049BA060A8
:102810005B7A012B0FD1039B002B0AD0012B00D137
:1028200088E0122306E0F0239B00D2E780267600A2
:10283000DEE73C23A360554FA3685A4A05213800C0
:10284000FDF7BCFC049B1A780B231A4274D1C023F9
:102850009B000F22A381544BE381049B1B78134000
:10286000049A5568082B69D8062B69D9059B586BC3
:1028700008F0FAFF061C0598403000786843800095
:1028800008F0F2FF011C301C08F0C6FA07F03EFC0D
:102890000AF03EFE454B002209F022F808F002F94A
:1028A000039BC5B2023B012B00D80435049B1B7A65
:1028B000002B00D002350D2D00D90D252B003C4AF0
:1028C00005213800FDF77AFCEDB2049B2574657490
:1028D0001A780B231A423AD1B533E374039B012BC8
:1028E00030D9023B012B30D90F22049B1B781340B7
:1028F000082B2FD8062B2FD9039B022B2FD8002B68
:102900002AD08621069BC905586808F04FFC0AF0BA
:10291000FFFD284A284B09F053FF244B002208F002
:10292000DFFF08F0BFF8049BA0825B7A012B19D16E
:10293000423312E01E237DE7204B8AE70A2B95D015
:10294000AD0093E70223A374CEE70823FBE7062339
:102950006382C9E70A2BCFD00023A38202E0039B46
:10296000032BF9D0A38A094C05212000144AFDF756
:1029700025FC05212000134AFDF720FC09B0F0BD1D
:10298000FB216940050C00000F0F0000CC32002035
:10299000C5120100D712010000F0FFFFF71201007D
:1029A00013130100221301000F1F00000000E03F7D
:1029B000351301009A9999999999E93F0303000009
:1029C0005313010064130100F7B514000F220B78B4
:1029D00006000D001340082B06D00A2B07D0072B4A
:1029E00050D1FC239B0500E04B6963600EE0888AB0
:1029F00008F03AFF011C08F073F8071C686808F03B
:102A000033FF011C381C08F007FA606060680AF0A8
:102A10007FFD274F00900191264A38000521FDF7E0
:102A2000CDFB01232200238129003000FFF7A4FC05
:102A3000220029003000FFF76DFC38002700052137
:102A40001D4AFDF7BBFB2B7C7837002B1CD00323E2
:102A50003A002900300000932300FFF715FE230001
:102A6000A022903312011A801F22290030009A7090
:102A70002200FFF737FC23000122A7331A705123ED
:102A80002370F7BD0023B0E7220029003000009337
:102A900030322300FFF7F8FD0123220000932900C4
:102AA000230030004832FFF7EFFD0223D0E7C04695
:102AB000CC320020681301006413010010B50A0035
:102AC000032102F0EDF810BD10B50A00012102F05B
:102AD000E7F810BDF0B585B00A9D019028001C00F4
:102AE00002910392002702F0E5F9029BB14E9F424A
:102AF00000DB52E1019BB04A04213000DB5DFDF7B1
:102B00005DFB019BD85D0BF0D3FE0322AB4B20385D
:102B10001B68534300935A2800D938E107F0B2FDEF
:102B200033013701370137013701370137013701E9
:102B300037013701370137013701370137013701D5
:102B40002901D900E7006400F400FE000801160125
:102B50005B001F01370137013701370137013701AA
:102B600037013701370137013701370137013701A5
:102B70003701370137013701370137013701370195
:102B80003701370137013701370137013701370185
:102B90003701370137013701370137013701370175
:102BA0003701B2001A017500980081008600A50067
:102BB0008B009C00EB00AE00940070007D00EF00E5
:102BC000A100AA0079008F00B600CA00C6006C0000
:102BD000CF00D4005F0021002800FFF76FFF210025
:102BE0002800FFF76BFF33E021002800FFF76CFFA0
:102BF00021002800FFF768FF21002800FFF764FF8D
:102C000021002800FFF75AFF40E021002800FFF7CD
:102C100055FF21002800FFF757FF21002800FFF78C
:102C20004DFF21002800FFF74FFF33E0210028006F
:102C3000FFF74AFFEDE721002800FFF745FF2100DD
:102C40002800FFF741FF07E021002800FFF73CFFC5
:102C500021002800FFF732FF21002800FFF734FF92
:102C6000DFE721002800FFF72FFF21002800FFF7F2
:102C700025FFD2E721002800FFF720FF21002800D0
:102C8000FFF71CFF21002800FFF71EFF210028008E
:102C9000FFF714FF009806F0E3FD0398FDF73CFAF8
:102CA0000121200000F09EFF01371EE721002800CF
:102CB000FFF70AFF21002800FFF706FFE2E72100E7
:102CC0002800FFF7FBFEF5E721002800FFF7F6FEDE
:102CD00092E721002800FFF7F7FE0426013E2100BD
:102CE0002800F6B2FFF7EAFE002EF7D1D2E7210066
:102CF0002800FFF7E9FE21002800FFF7E5FE21008C
:102D00002800FFF7DBFE7BE70426013E21002800B8
:102D1000F6B2FFF7D9FE002EF7D1B7E70526013E40
:102D200021002800F6B2FFF7CFFE002EF7D1B1E761
:102D300021002800FFF7C2FE0426013E21002800E2
:102D4000F6B2FFF7C1FE002EF7D1A3E7210028005D
:102D5000FFF7B4FE21002800FFF7B0FE6FE704265E
:102D6000013E21002800F6B2FFF7A8FE002EF7D1A1
:102D700057E70526013E21002800F6B2FFF79EFE28
:102D8000002EF7D186E7009806F06AFD82E702215F
:102D90000B4A0848FDF72CFB7CE7280002F072F98B
:102DA000FFF77CFA05210300064A3000FDF706FA1A
:102DB00005B0F0BDCC3200208213010030180100B4
:102DC00099130100A713010010B51C0002AB1000FD
:102DD0001B780A00210001F00FFEFF2803DD200010
:102DE000014906F0C4FB10BDB413010030B58024C6
:102DF0000300114AA40180581D190130A8420FD0C8
:102E0000985080249858A40101700C48195AA14286
:102E10000AD15A580132954204D05A50002030BD90
:102E20009B50EEE75B50F9E74D1C1D520120002935
:102E3000F5D19A581A51F2E704200000082000004A
:102E400070B50C000B4B20001E7800253100FFF7F9
:102E5000CDFFAA212000FFF7C9FF074B2000595DD5
:102E60000135FFF7C3FF062DF7D131002000FFF732
:102E7000BDFF70BD281801003418010010B50A000C
:102E80000421FDF79BF910BD10B513000A000421C1
:102E9000FDF794F910BD000070B51E000B00FC3367
:102EA000150000210A22D8680BF0ECFC040063280E
:102EB0000BDD6324220007490748FFF7E5FF3200D6
:102EC0002800210002F046F970BD0028F2DC012440
:102ED000F0E7C046D7130100CC320020F0B5100057
:102EE00085B00C000393150001F07EFDFC340A222E
:102EF00000210290E0680BF0C5FC0A2207000021C7
:102F0000A0690BF0BFFC0A2206000021606A0BF0EA
:102F1000B9FC0A2200210090206B0BF0B3FC009951
:102F20000400F01B07F042FC3449020001903448D1
:102F3000FFF7AAFF334BFA18334B9A4200D9334FAD
:102F4000334B344A0093964203DD00969E4200DDE7
:102F50000093FA239B009C4242DB2F4C390028004F
:102F600002F00EF8280001F0A5FF009BBB423BDBFE
:102F70003A002A492248FFF787FF3900280001F06C
:102F8000FFFF061EF9D1280001F066FF2200244948
:102F90001B48FFF779FF0121032006F037FF0121CD
:102FA000202006F033FF0121052006F02FFF20002E
:102FB00006F056FC3100052006F028FF3100032002
:102FC00006F024FF3100202006F020FF15490C48B0
:102FD000FFF754FF0398FDF79FF8019BFF18C4E724
:102FE0000A2CBBDA0A24B9E7280002F04BF82800C3
:102FF000029901F0C5FF05B0F0BDC046E61301001F
:10300000CC320020007C28E8405973070084D71791
:1030100040DD4A1FFF83D717E7030000F6130100C6
:103020000E1401002B14010073B516008A680B7B87
:10303000002100926A4668461371517110220BF00C
:1030400021FC0400094D020009492800FFF71CFF7C
:103050002100300001F091FE04000300042128004B
:10306000044AFDF7ABF8200076BDC046CC32002004
:10307000971C010032140100F0B510008BB00D0058
:103080000993140001F0B4FCFC350A2200210790DA
:10309000E8680BF0F7FB0A2207000021A8690BF093
:1030A000F1FB0A2200210490686A0BF0EBFB0A2274
:1030B00006000021286B0BF0E5FB049B31000500A6
:1030C000D81B07F073FB4449020006904348FFF702
:1030D000DBFE434BFA18434B9A4200D9424F434B15
:1030E000434A04990393914203DD0391994200DD21
:1030F0000393FA239B009E425CDB3E4A04929D426E
:103100005DDB3C4E3900200001F0B6FE200002F0ED
:10311000EDF9039BBB4257DB304D3A00280036499E
:10312000FFF7B2FE3900200001F0A6FE200001F0FA
:1031300067FE05210300314A2800FDF73FF8320001
:1031400028002F49FFF7A0FE06F054FB089001204D
:1031500006F086FB00231D000593200001F0DEFD34
:10316000059B05211B18274A059300902B001B483F
:10317000FDF724F8322006F073FB06F03BFB089BBA
:103180000135C01AB042E8D32A001F491348FFF79F
:103190007BFE2900059807F07FFA3B0004211B4ABB
:1031A00000900E48FDF70AF80998FCF7B5FF069B5A
:1031B000FF18AEE70496002EA1DC01229EE72E0048
:1031C0000A2D9FDA0A269DE72000079901F054FE98
:1031D00004980BB0F0BDC046E6130100CC320020CD
:1031E000007C28E8405973070084D71740DD4A1F48
:1031F000FF83D717E7030000471401005F140100A5
:1032000092140100B2140100C2140100DA1401008A
:1032100010B508000C0001F0F3FD05210300044A7D
:103220000448FCF7CBFF200001F078FD10BDC0463C
:10323000F4140100CC32002010B5FFF7E9FF0200C2
:10324000002379320FDB0200093348320BDA062102
:1032500007F0ACFA0AF006F9044B002208F040FB34
:1032600007F020FCC3B2180010BDC0460000354076
:10327000F0B506000D0000218BB0049310AB80CB9D
:1032800003921B78082208A8059307910AF0EEFA2A
:1032900039003000FFF7D0FF059B07AC2030A0724B
:1032A000002B07D006F0A6FA194B984202D8A37A51
:1032B0000A33A372A37A1033DBB2392B25D007224D
:1032C00020001449A3720AF0B5FA134E0723300008
:1032D0000521124AFCF772FF2023A3712B7A3000DC
:1032E000E3716B7A05212372AB7A0D4A6372002376
:1032F000E3722300FCF762FF0C212000049B039A79
:103300000097FFF7E7FB0BB0F0BD6E23D7E7C04691
:10331000C065520034180100CC3200201A1501009B
:1033200030150100F7B50F7A1500092F26D838009F
:1033300008F09AFA134907F039FF134907F06CFDBA
:10334000041CA023114E9B003000EC50104A3B009F
:103350000421FCF733FF201C0AF0DAF80D4A009034
:10336000019130000421FCF729FF280001F08AFEBA
:1033700030000949FFF782FD201CFEBDFE24A40594
:10338000DFE7C046000020410000C842CC320020E8
:10339000441501005D15010079150100F7B51C0009
:1033A0000B00FC33150000210A22D8680BF06AFAE2
:1033B0000700280001F0EAFC144E0300042130004D
:1033C000134AFCF7FBFE280001F0E0FCB84211D1E3
:1033D00030001049FFF752FD6B46200062692169F9
:1033E000DF7103F0E5FC6A4620006369216907325A
:1033F00003F092FCFCB22800210001F01FFD300018
:103400003A000549FFF740FD2000FEBDCC32002008
:10341000871501009B150100AE150100F0B585B0C0
:1034200003930B00FC33170000210A22D8680BF02D
:1034300029FA041E00D101341D4D23000421280067
:103440001C4AFCF7BBFE06F0D5F90290FA2080007A
:103450006043002426000190380001F05FFC36181C
:10346000642006F0FDF90398FCF756FE06F0C2F959
:10347000029B0134C01A019B9842EDD32100300019
:1034800007F00AF907000300042128000A4AFCF7A4
:1034900095FE330028000521084AFCF78FFE28001E
:1034A00023000521064AFCF789FE380005B0F0BD6F
:1034B000CC320020CD150100E4150100FA15010001
:1034C0000916010013B5082407490848FFF7D6FC80
:1034D0002200684606490AF0ADF92200694605480F
:1034E00004F0D4F813BDC04615160100CC320020FC
:1034F00000180100AC3D0020F0B50D0087B0FC3590
:10350000E8680091140000210A2201930BF0BAF937
:10351000254F0200060025493800FFF7B5FC0A22B6
:103520000021A8690BF0AEF921490200050038001E
:10353000FFF7AAFC1F49204B72189A4202D86A185A
:103540009A4203D9FFF7BEFF07B0F0BD310020005B
:1035500001F016FD2900200001F08EFC200001F092
:1035600043FA164902003800FFF78EFC200001F0F4
:103570003FFA134902003800FFF786FC31002000B3
:1035800001F0FEFC2900200001F076FC009903A860
:10359000083105F097FF019803A905F0E0FF03A8A3
:1035A00005F048FFD0E7C046CC3200201E160100CF
:1035B0003A160100007C28E84059730755160100AF
:1035C0007616010070B50B7A1400134D002B11D143
:1035D000C82212499D239B00E0180AF02BF9200015
:1035E00001F050FD0E4B28000521E35C0D4AFCF76D
:1035F000E5FD70BD012B02D1C8220B49EAE7022B81
:1036000002D1C8220949E5E702212800084AFCF74F
:10361000D5FDFFF757FFE5E7CC320020A0010020E1
:1036200076020000B316010068020020300300207B
:1036300096160100F7B51D000B00FC33D868002179
:1036400016000A220BF01EF90400300001F0CCF93C
:103650001E4F02001E493800FFF716FC1D4BE218F2
:103660001D4B9A4204D9FFF72DFF00242000FEBD18
:10367000300001F0B9F9A0420FD138001749FFF727
:10368000FDFB28006A692969019403F091FB280079
:103690006B69296901AA03F03FFB38001049FFF765
:1036A000EDFB2100300001F06BFC38000D49FFF705
:1036B000E5FB2100300001F0DFFB300001F094F960
:1036C000094902003800FFF7DFFBCFE7CC320020CA
:1036D000C1160100007C28E8405973079B150100C2
:1036E000D5160100F6160100161701007FB50E0071
:1036F00014000E210F2268461D00FCF701FE6846EB
:10370000FCF701FE317A0B00413B022B02D9FFF797
:10371000D9FE7FBD2B0022006846FCF79BFEF8E730
:1037200030B506250C0085B014491548FFF7A6FBF7
:1037300014492A00083102A80AF07CF8230003216A
:10374000114A01A80AF08EFF6A46104B104C1B78F4
:1037500002A9137020002A0003F098FF01A80AF0C4
:10376000DDFF01A90200200003F090FF012269465D
:10377000200003F08BFF05B030BDC04616160100D7
:10378000CC32002000180100D412010034170100CF
:10379000AC3D002070B506260C00B6B01C491D4893
:1037A0001500FFF76BFB1C4932000E3102A80AF02E
:1037B00041F823000321194A01A80AF053FF6A4681
:1037C000174B28001B7804A91370AB685A1C002300
:1037D00005F066FF134C320002A9200003F056FFEB
:1037E00001A80AF09BFF01A90200200003F04EFF90
:1037F0002021200005F0A2FCAA6804A9200003F003
:1038000045FF01226946200003F040FF36B070BD3D
:1038100036170100CC32002000180100D41201003C
:1038200034170100AC3D0020F0B515008DB01F002D
:1038300014AB1B780391049318AB1B78AE490400BA
:1038400006A80593139E05F03DFEAC49AC48FFF772
:1038500015FBAB4804212B78AA4AFCF7AFFC28786B
:10386000073818281DD806F00DFF19003100440054
:1038700054005F0072008B009A001C001C001C00AA
:103880001C001C001C001C001C00A700BA00C90082
:10389000D600E600FE002A011C0038016B68062BEA
:1038A00002D0FFF70FFE0CE007212000FFF738FFE2
:1038B000059B3A00019329002000129B0096FFF718
:1038C000D7FC06A805F0B6FD0DB0F0BD6B68042B63
:1038D000E7D108212000FFF723FF3A00290020004C
:1038E00006ABFFF703FF2000297806AAFFF752FF77
:1038F000E7E76B68032BD4D120000921FFF710FF05
:10390000049B320000932000129906ABFFF75CFA8B
:10391000E9E76B68032BC4D120000A21FFF700FF01
:10392000794805F09DFFCCE76B680C2BB9D10B21D2
:103930002000FFF7F5FE320029002000159BFFF75D
:1039400079FE01000A2209A805F033FE10E06B6839
:10395000042BA6D10C212000FFF7E2FE3200290043
:103960002000FFF72FFE0A22297A09A805F010FE91
:1039700009A906A805F0F3FD09A805F05BFDB2E76B
:103980006B68162B00D08CE720000D21FFF7C8FED6
:1039900032002900200006ABFFF7AEFDA3E76B68FD
:1039A000032B00D07DE720000E21FFF7B9FE200099
:1039B0000399FFF745FA84E76B68052B00D070E7A1
:1039C00017212000FFF7ACFE29003B003200200049
:1039D000FFF762FA4D4906A805F0C9FD83E76B6859
:1039E000052B00D05DE720001821FFF799FE3B0072
:1039F000320029002000FFF711FDA2E76B68032BBE
:103A000000D04EE720001921FFF78AFE3100200088
:103A1000FFF7FEFB95E76B681E2B00D041E71A21EC
:103A20002000FFF77DFE29003B0032002000FFF759
:103A300055FA3749CFE76B681E2B00D031E72000DD
:103A40001B21FFF76DFE334906A805F090FD20000D
:103A5000297806AAFFF79EFE3B00320029002000CD
:103A6000FFF70AFB2DE76B68062B00D019E7200053
:103A70001C21FFF755FE320029002000FFF7D4FA81
:103A80000600254906A805F072FD0222310009A8AA
:103A900005F08FFD09A906A805F0E2FD09A805F0CB
:103AA000C9FC1E4906A805F0E1FD3100102209A855
:103AB00005F07FFD09A906A805F0D2FD5CE76B685B
:103AC000042B00D0EDE620001D21FFF729FE320077
:103AD00029002000FFF726FCF3E66B68062B00D0D8
:103AE000DFE620001F21FFF71BFE32002900200027
:103AF000169BFFF753FCE4E6712001004D1701000F
:103B0000CC32002067170100B80B000079170100C4
:103B10008A170100B7170100D2170100E917010049
:103B200010B5054C0549200005F0CCFC2000044AE6
:103B3000044906F0E3FA10BD000800201418010043
:103B4000000000203594000010B58360084B016030
:103B50004361084B42600361074B04000362074B5B
:103B60008361074BC36105F045FE6062200010BD14
:103B70005C8F2A4200202E453333533B00004844DB
:103B80000000484210B504000021406806F00EF91C
:103B90000021A06806F00AF910BD000010B504006D
:103BA000006806F08BF807F019FE216A07F0FEFAAC
:103BB0000A4907F0FBFA616907F012FC216907F076
:103BC0002BF909F0A5FC064B002208F0F9FD09F0DD
:103BD00013FCA36A834200DAA06210BD00007A449D
:103BE00000408F4070B50400C669002900D0866986
:103BF000206806F063F807F0F1FD216A07F0D6FAB5
:103C0000194907F0D3FA616907F0EAFB216907F067
:103C100003F9154907F0CAFA051CA06A07F0DEFD92
:103C2000291C06F0FFFE002803D0281C07F0B6FD73
:103C3000A062291C301C06F0F5FE00280CD005F00F
:103C4000D9FD636AC01AFA235B00984209D905F0CE
:103C5000D1FD6062012005E0606806F003F90028EC
:103C6000EDD0002070BDC04600007A44806A7047E5
:103C7000002383627047F0B585B000910290002167
:103C80000098019209F0F2FD00200F23802201002C
:103C90000125019CA04235DA08248026A4461C0098
:103CA000029B1B5C33405F1EBB4180276340BF000B
:103CB0005B023B400393102327011F40039B674097
:103CC0003B435B10002801D1042E01D0002D10D100
:103CD00025116C4001252C4204D0009C009D645CA1
:103CE00014436C5400255210AA4202D115008022C0
:103CF000013101246442A44464467610002CCED1E4
:103D00000130C6E7802080000524102784466646DF
:103D100018011D11384058405D405B023340034399
:103D200001205B10054204D00098009D405C1043C8
:103D30006854521001D101318032013C002CE6D18F
:103D400005B0F0BDF7B50C000600002120001500FD
:103D500009F08CFDF823220000965B00111B8D42B8
:103D600020DD08278026009909783140481E8141CE
:103D7000080058405B109C46019060460B020343CC
:103D80000120C9004B400199014202D01178314312
:103D90001170013F7610002FE5D1009901320131F9
:103DA0000091DBE7F7BD000010B5040010220749C1
:103DB00009F040FD200080220549103009F03AFD4D
:103DC0002000983002F052FD200010BD6C18010058
:103DD0007C18010010B50400983002F00BFE0300BF
:103DE000020B92B2A05C19000F221140615C000628
:103DF0000843191211401B11615C1340E35C090474
:103E000008431B02184310BDF7B516001A0E82189E
:103E1000040001911800117CFF220F271040201888
:103E2000007C09033840F0270843190C11401B0A95
:103E300061181340097CE3181B7C3F0109023940DB
:103E40001B01134008430E4F184385B22B00380066
:103E500006210C4AFCF7B2F9200032000199983093
:103E600002F0C8FD90340300208006213800064A85
:103E7000FCF7A4F92088401B43425841C0B2FEBD64
:103E8000CC320020481801005B1801000300426892
:103E9000080010B5824206D8801A01001C68104044
:103EA00021410818F6E710BDF0B5D14CA5440293A6
:103EB0004369040001930023079204910DAA01991C
:103EC0008B4217D163680093049B5E1C049B009A8D
:103ED000F31A9A4213D800273A000DAB06930199C2
:103EE0008A4228D01978E0680F43415C013219708A
:103EF0000133F4E70499097899540133DFE7002589
:103F0000019B9D4215D00DABEA5C3778002A0CD09E
:103F1000237E617E5B195943E36820009B5CC918CE
:103F2000FFF7B4FFA3681B5C5F400DAB5F55013525
:103F3000E6E70136CAE7002F00D149E1C520012597
:103F40000CABC0180021019A09F090FC029B3DAE19
:103F50003570002B34DCE368019A039300230132AF
:103F600008923DA84EAA08998B4268D3029A029BF8
:103F700094460A930DAB634409930592029B013367
:103F80000293029A019B934200D2C5E000263500BD
:103F9000029B9D4259DA3DABEA5C002A0ED009999A
:103FA0006B42CB5C0099994208D003992000895C50
:103FB000C918FFF76BFFA3681B5C5E400135E7E79C
:103FC000A36820000393637E0593079B1B68D94376
:103FD0000893009BC918059B5943FFF757FF039BA4
:103FE0001B5C7370E3680993029B9D42B3D00799F1
:103FF000AA00009B8958013B591A059B2000594390
:10400000FFF744FF6F1C3E003DAB08905D19099A15
:104010002B78013ED35C009A9A420BD0FF2208997C
:1040200020001140C918FFF731FF039B6A781B5C21
:1040300053406B70013D002EE9D13D00D4E7195C7F
:10404000039D695C995401338DE7039B9E5D009B42
:10405000B3420ED10A200CAB4EADFF30C018290080
:10406000019A09F0F0FB009B2B70099B0133099327
:1040700084E700253DAB1A785FAB1A70019B9D4227
:1040800014D084220CAB52009B18595D3DAB013516
:10409000EF5C009B8B4206D020007118FFF7F6FE04
:1040A000A3681B5C5F405FABEF54E7E70A9A029B93
:1040B0009B18059A520093421FDD0025059A9B1A12
:1040C00005933DABEB5C002B0DD16B4618784EABE6
:1040D0005855019B0135AB42F3D2089A5FA93DA820
:1040E00009F0A8FBC1E7039A2000D15C009B891B63
:1040F000C918FFF7CBFEC0B2E9E70A200CABFF30CE
:10410000019AC0184EA909F09EFB84220CAB520004
:104110009B18009A1A70E0E700233DAA0293995C6D
:104120000398415C00989954884200D00293089902
:1041300001339942F3D8D620C521002701260CABC4
:10414000FF30C918C018019A09F074FBA37E0993C7
:10415000013B0593009BB34235D30123029D089395
:10416000002D19D0EA230CAA5B00D218515D009AE9
:104170008A420FD020004919FFF788FEEA230CAAD3
:104180005B00D3185855FF231840A368089A1B5C9E
:104190005A400892013DE3E7089B002B08D11DAB74
:1041A000059ADE552DABDA55029B0137BB4221D073
:1041B000099A059B9446634419002000FFF766FEA8
:1041C00001360590C6E7029BBB4213D001277F4210
:1041D000079B002B00D1B6E000232DA8BB4200DBDB
:1041E000B1E0195C079C9A00A1500133F6E7C04684
:1041F000B4FDFFFF00250995019B9D4229D0029E39
:10420000AE4200DD2E0000230593069A7342D15C76
:10421000009B8B420DD03DABF35C009A9A4208D0D4
:10422000C9182000FFF732FEA368059A1B5C5A40AC
:104230000592013EE9D2059B002B00D00995039B16
:10424000059A9A5C70ABEA54069B013501330693DC
:10425000D2E7009A70AB5A557A1E94467B1E0193A2
:104260001DAB63440693019B002BB1DB6368099D82
:104270000093A3680593069B1E780023039370ABFD
:10428000EB5C009A93420AD0290071432000C918C0
:10429000FFF7FCFD059B039A1B5C5A400392013D0E
:1042A000EDD2217E009B013971432000C918FFF730
:1042B000EDFD63690A905D1E029B9D4200D91D00C1
:1042C00001239D4373006E43089600265B420B93C7
:1042D0003DABEB185978009B8B4207D0089B200020
:1042E000C918FFF7D3FD059B1B5C5E400B9A089B2A
:1042F0009446023D63440893AB1CE9D1002E00D1E3
:1043000064E7039B002B18D00A99059AE368525C76
:104310002000995C039A9A5C9B5D8918009A891821
:10432000C91AFFF7B3FD019A2DABD25C0499059B26
:10433000895C1B5C4B4004998B54019B013B0193AE
:10434000069B013B8EE7380093239B009D44F0BD04
:10435000F0B504001500344F85B03800334A03919E
:104360000621FBF72BFF00216269280009F07EFA85
:10437000062138002B782E4AFBF720FF0621380053
:1043800063692C4AFBF71AFF6368062138002A4A42
:10439000FBF714FF00230193626863690199D31A44
:1043A0008B423AD9039B5B5C29784B40E168CB5C3C
:1043B00002939A4212D001266369B3420ED9226950
:1043C0009B1BD15C029B2000C918FFF75FFDA3680F
:1043D000AA5D1B5C5340AB550136EDE763692800CD
:1043E0005A1E691C09F02FFA029B626893420FD093
:1043F000236920001978029BC918FFF747FDA368BD
:104400001A5C6369EB18013B1A70019B0133C2E728
:1044100063690022EB18013BF6E706213800074AE2
:10442000FBF7CCFE05B0F0BDCC320020FC1801003B
:10443000101901001A190100281901003219010090
:10444000F0B585B0070002910192009308284DD87D
:1044500001252E008640964248D9009B002B45D06E
:104460009E4243D90A9B9E4240D91C21280009F054
:104470005BF9041E07D152480121524AFBF79EFE08
:10448000012009F06FF9731E0760436029003000B6
:10449000039309F049F9071EA060ECD02900300011
:1044A00009F042F9E0600028E5D0731E0370002394
:1044B000721EBB542F0062689A420CD9E268D35531
:1044C000A268D7547F00374201D0029A57406268F1
:1044D00001331740EFE7012F0CD0A06809F0A0F9D5
:1044E000E06809F09DF9200009F09AF90024200005
:1044F00005B0F0BD0A9B3900581C09F015F9206180
:10450000002807D12E4839002E4AFBF757FE2E48C7
:1045100005F0A6F9019B2376009B63760A9B6361F5
:104520003800009906F03EF90D1E02D06368FF18AE
:10453000F6E7012322690099A0761370019A03938C
:104540004A4301920A9BAB422FD02E002369039A63
:104550005B195A702769002E15D0BB190293029A75
:10456000BB5D013A1778002B09D0E2682000D15CCE
:10457000019BC918FFF78AFCA3681B5C5F40029B84
:10458000013E1F70E6E7E2683B782000D15C019BAA
:104590000135C918FFF77AFC009AA36894461B5CA2
:1045A0003B70019B63440193CCE700230A9A9A4233
:1045B0009DD32269E068D15C415CD1540133F5E7B9
:1045C000CC32002047190100B80B000037B5002598
:1045D000074C236901350093E368A268616820688D
:1045E000FFF72EFF60611834052DF2D137BDC046AC
:1045F000C00400200E4A70B50300002415001169A4
:1046000099420AD123000B4806210B4AFBF7D6FD3D
:1046100018235C432C19606970BD01341832052CD5
:10462000EDD104480221054AFBF7E2FE6869F3E791
:10463000C0040020CC32002065190100751901006A
:10464000F0B5FF2415000E000700C3B022000021C2
:1046500002A8019309F00AF9601B02AB801B32002B
:104660003900C01809F0E6F82800FFF7C3FF019AE7
:1046700002A9FFF76DFE43B0F0BD0000F0B5FF26C4
:1046800005001F4C8F18A5441400F61B3200029140
:1046900004A80021039309F0E9F804AAB31818004C
:1046A0003A002900019309F0C5F8164D0621164A73
:1046B0002800FBF79DFE44AF2000FFF79BFF00237F
:1046C0003A0004A9FFF7F0FB029A0400019903984D
:1046D00009F0B0F80023A34207DA9A00BA589642CC
:1046E00001D80133F7E701246442280023000621A2
:1046F000064AFBF77DFE200085239B009D44F0BD0C
:10470000ECFDFFFFCC320020C4190100151A010096
:1047100070B50500060000230400093539364360F2
:10472000FF35FF36280006490C3504F0CBFEAE42BB
:10473000F8D123000022FC332000DA6370BDC046AC
:1047400071200100822270B580249200815AA40059
:1047500003000059002901D1007870BD8026451C56
:10476000B6001D519E190078B54200D31B51013986
:104770009952F2E7F0B50400002605008BB0FC3436
:104780004149E66301A804F09DFE290004A8083110
:1047900004F098FE3D4907A804F094FE320007A9F2
:1047A00004A804F097FF070007A804F043FE7B1C51
:1047B0001AD032003B0004A907A804F09BFF07A908
:1047C00001A804F0CCFE07A804F034FE0C23E06B33
:1047D00001A958430930FF30281804F0A6FEE36B06
:1047E0007E1C0133E363D5E7069B002B14D00C2716
:1047F000E26B04A957430937FF37320007A8EF19C6
:1048000004F078FF07A9380004F0A9FE07A804F017
:1048100011FEE36B0133E3631D4E05213000049B61
:104820001C4AFBF7CBFC052130002B781A4AFBF71A
:10483000C5FC05213000E36B184AFBF7BFFC0521DE
:104840003000174AFBF7BAFC0027E36BBB420CDDD4
:104850000C222B007A430933FF339B58052130008B
:10486000104AFBF7C5FD0137EFE705210E4A30007E
:10487000FBF7BEFDE46B04A804F0DCFD01A804F026
:10488000D9FD20000BB0F0BD71200100C83B010034
:10489000CC320020721A0100841A0100971A01001C
:1048A000A71A0100711001006F200100F7B50D007B
:1048B000040008000192FFF745FF2800FFF742FFC0
:1048C0002A4E0300207005213000294AFBF776FCB0
:1048D0002778AA2F25D1274B01981978FEF786FA59
:1048E00039000198FEF782FAA83F6368BB4208DDF1
:1048F0002800FFF727FF01000198FEF777FA01373C
:10490000F3E7052130001C4AFBF758FC019A1B4BCA
:104910000521D35A30001A4AFBF750FC0025280025
:10492000FEBD06273000052126006368154AFBF707
:1049300045FC7F4208363F1B6368BA19591E9142F5
:1049400005DD2800FFF7FEFE30700136F4E7002297
:10495000E31828005A71FFF7F5FE63680125032B61
:10496000DDDD2000FFF706FFD9E7C046CC3200208E
:10497000EE0F010028180100B41A01000820000001
:10498000C81A01005911010070B50400022515482C
:10499000255421382150D02189006250D122920023
:1049A000A350D223049A9B00E250059A0433E250AC
:1049B000069A0433E250079A0433E250089A04330B
:1049C000E250513BFF3BE0186C22002108F04EFF03
:1049D0009D239B00C8220021E01808F047FF20001B
:1049E00070BDC0465D03000083239B00C058704724
:1049F00088239B00C0587047F0B587B00C000500B5
:104A0000974903A816001F0004F05CFD83239B0058
:104A1000E9580A22684604F0DEFD694603A804F05E
:104A200032FE0100200004F080FD684604F002FD23
:104A300003A804F0FFFC8B4903A804F043FD88237E
:104A40009B00E9580A22684604F0C5FD694603A8A0
:104A500004F019FE0100200004F002FE684604F094
:104A6000E9FC03A804F0E6FC7F4903A804F02AFD52
:104A700068467E4904F069FD694603A804F003FE18
:104A80000100200004F0ECFD684604F0D3FC03A80C
:104A900004F0D0FC764903A804F014FD0A22390082
:104AA000684604F086FD694603A804F0ECFD0100A9
:104AB000200004F0D5FD684604F0BCFC03A804F017
:104AC000B9FC6C4903A804F0FDFC3000FFF766F860
:104AD0000A220100684604F06CFD694603A804F050
:104AE000D2FD0100200004F0BBFD684604F0A2FCEA
:104AF00003A804F09FFC604903A804F0E3FC300025
:104B0000FFF7B4F80A220100684604F052FD694636
:104B100003A804F0B8FD0100200004F0A1FD6846E0
:104B200004F088FC03A804F085FC544903A804F0B1
:104B3000C9FC534B1022E95C684604F029FD694624
:104B400003A804F0A0FD0100200004F089FD6846E0
:104B500004F070FC03A804F06DFC4A4903A804F0BB
:104B6000B1FC9E239B00E9580A22684604F033FDFD
:104B7000694603A804F087FD0100200004F070FDE1
:104B8000684604F057FC03A804F054FC3E4903A80F
:104B900004F098FC3D4B0A22E95C684604F0F8FCFE
:104BA000694603A804F06FFD0100200004F058FDE1
:104BB000684604F03FFC03A804F03CFC344903A819
:104BC00004F080FC334B0A22E95C0E23684619404E
:104BD00004F0EFFC694603A804F055FD0100200035
:104BE00004F03EFD684604F025FC03A804F022FC16
:104BF000294903A804F066FCD7239B00E95C0A223C
:104C0000684604F0C5FC694603A804F03CFD0100B9
:104C1000200004F025FD684604F00CFC03A804F015
:104C200009FC1E4903A804F04DFCA0239B00E95891
:104C30000322684604F0E1FC694603A804F023FD62
:104C40000100200004F00CFD684604F0F3FB03A80B
:104C500004F0F0FB3000FFF70BF8A06807B0F0BDE0
:104C6000E11A0100E91A0100F31A0100000800200E
:104C7000FE1A01000D1B01001B1B0100301B01006F
:104C800077020000391B0100461B01007E02000074
:104C9000561B010076020000611B0100721B01001F
:104CA000D123F7B5D5250400D4279B00C058AD000B
:104CB000009101210192BF0005F0A8F8605901217F
:104CC00005F0A4F80121E05905F0A0F80D4B00987B
:104CD0001E68704304F0C4FD0198FEF75FFFE059C1
:104CE000002105F093F8D1239B00E058002105F046
:104CF0008DF86059002105F089F8300004F0B0FD0E
:104D0000F7BDC0463018010082239B0010B5C018C3
:104D1000FBF7F7FE431E9841C0B210BD822310B5C9
:104D20009B00C018FBF7E8FE10BDD1239B0070B5B7
:104D300004000E00C0580121150005F067F8D523C6
:104D40009B00E058012105F061F89D229200A11816
:104D50006C3AABB2A0183200FCF78EFE70BD9D23FA
:104D60009B00C2186C3B010010B5C018FCF764FF33
:104D7000013843425841C0B210BD82239B0010B598
:104D800089B2C018FDF750F980B210BDD7239B003F
:104D9000C05C7047F7B50C00060004F031FD154B00
:104DA000041B1B68002001939C4221D9FA2705258A
:104DB00004007F0182239B00F018FBF79DFE031C7B
:104DC000A04200D2231CDCB23B00013BFDD1013DDF
:104DD000002DEFD1D7239B00F35C0120A34207D223
:104DE00004F00EFD044822000449FBF7DEFE280013
:104DF000FEBDC04640180100CC3200207A1B0100E5
:104E000082239B0070B5C0183021FDF70DF9084DC5
:104E10000400020007492800FBF7C7FE8023280092
:104E20000521054A2340FBF7C9F9E0B2C00970BD6E
:104E3000CC3200208F1B0100AF1B0100D72310B51F
:104E40009B00C154024A04210248FBF7B7F910BD88
:104E5000BD1B0100CC320020822310B59B00C0187E
:104E6000FBF756FE0421024A0248FBF7A7F910BDE2
:104E7000D11B0100CC32002088239B0070B5C150AB
:104E8000183BC61804003000FCF768FA0500300033
:104E9000FBF758FE2000FFF7B3FF012804D00221E2
:104EA000024A0348FBF78AF9280070BDDF1B0100A6
:104EB000CC320020F8B582239B00C51804002800DE
:104EC000FBF72AFF2800FCF70DF8254F28003900D2
:104ED000FBF702FED4239B00E058002104F096FF6C
:104EE0008421204B2800E154FBF7FCFDCF239B00DD
:104EF000E058012104F08AFFD0239B00E0580021F4
:104F000004F084FF184E19493000FBF7FFFE8F2391
:104F10009B003000E3580621154AFBF74FF9832325
:104F20009B003000E3580521124AFBF747F988231C
:104F30009B003000E35805210F4AFBF73FF9FDF7CE
:104F4000ADF90E4A030006213000FBF737F92800BF
:104F5000FBF7DEFD39002800FCF73AFCF8BDC0463F
:104F6000D80000205D030000CC320020001C0100AE
:104F70001A1C01002F1C01004D1C0100A713010089
:104F800083239B0070B5C150043BC6180400300059
:104F9000FBF7F0FF05003000FBF7BAFD2000FFF73C
:104FA0002FFF002804D00221024A0348FBF706F92C
:104FB000280070BDDF1B0100CC32002082239B0043
:104FC00070B5C51804002800FBF7A2FD30212800A9
:104FD000FDF72AF8264E020026493000FBF7E5FDD2
:104FE00083239B00E1582800FBF728FF05212800B8
:104FF000FBF781FA07212800FBF77DFACF239B00FE
:10500000E058012104F002FFD0239B00E05800216A
:1050100004F0FCFE9D239B00E1182800FCF7D8FB60
:105020002800FBF775FDD5239B00E058012104F013
:10503000EDFE30212800FCF7F7FF062103000E4AA1
:105040003000FBF7BBF82000FFF7DAFE0621030073
:105050000A4A3000FBF7B2F82000FFF7D1FE002823
:1050600004D002213000064AFBF7A8F870BDC04604
:10507000CC3200206B1C01008F1C0100A61C01001B
:10508000DF1B0100D1239B0070B500210400C05834
:1050900004F0BCFED5239B00E058002104F0B6FECE
:1050A000CF239B00E058002104F0B0FED0239B00EA
:1050B000E058012104F0AAFE02211E4BE154563BA8
:1050C000FF3BE6183000FBF70DFD3000FBF724FE38
:1050D0003000FBF707FF184D18492800FBF716FEB4
:1050E0009D239B00E41830002100FBF7F5FC28000D
:1050F0001349FBF70BFE30002100FCF743FB3000A7
:105100003021FCF791FF0F4902002800FBF74DFD0D
:1051100028000D49FBF7FAFDFDF7C0F80621030052
:105120000A4A2800FBF74AF828000421084AFBF73E
:1051300045F870BD5D030000CC320020B51C0100B5
:10514000C21C01006B1C010079150100A7130100AE
:10515000DA1C01008223F0B59B00C51887B004005B
:10516000280004920391FBF7BDFEA0239B00E058AA
:105170004F4F504EF86008F0CBF94F4A0090019124
:1051800004213000FBF71AF839002800FBF7A4FCD3
:1051900084212800FBF7A6FCCF239B00E0580121C7
:1051A00004F034FED0239B00E058002104F02EFED2
:1051B000D4239B00E058012104F028FE3900280088
:1051C000FCF706FB3D4A04213000039BFAF7F6FF8B
:1051D000D1239B00E058012104F018FED5239B0049
:1051E000E058012104F012FED4239B000121E05875
:1051F00004F00CFE04F0FEFAFA21039B89004B43F5
:105200000393D42307009B00059304F0F3FA039B58
:10521000C01B984203D20498FAF77EFFF5E7059B7E
:105220000021E05804F0F2FDCF239B00E05800215C
:1052300004F0ECFDD0239B00E058012104F0E6FDD2
:10524000D1239B00E058002104F0E0FDD5239B0012
:10525000E058002104F0DAFD194A30000421FAF781
:10526000ADFF02212800FBF73DFC2800FBF73AFECA
:105270009D239B00E41821002800FBF72DFC300043
:105280001049FBF743FD21002800FCF77BFA3000B2
:105290000D4A0421FAF792FF30212800FCF7C4FEE2
:1052A0000A4902003000FBF780FC07B0F0BDC046A1
:1052B000D8000020CC320020F91C0100091D01009B
:1052C0002B140100C21C0100791501006B1C0100A8
:1052D000F0B585B00193CF239B0004000091C05826
:1052E0000121150004F062FDD0229200A058012196
:1052F00004F05CFDD12080002058012104F056FD0F
:10530000D2239B00E058002104F050FDD323D42683
:10531000D5279B00E058B600002104F047FDBF00F0
:10532000A059012104F042FDE059012104F03EFDA5
:10533000D6239B00E058002104F038FDCF239B00CA
:10534000E058002104F062FDD0229200A058012113
:1053500004F05CFDD12080002058002104F056FDAF
:10536000E059002104F052FDA059002104F04EFD47
:105370008D23002603AF9B00E6543A0028006B699A
:10538000296901F027FD8323039A9B00E25028003E
:105390003A006B69296901F01DFD882203990123F8
:1053A0009200A1508F211832A354444A89006250C0
:1053B0009622FE21009892008905A15040490432AE
:1053C000A0501832A150962104328901A1508021A9
:1053D00004324900A1523B4AA220A3543A4B800018
:1053E0001A68A0239B00E2500433E65231000822E1
:1053F000201808F03BFAA223A520344A9B00E25073
:1054000080000833E650A8223100201808F02EFA58
:105410008220800026183000FBF764FD9D2080006C
:105420002018010000903000FBF756FB3000009977
:10543000FBF708FB264D06212800264AFAF7BEFE98
:105440008F218900635828000621234AFAF7B6FE07
:1054500083239B002800E3580621204AFAF7AEFE7A
:1054600088229200A358062128001D4AFAF7A6FEBA
:10547000FCF714FF1B4A030006212800FAF79EFEE2
:105480003000FBF77AFB30000099FCF77BF9302104
:105490003000FCF7C9FD144902002800FBF785FB2A
:1054A000019B01993A005B690969019801F092FC3E
:1054B000D7233A789B00E25405B0F0BD006CDC02C3
:1054C000080006037E0200002C1801001F852B3FF8
:1054D000CC320020001C01001A1C01002F1C01000E
:1054E0004D1C0100A71301006B1C0100D1239B0080
:1054F00070B500210400C05804F088FCD5239B003F
:10550000E058002104F082FC82239B00E618302141
:105510003000FCF789FD274D020027492800FBF7E2
:1055200044FB88239B00E1583000FBF78DFC234BA4
:105530001B68002B06D030200321584305F0ACF83F
:105540000138FDD1CF239B00E058002104F05EFC20
:10555000D0239B00E058012104F058FC2800184992
:10556000FBF7D4FB9D239B00E1183000FCF70AF900
:105570003000FBF7E7FA30213000FCF755FD06213B
:105580000300104A2800FAF719FE2000FFF738FC44
:10559000062103000C4A2800FAF710FE2000FFF74E
:1055A0002FFC012804D002212800084AFAF706FE41
:1055B00070BDC046CC3200206E1401003C180100C2
:1055C000241D01008F1C0100A61C0100DF1B01002F
:1055D00010B513000A000621FAF70AFF10BD0000FB
:1055E000F8B5A823474D9B000400C35806212800A6
:1055F000454AFAF7FDFEA9239B002800E35806213F
:10560000424AFAF7F5FEAA239B002800E358062138
:105610003F4AFAF7EDFEAB239B002800E358062132
:105620003C4AFAF7E5FEAC239B002800E35806212C
:10563000394AFAF7DDFEB0239B002800E35C06211F
:10564000364AFAF7D5FE364B2800E35C0621354A88
:10565000FAF7CEFE344B2800E35C0621334AFAF712
:10566000C7FE334B2800E35C0621324AFAF7C0FE3E
:10567000CA239B002800E25A2F49FFF7A9FF2F4BAE
:105680002800E25A2E49FFF7A3FFCB239B002800F6
:10569000E25A2C49FFF79CFF2B4B2800E25A2B497A
:1056A000FFF796FFCC239B002800E25A2849FFF71A
:1056B0008FFF284B2800E25A2749FFF789FFCD23A7
:1056C0009B00E25A28002549FFF782FF244F254E10
:1056D00028003100E25BFFF77BFF31002800E25B2E
:1056E000FFF776FF204B2800E35C06211F4AFAF7FC
:1056F0007FFE1F4B28000621E35C1E4AFAF778FE66
:10570000F8BDC046CC3200203A1D01004E1D0100FC
:10571000601D0100741D0100821D0100941D010027
:1057200025030000A71D010026030000C01D010085
:1057300027030000D91D0100EF1D01002A0300000E
:10574000081E0100221E01002E0300003B1E010066
:10575000551E0100320300006A1E0100811E010077
:1057600036030000991E01003A030000B31E010039
:105770003B030000C71E010010B50021032004F008
:1057800045FB0021202004F041FB0122014B1A605F
:1057900010BDC0469430002070B50500060004001E
:1057A00039350936FF35FF36B54204D00C3D2800A7
:1057B00003F040FEF8E7200070BD10B504000C3087
:1057C000FFF7EAFF200003F035FE200010BD0000C7
:1057D00070B50D0004000021082004F017FB2A001A
:1057E0002100044801F07FFB0121082004F00EFB9A
:1057F00070BDC046643B002007B5002009F04EF89C
:105800006B460733181A0EBD812270B58024030041
:1058100092008058A40001301D19A84211D0985060
:10582000985880240170822189005E5AA400B0B289
:10583000A6420AD11A580132954204D01A500020CB
:1058400070BD9B50ECE71B50F9E75D5A681C80B2B5
:1058500058520120002DF3D19A581A51F0E7000058
:10586000802130B50B4A8901845A03004058002C2E
:1058700001D1007830BD8025441CAD015C505D191C
:105880000078AC4200D35B50995A013989B29952E1
:10589000F0E7C0460820000010B513000A000521FB
:1058A000FAF78CFC10BD000082239B00C35A0A004B
:1058B0008B4204D881239B00C358187870478023FB
:1058C0009B00C158054B091A8918194003D5044B90
:1058D000013919430131405CF0E7C046FF01008007
:1058E00000FEFFFF0B4B0A00C35A8B4203D80A4B42
:1058F000C3581878704780239B01C158074B091A79
:105900008918194003D5064B013919430131405C10
:10591000F0E7C0460820000004200000FF1F0080C0
:1059200000E0FFFF70B581208024822100228025C5
:10593000374B8900A40080005A521B511B50354B35
:10594000AD015B51344D86B05B51344D5A53344BED
:1059500001251B51334C5A521B502000FEF7D8FE34
:10596000314E20003200314904F0C8FB304C314B3D
:10597000280023604B2323712F4B236159781A7819
:105980006171521A290091404A42E2809B78237249
:10599000984005F023FF011CFE20800505F03CFA2D
:1059A0000721E0602548FAF7A9FB09230422122108
:1059B0002348FEF7C9F80C2320210493073B0293E8
:1059C0005B190193043B1F22039100931D485B194F
:1059D000FEF7DAFF1C4C1D49200003F073FD1C4844
:1059E000FEF796FE320020001A4904F087FB0422DD
:1059F00019491A4801F078F92A001949194801F0A3
:105A000073F9194B1A78194B1A7006B070BDC0465D
:105A10002C080020880B0020042000000820000033
:105A2000B4300020942B0020000000209957000083
:105A30009C300020E03200203C050020C0320020D5
:105A4000D82C0020342D00203C0A002071200100B9
:105A5000480A0020BB570000002501001C2D002033
:105A60000024010010080020181801002808002058
:105A7000F0B5574885B0FEF785F8E121554C09028D
:105A8000200002F031FA544E01232200042130009C
:105A900000F00EFE514D02AA6B692800296901F041
:105AA00099F9029B002B0ED14D4B28001B686A69A7
:105AB00029690193029301F07BF928006B69296938
:105AC00002AA01F029F9474C02AA63692000216962
:105AD00001F080F902AB1B78002B0ED1424B02AAD9
