:1000000000800020F99A000089970000E19A000022
:1000100000000000000000000000000000000000E0
:10002000000000000000000000000000E19A000055
:100030000000000000000000E19A00004D9B00005D
:10004000E19A0000E19A0000E19A0000E19A0000C4
:100050004D970000E19A000095740000E59A0000B9
:10006000E19A00007D7800008D780000E19A0000A0
:10007000516F0000E19A00009D780000E19A0000B5
:10008000E19A0000E19A0000E19A0000E19A000084
:1000900000000000E19A0000E19A0000E19A0000EF
:1000A000E19A0000E19A0000E19A0000E19A000064
:1000B0000000000010B5064C2378002B07D1054B3B
:1000C000002B02D0044800E000BF0123237010BDC4
:1000D000E00700200000000074430100044B10B54D
:1000E000002B03D00349044800E000BF10BDC04608
:1000F00000000000E407002074430100182343605F
:100100000160704710B50121040000680AF008F88A
:1001100009F02AFDA06010BD10B5040009F024FD0F
:10012000A368C01A636898420AD9012120680AF0BE
:1001300027F8002120680AF023F809F015FDA060D7
:1001400010BD0000194BF0B51D78194B87B01E7813
:10015000184B04901B7805910393174B15701B786F
:100160000293002301930133059F019CD118581C71
:10017000BC4217DA049F3F5D1418BD4209D1981C98
:1001800023000E7002991970019B01330193030043
:10019000EAE7B74204D10E70981C03992300F2E7F6
:1001A0000F70F1E70D7007B0F0BDC046041C0100F0
:1001B000051C0100071C0100061C01000CB40368AB
:1001C00037B504000D008B4222DBC368002B01D041
:1001D000806898472379002B0FD007220E49684684
:1001E0000DF0E2FC2900694401390978A06807F0A4
:1001F000DDFB0A49A06807F0D5FB07AA2000069995
:10020000009206F0A7FB2369002B01D0A068984755
:1002100037BC08BC02B01847140C0100C31B010016
:10022000F0B585B00D0002900392012908DC02218F
:100230002A4A2B48FFF7C2FF0024200005B0F0BD7A
:10024000284B1B780193029B019A5B18013B1B789A
:10025000934224D1013D0026029B34001F78019B6C
:10026000FF1A7B425F41BD42E7DD029B019ADB5DE5
:10027000934204D102211C4A1948FFF79FFF029BB9
:10028000DB5D002E1FD0194A12789A420DD1184B0F
:10029000039A1B781355013400260137E3E7022146
:1002A000144A0F48FFF78AFFD5E7134A12789A429B
:1002B00003D1039B019A1A55EDE702210F4A084822
:1002C000FFF77CFFE8E70A4A12789A4203D0039AC4
:1002D00013550134E1E70126DFE7C0461B0C01009E
:1002E000CC320020041C0100720C0100071C01002C
:1002F000051C0100440C0100061C0100AE0C0100AD
:1003000001604260704710B504000121006809F0E7
:1003100007FF0121606809F003FF09F025FCA060D8
:1003200010BD000070B505000C000F20012109F080
:1003300027FF00210E2009F023FF09F015FCAB6810
:10034000C01A084B984203D82000FFF7E5FEF4E7F7
:1003500000210F2009F014FF00210E2009F010FFEA
:1003600070BDC0462F75000070B505000C000F2051
:10037000002109F005FF01210E2009F001FF09F01D
:10038000F3FBAB68C01A084B984203D82000FFF774
:10039000C3FEF4E700210F2009F0F2FE00210E2039
:1003A00009F0EEFE70BDC0462F75000070B5050067
:1003B0000C000F20012109F0E3FE01210E2009F0BD
:1003C000DFFE09F0D1FBAB68C01A084B984203D896
:1003D0002000FFF7A1FEF4E700210F2009F0D0FE76
:1003E00000210E2009F0CCFE70BDC0462F75000024
:1003F0000CB4036837B504000D008B4222DBC368E0
:10040000002B01D0806898472379002B0FD007225A
:100410000E4968460DF0C8FB290069440139097886
:10042000A06807F0C3FA0A49A06807F0BBFA07AA58
:1004300020000699009206F0A5FA2369002B01D04E
:10044000A068984737BC08BC02B01847140C0100DC
:10045000C31B010070B50D001C001100432D0BD112
:10046000FFF7A4FF0A4A04210A48FFF7C1FF200052
:10047000094909F036FA70BD422D03D1FFF774FF28
:10048000064AF0E7412DF6D1FFF74CFF044AEAE7B0
:10049000EA0C0100CC320020E9240100010D01002A
:1004A0001C0D010000231F2805D9072B03D00133A1
:1004B0004008DBB2F7E75B011843C0B2704710B5E4
:1004C00004000322282101F0FDFDC8222E21200076
:1004D00001F098FE10BD10B50422282101F0F2FDB4
:1004E00010BD10B5002101F0BFFD10BD10B50121F8
:1004F00001F0BAFD10BD602210B50A43017002215F
:1005000001F0E0FD10BD000010B504000E4B2121EC
:100510001A7801F0D7FD0D4B22211A78200001F046
:10052000D1FD0B4B23211A78200001F0CBFD094BA4
:1005300025211A78200001F0C5FD074B2621200057
:100540001A7801F0BFFD10BD080000200600002051
:10055000050000200400002007000020F8B5147AF0
:100560000500023C624254410F00A400012B04D05C
:100570002600022B03D1102600E02026264330213E
:100580003A78280001F09EFD31217A78280001F0A8
:1005900099FD012232213243280001F093FD2822E7
:1005A000002C00D108222800014901F08BFDF8BD84
:1005B000340F000070B50600012500291DD0C06D64
:1005C0000DF03AF9104A114B0CF0B4FA0AF024FC81
:1005D0000400306E0DF030F90B4A0C4B0CF0AAFA07
:1005E0000AF01AFC051E00D10135002C00D101349F
:1005F0006C213000E2B201F065FD3000EAB26E21FC
:1006000001F060FD70BDC0467B14AE47E17AE43F67
:1006100070B516000C000F210500527833781201D6
:100620000B401A432100D2B201F04CFD611C842220
:1006300089B2280001F046FDA11C002289B22800E1
:1006400001F040FDE11C0022280089B201F03AFDD2
:10065000002273680F2B05D90F2A03D001325B08E3
:10066000D2B2F7E71B011A43211DD2B2280089B28A
:1006700001F028FD0022B3680F2B05D90F2A03D003
:1006800001325B08D2B2F7E71B011A43611D280053
:10069000D2B289B201F016FD0F21727B337B920139
:1006A0000B401A43A11D2800D2B289B201F00AFD05
:1006B000E11DB27B280089B201F004FD2100083160
:1006C000F27B280089B201F0FDFC21000931327C67
:1006D000280089B201F0F6FC21000A31727C280062
:1006E00089B201F0EFFC2100B37CF27C0B311A439C
:1006F000280089B201F0E6FC21000C31B28A280002
:1007000089B201F07FFD21000E312800162289B246
:100710000F3401F0D7FC28000022A1B201F0D2FC76
:1007200070BDC42110B50F224900040001F0CAFCBD
:100730008A2177222000FF3101F0C4FC10BD0000A7
:100740000B0070B5B0331A780D00202380215201C0
:100750001A408900040001F0B5FC6E7C002E0FD019
:10076000002220000A4901F0ADFC6A7C2000094902
:1007700001F0A8FCFF222000074901F0A3FC70BD96
:1007800080222000024901F09DFC3200EEE7C046C5
:1007900001020000020200000302000070B50E001A
:1007A0008B78B2310E220D00862113400400294AB5
:1007B000B1368900042B28D101F024FD87218A223B
:1007C0008900200001F07EFC32782349200001F0EE
:1007D00079FC00222149200001F074FC8421204A88
:1007E0008900200001F0A0FC85219E2289002000C4
:1007F00001F068FC2A7820001A4901F063FC00220D
:100800002000194901F05EFC70BD01F0FBFC87215E
:100810008A228900200001F055FC32780E49200020
:1008200001F050FC01220D49200001F04BFC842115
:100830000E4A8900200001F077FC85211F228900E3
:10084000200001F03FFC2A782000064901F03AFC24
:100850000122D5E7555500001E0200001D020000D0
:1008600055555555160200001502000033553355F5
:100870000B0070B5B433040018880D001600FFF7A4
:1008800011FE882102008900200001F01BFC2B00D2
:10089000B6331888FFF706FE42490200200001F037
:1008A00011FC2B00B8331888FFF7FCFD3E4902000D
:1008B000200001F007FC2B00BA331888FFF7F2FD87
:1008C000892102008900200001F0FCFB0022374949
:1008D000200001F0F7FB2B00BC331888FFF7E2FD86
:1008E00033490200200001F0EDFB2B00BE331888D5
:1008F000FFF7D8FD2F490200200001F0E3FB2B0099
:10090000C0331888FFF7CEFD8A210200890020003D
:1009100001F0D8FB002E3ED0B068FFF7C3FD26499A
:100920000200200001F0CEFB2B00C4331888FFF733
:10093000B9FD22490200200001F0C4FB002E04D0C2
:100940002000327B1E4901F0BDFB00221D49200022
:1009500001F0B8FB8C210C228900200001F0B2FBD1
:100960002B00B3331A781849200001F0ABFB2300A9
:1009700058331A782000154901F0A4FB2300AA7A05
:1009800059331B78012A0AD12B32200010491A430F
:1009900001F098FB70BD2B00C2331888BDE72822F8
:1009A000F3E7C046210200002302000025020000F8
:1009B0002602000027020000290200002A0200008F
:1009C0002D0200002F020000310200003202000060
:1009D0003302000010B5040000291BD0406B0BF05F
:1009E000FDF80CF04FFF0C4B00220BF09DFC0AF0C1
:1009F00013FA80235B02984200D30848C521C2B293
:100A00008900200001F05EFBC42111222000890032
:100A100001F058FB10BDC04600008440FFFF0000FD
:100A2000CC2110B504000C22890001F04BFB2300FF
:100A3000643320001A78024901F044FB10BDC0461F
:100A40003203000070B504000D0003221B4901F0C1
:100A500039FBC73507222000194901F033FB2B78F9
:100A6000012B19D168221749200001F02BFBFF222E
:100A70001549200001F026FB84222000134901F0D3
:100A800021FB98222000124901F01CFB25222000A6
:100A9000104901F017FB70BD5C220A49200001F0EB
:100AA00011FB53220849200001F00CFB76222000A4
:100AB000064901F007FB9222E4E7C0460D0F000053
:100AC0001C0F0000210F0000220F0000230F000068
:100AD000260F0000440F00000A0010B5203201F07C
:100AE00093FF10BD10B5034B0A001970232101F0CC
:100AF000E9FA10BD0500002010B5402101F0B4FA5C
:100B000010BD10B51C2101F0AFFA0F23184010BD25
:100B1000F8B53021040001F0A7FA382106002000C2
:100B200001F0A2FA7F27320005003A403021200070
:100B300001F0C8FA2A0038213A40200001F0C2FA38
:100B40000020F8BDF8B53021050001F08DFA3821FC
:100B50000400280001F088FA80260700764234431A
:100B600028003E43E2B2302101F0ACFA2800F2B294
:100B7000382101F0A7FA0120F8BD10B506210400C4
:100B800001F064FB4022024392B20621200001F0F2
:100B900039FB0821200001F059FB01220243082102
:100BA000200092B201F02EFB10BD10B513000A0018
:100BB0000521FFF703FB10BD70B5050030352E7819
:100BC0000400002E35D1038F002B21D1214B616B06
:100BD0000D22994200D80A3AF1212000090101F0C2
:100BE00071FA2B780022012B00D0073220001A491D
:100BF00001F068FA194B626B9A4227D9022311223D
:100C0000210040310B702000154901F05BFA70BDE6
:100C1000032B08D0082B17D01A00093A1E2A0DD82A
:100C2000083B5B00DEB2C22132002000490001F027
:100C300049FA2B78012BC9D10422CDE70521094AB5
:100C40000948FFF7BBFAEEE70126ECE70123102283
:100C5000D6E7C046C0209002110F0000FF6A7A015B
:100C6000350F0000370D0100CC32002010B50A000E
:100C70000221FFF7A3FA10BDF7B50F00117C140095
:100C800006000822002900D0627C6274227A002AC1
:100C900005D1194920688142524101322272102542
:100CA000220030001549FFF759FC627C3900300002
:100CB0002A4301F007FA01953900300001F0D4F918
:100CC000019B05001842F7D1060020230C481E4066
:100CD0001D4205D00B49FFF7C9FF01263000FEBDBC
:100CE0002A000949FFF761FF01230F2023742368BD
:100CF00005406574E360F1E73FDD4A1F090000200D
:100D0000CC320020600D0100710D010010B50A0009
:100D10000521FFF753FA10BD10B5002806D00128B1
:100D200011D00A490A48FFF7A1FF0CE0084C094915
:100D30002000FFF7EBFF20000749FFF7E7FF200047
:100D40000649FFF7E3FF022010BDC046570E010021
:100D5000CC320020B80D0100DE0D0100270E01008D
:100D600070B504000F251C21200001F07DF92840FA
:100D70000428F8D006380128F5D920000021FFF713
:100D8000BAFB02490248FFF7C1FF70BD700E0100B7
:100D9000CC32002070B50500002401261D2128005A
:100DA00001F062F9304201D10134F7E72300052157
:100DB000024A0348FFF702FA70BDC046830E0100E5
:100DC000CC320020C02110B599224900040001F066
:100DD00079F9842105222000FF3101F073F9636B5A
:100DE00005215B0B024A0348A366FFF7E7F910BD34
:100DF0009D0E0100CC320020F0B5050085B010003A
:100E0000140003910CF018FD0022124B0BF092FE1F
:100E10000600686B0F000AF0E1FE0CF033FD0200E3
:100E20000B00300039000BF07FFA09F0F5FF0126C6
:100E30006B464000064332009989280001F074F99E
:100E400023000521044A05480096FFF7B7F9300052
:100E500005B0F0BD00006041BC0E0100CC320020A6
:100E6000426810B50400002A03D03421FFF7C4FF04
:100E7000A060A269002A04D03C212000FFF7BCFF3B
:100E8000E06110BD10B54160FFF7EAFF002010BD22
:100E900010B58161FFF7E4FF002010BDF8B5040034
:100EA00020492148FFF732FF636C002B00D09847A0
:100EB00005212000FFF71FFB2000FFF7D1FFC02115
:100EC00025009B224900200001F0FCF82C35200071
:100ED000FFF760FF2B783321221D2000FFF7CCFEA7
:100EE00022002B783B21183207002000FFF7C4FEB8
:100EF0000021060005002000FFF7FDFAA36C002B7F
:100F000000D09847002F02D06368002B07D1002E35
:100F100003D0A5696B1E9D41EDB22800F8BD0125E7
:100F2000FBE7C046CB0E0100CC320020426D70B50D
:100F300004230400002A0FD0FFF7D8FA1A4D060048
:100F400002001A492800FFF730FEC52E06D02800FF
:100F50001749FFF78BFE0223180070BD2000FFF732
:100F6000C0FA1449060002002800FFF71EFE512EA9
:100F700005D028001049FFF779FE0323ECE7802213
:100F80000221200001F09EF800212000FFF7B3FAB3
:100F90002000FFF711FE2000FFF780FF002398429A
:100FA000DAD00533D8E7C046CC320020E50E010088
:100FB000F20E0100060F01001C0F0100F8B50378C6
:100FC00004000E002D4D012B04D128002C49FFF701
:100FD0004DFEFEE7232101F047F8842807D12800C1
:100FE0002849FFF793FE05212000FFF784FA1C2112
:100FF000200001F039F80F2707403A002800224965
:10100000FFF7D3FD062FF2D0216966600B0A891B1A
:10101000CA17891851408B4218D228001B49FFF784
:1010200075FE002328002373237505216368184A81
:10103000FFF7C4F82000FFF731FF00280DD028008B
:101040001449FFF713FE05263000F8BD28001249A9
:10105000FFF75CFE2000FFF703FF2321200001F0D3
:1010600003F800268428EFD128000C49FFF74EFE34
:101070000D212000FFF73FFAE6E7C046CC32002002
:101080003A0F01005A0F0100700F01008C0F010090
:10109000A70F0100BD0F0100CE0F0100F90F0100E5
:1010A000F0B50F8B85B004003800CE8A0AF096FDAB
:1010B0009121C9050AF034FA051C606B0AF08EFD17
:1010C000011C281C0AF062F80CF0DCFB00221E4B0D
:1010D0000AF0C0FD09F0A0FE892183B21A002000A9
:1010E0004900039301F08EF8184D039B184A05211F
:1010F000280000933B00FFF761F830000AF06EFD16
:101100009121C9050AF00CFA071C606B0AF066FD14
:10111000011C381C0AF03AF80CF0B4FB0A4B002210
:101120000AF098FD09F078FE882187B23A00200085
:10113000490001F067F8330005212800054A0097AF
:10114000FFF73CF805B0F0BD0000E03FCC320020D6
:101150000F10010027100100030070B52C330D00A3
:101160001B78021D0C490400FFF7F8F90F222B78B9
:1011700013400A2B03D129002000FFF791FFF02133
:101180000F222000090100F09DFF062220000349E4
:1011900000F098FF70BDC0460D000020180F000041
:1011A000F0B50B8B87B00393CB8A050003980493AB
:1011B0000C000AF013FD8F21C9050AF0B1F9061CD5
:1011C000E06B0AF00BFD011C301C0AF0A9F92B00A2
:1011D00040330593061C18780AF0BAFC011C301C39
:1011E0000AF09EF9061C686B0AF0F8FC011C301C22
:1011F00009F0CCFF0CF046FB294B00220AF02AFD37
:1012000009F00AFE892186B232002800490000F068
:10121000F9FF244F244A039B052138000096FEF76E
:10122000CDFF04980AF0DAFC8F21C9050AF078F99D
:10123000061CE06B0AF0D2FC011C301C0AF070F9AD
:10124000059B061C18780AF083FC011C301C0AF070
:1012500067F9061C686B0AF0C1FC011C301C09F020
:1012600095FF0CF00FFB0E4B00220AF0F3FC09F087
:10127000D3FD882186B232002800490000F0C2FF69
:101280003800049B0521094A0096FEF797FF8A2142
:101290004D3428002278490000F0B4FF07B0F0BDBB
:1012A0000000E03FCC320020501001006810010027
:1012B0000300020070B52C330D001B7818320C4966
:1012C0000400FFF74BF90F222B7813400A2B03D1B0
:1012D00029002000FFF764FFF0210F222000090100
:1012E00000F0F0FE02222000024900F0EBFE70BD8B
:1012F0000B000020180F000070B58B6B0C008021D4
:101300009AB24900050000F07DFF0521A36B234A36
:101310002348FEF753FF8121E36B4900DAB228002E
:1013200000F0D0FE0421226CFF31280000F078FF8D
:10133000832100224900280000F072FF80220A2148
:10134000636C12041A432800FF3100F069FF0F227A
:1013500023781340082B11D8062B11D98621A36CB2
:1013600028009AB2490000F04DFFA36C8721DA43B0
:10137000280092B2490000F045FF01E00A2BEDD0B1
:1013800016214C3428002278FF3100F09BFE942176
:101390002800F722890000F095FE70BD8110010041
:1013A000CC320020F8B5037804000E00274D012B45
:1013B00005D103212800264AFEF700FFFEE723217E
:1013C00000F052FE842807D128002249FFF79EFC36
:1013D00005212000FFF78FF81C21200000F044FEBB
:1013E0001D4907002800FFF791FC0F231F40062F1F
:1013F000F2D0636AA6611A0A9B1BD9175B184B408F
:101400009A4215D20022631CDA7727331A7028001B
:1014100033000521114AFEF7D1FE2000FFF73EFD03
:1014200000280CD028000E49FFF720FC0520F8BD4D
:1014300028000C49FFF76AFC2000FFF711FD20008F
:101440000921FFF758F80020F1E7C046CC32002010
:101450003A0F01005A0F010093100100A70F01007D
:10146000BD0F0100CE0F010070B50C0001260A78F7
:101470001021050000F026FE637833420AD0237A5B
:10148000002B07D003211E4A1E48FEF797FE637803
:10149000B343637011212800627800F013FE237AB1
:1014A000002B0ED00E26A3783340042B09D0164A09
:1014B00003211448FEF782FE0423A278B2431343AB
:1014C000A370A2781221280000F0FCFD0E22A37860
:1014D0001340083A022B00D0002228000B4900F0EC
:1014E000F1FD237A002B09D013221821280000F0E7
:1014F000E9FD62221921280000F0E4FD70BDC0461C
:10150000AB100100CC320020E7100100720F000088
:10151000F0B50323CA780D00B02104001A4087B04B
:10152000490000F0CFFD23004C331878FFF7F4FB9F
:101530000422B2210243D2B22000490000F0C2FDD1
:101540000F222B781340082B00D981E0062B00D9FD
:101550009DE0002304936221049AFF31200000F0F3
:101560005FFE614F049B614A052138000093330000
:10157000FEF724FE68680AF031FB9721C90509F0DF
:10158000CFFF061C606B0AF029FB011C301C09F020
:10159000FDFD0CF077F9564B00220AF05BFB09F0D9
:1015A0003BFC662106000200FF31200000F038FEFF
:1015B0006B68504A052138000096FEF7FFFD636B0B
:1015C0006A685B099A4204D3032138004A4AFEF74D
:1015D000F5FD236D0021181CEE68049309F0F0FB63
:1015E000002806D00498311C09F0EAFB002800D13D
:1015F000049E8B21301CC90509F092FF0CF042F9C2
:101600003B4B00220AF026FB09F006FC802380B247
:10161000061C5B01984201D3384B1E88B6B23300DA
:1016200038000521364AFEF7C9FDB52132002000F9
:10163000490000F0E7FDE86802960CF023F9314A12
:101640000090019105213800FEF7B8FD07B0F0BD0C
:101650000A2B00D07DE7AE8A30000AF0BFFA97214E
:10166000C90509F05DFF0CF00DF9274A274B0BF077
:1016700061FA04900591606B0AF0B0FA0CF002F97F
:1016800002000B00049805990AF04EFE24E0686AF7
:101690000CF0F8F80022164B0BF04CFA06006868C4
:1016A0000F000CF0C9F802000B00300039000BF0FD
:1016B00041FA09F0B1FB06000AF090FA9721C9053A
:1016C00009F02EFF071C606B0AF088FA011C381C19
:1016D00009F05CFD0CF0D6F80022054B0AF0BAFACE
:1016E00009F09AFB049036E7CC3200201911010072
:1016F0000000E03F2A1101003C110100901101009F
:101700007E11010040100100977329AE2A7BEB3F48
:10171000F8B50D00040016002F00FFF7A5FE20000D
:10172000FEF7F2FE31002000FEF744FF2900200002
:10173000FFF7E2FD2B7C9837002B2ED01821FF22DB
:101740002000FF3100F0BEFCA8213A002000490033
:10175000FEF75EFF29002000FFF7DAFE2000FFF70A
:1017600031FB2000FEF7DDFF29002000FEF7E8FF37
:1017700029002000FFF712F8320029002000FFF7AF
:1017800077F831002000FFF725F92000FFF748F92E
:1017900029002000FFF756F9F8BD1821F422200097
:1017A000FF3100F08FFC2A009021200050324900C8
:1017B000FEF72EFF2A009821200068324900FEF72C
:1017C00027FFC1E770B54B1CDB7F04000D001348F9
:1017D000512B03D01249FFF749FAFEE71149FFF7F1
:1017E00095FA002229002000FFF792FF290020002F
:1017F000FFF7B2FC636C002B00D098472000FEF787
:101800005EFE0D212000FEF776FE2000FFF7C2FAF3
:10181000A36C002B00D0984770BDC046CC3200208E
:1018200092110100CA11010070B54B1CDB7F04004E
:101830000D00512B04D00D490D48FFF717FAFEE7B4
:101840000022FFF765FF09212000FEF754FE290062
:101850002000FFF72DFD2000FFF774F9636C002BCB
:1018600000D098472000FEF72AFE70BD92110100BB
:10187000CC320020F0B58DB004910600EF211800A5
:101880001F00059209F032FACBB27D4C06938BB261
:101890000793FB1A9BB2CAB220000D00794902934C
:1018A000FFF783F9029B05212000774AFEF786FCAB
:1018B00000230393EF2F01D8023303932A21300032
:1018C00000F0C4FCEF2403000621704A6C48FEF7C8
:1018D0008FFD631B09932A21300000F0B7FC684C90
:1018E0006B4A089006212000FEF782FD089B099AAA
:1018F0009342F0DC06212000664AFEF779FD0E21B6
:10190000654B0AAC1A78049B9B78A2700B40634924
:101910002180042B3DD1049B1A7A7E23012A00D01A
:101920002C3304220AA9CB70300000F0A9FC0E224F
:10193000049B9B781340042B05D0049B5B7C002BFD
:1019400001D1FE2F35D9E1230AA90B70069B039A1A
:1019500001334B700123134303228B70300000F0DE
:101960008FFC079A0599300000F08AFC05214C4A4B
:101970004348FEF73DFD0024059BA5422ED01B5D8C
:1019800006210093474A23003D48FEF731FD01340C
:10199000F2E7AA23042221003000E37000F070FC7B
:1019A000414B07220A93414B2100A3805523A37189
:1019B000BAE7049B069A987AE12302320AA9D2B2C6
:1019C00001370B70FFB24A70D83B012800D00123C9
:1019D000039ACF7013438B700422BFE75F19300066
:1019E000FEF779FD029B002B47D0EF2B3ED9EF2469
:1019F000EF3B9BB20293F6231B1B05932A21300079
:101A000000F024FC1E4D2A4A049006212800FEF70F
:101A1000EFFC049B059A9342F0DC280006211D4A46
:101A2000FEF7E6FCE1230AA90B70631C4B70039BD5
:101A3000032230008B7000F023FC3900A2B230008A
:101A400000F01EFC280005211A4AFEF7D1FC0025F3
:101A50007A5D029B00925B190621124A0848013503
:101A6000FEF7C6FCAC42F3D13F19B8E76B461C7ACF
:101A70000223039300230293BDE70DB0F0BDC046DF
:101A8000CC320020E2110100F61101000812010021
:101A90001F120100E7240100FC1B01006238000056
:101AA000211201003E120100E105183355330000F8
:101AB0005412010056120100F8B51F00037804000B
:101AC0000D0016000D2B04D00B490C48FFF7CEF883
:101AD000F8BD0321200000F0C7FA08231842F8D00F
:101AE000290020003B003200FFF7C4FE04490348F0
:101AF000FFF70CF9ECE7C046870D0100CC3200205F
:101B000072120100F0B50C0085B02821050000F02C
:101B1000ABFA2A210190280000F098FB071E5FD045
:101B2000019B4C4E1B0703D530004B49FFF79EF835
:101B3000019B5B0703D530004849FFF797F8019BED
:101B40009B0703D530004649FFF790F83B00454A14
:101B500005213000FEF732FB2921280000F084FA2D
:101B60004149020020703000FFF71FF82378752BE1
:101B700012D86F2B07D8522B3DD0552B41D0312B8B
:101B800030D001202CE0703B1800052BF9D808F06C
:101B90001FFF4FF8F8434F540120E12B20D129219A
:101BA000DF3B03AA280000F007FB210002AB1A79F3
:101BB0000831531EE38002AB5B792800237100F0EB
:101BC0007BFB3B0006213000284AFEF711FC300069
:101BD0000621E388264AFEF70BFCE088033080B23A
:101BE00005B0F0BD2921280000F03EFA214B034347
:101BF000A3800220F4E72921280000F027FBA08021
:101C0000F7E703AE022332002921280000F0D4FABE
:101C100033880320A380E3E72921280000F022FB7A
:101C2000030202D5FF231B06184360600420D7E798
:101C30002921280000F016FBF7E7032303AA292136
:101C4000280000F0B9FA02AB02AA9B799288A3712E
:101C5000A280EBE7CC3200208C1201009912010027
:101C6000A7120100B4120100D4120100E112010018
:101C7000F212010000FFFFFFF0B50300CD4C583316
:101C8000A54405921E2204901B780F001340623277
:101C90001343069300231E000293B8AD2900049855
:101CA000FFF730FF002800D17FE12B78C24C732B67
:101CB00000D17FE00BD8312B00D16FE0522B00D147
:101CC00086E002212000BD4AFEF778FA51E0742B2D
:101CD00000D192E0E12BF4D1EB88200003932A7924
:101CE000B749FEF762FF05212000039BB54AFEF7C6
:101CF00065FA330005212000B34AFEF75FFA2D791B
:101D0000EB070AD4002E08D12000B049FEF7FEFFF1
:101D10000020FB239B009D44F0BD60232A001A4055
:101D200007921D4202D0AA49A348EFE7039BF4188B
:101D300080239B009C4204DDA6499F48FEF796FF46
:101D4000E6E7A54906ABB819C918039A0BF02CFFB2
:101D5000059BA6B29B7A012B01D0002ED8D0AB07F1
:101D600007D580239B00FE52813BFF3B029A1A431A
:101D70000292029B069A934200D08EE780260024AE
:101D8000B600BB5BA3423FDD3B5D06210093934A57
:101D900023008948FEF712FA0134F2E70422AB5E11
:101DA00004218F4A2000FEF709FA8E4BAA88FA52C6
:101DB000F33BDAE76B688C4A04212000FEF7FEF95A
:101DC0006B6803938123039A9B00FA500423CDE7A9
:101DD000FA20AB88C000584309F0BAFEDE2189051D
:101DE00009F09EFB0BF04EFD804A0090019104210A
:101DF0002000FEF7E3F90223B8E7042120007C4A23
:101E0000FEF7DCF90823B1E70498FEF758FB059BC1
:101E100001209B7A002B00D17BE7674D062128002B
:101E2000BB5B744AFEF7CAF9062128007B78724A28
:101E3000FEF7C4F93A797B780192FA7806212800F6
:101E400002930092BB786D4AFEF7B8F9BB5B06219E
:101E5000FB181A1F1478DA1E127824061204144391
:101E60005A1E023B12781B7814431B021C432300AA
:101E7000634A2800FEF7A2F911A801F0CFFF06215E
:101E800028007B795F4AFEF799F9BB5B0621FB18B6
:101E9000053B28001B785C4AFEF790F9BB5B0621E6
:101EA00028005A4A0A3BFEF789F9BA5B7B1D039367
:101EB0000A3A2300791D11A801F0E0FF544A0028D6
:101EC00000D0544A28000621FEF778F902220D219D
:101ED00009AB781D02F00CFC374C0300062105000D
:101EE0004D4A2000FEF76AF94C49002D34DB0D22E3
:101EF0000DA909A801F061FF06212000484AFEF75C
:101F00005DF900250DABEB5C06212000454A01354B
:101F1000FEF754F90D2DF5D106212000424AFEF7B7
:101F20004DF9062120003B7E404AFEF747F9802309
:101F300038009B00FD5A1022283D290038AB143090
:101F400002F0D6FB062106000300394A2000FEF706
:101F500035F9002E02DA37492000EFE678AE2A0084
:101F6000310038A801F029FF06212000324AFEF78F
:101F700025F92D4A06212000FEF720F9029B7A1C44
:101F80003B700023AB4203DAF15CD1540133F9E733
:101F900080229200BB5A0848273B9BB2BB520621C5
:101FA000264AFEF70BF90120B3E6002E00D074E6B6
:101FB000AEE6C04614FCFFFFCC320020C013010087
:101FC0000B13010016130100221301003713010047
:101FD0005B13010074130100D1020000DB13010048
:101FE0007F130100020200008D1301009F13010006
:101FF000B0130100E9130100FC13010016140100E5
:102000003D14010050140100651401007814010012
:102010008914010094140100A1140100BE140100F0
:10202000E3140100FB140100E72401000015010086
:10203000111501002C1501004F1501006515010057
:10204000702313B50A1201AC13432370FF23617090
:10205000A3700321436D200098470022014B1A8092
:10206000A07816BDFC07002037B5702902D9FFF70C
:10207000E7FF3EBDFF2501AC436D2170200002212A
:1020800065709847044923780A881B0215402B4342
:102090000B806078EDE7C046FC07002037B51024C0
:1020A0000D12644201AB2C431C7059709A700321CD
:1020B000426D180090470020014B18803EBDC0467D
:1020C000FC07002013B5702902D9FFF7E7FF16BD02
:1020D00080235B4201AC19432170436D6270200084
:1020E00002219847034B20781A7800021043188089
:1020F000EDE7C046FC070020102313B55B420C122D
:1021000023436C462370130EA370130C52BA6170F4
:10211000E3700621436DA280684698470020014B7A
:10212000188016BDFC07002007B5702902D9FFF7FB
:10213000E3FF0EBD80235B4219436B46197069466D
:10214000130E4B70130C8B70130ACB700A71436D16
:102150000521684698476B461878034B00021A78A9
:1021600010431880E5E7C046FC070020F7B50700DC
:1021700016001C000025042B19D870230A121343E3
:102180006A4613706B465170981C2200FF210BF0B9
:1021900027FDA11C7B6D6846C9B298476B46054F69
:1021A00022003000991C3D800BF0FEFC3D88280089
:1021B000FEBDC046FC07002073B5060015001C00DC
:1021C000702902D9FFF7D2FF76BD6B462200197045
:1021D000581CFF210BF004FD611C736D6846C9B2E9
:1021E00098476B46064E1B7832781B0213433380A8
:1021F0006B4622002800591C0BF0D6FC3088E3E720
:10220000FC07002070B50C00050016000134120A0E
:10221000FFF758FF2800F2B2A1B2FFF753FF70BDDD
:1022200070B516000C000500120CD2B2FFF74AFF81
:10223000320A611C2800D2B289B20234FFF742FF91
:102240002800F2B2A1B2FFF73DFF70BD07B502232F
:1022500001AAFFF7B1FF6B466A461B7950791B0252
:1022600018430EBD13B501AC03232200FFF7A4FFF2
:102270002078637800041B021843A378184316BD26
:1022800030B5C1B01400A9236A4613706B4605002F
:102290002200581C01340BF087FC68466B6DE1B2DC
:1022A00098476B461878034B00021A781043188041
:1022B00041B030BDFC070020292310B50C000B7085
:1022C000436DD1B220009847034B187818802278CC
:1022D00012021043188010BDFC070020014B188823
:1022E0007047C046FC070020074B084A1B68D360B4
:1022F000074AD360074AD360074AD360074AD360CE
:10230000074AD3607047C046081C010068020020DD
:10231000A0010020D800002010000020F8030020B9
:102320003003002013000021933319701100074B74
:1023300094310B604B601300E0219C33490019601D
:102340000349A43259601723138070476C003C0086
:1023500003000A00F0B50F00140085B00500406BC3
:1023600009F03CFCE2697B6840355343061C287841
:102370002D345843400109F031FC011C301C08F099
:1023800005FF051C08F07CF8011C08F063FD08F04F
:102390002BFDC0B220700290281C0BF073FA044A87
:1023A0000090019105210348FDF708FF05B0F0BD3D
:1023B0007F150100CC3200200F23F0B589B00390C7
:1023C00008780F001400AA4D18400A2837D808F0E2
:1023D00009FB0606363606363609093634004B68E0
:1023E000E3600FE0486809F0F9FBFE21061C89054F
:1023F000606808F02FFD011C301C09F091F808F00E
:10240000F3FCE0600521E36828004B43994A23610F
:10241000FDF7D4FE0F23387818400A2800D912E1BE
:1024200008F0EAFA1500150011011101150011015B
:10243000110104010401110104018B8AD0E7052177
:1024400028008D4AFDF7BAFE7B689B00C8E78B4ADF
:102450007B689B188A4A934200D8E5E06361039B3E
:10246000666940330493187809F072FB051C30004C
:1024700009F0B4FB011C281C09F052F89321C9058E
:1024800009F04EF8039B051C586B09F0A7FB011CD3
:10249000281C08F07BFE0BF0F5F90022794B09F0BF
:1024A000D9FB08F0B9FC724D774A0521A0613300D1
:1024B00000902800FDF782FE039B586B09F08EFB0D
:1024C0000BF0E0F906900791049B18780BF084F963
:1024D00000226E4B0AF02EFB0490059120690BF050
:1024E000ABF902000B00049805990AF023FB0200E7
:1024F0000B000698079909F017FF0022614B09F0BD
:10250000A9FB08F089FC7F2800D9A3E0E0617B7A71
:10251000012B01D11333E3615D4A05212800E369F2
:10252000FDF74CFE7B680493039B586B09F056FB48
:102530008621C90508F0F4FF039B06904033187804
:1025400009F04CFB061C049809F048FB011C301CE8
:1025500008F0E6FF061CE06909F040FB011C301C96
:1025600008F0DEFF011C069808F010FE0BF08AF957
:102570000022444B09F06EFB08F04EFC049B2062E5
:1025800005210090434A2800FDF718FEFB69002B47
:1025900003D1414B1B680493FB61FE69300009F0D5
:1025A0001DFB9721C90508F0BBFF039B051C586B59
:1025B00009F014FB011C281C08F0E8FD0BF062F97F
:1025C0000022304B09F046FB08F026FC284D6062E3
:1025D0003300324A009005212800FDF7EFFD0F225D
:1025E0003B781340082B3DD8062B3DD92C49606819
:1025F00008F096FF08F0F8FB012302009A43294BEC
:1026000005210340A2622800274AFDF7D7FDA36AEF
:102610000521DB432800254A9BB2FDF7CFFD0023AF
:102620002C34237009B0F0BD214B17E7E368214A31
:10263000934206D963617B7A012B00D00FE71E4BD2
:102640000CE71E4BF6E7052128001D4AFDF7B6FDF5
:10265000E36803E77F23052128001A4AE361FDF7B9
:10266000ADFD54E70A2BC1D08023A362D7E7C04653
:10267000CC320020CE15010098150100581B000037
:10268000A32400000000E03F1916010000003040C4
:102690005516010067160100001C0100821601009A
:1026A00000008243FEFF0000A1160100BC160100DD
:1026B000A42400006B0C0000E02E00006C0C000055
:1026C000E315010037160100F0B589B006930EAB93
:1026D0001B7805900393030004914033187814008D
:1026E0000BF07AF8C022B64BD2050AF023FA049B0D
:1026F000060058680F000BF09FF802000B00300036
:1027000039000AF017FA059B0600586B0F0009F014
:1027100065FA0BF0B7F802000B003000390009F041
:1027200003FE0BF0F7F8011CFE20800509F012F8FB
:1027300007F0B0FE011CFE20800509F00BF807F041
:102740009FFE80231B06C01808F04EFBC0B220700D
:10275000049B033060705B7A012B01D1994B23807D
:10276000039B022B0CD0032B43D02378082B01D9D9
:102770000823237063780E2B04D90E23637001E0C5
:10278000914B2380914D05212800039B904AFDF732
:1027900015FD627823780521009228008D4AFDF707
:1027A0000DFD039B0427002B03D00C37012B00D019
:1027B0001037069B1E6A300009F010FA07903800A7
:1027C00009F00CFA011C079808F0E0FC08F00CFB7B
:1027D000814BF318984213D26060049B5B7A012B03
:1027E00018D1039B002B12D0012B3CD0F0235B00AF
:1027F0000FE0237802332370637802336370B4E709
:1028000005212800754A6360FDF7D8FCE5E7F02351
:102810001B016360636805212800714AFDF7CEFC47
:10282000039B8026002B03D0012B1FD08136FF365F
:10283000069B186A09F0D2F9051C300009F0CEF9A0
:10284000011C281C08F0A2FC08F0CEFA049BA06032
:102850005B7A012B0FD1039B002B0AD0012B00D1F7
:1028600088E0122306E0F0239B00D2E78026760062
:10287000DEE73C23A360554FA3685A4A0521380080
:10288000FDF79CFC049B1A780B231A4274D1C023D9
:102890009B000F22A381544BE381049B1B781340C0
:1028A000049A5568082B69D8062B69D9059B586B83
:1028B00009F094F9061C05984030007868438000C0
:1028C00009F08CF9011C301C08F060FC07F0D8FD01
:1028D0000AF0D8FF454B002209F0BCF908F09CFA39
:1028E000039BC5B2023B012B00D80435049B1B7A25
:1028F000002B00D002350D2D00D90D252B003C4AB0
:1029000005213800FDF75AFCEDB2049B257465746F
:102910001A780B231A423AD1B533E374039B012B87
:1029200030D9023B012B30D90F22049B1B78134076
:10293000082B2FD8062B2FD9039B022B2FD8002B27
:102940002AD08621069BC905586808F0E9FD0AF0DF
:1029500099FF284A284B0AF0EDF8244B002209F091
:1029600079F908F059FA049BA0825B7A012B19D1FE
:10297000423312E01E237DE7204B8AE70A2B95D0D5
:10298000AD0093E70223A374CEE70823FBE70623F9
:102990006382C9E70A2BCFD00023A38202E0039B06
:1029A000032BF9D0A38A094C05212000144AFDF716
:1029B00005FC05212000134AFDF700FC09B0F0BD1D
:1029C000FB216940050C00000F0F0000CC320020F5
:1029D000D7160100E916010000F0FFFF09170100FA
:1029E00025170100341701000F1F00000000E03F11
:1029F000471701009A9999999999E93F03030000B3
:102A00006517010076170100F7B514000F220B7847
:102A100006000D001340082B06D00A2B07D0072B09
:102A200050D1FC239B0500E04B6963600EE0888A6F
:102A300009F0D4F8011C08F00DFA071C686809F0C9
:102A4000CDF8011C381C08F0A1FB606060680AF03A
:102A500019FF274F00900191264A38000521FDF704
:102A6000ADFB01232200238129003000FFF7A4FCE5
:102A7000220029003000FFF76DFC380027000521F7
:102A80001D4AFDF79BFB2B7C7837002B1CD00323C2
:102A90003A002900300000932300FFF715FE2300C1
:102AA000A022903312011A801F22290030009A7050
:102AB0002200FFF737FC23000122A7331A705123AD
:102AC0002370F7BD0023B0E72200290030000093F7
:102AD00030322300FFF7F8FD012322000093290084
:102AE000230030004832FFF7EFFD0223D0E7C04655
:102AF000CC3200207A1701007617010010B50A00C9
:102B0000032101F0B1FF10BD10B50A00012101F051
:102B1000ABFF10BDF0B585B00A9D019028001C00E8
:102B200002910392002702F063F8029BB14E9F428C
:102B300000DB52E1019BB04A04213000DB5DFDF770
:102B40003DFB019BD85D0CF06DF80322AB4B2038A8
:102B50001B68534300935A2800D938E107F04CFF13
:102B600033013701370137013701370137013701A9
:102B70003701370137013701370137013701370195
:102B80002901D900E7006400F400FE0008011601E5
:102B90005B001F013701370137013701370137016A
:102BA0003701370137013701370137013701370165
:102BB0003701370137013701370137013701370155
:102BC0003701370137013701370137013701370145
:102BD0003701370137013701370137013701370135
:102BE0003701B2001A017500980081008600A50027
:102BF0008B009C00EB00AE00940070007D00EF00A5
:102C0000A100AA0079008F00B600CA00C6006C00BF
:102C1000CF00D4005F0021002800FFF76FFF2100E4
:102C20002800FFF76BFF33E021002800FFF76CFF5F
:102C300021002800FFF768FF21002800FFF764FF4C
:102C400021002800FFF75AFF40E021002800FFF78D
:102C500055FF21002800FFF757FF21002800FFF74C
:102C60004DFF21002800FFF74FFF33E0210028002F
:102C7000FFF74AFFEDE721002800FFF745FF21009D
:102C80002800FFF741FF07E021002800FFF73CFF85
:102C900021002800FFF732FF21002800FFF734FF52
:102CA000DFE721002800FFF72FFF21002800FFF7B2
:102CB00025FFD2E721002800FFF720FF2100280090
:102CC000FFF71CFF21002800FFF71EFF210028004E
:102CD000FFF714FF009806F07DFF0398FDF71CFA3C
:102CE0000121200000F07EFF01371EE721002800AF
:102CF000FFF70AFF21002800FFF706FFE2E72100A7
:102D00002800FFF7FBFEF5E721002800FFF7F6FE9D
:102D100092E721002800FFF7F7FE0426013E21007C
:102D20002800F6B2FFF7EAFE002EF7D1D2E7210025
:102D30002800FFF7E9FE21002800FFF7E5FE21004B
:102D40002800FFF7DBFE7BE70426013E2100280078
:102D5000F6B2FFF7D9FE002EF7D1B7E70526013E00
:102D600021002800F6B2FFF7CFFE002EF7D1B1E721
:102D700021002800FFF7C2FE0426013E21002800A2
:102D8000F6B2FFF7C1FE002EF7D1A3E7210028001D
:102D9000FFF7B4FE21002800FFF7B0FE6FE704261E
:102DA000013E21002800F6B2FFF7A8FE002EF7D161
:102DB00057E70526013E21002800F6B2FFF79EFEE8
:102DC000002EF7D186E7009806F004FF82E7022183
:102DD0000B4A0848FDF70CFB7CE7280001F0EEFFEA
:102DE000FFF77CFA05210300064A3000FDF7E6F9FB
:102DF00005B0F0BDCC320020941701000C1C01007E
:102E0000AB170100B917010010B51C0002AB100090
:102E10001B780A00210002F069FAFF2803DD200078
:102E2000014906F05EFD10BDC61701000B0073B529
:102E3000FC33140000210A22D8680BF0DDFE6B463B
:102E4000C5B2DE1D200062692169DD7104F018F948
:102E5000320020006369216904F0C6F8280076BDBD
:102E600030B580240300114AA40180581D19013097
:102E7000A8420FD0985080249858A40101700C48A3
:102E8000195AA1420AD15A580132954204D05A50D7
:102E9000002030BD9B50EEE75B50F9E74D1C1D5202
:102EA00001200029F5D19A581A51F2E704200000B8
:102EB0000820000070B50C000B4B20001E78002588
:102EC0003100FFF7CDFFAA212000FFF7C9FF074B14
:102ED0002000595D0135FFF7C3FF062DF7D1310002
:102EE0002000FFF7BDFF70BD041C0100101C010095
:102EF00010B50A000421FDF761F910BD10B51300EB
:102F00000A000421FDF75AF910BD000070B51E003B
:102F10000B00FC33150000210A22D8680BF06CFE70
:102F2000040063280BDD6324220007490748FFF7EC
:102F3000E5FF32002800210001F0A8FF70BD002845
:102F4000F2DC0124F0E7C046E9170100CC32002092
:102F5000F0B5100085B00C000393150001F07CFD66
:102F6000FC340A2200210290E0680BF045FE0A22A0
:102F700007000021A0690BF03FFE0A220600002195
:102F8000606A0BF039FE0A2200210090206B0BF0E2
:102F900033FE00990400F01B07F0C2FD3449020023
:102FA00001903448FFF7AAFF334BFA18334B9A428B
:102FB00000D9334F334B344A0093964203DD0096D9
:102FC0009E4200DD0093FA239B009C4242DB2F4C83
:102FD0003900280001F070FE280001F009FE009B76
:102FE000BB423BDB3A002A492248FFF787FF390002
:102FF000280001F061FE061EF9D1280001F0AAFDAB
:10300000220024491B48FFF779FF0121132007F014
:10301000B7F80121202007F0B3F80121052007F0BF
:10302000AFF8200006F0D6FD3100052007F0A8F823
:103030003100132007F0A4F83100202007F0A0F899
:1030400015490C48FFF754FF0398FDF765F8019BFD
:10305000FF18C4E70A2CBBDA0A24B9E7280001F0FC
:10306000ADFE2800029901F027FE05B0F0BDC04674
:10307000F8170100CC320020007C28E84059730783
:103080000084D71740DD4A1FFF83D717E7030000EE
:1030900008180100201801003D18010073B5160042
:1030A0008A680B7B002100926A4668461371517151
:1030B00010220BF0A1FD0400094D0200094928006F
:1030C000FFF71CFF2100300001F03BFD040003006E
:1030D00004212800044AFDF771F8200076BDC0469F
:1030E000CC3200200820010044180100F0B5100087
:1030F0008BB00D000993140001F0B2FCFC350A22DC
:1031000000210790E8680BF077FD0A2207000021F4
:10311000A8690BF071FD0A2200210490686A0BF087
:103120006BFD0A2206000021286B0BF065FD049B55
:1031300031000500D81B07F0F3FC4449020006905B
:103140004348FFF7DBFE434BFA18434B9A4200D942
:10315000424F434B434A04990393914203DD039149
:10316000994200DD0393FA239B009E425CDB3E4ABA
:1031700004929D425DDB3C4E3900200001F01AFDB7
:10318000200002F041F8039BBB4257DB304D3A0070
:1031900028003649FFF7B2FE3900200001F00AFD91
:1031A000200001F0E7FC05210300314A2800FDF76B
:1031B00005F8320028002F49FFF7A0FE06F0D4FCE6
:1031C0000890012006F006FD00231D000593200055
:1031D00001F088FC059B05211B18274A05930090E8
:1031E0002B001B48FCF7EAFF322006F0F3FC06F048
:1031F000BBFC089B0135C01AB042E8D32A001F4926
:103200001348FFF77BFE2900059807F0FFFB3B0002
:1032100004211B4A00900E48FCF7D0FF0998FCF7E8
:103220007BFF069BFF18AEE70496002EA1DC01226F
:103230009EE72E000A2D9FDA0A269DE720000799B7
:1032400001F0B8FC04980BB0F0BDC046F8170100BF
:10325000CC320020007C28E8405973070084D7173F
:1032600040DD4A1FFF83D717E7030000591801000C
:1032700071180100A4180100C4180100D41801003D
:10328000EC18010010B508000C0001F073FC0521DA
:103290000300044A0448FCF791FF200001F022FCDF
:1032A00010BDC04606190100CC32002010B5FFF752
:1032B000E9FF0200002379320FDB020009334832B4
:1032C0000BDA062107F02CFC0AF086FA044B0022E8
:1032D00008F0C0FC07F0A0FDC3B2180010BDC04646
:1032E00000003540F0B506000D0000218BB00493BE
:1032F00010AB80CB03921B78082208A80593079196
:103300000AF06EFC39003000FFF7D0FF059B07ACD8
:103310002030A072002B07D006F026FC194B9842F3
:1033200002D8A37A0A33A372A37A1033DBB2392B03
:1033300025D0072220001449A3720AF035FC134E51
:10334000072330000521124AFCF738FF2023A37120
:103350002B7A3000E3716B7A05212372AB7A0D4A28
:1033600063720023E3722300FCF728FF0C21200086
:10337000049B039A0097FFF7CDFB0BB0F0BD6E23C3
:10338000D7E7C046C0655200101C0100CC320020B7
:103390002C19010042190100F7B50F7A1500092F09
:1033A00026D8380008F01AFC134908F0B9F8134978
:1033B00007F0ECFE041CA023114E9B003000EC50E3
:1033C000104A3B000421FCF7F9FE201C0AF05AFACF
:1033D0000D4A0090019130000421FCF7EFFE280017
:1033E00001F0ECFC30000949FFF782FD201CFEBD16
:1033F000FE24A405DFE7C046000020410000C842CB
:10340000CC320020561901006F1901008B19010000
:10341000F0B585B003930B00FC33170000210A229E
:10342000D8680BF0E9FB041E00D101341D4D2300C8
:10343000042128001C4AFCF7C1FE06F095FB02900F
:10344000FA2080006043002426000190380001F03B
:1034500049FB3618642006F0BDFB0398FCF75CFEC0
:1034600006F082FB029B0134C01A019B9842EDD307
:103470002100300007F0CAFA0700030004212800E9
:103480000A4AFCF79BFE330028000521084AFCF796
:1034900095FE280023000521064AFCF78FFE380020
:1034A00005B0F0BDCC32002099190100B01901001F
:1034B000C6190100D519010013B5082407490848A9
:1034C000FFF716FD2200684606490AF06DFB220050
:1034D0006946054804F042FA13BDC046E1190100EF
:1034E000CC320020DD1B0100AC3D0020F0B50D000A
:1034F00087B0FC35E8680091140000210A2201938E
:103500000BF07AFB254F0200060025493800FFF733
:10351000F5FC0A220021A8690BF06EFB214902008C
:1035200005003800FFF7EAFC1F49204B72189A4249
:1035300002D86A189A4203D9FFF7BEFF07B0F0BD60
:103540003100200001F0B8FB2900200001F032FB1F
:10355000200001F081FA164902003800FFF7CEFC86
:10356000200001F07DFA134902003800FFF7C6FC85
:103570003100200001F0A0FB2900200001F01AFB1F
:10358000009903A8083106F057F9019803A906F03D
:10359000A0F903A806F008F9D0E7C046CC32002015
:1035A000EA190100061A0100007C28E84059730757
:1035B000211A0100421A010070B50B7A1400134D54
:1035C000002B11D1C82212499D239B00E0180AF05C
:1035D000EBFA200001F0F2FB0E4B28000521E35C22
:1035E0000D4AFCF7EBFD70BD012B02D1C8220B493F
:1035F000EAE7022B02D1C8220949E5E702212800A7
:10360000084AFCF7DBFDFFF757FFE5E7CC32002067
:10361000A0010020760200007F1A0100680200204D
:1036200030030020621A0100F7B51D000B00FC33C7
:10363000D868002116000A220BF0DEFA04003000E0
:1036400001F00AFA1E4F02001E493800FFF756FC2F
:103650001D4BE2181D4B9A4204D9FFF72DFF0024A1
:103660002000FEBD300001F0F7F9A0420FD1380074
:103670001749FFF73DFC28006A692969019403F0A6
:10368000FFFC28006B69296901AA03F0ADFC380032
:103690001049FFF72DFC2100300001F00DFB380030
:1036A0000D49FFF725FC2100300001F083FA3000BE
:1036B00001F0D2F9094902003800FFF71FFCCFE7FB
:1036C000CC3200208D1A0100007C28E84059730795
:1036D000A11A0100B41A0100D51A0100F51A01005F
:1036E0007FB50E0014000F210E2268461D00FCF766
:1036F00007FE6846FCF707FE317A0B00413B022BC0
:1037000002D9FFF7D9FE7FBD2B0022006846FCF7E7
:10371000A1FEF8E730B506250C0085B01449154820
:10372000FFF7E6FB14492A00083102A80AF03CFA28
:1037300023000321114A01A80BF04EF96A46104BF1
:10374000104C1B7802A9137020002A0004F006F91F
:1037500001A80BF09DF901A90200200004F0FEF879
:1037600001226946200004F0F9F805B030BDC046DA
:10377000E2190100CC320020DD1B0100E616010039
:10378000791C0100AC3D002070B506260C00B6B0D7
:103790001C491D481500FFF7ABFB1C4932000E31D8
:1037A00002A80AF001FA23000321194A01A80BF02C
:1037B00013F96A46174B28001B7804A91370AB68ED
:1037C0005A1C002306F026F9134C320002A92000EF
:1037D00004F0C4F801A80BF05BF901A90200200075
:1037E00004F0BCF82021200005F062FEAA6804A9BC
:1037F000200004F0B3F801226946200004F0AEF87E
:1038000036B070BD131B0100CC320020DD1B01005F
:10381000E6160100791C0100AC3D0020F0B5150052
:103820008DB01F0014AB1B780391049318AB1B7869
:10383000AE49040006A80593139E05F0FDFFAC49B0
:10384000AC48FFF755FBAB4804212B78AA4AFCF79C
:10385000B5FC2878073818281DD807F0CDF81900CE
:103860003100440054005F0072008B009A001C007D
:103870001C001C001C001C001C001C001C00A700DD
:10388000BA00C900D600E600FE002A011C0038017B
:103890006B68062B02D0FFF70FFE0CE0072120001B
:1038A000FFF738FF059B3A00019329002000129B87
:1038B0000096FFF717FD06A805F076FF0DB0F0BDE6
:1038C0006B68042BE7D108212000FFF723FF3A00A3
:1038D0002900200006ABFFF703FF2000297806AA85
:1038E000FFF752FFE7E76B68032BD4D120000921D3
:1038F000FFF710FF049B320000932000129906ABE3
:10390000FFF782FAE9E76B68032BC4D120000A2194
:10391000FFF700FF794806F05DF9CCE76B680C2BE8
:10392000B9D10B212000FFF7F5FE3200290020005D
:10393000159BFFF779FE01000A2209A805F0F3FFA5
:1039400010E06B68042BA6D10C212000FFF7E2FEEB
:10395000320029002000FFF72FFE0A22297A09A849
:1039600005F0D0FF09A906A805F0B3FF09A805F0E6
:103970001BFFB2E76B68162B00D08CE720000D21EF
:10398000FFF7C8FE32002900200006ABFFF7AEFDAE
:10399000A3E76B68032B00D07DE720000E21FFF723
:1039A000B9FE20000399FFF785FA84E76B68052BC1
:1039B00000D070E717212000FFF7ACFE29003B0084
:1039C00032002000FFF7A2FA4D4906A805F089FF52
:1039D00083E76B68052B00D05DE720001821FFF717
:1039E00099FE3B00320029002000FFF711FDA2E7FD
:1039F0006B68032B00D04EE720001921FFF78AFEE9
:103A000031002000FFF73EFC95E76B681E2B00D0CD
:103A100041E71A212000FFF77DFE29003B0032001C
:103A20002000FFF795FA3749CFE76B681E2B00D0CF
:103A300031E720001B21FFF76DFE334906A805F092
:103A400050FF2000297806AAFFF79EFE3B003200B7
:103A500029002000FFF74AFB2DE76B68062B00D0FA
:103A600019E720001C21FFF755FE32002900200035
:103A7000FFF714FB0600254906A805F032FF0222D5
:103A8000310009A805F04FFF09A906A805F0A2FF1B
:103A900009A805F089FE1E4906A805F0A1FF31001E
:103AA000102209A805F03FFF09A906A805F092FF1A
:103AB0005CE76B68042B00D0EDE620001D21FFF7CA
:103AC00029FE320029002000FFF766FCF3E66B6850
:103AD000062B00D0DFE620001F21FFF71BFE290088
:103AE0002000169AFFF7A2F9F7E6C046E924010084
:103AF0002A1B0100CC320020441B0100B80B00003F
:103B0000561B0100671B0100941B0100AF1B010045
:103B1000C61B010010B5054C0549200005F08CFEC0
:103B20002000044A044906F0A3FC10BD0008002050
:103B3000F11B010000000020A997000010B5836070
:103B4000084B01604361084B42600361074B04006E
:103B50000362074B8361074BC36106F005F860629F
:103B6000200010BD5C8F2A4200202E453333533B8A
:103B7000000048440000484210B50400002140689D
:103B800006F0CEFA0021A06806F0CAFA10BD0000C7
:103B900010B50400006806F04BFA07F0D9FF216A5F
:103BA00007F0BEFC0A4907F0BBFC616907F0D2FDD3
:103BB000216907F0EBFA09F065FE064B002208F0D8
:103BC000B9FF09F0D3FDA36A834200DAA06210BDF9
:103BD00000007A4400408F40806A7047002383626F
:103BE00070470000F0B50400C66987B0002900D016
:103BF0008669206806F01CFA039007F0A9FF216A85
:103C000007F08EFC314907F08BFC6169071C07F057
:103C1000A1FD216907F0BAFA2C4907F081FC051CC7
:103C2000A06A07F095FF291C07F0B6F8002803D01A
:103C3000281C07F06DFFA062291C301C07F0ACF8AF
:103C400000283BD005F090FF636AC01AFA235B009E
:103C5000984238D903221E4905A809F0A5FF03227E
:103C600005A91C4803F07AFE281C09F00BFE1A4E29
:103C700000900191194A06213000FCF7B9FB206A37
:103C800009F000FE164A0090019106213000FCF771
:103C9000AFFB381C09F0F6FD124A00900191062195
:103CA0003000FCF7A5FB06213000039B0E4AFCF711
:103CB0009FFB05F059FF6062012005E0606806F097
:103CC0008BFA0028BED0002007B0F0BD00007A4477
:103CD000771C0100AC3D0020CC320020241C0100E8
:103CE0003E1C0100521C0100651C0100F0B585B0AE
:103CF0000091029000210098019209F071FF0020CC
:103D00000F23802201000125019CA04235DA0824FE
:103D10008026A4461C00029B1B5C33405F1EBB41F7
:103D200080276340BF005B023B40039310232701C1
:103D30001F40039B67403B435B10002801D1042ECA
:103D400001D0002D10D125116C4001252C4204D04A
:103D5000009C009D645C14436C5400255210AA42E0
:103D600002D115008022013101246442A44464463A
:103D70007610002CCED10130C6E7802080000524CB
:103D800010278446664618011D11384058405D4092
:103D90005B023340034301205B10054204D00098CE
:103DA000009D405C10436854521001D101318032B3
:103DB000013C002CE6D105B0F0BDF7B50C000600C3
:103DC00000212000150009F00BFFF82322000096C7
:103DD0005B00111B8D4220DD0827802600990978A1
:103DE0003140481E8141080058405B109C460190BC
:103DF00060460B0203430120C9004B400199014278
:103E000002D0117831431170013F7610002FE5D1B7
:103E10000099013201310091DBE7F7BD10B50400D4
:103E20001022074909F0C0FE200080220549103009
:103E300009F0BAFE2000983002F0C8FD200010BD45
:103E40009F1C0100AF1C010010B50400983002F067
:103E500081FE0300020B92B2A05C19000F221140F8
:103E6000615C00060843191211401B11615C13408C
:103E7000E35C090408431B02184310BDF7B51600A4
:103E80001A0E8218040001911800117CFF220F27DE
:103E900010402018007C09033840F0270843190C13
:103EA00011401B0A61181340097CE3181B7C3F0179
:103EB000090239401B01134008430E4F184385B2D5
:103EC0002B00380006210C4AFCF778F9200032005C
:103ED0000199983002F03EFE9034030020800621C4
:103EE0003800064AFCF76AF92088401B43425841D3
:103EF000C0B2FEBDCC3200207B1C01008E1C010034
:103F000003004268080010B5824206D8801A0100FA
:103F10001C68104021410818F6E710BDF0B5D14CDF
:103F2000A54402934369040001930023079204917E
:103F30000DAA01998B4217D163680093049B5E1C04
:103F4000049B009AF31A9A4213D800273A000DAB4B
:103F5000069301998A4228D01978E0680F43415CA2
:103F6000013219700133F4E7049909789954013347
:103F7000DFE70025019B9D4215D00DABEA5C377849
:103F8000002A0CD0237E617E5B195943E368200030
:103F90009B5CC918FFF7B4FFA3681B5C5F400DABC7
:103FA0005F550135E6E70136CAE7002F00D149E148
:103FB000C52001250CABC0180021019A09F010FEA4
:103FC000029B3DAE3570002B34DCE368019A03930D
:103FD0000023013208923DA84EAA08998B4268D36B
:103FE000029A029B94460A930DAB6344099305928F
:103FF000029B01330293029A019B934200D2C5E0D7
:1040000000263500029B9D4259DA3DABEA5C002A4E
:104010000ED009996B42CB5C0099994208D0039964
:104020002000895CC918FFF76BFFA3681B5C5E402A
:104030000135E7E7A36820000393637E0593079BA0
:104040001B68D9430893009BC918059B5943FFF788
:1040500057FF039B1B5C7370E3680993029B9D42AF
:10406000B3D00799AA00009B8958013B591A059BB8
:1040700020005943FFF744FF6F1C3E003DAB089002
:104080005D19099A2B78013ED35C009A9A420BD0B5
:10409000FF22089920001140C918FFF731FF039B48
:1040A0006A781B5C53406B70013D002EE9D13D00E6
:1040B000D4E7195C039D695C995401338DE7039B38
:1040C0009E5D009BB3420ED10A200CAB4EADFF307B
:1040D000C0182900019A09F070FD009B2B70099B04
:1040E0000133099384E700253DAB1A785FAB1A7062
:1040F000019B9D4214D084220CAB52009B18595D49
:104100003DAB0135EF5C009B8B4206D0200071185F
:10411000FFF7F6FEA3681B5C5F405FABEF54E7E779
:104120000A9A029B9B18059A520093421FDD0025B4
:10413000059A9B1A05933DABEB5C002B0DD16B46AA
:1041400018784EAB5855019B0135AB42F3D2089A13
:104150005FA93DA809F028FDC1E7039A2000D15CC2
:10416000009B891BC918FFF7CBFEC0B2E9E70A2004
:104170000CABFF30019AC0184EA909F01EFD842235
:104180000CAB52009B18009A1A70E0E700233DAA7E
:104190000293995C0398415C00989954884200D03E
:1041A0000293089901339942F3D8D620C5210027FC
:1041B00001260CABFF30C918C018019A09F0F4FCB5
:1041C000A37E0993013B0593009BB34235D30123A2
:1041D000029D0893002D19D0EA230CAA5B00D21887
:1041E000515D009A8A420FD020004919FFF788FEDE
:1041F000EA230CAA5B00D3185855FF231840A36884
:10420000089A1B5C5A400892013DE3E7089B002B8B
:1042100008D11DAB059ADE552DABDA55029B01374F
:10422000BB4221D0099A059B9446634419002000A3
:10423000FFF766FE01360590C6E7029BBB4213D02E
:1042400001277F42079B002B00D1B6E000232DA859
:10425000BB4200DBB1E0195C079C9A00A15001331E
:10426000F6E7C046B4FDFFFF00250995019B9D427E
:1042700029D0029EAE4200DD2E0000230593069A4F
:104280007342D15C009B8B420DD03DABF35C009A36
:104290009A4208D0C9182000FFF732FEA368059A99
:1042A0001B5C5A400592013EE9D2059B002B00D0D1
:1042B0000995039B059A9A5C70ABEA54069B0135FD
:1042C00001330693D2E7009A70AB5A557A1E944692
:1042D0007B1E01931DAB63440693019B002BB1DB56
:1042E0006368099D0093A3680593069B1E780023CD
:1042F000039370ABEB5C009A93420AD029007143A0
:104300002000C918FFF7FCFD059B039A1B5C5A406F
:104310000392013DEDD2217E009B013971432000C3
:10432000C918FFF7EDFD63690A905D1E029B9D426F
:1043300000D91D0001239D4373006E43089600269B
:104340005B420B933DABEB185978009B8B4207D037
:10435000089B2000C918FFF7D3FD059B1B5C5E403E
:104360000B9A089B9446023D63440893AB1CE9D129
:10437000002E00D164E7039B002B18D00A99059A00
:10438000E368525C2000995C039A9A5C9B5D8918F3
:10439000009A8918C91AFFF7B3FD019A2DABD25CB8
:1043A0000499059B895C1B5C4B4004998B54019BD1
:1043B000013B0193069B013B8EE7380093239B0052
:1043C0009D44F0BDF0B504001500344F85B03800B1
:1043D000334A03910621FBF7F1FE002162692800B0
:1043E00009F0FEFB062138002B782E4AFBF7E6FE8B
:1043F0000621380063692C4AFBF7E0FE636806215A
:1044000038002A4AFBF7DAFE0023019362686369E9
:104410000199D31A8B423AD9039B5B5C29784B40B4
:10442000E168CB5C02939A4212D001266369B342E1
:104430000ED922699B1BD15C029B2000C918FFF793
:104440005FFDA368AA5D1B5C5340AB550136EDE7E9
:10445000636928005A1E691C09F0AFFB029B626861
:1044600093420FD0236920001978029BC918FFF7E7
:1044700047FDA3681A5C6369EB18013B1A70019B46
:104480000133C2E763690022EB18013BF6E706211E
:104490003800074AFBF792FE05B0F0BDCC32002091
:1044A0002F1D0100431D01004D1D01005B1D01007A
:1044B000651D0100F0B585B00700029101920093DF
:1044C00008284DD801252E008640964248D9009BE9
:1044D000002B45D09E4243D90A9B9E4240D91C21C5
:1044E000280009F0DBFA041E07D152480121524A84
:1044F000FBF764FE012009F0EFFA731E07604360CA
:1045000029003000039309F0C9FA071EA060ECD01F
:104510002900300009F0C2FAE0600028E5D0731EDF
:1045200003700023721EBB542F0062689A420CD99C
:10453000E268D355A268D7547F00374201D0029A6F
:104540005740626801331740EFE7012F0CD0A06895
:1045500009F020FBE06809F01DFB200009F01AFBC0
:104560000024200005B0F0BD0A9B3900581C09F05A
:1045700095FA2061002807D12E4839002E4AFBF712
:104580001DFE2E4805F026FB019B2376009B6376DB
:104590000A9B63613800009906F0BEFA0D1E02D036
:1045A0006368FF18F6E7012322690099A07613706B
:1045B000019A03934A4301920A9BAB422FD02E00EB
:1045C0002369039A5B195A702769002E15D0BB190D
:1045D0000293029ABB5D013A1778002B09D0E2687A
:1045E0002000D15C019BC918FFF78AFCA3681B5C03
:1045F0005F40029B013E1F70E6E7E2683B782000C7
:10460000D15C019B0135C918FFF77AFC009AA368B9
:1046100094461B5C3B70019B63440193CCE70023F1
:104620000A9A9A429DD32269E068D15C415CD154D8
:104630000133F5E7CC3200207A1D0100B80B0000F1
:1046400037B50025074C236901350093E368A2685C
:1046500061682068FFF72EFF60611834052DF2D1E4
:1046600037BDC046C00400200E4A70B503000024C8
:104670001500116999420AD123000B4806210B4A03
:10468000FBF79CFD18235C432C19606970BD013455
:104690001832052CEDD104480221054AFBF7A8FE8B
:1046A0006869F3E7C0040020CC320020981D0100A7
:1046B000A81D0100F0B5FF2415000E000700C3B0CF
:1046C0002200002102A8019309F08AFA601B02ABC4
:1046D000801B32003900C01809F066FA2800FFF785
:1046E000C3FF019A02A9FFF76DFE43B0F0BD0000C1
:1046F000F0B5FF2605001F4C8F18A5441400F61BCB
:104700003200029104A80021039309F069FA04AA77
:10471000B31818003A002900019309F045FA164D24
:104720000621164A2800FBF763FE44AF2000FFF77E
:104730009BFF00233A0004A9FFF7F0FB029A040054
:104740000199039809F030FA0023A34207DA9A008E
:10475000BA58964201D80133F7E701246442280091
:1047600023000621064AFBF743FE200085239B0019
:104770009D44F0BDECFDFFFFCC320020F71D010091
:10478000481E010070B5050006000023040009352D
:1047900039364360FF35FF36280006490C3505F0F1
:1047A0004BF8AE42F8D123000022FC332000DA633C
:1047B00070BDC046E9240100822270B580249200B9
:1047C000815AA40003000059002901D1007870BD6E
:1047D0008026451CB6001D519E190078B54200D3B5
:1047E0001B5101399952F2E7F0B50400002605008B
:1047F0008BB0FC344149E66301A805F01DF829009F
:1048000004A8083105F018F83D4907A805F014F888
:10481000320007A904A805F017F9070007A804F05B
:10482000C3FF7B1C1AD032003B0004A907A805F087
:104830001BF907A901A805F04CF807A804F0B4FF7C
:104840000C23E06B01A958430930FF30281805F00C
:1048500026F8E36B7E1C0133E363D5E7069B002B50
:1048600014D00C27E26B04A957430937FF373200F5
:1048700007A8EF1905F0F8F807A9380005F029F89E
:1048800007A804F091FFE36B0133E3631D4E05219C
:104890003000049B1C4AFBF791FC052130002B786B
:1048A0001A4AFBF78BFC05213000E36B184AFBF733
:1048B00085FC05213000174AFBF780FC0027E36BDD
:1048C000BB420CDD0C222B007A430933FF339B588B
:1048D00005213000104AFBF78BFD0137EFE705217A
:1048E0000E4A3000FBF784FDE46B04A804F05CFF83
:1048F00001A804F059FF20000BB0F0BDE92401002D
:10490000C8400100CC320020A51E0100B71E0100E6
:10491000CA1E0100DA1E010083140100E724010011
:10492000F7B50D00040008000192FFF745FF2800CD
:10493000FFF742FF2A4E0300207005213000294A6C
:10494000FBF73CFC2778AA2F25D1274B0198197833
:10495000FEF786FA39000198FEF782FAA83F6368ED
:10496000BB4208DD2800FFF727FF01000198FEF792
:1049700077FA0137F3E7052130001C4AFBF71EFCEC
:10498000019A1B4B0521D35A30001A4AFBF716FC3B
:1049900000252800FEBD062730000521260063689B
:1049A000154AFBF70BFC7F4208363F1B6368BA19B8
:1049B000591E914205DD2800FFF7FEFE30700136DA
:1049C000F4E70022E31828005A71FFF7F5FE636848
:1049D0000125032BDDDD2000FFF706FFD9E7C046E8
:1049E000CC32002000140100041C0100E71E01006D
:1049F00008200000FB1E01006B15010070B50400CB
:104A0000D72002258000255420382150D02189004C
:104A10006250D1229200A350D223049A9B00E2500C
:104A2000059A0433E250069A0433E250079A04339D
:104A3000E250089A0433E250513BFF3BE0186C22ED
:104A4000002109F0CDF89D239B00C8220021E01829
:104A500009F0C6F8200070BD83239B00C058704742
:104A600088239B00C0587047D123F7B5D525040093
:104A7000D4279B00C058AD00009101210192BF00D6
:104A800005F07EFB6059012105F07AFB0121E05918
:104A900005F076FB0D4B00981E68704305F09AF800
:104AA0000198FFF775F8E059002105F069FBD12363
:104AB0009B00E058002105F063FB6059002105F0E0
:104AC0005FFB300005F086F8F7BDC0460C1C010006
:104AD00082239B0010B5C018FCF713F8431E9841C1
:104AE000C0B210BD822310B59B00C018FCF704F8BB
:104AF00010BDD1239B0070B504000E00C0580121E9
:104B0000150005F03DFBD5239B00E058012105F081
:104B100037FB9D229200A1186C3AABB2A01832006C
:104B2000FCF7CAFF70BD9D239B00C2186C3B0100BF
:104B300010B5C018FDF7A0F8013843425841C0B283
:104B400010BD82239B0010B589B2C018FDF78CFA06
:104B500080B210BD822310B59B00C018FBF7D8FFB0
:104B60000421024A0248FBF729FB10BD141F010073
:104B7000CC32002082239B0070B53021C018FDF795
:104B800073FA094D0400030005212800074AFBF7CA
:104B900015FB802328000521054A2340FBF70EFB67
:104BA000E0B2C00970BDC046CC320020221F010017
:104BB000421F010088239B0070B5C150183BC618E6
:104BC00004003000FCF7EEFB05003000FBF7BAFFF5
:104BD0002000FFF7CFFF012804D00221024A03483A
:104BE000FBF7ECFA280070BD501F0100CC3200200A
:104BF000F8B582239B00C51804002800FCF7B0F824
:104C00002800FCF793F9254F28003900FBF764FFD3
:104C1000D4239B00E058002105F0B2FAD723842169
:104C20009B002800E154FBF75DFFCF239B00E05879
:104C3000012105F0A5FAD0239B00E058002105F0E2
:104C40009FFA174E17493000FCF760F88F239B003E
:104C50003000E3580621144AFBF7B0FA83239B0087
:104C60003000E3580521114AFBF7A8FA88239B007E
:104C70003000E35805210E4AFBF7A0FAFDF72EFBA2
:104C80000C4A030006213000FBF798FA2800FBF7D6
:104C90003FFF39002800FCF795FDF8BDD800002043
:104CA000CC320020711F01008B1F0100A01F0100EA
:104CB000BE1F0100B917010083239B0070B5C150CE
:104CC000043BC61804003000FCF778F905003000FA
:104CD000FBF71EFF2000FFF74DFF002804D0022144
:104CE000024A0348FBF76AFA280070BD501F010012
:104CF000CC32002082239B0070B5C5180400280028
:104D0000FBF706FF30212800FDF7AEF9264E274AB3
:104D1000030005213000FBF751FA83239B00E15883
:104D20002800FCF7AFF805212800FBF7E4FB07217A
:104D30002800FBF7E0FBCF239B00E058012105F0A2
:104D40001FFAD0239B00E058002105F019FA9D239B
:104D50009B00E1182800FCF735FD2800FBF7D8FE82
:104D6000D5239B00E058012105F00AFA30212800E4
:104D7000FDF77AF9062103000D4A3000FBF71EFA11
:104D80002000FFF7F7FE062103000A4A3000FBF778
:104D900015FA2000FFF7EEFE002804D002213000B3
:104DA000054AFBF70BFA70BDCC320020DC1F010076
:104DB0000020010017200100501F0100D1239B009B
:104DC00070B500210400C05805F0DAF9D5239B0026
:104DD000E058002105F0D4F9CF239B00E0580021D2
:104DE00005F0CEF9D0239B00E058012105F0C8F969
:104DF000D72302219B00E154553BFF3BE6183000CE
:104E0000FBF770FE3000FBF7ABFF3000FCF78EF8CD
:104E1000174D18492800FBF779FF9D239B00E418E4
:104E200030002100FBF758FE28001349FBF76EFF06
:104E300030002100FCF7F8FC30003021FDF714F9B8
:104E40000E4A030005212800FBF7B8F928000C4999
:104E5000FBF75CFFFDF742FA06210300094A280030
:104E6000FBF7ACF928000421074AFBF7A7F970BD4E
:104E7000CC3200202620010033200100DC1F01007D
:104E80008B190100B91701004B2001008223F0B5F6
:104E90009B00C51887B00400280004920391FCF71A
:104EA00045F8A0239B00E0584F4F504EF86008F0A3
:104EB000E9FC4F4A0090019104213000FBF77EF994
:104EC00039002800FBF708FE84212800FBF70AFEC2
:104ED000CF239B00E058012105F052F9D0239B001D
:104EE000E058002105F04CF9D4239B00E058012143
:104EF00005F046F939002800FCF764FC3D4A04211E
:104F00003000039BFBF75AF9D1239B00E0580121A5
:104F100005F036F9D5239B00E058012105F030F962
:104F2000D4239B000121E05805F02AF904F01CFE6F
:104F3000FA21039B89004B430393D42307009B0072
:104F4000059304F011FE039BC01B984203D2049802
:104F5000FBF7E2F8F5E7059B0021E05805F010F9B2
:104F6000CF239B00E058002105F00AF9D0239B00D5
:104F7000E058012105F004F9D1239B00E0580021FD
:104F800005F0FEF8D5239B00E058002105F0F8F865
:104F9000194A30000421FBF711F902212800FBF720
:104FA000A1FD2800FBF7C2FF9D239B00E418210010
:104FB0002800FBF791FD30001049FBF7A7FE210008
:104FC0002800FCF731FC30000D4A0421FBF7F6F80D
:104FD00030212800FDF748F805210300094A300078
:104FE000FBF7ECF807B0F0BDD8000020CC32002071
:104FF0006A2001007A2001003D18010033200100E1
:105000008B190100DC1F0100CF23F0B59B0085B098
:1050100004000191C0580121160005F081F8D0224A
:105020009200A058012105F07BF8D1208000205883
:10503000012105F075F8D2239B00E058002105F00E
:105040006FF8D323D425D5279B00E058AD0000216D
:1050500005F066F8BF006059012105F061F8E059DC
:10506000012105F05DF8D6239B00E058002105F0F2
:1050700057F8CF239B00E058002105F081F8D0229B
:105080009200A058012105F07BF8D1208000205823
:10509000002105F075F8E059002105F071F860591C
:1050A000002105F06DF88D2300259B00E5543000AC
:1050B0007369316903AA01F0F5FF8323039A9B000A
:1050C000E25030007369316903AA01F0EBFF8822D6
:1050D000039901239200A1508F211832A3543E4A14
:1050E000890062509622FE21019892008905A15004
:1050F0003A490432A0501832A15096210432890155
:10510000A150802104324900A152354AA220A35463
:10511000344B80001A68A0239B00E2500433E55210
:1051200029000822201808F05BFDA223A5202E4AA2
:105130009B00E25080000833E550A8222900201887
:1051400008F04EFD8220800026183000FBF7EEFEAE
:105150009D208000271839003000FBF7BDFC390086
:105160003000FBF76FFC214D06212800204AFBF799
:1051700025F88F2189006358280006211D4AFBF776
:105180001DF883239B002800E35806211A4AFBF7E9
:1051900015F888229200A35806212800174AFBF729
:1051A0000DF8FDF79BF8164A030006212800FBF7CF
:1051B00005F83000FBF7E1FC39003000FCF734FB68
:1051C00030213000FCF750FF052103000D4A280074
:1051D000FAF7F4FF05B0F0BD006CDC02080006032E
:1051E0007E020000081C01001F852B3FCC320020EE
:1051F000711F01008B1F0100A01F0100BE1F0100D5
:10520000B9170100DC1F0100D1239B0070B50021FC
:105210000400C05804F0B4FFD5239B00E0580021DF
:1052200004F0AEFF82239B00E61830213000FCF72B
:105230001BFF274D030005212800264AFAF7BEFF71
:1052400088239B00E1583000FBF722FE224B1B68AD
:10525000002B06D030200321584305F0D7FB01383E
:10526000FDD1CF239B00E058002104F089FFD0231B
:105270009B00E058012104F083FF28001749FBF749
:1052800045FD9D239B00E1183000FCF7CDFA30006E
:10529000FBF758FC30213000FCF7E6FE0621030046
:1052A0000F4A2800FAF78AFF2000FFF763FC062167
:1052B00003000C4A2800FAF781FF2000FFF75AFC90
:1052C000012804D002212800074AFAF777FF70BDB1
:1052D000CC32002080180100181C0100952001002C
:1052E0000020010017200100501F0100F0B58FB011
:1052F0000193C14B09AE09934B233371BF4B0C0093
:105300000D93597817001A787171521A0121914042
:10531000050001204A42F2809B783372984006F0E3
:1053200017FC011CFE20800505F030FFB449F06039
:1053300006A804F081FA83239B00E9580A2203A8F7
:1053400004F003FB03A906A804F057FB01002000AA
:1053500004F0A5FA03A804F027FA06A804F024FA3A
:10536000A84906A804F068FA88239B000A22E95895
:1053700003A804F0EAFA03A906A804F03EFB010022
:10538000200004F027FB03A804F00EFA06A804F09E
:105390000BFA9D4906A804F04FFA9C4903A804F0B3
:1053A0008EFA03A906A804F028FB0100200004F0EF
:1053B00011FB03A804F0F8F906A804F0F5F9336925
:1053C00030005B68197801F0CCFB06F0C1FB0C994A
:1053D00006F0A6F82100061C03A804F070FA03A941
:1053E00006A804F06CFA06AB894A06218948FAF748
:1053F000FFFF06A804F0D8F903A804F0D5F9864900
:1054000006A804F019FA0122311C03A804F0AFFA2F
:1054100003A906A804F0F1FA0100200004F0DAFA6A
:1054200003A804F0C1F906A804F0BEF97B4906A858
:1054300004F002FA0A22019903A804F074FA03A9FD
:1054400006A804F0DAFA0100200004F0C3FA03A869
:1054500004F0AAF906A804F0A7F9714906A804F017
:10546000EBF93800FEF794FB0A22010003A804F0D0
:105470005AFA03A906A804F0C0FA0100200004F0BB
:10548000A9FA03A804F090F906A804F08DF965497B
:1054900006A804F0D1F93800FEF79EFB0A220100AD
:1054A00003A804F040FA03A906A804F0A6FA010034
:1054B000200004F08FFA03A804F076F906A804F09F
:1054C00073F9594906A804F0B7F9584B1022E95C62
:1054D00003A804F017FA03A906A804F08EFA010045
:1054E000200004F077FA03A804F05EF906A804F09F
:1054F0005BF94F4906A804F09FF99E239B00E958E9
:105500000A2203A804F021FA03A906A804F075FAF8
:105510000100200004F05EFA03A804F045F906A893
:1055200004F042F9434906A804F086F9424B0A22E6
:10553000E95C03A804F0E6F903A906A804F05DFA03
:105540000100200004F046FA03A804F02DF906A893
:1055500004F02AF9394906A804F06EF9384B0A22FA
:10556000E95C0E2303A8194004F0DDF903A906A89D
:1055700004F043FA0100200004F02CFA03A804F020
:1055800013F906A804F010F92E4906A804F054F9FE
:105590002D4B0A22197803A804F0B4F903A906A830
:1055A00004F02BFA0100200004F014FA03A804F020
:1055B000FBF806A804F0F8F8244906A804F03CF922
:1055C000A0239B00E958032203A804F0D0F903A903
:1055D00006A804F012FA0100200004F0FBF903A869
:1055E00004F0E2F806A804F0DFF83800FEF7F6FA57
:1055F000A0680FB0F0BDC046E03200203C0500209E
:10560000AB200100B3200100BD20010000080020F4
:10561000C8200100CC320020D7200100DF2001008B
:10562000EE200100FC2001001121010077020000A2
:105630001A210100272101007E020000372101000C
:105640007602000042210100F51B010053210100F8
:1056500010B513000A000621FAF7CAFE10BD0000BB
:10566000F8B5A823474D9B000400C3580621280025
:10567000454AFAF7BDFEA9239B002800E3580621FE
:10568000424AFAF7B5FEAA239B002800E3580621F8
:105690003F4AFAF7ADFEAB239B002800E3580621F2
:1056A0003C4AFAF7A5FEAC239B002800E3580621EC
:1056B000394AFAF79DFEB0239B002800E35C0621DF
:1056C000364AFAF795FE364B2800E35C0621354A48
:1056D000FAF78EFE344B2800E35C0621334AFAF7D2
:1056E00087FE334B2800E35C0621324AFAF780FE3E
:1056F000CA239B002800E25A2F49FFF7A9FF2F4B2E
:105700002800E25A2E49FFF7A3FFCB239B00280075
:10571000E25A2C49FFF79CFF2B4B2800E25A2B49F9
:10572000FFF796FFCC239B002800E25A2849FFF799
:105730008FFF284B2800E25A2749FFF789FFCD2326
:105740009B00E25A28002549FFF782FF244F254E8F
:1057500028003100E25BFFF77BFF31002800E25BAD
:10576000FFF776FF204B2800E35C06211F4AFAF77B
:105770003FFE1F4B28000621E35C1E4AFAF738FE65
:10578000F8BDC046CC3200205B2101006F21010032
:105790008121010095210100A3210100B521010013
:1057A00025030000C821010026030000E1210100BB
:1057B00027030000FA210100102201002A03000043
:1057C00029220100432201002E0300005C22010077
:1057D00076220100320300008B220100A222010088
:1057E00036030000BA2201003A030000D42201006F
:1057F0003B030000E822010010B50021132004F053
:10580000BFFC0021202004F0BBFC0122014B1A60E8
:1058100010BDC0469430002070B50500060004009D
:1058200039350936FF35FF36B54204D00C3D280026
:1058300003F0BAFFF8E7200070BD10B504000C308B
:10584000FFF7EAFF200003F0AFFF200010BD0000CB
:1058500070B50D0004000021122004F091FC2A0014
:105860002100044801F0A7FC0121122004F088FC6B
:1058700070BDC046643B002007B5002009F0C8F9A0
:105880006B460733181A0EBD812270B580240300C1
:1058900092008058A40001301D19A84211D09850E0
:1058A000985880240170822189005E5AA400B0B209
:1058B000A6420AD11A580132954204D01A5000204B
:1058C00070BD9B50ECE71B50F9E75D5A681C80B235
:1058D00058520120002DF3D19A581A51F0E70000D8
:1058E000802130B50B4A8901845A03004058002CAE
:1058F00001D1007830BD8025441CAD015C505D199C
:105900000078AC4200D35B50995A013989B2995260
:10591000F0E7C0460820000010B513000A0005217A
:10592000FAF74CFC10BD0000F7B504000E0004F0BF
:1059300021F91D4B001B1B680024019398421BD9C1
:10594000FA27002505347F011848FFF7CBF8031C20
:10595000A84200D22B1CDDB23B00013BFDD1013C33
:10596000002CF1D1AE4209D204F004F92B0005213C
:105970000F4A1048FAF722FC2000FEBD0E4B01240E
:105980001B68002BF8D01C210C48FCF76DFB094E5E
:105990000300052130000A4AFAF710FC2B0005210C
:1059A0003000084AE6E7C0461C1C0100342D0020E8
:1059B00001230100CC320020D42C00203C2F0020F9
:1059C000162301002723010082239B00C35A0A00EB
:1059D0008B4204D881239B00C358187870478023DA
:1059E0009B00C158054B091A8918194003D5044B6F
:1059F000013919430131405CF0E7C046FF010080E6
:105A000000FEFFFF0B4B0A00C35A8B4203D80A4B20
:105A1000C3581878704780239B01C158074B091A57
:105A20008918194003D5064B013919430131405CEF
:105A3000F0E7C0460820000004200000FF1F00809F
:105A400000E0FFFF70B581208024822100228025A4
:105A5000374B8900A40080005A521B511B50354B14
:105A6000AD015B51344D86B05B51344D5A53344BCC
:105A700001251B51334C5A521B502000FEF782FE69
:105A8000314E20003200314904F0F2FC304C314BF1
:105A9000280023604B2323712F4B236159781A78F8
:105AA0006171521A290091404A42E2809B78237228
:105AB000984006F04DF8011CFE20800505F066FBBD
:105AC0002621E0602548FAF719FB0423092210215A
:105AD0002348FEF733F8112304930F3303931B3B42
