:1000000000800020A19B000031980000899B000027
:1000100000000000000000000000000000000000E0
:10002000000000000000000000000000899B0000AC
:100030000000000000000000899B0000F59B00000C
:10004000899B0000899B0000899B0000899B000020
:10005000F5970000899B00003D7500008D9B000016
:10006000899B00002579000035790000899B0000FC
:10007000F96F0000899B000045790000899B000012
:10008000899B0000899B0000899B0000899B0000E0
:1000900000000000899B0000899B0000899B0000F4
:1000A000899B0000899B0000899B0000899B0000C0
:1000B0000000000010B5064C2378002B07D1054B3B
:1000C000002B02D0044800E000BF0123237010BDC4
:1000D000E00700200000000074440100044B10B54C
:1000E000002B03D00349044800E000BF10BDC04608
:1000F00000000000E407002074440100182343605E
:100100000160704710B50121040000680AF05CF836
:1001100009F07EFDA06010BD10B5040009F078FD67
:10012000A368C01A636898420AD9012120680AF0BE
:100130007BF8002120680AF077F809F069FDA060DB
:1001400010BD0000194BF0B51D78194B87B01E7813
:10015000184B04901B7805910393174B15701B786F
:100160000293002301930133059F019CD118581C71
:10017000BC4217DA049F3F5D1418BD4209D1981C98
:1001800023000E7002991970019B01330193030043
:10019000EAE7B74204D10E70981C03992300F2E7F6
:1001A0000F70F1E70D7007B0F0BDC046D41C010020
:1001B000D51C0100D71C0100D61C01000CB403683B
:1001C00037B504000D008B4222DBC368002B01D041
:1001D000806898472379002B0FD007220E49684684
:1001E0000DF036FD2900694401390978A06807F04F
:1001F00031FC0A49A06807F029FC07AA20000699EB
:10020000009206F0FBFB2369002B01D0A068984701
:1002100037BC08BC02B01847BC0C0100931C01009D
:10022000F0B585B00D0002900392012908DC02218F
:100230002A4A2B48FFF7C2FF0024200005B0F0BD7A
:10024000284B1B780193029B019A5B18013B1B789A
:10025000934224D1013D0026029B34001F78019B6C
:10026000FF1A7B425F41BD42E7DD029B019ADB5DE5
:10027000934204D102211C4A1948FFF79FFF029BB9
:10028000DB5D002E1FD0194A12789A420DD1184B0F
:10029000039A1B781355013400260137E3E7022146
:1002A000144A0F48FFF78AFFD5E7134A12789A429B
:1002B00003D1039B019A1A55EDE702210F4A084822
:1002C000FFF77CFFE8E70A4A12789A4203D0039AC4
:1002D00013550134E1E70126DFE7C046C30C0100F6
:1002E000CC320020D41C01001A0D0100D71C0100E3
:1002F000D51C0100EC0C0100D61C0100560D0100BC
:1003000001604260704710B504000121006809F0E7
:100310005BFF0121606809F057FF09F079FCA060DC
:1003200010BD000070B505000C000F20012109F080
:100330007BFF00210E2009F077FF09F069FCAB6814
:10034000C01A084B984203D82000FFF7E5FEF4E7F7
:1003500000210F2009F068FF00210E2009F064FF42
:1003600070BDC0462F75000070B505000C000F2051
:10037000002109F059FF01210E2009F055FF09F075
:1003800047FCAB68C01A084B984203D82000FFF71F
:10039000C3FEF4E700210F2009F046FF00210E20E4
:1003A00009F042FF70BDC0462F75000070B5050012
:1003B0000C000F20012109F037FF01210E2009F068
:1003C00033FF09F025FCAB68C01A084B984203D8EC
:1003D0002000FFF7A1FEF4E700210F2009F024FF21
:1003E00000210E2009F020FF70BDC0462F750000CF
:1003F0000CB4036837B504000D008B4222DBC368E0
:10040000002B01D0806898472379002B0FD007225A
:100410000E4968460DF01CFC290069440139097831
:10042000A06807F017FB0A49A06807F00FFB07AAAE
:1004300020000699009206F0F9FA2369002B01D0FA
:10044000A068984737BC08BC02B01847BC0C010034
:10045000931C010070B50D001C001100432D0BD141
:10046000FFF7A4FF0A4A04210A48FFF7C1FF200052
:10047000094909F08AFA70BD422D03D1FFF774FFD4
:10048000064AF0E7412DF6D1FFF74CFF044AEAE7B0
:10049000920D0100CC3200209E250100A90D010023
:1004A000C40D010000231F2805D9072B03D00133F9
:1004B0004008DBB2F7E75B011843C0B2704710B5E4
:1004C00004000322282101F0FDFDC8222E21200076
:1004D00001F098FE10BD10B50422282101F0F2FDB4
:1004E00010BD10B5002101F0BFFD10BD10B50121F8
:1004F00001F0BAFD10BD602210B50A43017002215F
:1005000001F0E0FD10BD000010B504000E4B2121EC
:100510001A7801F0D7FD0D4B22211A78200001F046
:10052000D1FD0B4B23211A78200001F0CBFD094BA4
:1005300025211A78200001F0C5FD074B2621200057
:100540001A7801F0BFFD10BD080000200600002051
:10055000050000200400002007000020F8B5147AF0
:100560000500023C624254410F00A400012B04D05C
:100570002600022B03D1102600E02026264330213E
:100580003A78280001F09EFD31217A78280001F0A8
:1005900099FD012232213243280001F093FD2822E7
:1005A000002C00D108222800014901F08BFDF8BD84
:1005B000340F000070B50600012500291DD0C06D64
:1005C0000DF08EF9104A114B0CF008FB0AF078FC84
:1005D0000400306E0DF084F90B4A0C4B0CF0FEFA5F
:1005E0000AF06EFC051E00D10135002C00D101344B
:1005F0006C213000E2B201F065FD3000EAB26E21FC
:1006000001F060FD70BDC0467B14AE47E17AE43F67
:1006100070B516000C000F210500527833781201D6
:100620000B401A432100D2B201F04CFD611C842220
:1006300089B2280001F046FDA11C002289B22800E1
:1006400001F040FDE11C0022280089B201F03AFDD2
:10065000002273680F2B05D90F2A03D001325B08E3
:10066000D2B2F7E71B011A43211DD2B2280089B28A
:1006700001F028FD0022B3680F2B05D90F2A03D003
:1006800001325B08D2B2F7E71B011A43611D280053
:10069000D2B289B201F016FD0F21727B337B920139
:1006A0000B401A43A11D2800D2B289B201F00AFD05
:1006B000E11DB27B280089B201F004FD2100083160
:1006C000F27B280089B201F0FDFC21000931327C67
:1006D000280089B201F0F6FC21000A31727C280062
:1006E00089B201F0EFFC2100B37CF27C0B311A439C
:1006F000280089B201F0E6FC21000C31B28A280002
:1007000089B201F07FFD21000E312800162289B246
:100710000F3401F0D7FC28000022A1B201F0D2FC76
:1007200070BDC42110B50F224900040001F0CAFCBD
:100730008A2177222000FF3101F0C4FC10BD0000A7
:100740000B0070B5B0331A780D00202380215201C0
:100750001A408900040001F0B5FC6E7C002E0FD019
:10076000002220000A4901F0ADFC6A7C2000094902
:1007700001F0A8FCFF222000074901F0A3FC70BD96
:1007800080222000024901F09DFC3200EEE7C046C5
:1007900001020000020200000302000070B50E001A
:1007A0008B78B2310E220D00862113400400294AB5
:1007B000B1368900042B28D101F024FD87218A223B
:1007C0008900200001F07EFC32782349200001F0EE
:1007D00079FC00222149200001F074FC8421204A88
:1007E0008900200001F0A0FC85219E2289002000C4
:1007F00001F068FC2A7820001A4901F063FC00220D
:100800002000194901F05EFC70BD01F0FBFC87215E
:100810008A228900200001F055FC32780E49200020
:1008200001F050FC01220D49200001F04BFC842115
:100830000E4A8900200001F077FC85211F228900E3
:10084000200001F03FFC2A782000064901F03AFC24
:100850000122D5E7555500001E0200001D020000D0
:1008600055555555160200001502000033553355F5
:100870000B0070B5B433040018880D001600FFF7A4
:1008800011FE882102008900200001F01BFC2B00D2
:10089000B6331888FFF706FE42490200200001F037
:1008A00011FC2B00B8331888FFF7FCFD3E4902000D
:1008B000200001F007FC2B00BA331888FFF7F2FD87
:1008C000892102008900200001F0FCFB0022374949
:1008D000200001F0F7FB2B00BC331888FFF7E2FD86
:1008E00033490200200001F0EDFB2B00BE331888D5
:1008F000FFF7D8FD2F490200200001F0E3FB2B0099
:10090000C0331888FFF7CEFD8A210200890020003D
:1009100001F0D8FB002E3ED0B068FFF7C3FD26499A
:100920000200200001F0CEFB2B00C4331888FFF733
:10093000B9FD22490200200001F0C4FB002E04D0C2
:100940002000327B1E4901F0BDFB00221D49200022
:1009500001F0B8FB8C210C228900200001F0B2FBD1
:100960002B00B3331A781849200001F0ABFB2300A9
:1009700058331A782000154901F0A4FB2300AA7A05
:1009800059331B78012A0AD12B32200010491A430F
:1009900001F098FB70BD2B00C2331888BDE72822F8
:1009A000F3E7C046210200002302000025020000F8
:1009B0002602000027020000290200002A0200008F
:1009C0002D0200002F020000310200003202000060
:1009D0003302000010B5040000291BD0406B0BF05F
:1009E00051F90CF0A3FF0C4B00220BF0F1FC0AF0C4
:1009F00067FA80235B02984200D30848C521C2B23F
:100A00008900200001F05EFBC42111222000890032
:100A100001F058FB10BDC04600008440FFFF0000FD
:100A2000CC2110B504000C22890001F04BFB2300FF
:100A3000643320001A78024901F044FB10BDC0461F
:100A40003203000070B504000D0003221B4901F0C1
:100A500039FBC73507222000194901F033FB2B78F9
:100A6000012B19D168221749200001F02BFBFF222E
:100A70001549200001F026FB84222000134901F0D3
:100A800021FB98222000124901F01CFB25222000A6
:100A9000104901F017FB70BD5C220A49200001F0EB
:100AA00011FB53220849200001F00CFB76222000A4
:100AB000064901F007FB9222E4E7C0460D0F000053
:100AC0001C0F0000210F0000220F0000230F000068
:100AD000260F0000440F00000A0010B5203201F07C
:100AE00093FF10BD10B5034B0A001970232101F0CC
:100AF000E9FA10BD0500002010B5402101F0B4FA5C
:100B000010BD10B51C2101F0AFFA0F23184010BD25
:100B1000F8B53021040001F0A7FA382106002000C2
:100B200001F0A2FA7F27320005003A403021200070
:100B300001F0C8FA2A0038213A40200001F0C2FA38
:100B40000020F8BDF8B53021050001F08DFA3821FC
:100B50000400280001F088FA80260700764234431A
:100B600028003E43E2B2302101F0ACFA2800F2B294
:100B7000382101F0A7FA0120F8BD10B506210400C4
:100B800001F064FB4022024392B20621200001F0F2
:100B900039FB0821200001F059FB01220243082102
:100BA000200092B201F02EFB10BD10B513000A0018
:100BB0000521FFF703FB10BD70B5050030352E7819
:100BC0000400002E35D1038F002B21D1214B616B06
:100BD0000D22994200D80A3AF1212000090101F0C2
:100BE00071FA2B780022012B00D0073220001A491D
:100BF00001F068FA194B626B9A4227D9022311223D
:100C0000210040310B702000154901F05BFA70BDE6
:100C1000032B08D0082B17D01A00093A1E2A0DD82A
:100C2000083B5B00DEB2C22132002000490001F027
:100C300049FA2B78012BC9D10422CDE70521094AB5
:100C40000948FFF7BBFAEEE70126ECE70123102283
:100C5000D6E7C046C0209002110F0000FF6A7A015B
:100C6000350F0000DF0D0100CC32002010B50A0066
:100C70000221FFF7A3FA10BDF7B50F00117C140095
:100C800006000822002900D0627C6274227A002AC1
:100C900005D1194920688142524101322272102542
:100CA000220030001549FFF759FC627C3900300002
:100CB0002A4301F007FA01953900300001F0D4F918
:100CC000019B05001842F7D1060020230C481E4066
:100CD0001D4205D00B49FFF7C9FF01263000FEBDBC
:100CE0002A000949FFF761FF01230F2023742368BD
:100CF00005406574E360F1E73FDD4A1F090000200D
:100D0000CC320020080E0100190E010010B50A00B7
:100D10000521FFF753FA10BD10B5002806D00128B1
:100D200011D00A490A48FFF7A1FF0CE0084C094915
:100D30002000FFF7EBFF20000749FFF7E7FF200047
:100D40000649FFF7E3FF022010BDC046FF0E010079
:100D5000CC320020600E0100860E0100CF0E010093
:100D600070B504000F251C21200001F07DF92840FA
:100D70000428F8D006380128F5D920000021FFF713
:100D8000BAFB02490248FFF7C1FF70BD180F01000E
:100D9000CC32002070B50500002401261D2128005A
:100DA00001F062F9304201D10134F7E72300052157
:100DB000024A0348FFF702FA70BDC0462B0F01003C
:100DC000CC320020C02110B599224900040001F066
:100DD00079F9842105222000FF3101F073F9636B5A
:100DE00005215B0B024A0348A366FFF7E7F910BD34
:100DF000450F0100CC320020F0B5050085B0100091
:100E0000140003910CF06CFD0022124B0BF0E6FE77
:100E10000600686B0F000AF035FF0CF087FD02003A
:100E20000B00300039000BF0D3FA0AF049F8012624
:100E30006B464000064332009989280001F074F99E
:100E400023000521044A05480096FFF7B7F9300052
:100E500005B0F0BD00006041640F0100CC320020FD
:100E6000426810B50400002A03D03421FFF7C4FF04
:100E7000A060A269002A04D03C212000FFF7BCFF3B
:100E8000E06110BD10B54160FFF7EAFF002010BD22
:100E900010B58161FFF7E4FF002010BDF8B5040034
:100EA00020492148FFF732FF636C002B00D09847A0
:100EB00005212000FFF71FFB2000FFF7D1FFC02115
:100EC00025009B224900200001F0FCF82C35200071
:100ED000FFF760FF2B783321221D2000FFF7CCFEA7
:100EE00022002B783B21183207002000FFF7C4FEB8
:100EF0000021060005002000FFF7FDFAA36C002B7F
:100F000000D09847002F02D06368002B07D1002E35
:100F100003D0A5696B1E9D41EDB22800F8BD0125E7
:100F2000FBE7C046730F0100CC320020426D70B564
:100F300004230400002A0FD0FFF7D8FA1A4D060048
:100F400002001A492800FFF730FEC52E06D02800FF
:100F50001749FFF78BFE0223180070BD2000FFF732
:100F6000C0FA1449060002002800FFF71EFE512EA9
:100F700005D028001049FFF779FE0323ECE7802213
:100F80000221200001F09EF800212000FFF7B3FAB3
:100F90002000FFF711FE2000FFF780FF002398429A
:100FA000DAD00533D8E7C046CC3200208D0F0100DF
:100FB0009A0F0100AE0F0100C40F0100F8B50378CD
:100FC00004000E002D4D012B04D128002C49FFF701
:100FD0004DFEFEE7232101F047F8842807D12800C1
:100FE0002849FFF793FE05212000FFF784FA1C2112
:100FF000200001F039F80F2707403A002800224965
:10100000FFF7D3FD062FF2D0216966600B0A891B1A
:10101000CA17891851408B4218D228001B49FFF784
:1010200075FE002328002373237505216368184A81
:10103000FFF7C4F82000FFF731FF00280DD028008B
:101040001449FFF713FE05263000F8BD28001249A9
:10105000FFF75CFE2000FFF703FF2321200001F0D3
:1010600003F800268428EFD128000C49FFF74EFE34
:101070000D212000FFF73FFAE6E7C046CC32002002
:10108000E20F0100021001001810010034100100ED
:101090004F1001006510010076100100A110010041
:1010A000F0B50F8B85B004003800CE8A0AF0EAFD57
:1010B0009121C9050AF088FA051C606B0AF0E2FD6F
:1010C000011C281C0AF0B6F80CF030FC00221E4B64
:1010D0000AF014FE09F0F4FE892183B21A00200000
:1010E0004900039301F08EF8184D039B184A05211F
:1010F000280000933B00FFF761F830000AF0C2FDC2
:101100009121C9050AF060FA071C606B0AF0BAFD6C
:10111000011C381C0AF08EF80CF008FC0A4B002267
:101120000AF0ECFD09F0CCFE882187B23A002000DD
:10113000490001F067F8330005212800054A0097AF
:10114000FFF73CF805B0F0BD0000E03FCC320020D6
:10115000B7100100CF100100030070B52C330D0053
:101160001B78021D0C490400FFF7F8F90F222B78B9
:1011700013400A2B03D129002000FFF791FFF02133
:101180000F222000090100F09DFF062220000349E4
:1011900000F098FF70BDC0460D000020180F000041
:1011A000F0B50B8B87B00393CB8A050003980493AB
:1011B0000C000AF067FD8F21C9050AF005FA061C2C
:1011C000E06B0AF05FFD011C301C0AF0FDF92B00FA
:1011D00040330593061C18780AF00EFD011C301CE4
:1011E0000AF0F2F9061C686B0AF04CFD011C301C79
:1011F0000AF020F80CF09AFB294B00220AF07EFD41
:1012000009F05EFE892186B232002800490000F014
:10121000F9FF244F244A039B052138000096FEF76E
:10122000CDFF04980AF02EFD8F21C9050AF0CCF9F4
:10123000061CE06B0AF026FD011C301C0AF0C4F904
:10124000059B061C18780AF0D7FC011C301C0AF01C
:10125000BBF9061C686B0AF015FD011C301C09F077
:10126000E9FF0CF063FB0E4B00220AF047FD09F08A
:1012700027FE882186B232002800490000F0C2FF14
:101280003800049B0521094A0096FEF797FF8A2142
:101290004D3428002278490000F0B4FF07B0F0BDBB
:1012A0000000E03FCC320020F810010010110100D6
:1012B0000300020070B52C330D001B7818320C4966
:1012C0000400FFF74BF90F222B7813400A2B03D1B0
:1012D00029002000FFF764FFF0210F222000090100
:1012E00000F0F0FE02222000024900F0EBFE70BD8B
:1012F0000B000020180F000070B58B6B0C008021D4
:101300009AB24900050000F07DFF0521A36B234A36
:101310002348FEF753FF8121E36B4900DAB228002E
:1013200000F0D0FE0421226CFF31280000F078FF8D
:10133000832100224900280000F072FF80220A2148
:10134000636C12041A432800FF3100F069FF0F227A
:1013500023781340082B11D8062B11D98621A36CB2
:1013600028009AB2490000F04DFFA36C8721DA43B0
:10137000280092B2490000F045FF01E00A2BEDD0B1
:1013800016214C3428002278FF3100F09BFE942176
:101390002800F722890000F095FE70BD2911010098
:1013A000CC320020F8B5037804000E00274D012B45
:1013B00005D103212800264AFEF700FFFEE723217E
:1013C00000F052FE842807D128002249FFF79EFC36
:1013D00005212000FFF78FF81C21200000F044FEBB
:1013E0001D4907002800FFF791FC0F231F40062F1F
:1013F000F2D0636AA6611A0A9B1BD9175B184B408F
:101400009A4215D20022631CDA7727331A7028001B
:1014100033000521114AFEF7D1FE2000FFF73EFD03
:1014200000280CD028000E49FFF720FC0520F8BD4D
:1014300028000C49FFF76AFC2000FFF711FD20008F
:101440000921FFF758F80020F1E7C046CC32002010
:10145000E20F0100021001003B1101004F100100DA
:10146000651001007610010070B50C0001260A78A5
:101470001021050000F026FE637833420AD0237A5B
:10148000002B07D003211E4A1E48FEF797FE637803
:10149000B343637011212800627800F013FE237AB1
:1014A000002B0ED00E26A3783340042B09D0164A09
:1014B00003211448FEF782FE0423A278B2431343AB
:1014C000A370A2781221280000F0FCFD0E22A37860
:1014D0001340083A022B00D0002228000B4900F0EC
:1014E000F1FD237A002B09D013221821280000F0E7
:1014F000E9FD62221921280000F0E4FD70BDC0461C
:1015000053110100CC3200208F110100720F000036
:10151000F0B50323CA780D00B02104001A4087B04B
:10152000490000F0CFFD23004C331878FFF7F4FB9F
:101530000422B2210243D2B22000490000F0C2FDD1
:101540000F222B781340082B00D981E0062B00D9FD
:101550009DE0002304936221049AFF31200000F0F3
:101560005FFE614F049B614A052138000093330000
:10157000FEF724FE68680AF085FB9721C9050AF08A
:1015800023F8061C606B0AF07DFB011C301C09F07F
:1015900051FE0CF0CBF9564B00220AF0AFFB09F0DC
:1015A0008FFC662106000200FF31200000F038FEAB
:1015B0006B68504A052138000096FEF7FFFD636B0B
:1015C0006A685B099A4204D3032138004A4AFEF74D
:1015D000F5FD236D0021181CEE68049309F044FC0E
:1015E000002806D00498311C09F03EFC002800D1E8
:1015F000049E8B21301CC90509F0E6FF0CF096F91A
:101600003B4B00220AF07AFB09F05AFC802380B29F
:10161000061C5B01984201D3384B1E88B6B23300DA
:1016200038000521364AFEF7C9FDB52132002000F9
:10163000490000F0E7FDE86802960CF077F9314ABE
:101640000090019105213800FEF7B8FD07B0F0BD0C
:101650000A2B00D07DE7AE8A30000AF013FB9721F9
:10166000C90509F0B1FF0CF061F9274A274B0BF0CF
:10167000B5FA04900591606B0AF004FB0CF056F982
:1016800002000B00049805990AF0A2FE24E0686AA3
:101690000CF04CF90022164B0BF0A0FA060068681B
:1016A0000F000CF01DF902000B00300039000BF0A8
:1016B00095FA09F005FC06000AF0E4FA9721C9053D
:1016C00009F082FF071C606B0AF0DCFA011C381C71
:1016D00009F0B0FD0CF02AF90022054B0AF00EFBD0
:1016E00009F0EEFB049036E7CC320020C111010076
:1016F0000000E03FD2110100E411010038120100A6
:1017000026120100E8100100977329AE2A7BEB3FF7
:10171000F8B50D00040016002F00FFF7A5FE20000D
:10172000FEF7F2FE31002000FEF744FF2900200002
:10173000FFF7E2FD2B7C9837002B2ED01821FF22DB
:101740002000FF3100F0BEFCA8213A002000490033
:10175000FEF75EFF29002000FFF7DAFE2000FFF70A
:1017600031FB2000FEF7DDFF29002000FEF7E8FF37
:1017700029002000FFF712F8320029002000FFF7AF
:1017800077F831002000FFF725F92000FFF748F92E
:1017900029002000FFF756F9F8BD1821F422200097
:1017A000FF3100F08FFC2A009021200050324900C8
:1017B000FEF72EFF2A009821200068324900FEF72C
:1017C00027FFC1E770B54B1CDB7F04000D001348F9
:1017D000512B03D01249FFF749FAFEE71149FFF7F1
:1017E00095FA002229002000FFF792FF290020002F
:1017F000FFF7B2FC636C002B00D098472000FEF787
:101800005EFE0D212000FEF776FE2000FFF7C2FAF3
:10181000A36C002B00D0984770BDC046CC3200208E
:101820003A1201007212010070B54B1CDB7F0400FC
:101830000D00512B04D00D490D48FFF717FAFEE7B4
:101840000022FFF765FF09212000FEF754FE290062
:101850002000FFF72DFD2000FFF774F9636C002BCB
:1018600000D098472000FEF72AFE70BD3A12010012
:10187000CC320020F0B58DB004910600EF211800A5
:101880001F00059209F086FACBB27D4C06938BB20D
:101890000793FB1A9BB2CAB220000D00794902934C
:1018A000FFF783F9029B05212000774AFEF786FCAB
:1018B00000230393EF2F01D8023303932A21300032
:1018C00000F0C4FCEF2403000621704A6C48FEF7C8
:1018D0008FFD631B09932A21300000F0B7FC684C90
:1018E0006B4A089006212000FEF782FD089B099AAA
:1018F0009342F0DC06212000664AFEF779FD0E21B6
:10190000654B0AAC1A78049B9B78A2700B40634924
:101910002180042B3DD1049B1A7A7E23012A00D01A
:101920002C3304220AA9CB70300000F0A9FC0E224F
:10193000049B9B781340042B05D0049B5B7C002BFD
:1019400001D1FE2F35D9E1230AA90B70069B039A1A
:1019500001334B700123134303228B70300000F0DE
:101960008FFC079A0599300000F08AFC05214C4A4B
:101970004348FEF73DFD0024059BA5422ED01B5D8C
:1019800006210093474A23003D48FEF731FD01340C
:10199000F2E7AA23042221003000E37000F070FC7B
:1019A000414B07220A93414B2100A3805523A37189
:1019B000BAE7049B069A987AE12302320AA9D2B2C6
:1019C00001370B70FFB24A70D83B012800D00123C9
:1019D000039ACF7013438B700422BFE75F19300066
:1019E000FEF779FD029B002B47D0EF2B3ED9EF2469
:1019F000EF3B9BB20293F6231B1B05932A21300079
:101A000000F024FC1E4D2A4A049006212800FEF70F
:101A1000EFFC049B059A9342F0DC280006211D4A46
:101A2000FEF7E6FCE1230AA90B70631C4B70039BD5
:101A3000032230008B7000F023FC3900A2B230008A
:101A400000F01EFC280005211A4AFEF7D1FC0025F3
:101A50007A5D029B00925B190621124A0848013503
:101A6000FEF7C6FCAC42F3D13F19B8E76B461C7ACF
:101A70000223039300230293BDE70DB0F0BDC046DF
:101A8000CC3200208A1201009E120100B012010027
:101A9000C71201009C250100CC1C01006238000027
:101AA000C9120100E6120100E105183355330000A8
:101AB000FC120100FE120100F8B51F0003780400BB
:101AC0000D0016000D2B04D00B490C48FFF7CEF883
:101AD000F8BD0321200000F0C7FA08231842F8D00F
:101AE000290020003B003200FFF7C4FE04490348F0
:101AF000FFF70CF9ECE7C0462F0E0100CC320020B6
:101B00001A130100F0B50C0085B02821050000F083
:101B1000ABFA2A210190280000F098FB071E5FD045
:101B2000019B4C4E1B0703D530004B49FFF79EF835
:101B3000019B5B0703D530004849FFF797F8019BED
:101B40009B0703D530004649FFF790F83B00454A14
:101B500005213000FEF732FB2921280000F084FA2D
:101B60004149020020703000FFF71FF82378752BE1
:101B700012D86F2B07D8522B3DD0552B41D0312B8B
:101B800030D001202CE0703B1800052BF9D808F06C
:101B900073FF4FF8F8434F540120E12B20D1292146
:101BA000DF3B03AA280000F007FB210002AB1A79F3
:101BB0000831531EE38002AB5B792800237100F0EB
:101BC0007BFB3B0006213000284AFEF711FC300069
:101BD0000621E388264AFEF70BFCE088033080B23A
:101BE00005B0F0BD2921280000F03EFA214B034347
:101BF000A3800220F4E72921280000F027FBA08021
:101C0000F7E703AE022332002921280000F0D4FABE
:101C100033880320A380E3E72921280000F022FB7A
:101C2000030202D5FF231B06184360600420D7E798
:101C30002921280000F016FBF7E7032303AA292136
:101C4000280000F0B9FA02AB02AA9B799288A3712E
:101C5000A280EBE7CC3200203413010041130100D5
:101C60004F1301005C1301007C1301008913010074
:101C70009A13010000FFFFFFF0B50300CD4C58336D
:101C8000A54405921E2204901B780F001340623277
:101C90001343069300231E000293B8AD2900049855
:101CA000FFF730FF002800D17FE12B78C24C732B67
:101CB00000D17FE00BD8312B00D16FE0522B00D147
:101CC00086E002212000BD4AFEF778FA51E0742B2D
:101CD00000D192E0E12BF4D1EB88200003932A7924
:101CE000B749FEF762FF05212000039BB54AFEF7C6
:101CF00065FA330005212000B34AFEF75FFA2D791B
:101D0000EB070AD4002E08D12000B049FEF7FEFFF1
:101D10000020FB239B009D44F0BD60232A001A4055
:101D200007921D4202D0AA49A348EFE7039BF4188B
:101D300080239B009C4204DDA6499F48FEF796FF46
:101D4000E6E7A54906ABB819C918039A0BF080FF5E
:101D5000059BA6B29B7A012B01D0002ED8D0AB07F1
:101D600007D580239B00FE52813BFF3B029A1A431A
:101D70000292029B069A934200D08EE780260024AE
:101D8000B600BB5BA3423FDD3B5D06210093934A57
:101D900023008948FEF712FA0134F2E70422AB5E11
:101DA00004218F4A2000FEF709FA8E4BAA88FA52C6
:101DB000F33BDAE76B688C4A04212000FEF7FEF95A
:101DC0006B6803938123039A9B00FA500423CDE7A9
:101DD000FA20AB88C000584309F00EFFDE218905C8
:101DE00009F0F2FB0BF0A2FD804A00900191042162
:101DF0002000FEF7E3F90223B8E7042120007C4A23
:101E0000FEF7DCF90823B1E70498FEF758FB059BC1
:101E100001209B7A002B00D17BE7674D062128002B
:101E2000BB5B744AFEF7CAF9062128007B78724A28
:101E3000FEF7C4F93A797B780192FA7806212800F6
:101E400002930092BB786D4AFEF7B8F9BB5B06219E
:101E5000FB181A1F1478DA1E127824061204144391
:101E60005A1E023B12781B7814431B021C432300AA
:101E7000634A2800FEF7A2F911A801F0F5FF062138
:101E800028007B795F4AFEF799F9BB5B0621FB18B6
:101E9000053B28001B785C4AFEF790F9BB5B0621E6
:101EA00028005A4A0A3BFEF789F9BA5B7B1D039367
:101EB0000A3A2300791D11A802F006F8544A0028B6
:101EC00000D0544A28000621FEF778F902220D219D
:101ED00009AB781D02F032FC374C030006210500E7
:101EE0004D4A2000FEF76AF94C49002D34DB0D22E3
:101EF0000DA909A801F087FF06212000484AFEF736
:101F00005DF900250DABEB5C06212000454A01354B
:101F1000FEF754F90D2DF5D106212000424AFEF7B7
:101F20004DF9062120003B7E404AFEF747F9802309
:101F300038009B00FD5A1022283D290038AB143090
:101F400002F0FCFB062106000300394A2000FEF7E0
:101F500035F9002E02DA37492000EFE678AE2A0084
:101F6000310038A801F04FFF06212000324AFEF769
:101F700025F92D4A06212000FEF720F9029B7A1C44
:101F80003B700023AB4203DAF15CD1540133F9E733
:101F900080229200BB5A0848273B9BB2BB520621C5
:101FA000264AFEF70BF90120B3E6002E00D074E6B6
:101FB000AEE6C04614FCFFFFCC3200205D140100E9
:101FC000B3130100BE130100CA130100DF130100A7
:101FD0000314010099280100D102000078140100C7
:101FE0001C140100020200002A1401003C1401002C
:101FF0004D1401008614010099140100B31401006E
:10200000DA140100ED14010002150100151501009C
:1020100026150100311501003E1501005B15010078
:1020200080150100981501009C2501009D150100F7
:10203000AE150100C9150100EC15010002160100E2
:10204000702313B50A1201AC13432370FF23617090
:10205000A3700321436D200098470022014B1A8092
:10206000A07816BDFC07002037B5702902D9FFF70C
:10207000E7FF3EBDFF2501AC436D2170200002212A
:1020800065709847044923780A881B0215402B4342
:102090000B806078EDE7C046FC07002037B51024C0
:1020A0000D12644201AB2C431C7059709A700321CD
:1020B000426D180090470020014B18803EBDC0467D
:1020C000FC07002013B5702902D9FFF7E7FF16BD02
:1020D00080235B4201AC19432170436D6270200084
:1020E00002219847034B20781A7800021043188089
:1020F000EDE7C046FC070020102313B55B420C122D
:1021000023436C462370130EA370130C52BA6170F4
:10211000E3700621436DA280684698470020014B7A
:10212000188016BDFC07002007B5702902D9FFF7FB
:10213000E3FF0EBD80235B4219436B46197069466D
:10214000130E4B70130C8B70130ACB700A71436D16
:102150000521684698476B461878034B00021A78A9
:1021600010431880E5E7C046FC070020F7B50700DC
:1021700016001C000025042B19D870230A121343E3
:102180006A4613706B465170981C2200FF210BF0B9
:102190007BFDA11C7B6D6846C9B298476B46054F15
:1021A00022003000991C3D800BF052FD3D88280034
:1021B000FEBDC046FC07002073B5060015001C00DC
:1021C000702902D9FFF7D2FF76BD6B462200197045
:1021D000581CFF210BF058FD611C736D6846C9B295
:1021E00098476B46064E1B7832781B0213433380A8
:1021F0006B4622002800591C0BF02AFD3088E3E7CB
:10220000FC07002070B50C00050016000134120A0E
:10221000FFF758FF2800F2B2A1B2FFF753FF70BDDD
:1022200070B516000C000500120CD2B2FFF74AFF81
:10223000320A611C2800D2B289B20234FFF742FF91
:102240002800F2B2A1B2FFF73DFF70BD07B502232F
:1022500001AAFFF7B1FF6B466A461B7950791B0252
:1022600018430EBD13B501AC03232200FFF7A4FFF2
:102270002078637800041B021843A378184316BD26
:1022800030B5C1B01400A9236A4613706B4605002F
:102290002200581C01340BF0DBFC68466B6DE1B288
:1022A00098476B461878034B00021A781043188041
:1022B00041B030BDFC070020292310B50C000B7085
:1022C000436DD1B220009847034B187818802278CC
:1022D00012021043188010BDFC070020014B188823
:1022E0007047C046FC070020074B084A1B68D360B4
:1022F000074AD360074AD360074AD360074AD360CE
:10230000074AD3607047C046D81C0100680200200D
:10231000A0010020D800002010000020F8030020B9
:102320003003002013000021933319701100074B74
:1023300094310B604B601300E0219C33490019601D
:102340000349A43259601723138070476C003C0086
:1023500003000A00F0B50F00140085B00500406BC3
:1023600009F090FCE2697B6840355343061C2878ED
:102370002D345843400109F085FC011C301C08F045
:1023800059FF051C08F0D0F8011C08F0B7FD08F053
:102390007FFDC0B220700290281C0BF0C7FA044ADF
:1023A0000090019105210348FDF708FF05B0F0BD3D
:1023B0001C160100CC3200200F23F0B589B0039029
:1023C00008780F001400AA4D18400A2837D808F0E2
:1023D0005DFB0606363606363609093634004B688C
:1023E000E3600FE0486809F04DFCFE21061C8905FA
:1023F000606808F083FD011C301C09F0E5F808F066
:1024000047FDE0600521E36828004B43994A2361BA
:10241000FDF7D4FE0F23387818400A2800D912E1BE
:1024200008F03EFB15001500110111011500110106
:10243000110104010401110104018B8AD0E7052177
:1024400028008D4AFDF7BAFE7B689B00C8E78B4ADF
:102450007B689B188A4A934200D8E5E06361039B3E
:10246000666940330493187809F0C6FB051C3000F8
:1024700009F008FC011C281C09F0A6F89321C905E5
:1024800009F0A2F8039B051C586B09F0FBFB011C2B
:10249000281C08F0CFFE0BF049FA0022794B09F016
:1024A0002DFC08F00DFD724D774A0521A061330027
:1024B00000902800FDF782FE039B586B09F0E2FBB9
:1024C0000BF034FA06900791049B18780BF0D8F9BA
:1024D00000226E4B0AF082FB0490059120690BF0FC
:1024E000FFF902000B00049805990AF077FB02003F
:1024F0000B000698079909F06BFF0022614B09F069
:10250000FDFB08F0DDFC7F2800D9A3E0E0617B7AC9
:10251000012B01D11333E3615D4A05212800E369F2
:10252000FDF74CFE7B680493039B586B09F0AAFBF4
:102530008621C90509F048F8039B069040331878B6
:1025400009F0A0FB061C049809F09CFB011C301C40
:1025500009F03AF8061CE06909F094FB011C301CF4
:1025600009F032F8011C069808F064FE0BF0DEF961
:102570000022444B09F0C2FB08F0A2FC049B20623D
:1025800005210090434A2800FDF718FEFB69002B47
:1025900003D1414B1B680493FB61FE69300009F0D5
:1025A00071FB9721C90509F00FF8039B051C586BB7
:1025B00009F068FB011C281C08F03CFE0BF0B6F982
:1025C0000022304B09F09AFB08F07AFC284D60623B
:1025D0003300324A009005212800FDF7EFFD0F225D
:1025E0003B781340082B3DD8062B3DD92C49606819
:1025F00008F0EAFF08F04CFC012302009A43294B43
:1026000005210340A2622800274AFDF7D7FDA36AEF
:102610000521DB432800254A9BB2FDF7CFFD0023AF
:102620002C34237009B0F0BD214B17E7E368214A31
:10263000934206D963617B7A012B00D00FE71E4BD2
:102640000CE71E4BF6E7052128001D4AFDF7B6FDF5
:10265000E36803E77F23052128001A4AE361FDF7B9
:10266000ADFD54E70A2BC1D08023A362D7E7C04653
:10267000CC3200206B16010035160100581B0000FB
:10268000A32400000000E03FB61601000000304027
:10269000F216010004170100D01C01001F170100F1
:1026A00000008243FEFF00003E17010059170100A1
:1026B000A42400006B0C0000E02E00006C0C000055
:1026C00080160100D4160100F0B589B006930EAB58
:1026D0001B7805900393030004914033187814008D
:1026E0000BF0CEF8C022B64BD2050AF077FA049B65
:1026F000060058680F000BF0F3F802000B003000E2
:1027000039000AF06BFA059B0600586B0F0009F0C0
:10271000B9FA0BF00BF902000B003000390009F098
:1027200057FE0BF04BF9011CFE20800509F066F8FE
:1027300007F004FF011CFE20800509F05FF807F098
:10274000F3FE80231B06C01808F0A2FBC0B2207065
:10275000049B033060705B7A012B01D1994B23807D
:10276000039B022B0CD0032B43D02378082B01D9D9
:102770000823237063780E2B04D90E23637001E0C5
:10278000914B2380914D05212800039B904AFDF732
:1027900015FD627823780521009228008D4AFDF707
:1027A0000DFD039B0427002B03D00C37012B00D019
:1027B0001037069B1E6A300009F064FA0790380053
:1027C00009F060FA011C079808F034FD08F060FB7E
:1027D000814BF318984213D26060049B5B7A012B03
:1027E00018D1039B002B12D0012B3CD0F0235B00AF
:1027F0000FE0237802332370637802336370B4E709
:1028000005212800754A6360FDF7D8FCE5E7F02351
:102810001B016360636805212800714AFDF7CEFC47
:10282000039B8026002B03D0012B1FD08136FF365F
:10283000069B186A09F026FA051C300009F022FAF6
:10284000011C281C08F0F6FC08F022FB049BA06089
:102850005B7A012B0FD1039B002B0AD0012B00D1F7
:1028600088E0122306E0F0239B00D2E78026760062
:10287000DEE73C23A360554FA3685A4A0521380080
:10288000FDF79CFC049B1A780B231A4274D1C023D9
:102890009B000F22A381544BE381049B1B781340C0
:1028A000049A5568082B69D8062B69D9059B586B83
:1028B00009F0E8F9061C059840300078684380006C
:1028C00009F0E0F9011C301C08F0B4FC07F02CFE04
:1028D0000BF02CF8454B002209F010FA08F0F0FA42
:1028E000039BC5B2023B012B00D80435049B1B7A25
:1028F000002B00D002350D2D00D90D252B003C4AB0
:1029000005213800FDF75AFCEDB2049B257465746F
:102910001A780B231A423AD1B533E374039B012B87
:1029200030D9023B012B30D90F22049B1B78134076
:10293000082B2FD8062B2FD9039B022B2FD8002B27
:102940002AD08621069BC905586808F03DFE0AF08A
:10295000EDFF284A284B0AF041F9244B002209F0E8
:10296000CDF908F0ADFA049BA0825B7A012B19D156
:10297000423312E01E237DE7204B8AE70A2B95D0D5
:10298000AD0093E70223A374CEE70823FBE70623F9
:102990006382C9E70A2BCFD00023A38202E0039B06
:1029A000032BF9D0A38A094C05212000144AFDF716
:1029B00005FC05212000134AFDF700FC09B0F0BD1D
:1029C000FB216940050C00000F0F0000CC320020F5
:1029D000741701008617010000F0FFFFA617010021
:1029E000C2170100D11701000F1F00000000E03FD7
:1029F000E41701009A9999999999E93F0303000016
:102A00000218010013180100F7B514000F220B780B
:102A100006000D001340082B06D00A2B07D0072B09
:102A200050D1FC239B0500E04B6963600EE0888A6F
:102A300009F028F9011C08F061FA071C686809F020
:102A400021F9011C381C08F0F5FB606060680AF091
:102A50006DFF274F00900191264A38000521FDF7B0
:102A6000ADFB01232200238129003000FFF7A4FCE5
:102A7000220029003000FFF76DFC380027000521F7
:102A80001D4AFDF79BFB2B7C7837002B1CD00323C2
:102A90003A002900300000932300FFF715FE2300C1
:102AA000A022903312011A801F22290030009A7050
:102AB0002200FFF737FC23000122A7331A705123AD
:102AC0002370F7BD0023B0E72200290030000093F7
:102AD00030322300FFF7F8FD012322000093290084
:102AE000230030004832FFF7EFFD0223D0E7C04655
:102AF000CC320020171801001318010010B50A008D
:102B0000032101F0D9FF10BD10B50A00012101F029
:102B1000D3FF10BDF0B585B00A9D019028001C00C0
:102B200002910392002702F0D1F8029BB14E9F421E
:102B300000DB52E1019BB04A04213000DB5DFDF770
:102B40003DFB019BD85D0CF0C1F80322AB4B203854
:102B50001B68534300935A2800D938E107F0A0FFBF
:102B600033013701370137013701370137013701A9
:102B70003701370137013701370137013701370195
:102B80002901D900E7006400F400FE0008011601E5
:102B90005B001F013701370137013701370137016A
:102BA0003701370137013701370137013701370165
:102BB0003701370137013701370137013701370155
:102BC0003701370137013701370137013701370145
:102BD0003701370137013701370137013701370135
:102BE0003701B2001A017500980081008600A50027
:102BF0008B009C00EB00AE00940070007D00EF00A5
:102C0000A100AA0079008F00B600CA00C6006C00BF
:102C1000CF00D4005F0021002800FFF76FFF2100E4
:102C20002800FFF76BFF33E021002800FFF76CFF5F
:102C300021002800FFF768FF21002800FFF764FF4C
:102C400021002800FFF75AFF40E021002800FFF78D
:102C500055FF21002800FFF757FF21002800FFF74C
:102C60004DFF21002800FFF74FFF33E0210028002F
:102C7000FFF74AFFEDE721002800FFF745FF21009D
:102C80002800FFF741FF07E021002800FFF73CFF85
:102C900021002800FFF732FF21002800FFF734FF52
:102CA000DFE721002800FFF72FFF21002800FFF7B2
:102CB00025FFD2E721002800FFF720FF2100280090
:102CC000FFF71CFF21002800FFF71EFF210028004E
:102CD000FFF714FF009806F0D1FF0398FDF71CFAE8
:102CE0000121200000F0A4FF01371EE72100280089
:102CF000FFF70AFF21002800FFF706FFE2E72100A7
:102D00002800FFF7FBFEF5E721002800FFF7F6FE9D
:102D100092E721002800FFF7F7FE0426013E21007C
:102D20002800F6B2FFF7EAFE002EF7D1D2E7210025
:102D30002800FFF7E9FE21002800FFF7E5FE21004B
:102D40002800FFF7DBFE7BE70426013E2100280078
:102D5000F6B2FFF7D9FE002EF7D1B7E70526013E00
:102D600021002800F6B2FFF7CFFE002EF7D1B1E721
:102D700021002800FFF7C2FE0426013E21002800A2
:102D8000F6B2FFF7C1FE002EF7D1A3E7210028001D
:102D9000FFF7B4FE21002800FFF7B0FE6FE704261E
:102DA000013E21002800F6B2FFF7A8FE002EF7D161
:102DB00057E70526013E21002800F6B2FFF79EFEE8
:102DC000002EF7D186E7009806F058FF82E702212F
:102DD0000B4A0848FDF70CFB7CE7280002F05EF880
:102DE000FFF77CFA05210300064A3000FDF7E6F9FB
:102DF00005B0F0BDCC32002031180100DC1C010010
:102E0000481801005618010010B51C0002AB100054
:102E10001B780A00210002F0E7FAFF2803DD2000FA
:102E2000014906F0B2FD10BD6318010030B58024E1
:102E30000300114AA40180581D190130A8420FD087
:102E4000985080249858A40101700C48195AA14246
:102E50000AD15A580132954204D05A50002030BD50
:102E60009B50EEE75B50F9E74D1C1D5201200029F5
:102E7000F5D19A581A51F2E704200000082000000A
:102E800070B50C000B4B20001E7800253100FFF7B9
:102E9000CDFFAA212000FFF7C9FF074B2000595D95
:102EA0000135FFF7C3FF062DF7D131002000FFF7F2
:102EB000BDFF70BDD41C0100E01C010010B50A006C
:102EC0000421FDF77BF910BD10B513000A000421A1
:102ED000FDF774F910BD000070B51E000B00FC3347
:102EE000150000210A22D8680BF0DAFE04006328DE
:102EF0000BDD6324220007490748FFF7E5FF320096
:102F00002800210002F032F870BD0028F2DC012414
:102F1000F0E7C04686180100CC320020F0B5100062
:102F200085B00C000393150001F0BEFDFC340A22AD
:102F300000210290E0680BF0B3FE0A220700002196
:102F4000A0690BF0ADFE0A2206000021606A0BF0BA
:102F5000A7FE0A2200210090206B0BF0A1FE009931
:102F60000400F01B07F030FE3449020001903448A1
:102F7000FFF7AAFF334BFA18334B9A4200D9334F6D
:102F8000334B344A0093964203DD00969E4200DDA7
:102F90000093FA239B009C4242DB2F4C390028000F
:102FA00001F0FAFE280001F091FE009BBB423BDBE2
:102FB0003A002A492248FFF787FF3900280001F02C
:102FC000EBFE061EF9D1280001F052FE2200244932
:102FD0001B48FFF779FF0121132007F025F9012194
:102FE000202007F021F90121052007F01DF920001C
:102FF00006F044FE3100052007F016F931001320D9
:1030000007F012F93100202007F00EF915490C489D
:10301000FFF754FF0398FDF77FF8019BFF18C4E703
:103020000A2CBBDA0A24B9E7280001F037FF280090
:10303000029901F0B1FE05B0F0BDC046951801003F
:10304000CC320020007C28E8405973070084D71751
:1030500040DD4A1FFF83D717E7030000A5180100D2
:10306000BD180100DA18010073B516008A680B7BE1
:10307000002100926A4668461371517110220BF0CC
:103080000FFE0400094D020009492800FFF71CFF4C
:103090002100300001F07DFD040003000421280020
:1030A000044AFDF78BF8200076BDC046CC320020E4
:1030B000FC200100E1180100F0B510008BB00D00FC
:1030C0000993140001F0F4FCFC350A22002107905A
:1030D000E8680BF0E5FD0A2207000021A8690BF063
:1030E000DFFD0A2200210490686A0BF0D9FD0A2254
:1030F00006000021286B0BF0D3FD049B3100050076
:10310000D81B07F061FD4449020006904348FFF7D1
:10311000DBFE434BFA18434B9A4200D9424F434BD4
:10312000434A04990393914203DD0391994200DDE0
:103130000393FA239B009E425CDB3E4A04929D422D
:103140005DDB3C4E3900200001F0A2FD200002F0C2
:10315000D9F8039BBB4257DB304D3A002800364973
:10316000FFF7B2FE3900200001F092FD200001F0CF
:1031700053FD05210300314A2800FDF71FF83200F6
:1031800028002F49FFF7A0FE06F042FD089001201D
:1031900006F074FD00231D000593200001F0CAFC19
:1031A000059B05211B18274A059300902B001B48FF
:1031B000FDF704F8322006F061FD06F029FD089BBA
:1031C0000135C01AB042E8D32A001F491348FFF75F
:1031D0007BFE2900059807F06DFC3B0004211B4A8B
:1031E00000900E48FCF7EAFF0998FCF795FF069B54
:1031F000FF18AEE70496002EA1DC01229EE72E0008
:103200000A2D9FDA0A269DE72000079901F040FD6C
:1032100004980BB0F0BDC04695180100CC320020D8
:10322000007C28E8405973070084D71740DD4A1F07
:10323000FF83D717E7030000F61801000E190100FD
:10324000411901006119010071190100891901007A
:1032500010B508000C0001F0DFFC05210300044A52
:103260000448FCF7ABFF200001F064FC10BDC04631
:10327000A3190100CC32002010B5FFF7E9FF0200CE
:10328000002379320FDB0200093348320BDA0621C2
:1032900007F09AFC0AF0F4FA044B002208F02EFD25
:1032A00007F00EFEC3B2180010BDC0460000354046
:1032B000F0B506000D0000218BB0049310AB80CB5D
:1032C00003921B78082208A8059307910AF0DCFCFA
:1032D00039003000FFF7D0FF059B07AC2030A0720B
:1032E000002B07D006F094FC194B984202D8A37A21
:1032F0000A33A372A37A1033DBB2392B25D007220D
:1033000020001449A3720AF0A3FC134E07233000D7
:103310000521124AFCF752FF2023A3712B7A3000BB
:10332000E3716B7A05212372AB7A0D4A6372002335
:10333000E3722300FCF742FF0C212000049B039A58
:103340000097FFF7E7FB0BB0F0BD6E23D7E7C04651
:10335000C0655200E01C0100CC320020C9190100F8
:10336000DF190100F7B50F7A1500092F26D83800AC
:1033700008F088FC134908F027F9134907F05AFFB1
:10338000041CA023114E9B003000EC50104A3B005F
:103390000421FCF713FF201C0AF0C8FA0D4A009024
:1033A000019130000421FCF709FF280001F076FDAF
:1033B00030000949FFF782FD201CFEBDFE24A40554
:1033C000DFE7C046000020410000C842CC320020A8
:1033D000F31901000C1A0100281A0100F7B51C00AE
:1033E0000B00FC33150000210A22D8680BF058FCB2
:1033F0000700280001F0D6FB144E03000421300022
:10340000134AFCF7DBFE280001F0CCFBB84211D1D7
:1034100030001049FFF752FD6B46200062692169B8
:10342000DF7103F081FE6A4620006369216907327B
:1034300003F02EFEFCB22800210001F00BFC30004E
:103440003A000549FFF740FD2000FEBDCC320020C8
:10345000361A01004A1A01005D1A0100F0B585B064
:1034600003930B00FC33170000210A22D8680BF0ED
:1034700017FC041E00D101341D4D23000421280037
:103480001C4AFCF79BFE06F0C3FB0290FA2080006A
:103490006043002426000190380001F04BFB3618F1
:1034A000642006F0EBFB0398FCF736FE06F0B0FB59
:1034B000029B0134C01A019B9842EDD321003000D9
:1034C00007F0F8FA07000300042128000A4AFCF775
:1034D00075FE330028000521084AFCF76FFE28001E
:1034E00023000521064AFCF769FE380005B0F0BD4F
:1034F000CC3200207C1A0100931A0100A91A0100A5
:10350000B81A010013B5082407490848FFF7D6FC8C
:103510002200684606490AF09BFB220069460548DE
:1035200004F070FA13BDC046C41A0100CC3200206A
:10353000AD1C0100AC3D0020F0B50D0087B0FC359E
:10354000E8680091140000210A2201930BF0A8FB07
:10355000254F0200060025493800FFF7B5FC0A2276
:103560000021A8690BF09CFB2149020005003800EE
:10357000FFF7AAFC1F49204B72189A4202D86A181A
:103580009A4203D9FFF7BEFF07B0F0BD310020001B
:1035900001F002FC2900200001F07AFB200001F07C
:1035A00083FA164902003800FFF78EFC200001F074
:1035B0007FFA134902003800FFF786FC3100200033
:1035C00001F0EAFB2900200001F062FB009903A84A
:1035D000083106F085F9019803A906F0CEF903A891
:1035E00006F036F9D0E7C046CC320020CD1A0100F3
:1035F000E91A0100007C28E840597307041B010008
:10360000251B010070B50B7A1400134D002B11D14E
:10361000C82212499D239B00E0180AF019FB2000E4
:1036200001F03CFC0E4B28000521E35C0D4AFCF741
:10363000C5FD70BD012B02D1C8220B49EAE7022B60
:1036400002D1C8220949E5E702212800084AFCF70F
:10365000B5FDFFF757FFE5E7CC320020A0010020C1
:1036600076020000621B0100680200203003002087
:10367000451B0100F7B51D000B00FC33D868002185
:1036800016000A220BF00CFB0400300001F00CFACB
:103690001E4F02001E493800FFF716FC1D4BE218B2
:1036A0001D4B9A4204D9FFF72DFF00242000FEBDD8
:1036B000300001F0F9F9A0420FD138001749FFF7A7
:1036C000FDFB28006A692969019403F02DFD28009B
:1036D0006B69296901AA03F0DBFC38001049FFF788
:1036E000EDFB2100300001F057FB38000D49FFF7DA
:1036F000E5FB2100300001F0CBFA300001F0D4F9F5
:10370000094902003800FFF7DFFBCFE7CC32002089
:10371000701B0100007C28E8405973074A1A010019
:10372000841B0100A51B0100C51B01007FB50E0015
:1037300014000F210E2268461D00FCF7E1FD6846CB
:10374000FCF7E1FD317A0B00413B022B02D9FFF778
:10375000D9FE7FBD2B0022006846FCF77BFEF8E710
:1037600030B506250C0085B014491548FFF7A6FBB7
:1037700014492A00083102A80AF06AFA230003213A
:10378000114A01A80BF07CF96A46104B104C1B78CB
:1037900002A9137020002A0004F034F901A80BF0EC
:1037A000CBF901A90200200004F02CF9012269469E
:1037B000200004F027F905B030BDC046C51A01004D
:1037C000CC320020AD1C010083170100491D01000F
:1037D000AC3D002070B506260C00B6B01C491D4853
:1037E0001500FFF76BFB1C4932000E3102A80AF0EE
:1037F0002FFA23000321194A01A80BF041F96A4668
:10380000174B28001B7804A91370AB685A1C0023BF
:1038100006F054F9134C320002A9200004F0F2F82B
:1038200001A80BF089F901A90200200004F0EAF8D0
:103830002021200005F090FEAA6804A9200004F0D1
:10384000E1F801226946200004F0DCF836B070BDD2
:10385000E31B0100CC320020AD1C010083170100E6
:10386000491D0100AC3D0020F0B515008DB01F00D2
:1038700014AB1B780391049318AB1B78AE4904007A
:1038800006A80593139E06F02BF8AC49AC48FFF749
:1038900015FBAB4804212B78AA4AFCF78FFC28784B
:1038A000073818281DD807F0FBF81900310044002C
:1038B00054005F0072008B009A001C001C001C006A
:1038C0001C001C001C001C001C00A700BA00C90042
:1038D000D600E600FE002A011C0038016B68062BAA
:1038E00002D0FFF70FFE0CE007212000FFF738FFA2
:1038F000059B3A00019329002000129B0096FFF7D8
:10390000D7FC06A805F0A4FF0DB0F0BD6B68042B32
:10391000E7D108212000FFF723FF3A00290020000B
:1039200006ABFFF703FF2000297806AAFFF752FF36
:10393000E7E76B68032BD4D120000921FFF710FFC4
:10394000049B320000932000129906ABFFF75CFA4B
:10395000E9E76B68032BC4D120000A21FFF700FFC1
:10396000794806F08BF9CCE76B680C2BB9D10B21A9
:103970002000FFF7F5FE320029002000159BFFF71D
:1039800079FE01000A2209A806F021F810E06B6810
:10399000042BA6D10C212000FFF7E2FE3200290003
:1039A0002000FFF72FFE0A22297A09A805F0FEFF62
:1039B00009A906A805F0E1FF09A805F049FFB2E74B
:1039C0006B68162B00D08CE720000D21FFF7C8FE96
:1039D00032002900200006ABFFF7AEFDA3E76B68BD
:1039E000032B00D07DE720000E21FFF7B9FE200059
:1039F0000399FFF745FA84E76B68052B00D070E761
:103A000017212000FFF7ACFE29003B003200200008
:103A1000FFF762FA4D4906A805F0B7FF83E76B6828
:103A2000052B00D05DE720001821FFF799FE3B0031
:103A3000320029002000FFF711FDA2E76B68032B7D
:103A400000D04EE720001921FFF78AFE3100200048
:103A5000FFF7FEFB95E76B681E2B00D041E71A21AC
:103A60002000FFF77DFE29003B0032002000FFF719
:103A700055FA3749CFE76B681E2B00D031E720009D
:103A80001B21FFF76DFE334906A805F07EFF2000DD
:103A9000297806AAFFF79EFE3B003200290020008D
:103AA000FFF70AFB2DE76B68062B00D019E7200013
:103AB0001C21FFF755FE320029002000FFF7D4FA41
:103AC0000600254906A805F060FF0222310009A87A
:103AD00005F07DFF09A906A805F0D0FF09A805F0AB
:103AE000B7FE1E4906A805F0CFFF3100102209A835
:103AF00005F06DFF09A906A805F0C0FF5CE76B683B
:103B0000042B00D0EDE620001D21FFF729FE320036
:103B100029002000FFF726FCF3E66B68062B00D097
:103B2000DFE620001F21FFF71BFE320029002000E6
:103B3000169BFFF753FCE4E69E250100FA1B0100EB
:103B4000CC320020141C0100B80B0000261C010020
:103B5000371C0100641C01007F1C0100961C010041
:103B600010B5054C0549200005F0BAFE2000044AB6
:103B7000044906F0D1FC10BD00080020C11C010062
:103B8000000000205198000010B58360084B0160D0
:103B90004361084B42600361074B04000362074B1B
:103BA0008361074BC36106F033F86062200010BDEB
:103BB0005C8F2A4200202E453333533B000048449B
:103BC0000000484210B504000021406806F0FCFAED
:103BD0000021A06806F0F8FA10BD000010B504003E
:103BE000006806F079FA08F007F8216A07F0ECFCA3
:103BF0000A4907F0E9FC616907F000FE216907F056
:103C000019FB09F093FE064B002208F0E7FF09F0CC
:103C100001FEA36A834200DAA06210BD00007A446C
:103C200000408F40806A7047002383627047000025
:103C3000F0B50400C66987B0002900D08669206805
:103C400006F04AFA039007F0D7FF216A07F0BCFCA0
:103C5000314907F0B9FC6169071C07F0CFFD216904
:103C600007F0E8FA2C4907F0AFFC051CA06A07F042
:103C7000C3FF291C07F0E4F8002803D0281C07F034
:103C80009BFFA062291C301C07F0DAF800283BD00B
:103C900005F0BEFF636AC01AFA235B00984238D968
:103CA00003221E4905A809F0D3FF032205A91C48D9
:103CB00003F0A8FE281C09F039FE1A4E009001916D
:103CC000194A06213000FCF793FB206A09F02EFE0A
:103CD000164A0090019106213000FCF789FB381C40
:103CE00009F024FE124A0090019106213000FCF7F1
:103CF0007FFB06213000039B0E4AFCF779FB05F0A1
:103D000087FF6062012005E0606806F0B9FA0028CC
:103D1000BED0002007B0F0BD00007A44471D01006E
:103D2000AC3D0020CC320020F41C01000E1D01002F
:103D3000221D0100351D0100F0B585B000910290F3
:103D400000210098019209F09FFF00200F2380229C
:103D500001000125019CA04235DA08248026A446F2
:103D60001C00029B1B5C33405F1EBB4180276340ED
:103D7000BF005B023B400393102327011F40039BBE
:103D800067403B435B10002801D1042E01D0002D79
:103D900010D125116C4001252C4204D0009C009DBF
:103DA000645C14436C5400255210AA4202D11500E1
:103DB0008022013101246442A44464467610002C20
:103DC000CED10130C6E7802080000524102784462C
:103DD000664618011D11384058405D405B02334073
:103DE000034301205B10054204D00098009D405C15
:103DF00010436854521001D101318032013C002C33
:103E0000E6D105B0F0BDF7B50C000600002120009A
:103E1000150009F039FFF823220000965B00111B02
:103E20008D4220DD08278026009909783140481E00
:103E30008141080058405B109C46019060460B028F
:103E400003430120C9004B400199014202D011787F
:103E500031431170013F7610002FE5D100990132F6
:103E600001310091DBE7F7BD10B5040010220749CE
:103E700009F0EEFE200080220549103009F0E8FE2E
:103E80002000983002F0F6FD200010BD6A1D0100F0
:103E90007A1D010010B50400983002F0AFFE030057
:103EA000020B92B2A05C19000F221140615C000667
:103EB0000843191211401B11615C1340E35C0904B3
:103EC00008431B02184310BDF7B516001A0E8218DE
:103ED000040001911800117CFF220F2710402018C8
:103EE000007C09033840F0270843190C11401B0AD5
:103EF00061181340097CE3181B7C3F01090239401B
:103F00001B01134008430E4F184385B22B003800A5
:103F100006210C4AFCF752F9200032000199983032
:103F200002F06CFE90340300208004213800064A21
:103F3000FCF744F92088401B43425841C0B2FEBD03
:103F4000CC3200204B1D01005D1D010003004268C2
:103F5000080010B5824206D8801A01001C68104083
:103F600021410818F6E710BDF0B5D14CA5440293E5
:103F70004369040001930023079204910DAA01995B
:103F80008B4217D163680093049B5E1C049B009ACC
:103F9000F31A9A4213D800273A000DAB0693019901
:103FA0008A4228D01978E0680F43415C01321970C9
:103FB0000133F4E70499097899540133DFE70025C8
:103FC000019B9D4215D00DABEA5C3778002A0CD0DE
:103FD000237E617E5B195943E36820009B5CC9180E
:103FE000FFF7B4FFA3681B5C5F400DAB5F55013565
:103FF000E6E70136CAE7002F00D149E1C5200125D7
:104000000CABC0180021019A09F03EFE029B3DAEA8
:104010003570002B34DCE368019A039300230132EE
:1040200008923DA84EAA08998B4268D3029A029B37
:1040300094460A930DAB634409930592029B0133A6
:104040000293029A019B934200D2C5E000263500FC
:10405000029B9D4259DA3DABEA5C002A0ED00999D9
:104060006B42CB5C0099994208D003992000895C8F
:10407000C918FFF76BFFA3681B5C5E400135E7E7DB
:10408000A36820000393637E0593079B1B68D943B5
:104090000893009BC918059B5943FFF757FF039BE3
:1040A0001B5C7370E3680993029B9D42B3D0079930
:1040B000AA00009B8958013B591A059B20005943CF
:1040C000FFF744FF6F1C3E003DAB08905D19099A55
:1040D0002B78013ED35C009A9A420BD0FF220899BC
:1040E00020001140C918FFF731FF039B6A781B5C61
:1040F00053406B70013D002EE9D13D00D4E7195CBF
:10410000039D695C995401338DE7039B9E5D009B81
:10411000B3420ED10A200CAB4EADFF30C0182900BF
:10412000019A09F09EFD009B2B70099B01330993B6
:1041300084E700253DAB1A785FAB1A70019B9D4266
:1041400014D084220CAB52009B18595D3DAB013555
:10415000EF5C009B8B4206D020007118FFF7F6FE43
:10416000A3681B5C5F405FABEF54E7E70A9A029BD2
:104170009B18059A520093421FDD0025059A9B1A51
:1041800005933DABEB5C002B0DD16B4618784EAB25
:104190005855019B0135AB42F3D2089A5FA93DA85F
:1041A00009F056FDC1E7039A2000D15C009B891BF2
:1041B000C918FFF7CBFEC0B2E9E70A200CABFF300D
:1041C000019AC0184EA909F04CFD84220CAB520094
:1041D0009B18009A1A70E0E700233DAA0293995CAD
:1041E0000398415C00989954884200D00293089942
:1041F00001339942F3D8D620C521002701260CAB04
:10420000FF30C918C018019A09F022FDA37E099356
:10421000013B0593009BB34235D30123029D0893D4
:10422000002D19D0EA230CAA5B00D218515D009A28
:104230008A420FD020004919FFF788FEEA230CAA12
:104240005B00D3185855FF231840A368089A1B5CDD
:104250005A400892013DE3E7089B002B08D11DABB3
:10426000059ADE552DABDA55029B0137BB4221D0B2
:10427000099A059B9446634419002000FFF766FEE7
:1042800001360590C6E7029BBB4213D001277F424F
:10429000079B002B00D1B6E000232DA8BB4200DB1A
:1042A000B1E0195C079C9A00A1500133F6E7C046C3
:1042B000B4FDFFFF00250995019B9D4229D0029E78
:1042C000AE4200DD2E0000230593069A7342D15CB6
:1042D000009B8B420DD03DABF35C009A9A4208D014
:1042E000C9182000FFF732FEA368059A1B5C5A40EC
:1042F0000592013EE9D2059B002B00D00995039B56
:10430000059A9A5C70ABEA54069B0135013306931B
:10431000D2E7009A70AB5A557A1E94467B1E0193E1
:104320001DAB63440693019B002BB1DB6368099DC1
:104330000093A3680593069B1E780023039370AB3C
:10434000EB5C009A93420AD0290071432000C918FF
:10435000FFF7FCFD059B039A1B5C5A400392013D4D
:10436000EDD2217E009B013971432000C918FFF76F
:10437000EDFD63690A905D1E029B9D4200D91D0000
:1043800001239D4373006E43089600265B420B9306
:104390003DABEB185978009B8B4207D0089B20005F
:1043A000C918FFF7D3FD059B1B5C5E400B9A089B69
:1043B0009446023D63440893AB1CE9D1002E00D122
:1043C00064E7039B002B18D00A99059AE368525CB6
:1043D0002000995C039A9A5C9B5D8918009A891861
:1043E000C91AFFF7B3FD019A2DABD25C0499059B66
:1043F000895C1B5C4B4004998B54019B013B0193EE
:10440000069B013B8EE7380093239B009D44F0BD43
:10441000F0B504001500344F85B03800334A0391DD
:104420000621FBF7CBFE00216269280009F02CFC75
:10443000062138002B782E4AFBF7C0FE06213800F3
:1044400063692C4AFBF7BAFE6368062138002A4AE2
:10445000FBF7B4FE00230193626863690199D31AE4
:104460008B423AD9039B5B5C29784B40E168CB5C7B
:1044700002939A4212D001266369B3420ED922698F
:104480009B1BD15C029B2000C918FFF75FFDA3684E
:10449000AA5D1B5C5340AB550136EDE7636928000C
:1044A0005A1E691C09F0DDFB029B626893420FD023
:1044B000236920001978029BC918FFF747FDA368FC
:1044C0001A5C6369EB18013B1A70019B0133C2E768
:1044D00063690022EB18013BF6E706213800074A22
:1044E000FBF76CFE05B0F0BDCC320020FA1D0100D8
:1044F0000E1E0100181E0100261E0100301E0100C4
:10450000F0B585B0070002910192009308284DD8BC
:1045100001252E008640964248D9009B002B45D0AD
:104520009E4243D90A9B9E4240D91C21280009F093
:1045300009FB041E07D152480121524AFBF73EFEF7
:10454000012009F01DFB731E076043602900300045
:10455000039309F0F7FA071EA060ECD029003000A1
:1045600009F0F0FAE0600028E5D0731E0370002324
:10457000721EBB542F0062689A420CD9E268D35570
:10458000A268D7547F00374201D0029A5740626830
:1045900001331740EFE7012F0CD0A06809F04EFB64
:1045A000E06809F04BFB200009F048FB00242000E4
:1045B00005B0F0BD0A9B3900581C09F0C3FA206110
:1045C000002807D12E4839002E4AFBF7F7FD2E4868
:1045D00005F054FB019B2376009B63760A9B636185
:1045E0003800009906F0ECFA0D1E02D06368FF183F
:1045F000F6E7012322690099A0761370019A0393CC
:104600004A4301920A9BAB422FD02E002369039AA2
:104610005B195A702769002E15D0BB190293029AB4
:10462000BB5D013A1778002B09D0E2682000D15C0D
:10463000019BC918FFF78AFCA3681B5C5F40029BC3
:10464000013E1F70E6E7E2683B782000D15C019BE9
:104650000135C918FFF77AFC009AA36894461B5CE1
:104660003B70019B63440193CCE700230A9A9A4272
:104670009DD32269E068D15C415CD1540133F5E7F8
:10468000CC320020451E0100B80B000037B50025D4
:10469000074C236901350093E368A26861682068CC
:1046A000FFF72EFF60611834052DF2D137BDC046EB
:1046B000C00400200E4A70B50300002415001169E3
:1046C00099420AD123000B4806210B4AFBF776FDDD
:1046D00018235C432C19606970BD01341832052C15
:1046E000EDD104480221054AFBF782FE6869F3E731
:1046F000C0040020CC320020631E0100731E0100A4
:10470000F0B5FF2415000E000700C3B02200002101
:1047100002A8019309F0B8FA601B02AB801B3200BB
:104720003900C01809F094FA2800FFF7C3FF019A76
:1047300002A9FFF76DFE43B0F0BD0000F0B5FF2603
:1047400005001F4C8F18A5441400F61B320002917F
:1047500004A80021039309F097FA04AAB3181800DB
:104760003A002900019309F073FA164D0621164A02
:104770002800FBF73DFE44AF2000FFF79BFF00231E
:104780003A0004A9FFF7F0FB029A0400019903988C
:1047900009F05EFA0023A34207DA9A00BA5896425B
:1047A00001D80133F7E701246442280023000621E1
:1047B000064AFBF71DFE200085239B009D44F0BDAB
:1047C000ECFDFFFFCC320020C21E0100131F0100D0
:1047D00070B5050006000023040009353936436032
:1047E000FF35FF36280006490C3505F079F8AE4252
:1047F000F8D123000022FC332000DA6370BDC046EC
:104800009E250100822270B580249200815AA40066
:1048100003000059002901D1007870BD8026451C95
:10482000B6001D519E190078B54200D31B510139C5
:104830009952F2E7F0B50400002605008BB0FC3475
:104840004149E66301A805F04BF8290004A80831A6
:1048500005F046F83D4907A805F042F8320007A9DF
:1048600004A805F045F9070007A804F0F1FF7B1C38
:104870001AD032003B0004A907A805F049F907A99E
:1048800001A805F07AF807A804F0E2FF0C23E06B1A
:1048900001A958430930FF30281805F054F8E36B9C
:1048A0007E1C0133E363D5E7069B002B14D00C2755
:1048B000E26B04A957430937FF37320007A8EF1905
:1048C00005F026F907A9380005F057F807A804F005
:1048D000BFFFE36B0133E3631D4E05213000049BF2
:1048E0001C4AFBF76BFC052130002B781A4AFBF7BA
:1048F00065FC05213000E36B184AFBF75FFC0521DE
:104900003000174AFBF75AFC0027E36BBB420CDD73
:104910000C222B007A430933FF339B5805213000CA
:10492000104AFBF765FD0137EFE705210E4A30001D
:10493000FBF75EFDE46B04A804F08AFF01A804F015
:1049400087FF20000BB0F0BD9E250100C84101008B
:10495000CC320020701F0100821F0100951F010052
:10496000A51F0100201501009C250100F7B50D00D1
:10497000040008000192FFF745FF2800FFF742FFFF
:104980002A4E0300207005213000294AFBF716FC4F
:104990002778AA2F25D1274B01981978FEF746FAD8
:1049A00039000198FEF742FAA83F6368BB4208DD70
:1049B0002800FFF727FF01000198FEF737FA0137BB
:1049C000F3E7052130001C4AFBF7F8FB019A1B4B6B
:1049D0000521D35A30001A4AFBF7F0FB00252800C6
:1049E000FEBD06273000052126006368154AFBF747
:1049F000E5FB7F4208363F1B6368BA19591E914296
:104A000005DD2800FFF7FEFE30700136F4E70022D6
:104A1000E31828005A71FFF7F5FE63680125032BA0
:104A2000DDDD2000FFF706FFD9E7C046CC320020CD
:104A30009D140100D41C0100B21F010008200000D9
:104A4000C61F01000816010070B5040002251548B4
:104A5000255421382150D02189006250D122920062
:104A6000A350D223049A9B00E250059A0433E250EB
:104A7000069A0433E250079A0433E250089A04334A
:104A8000E250513BFF3BE0186C22002109F0FCF89A
:104A90009D239B00C8220021E01809F0F5F82000B2
:104AA00070BDC0465D03000083239B00C058704763
:104AB00088239B00C0587047D123F7B5D525040043
:104AC000D4279B00C058AD00009101210192BF0086
:104AD00005F0AAFB6059012105F0A6FB0121E05970
:104AE00005F0A2FB0D4B00981E68704305F0C6F858
:104AF0000198FFF773F8E059002105F095FBD123E9
:104B00009B00E058002105F08FFB6059002105F063
:104B10008BFB300005F0B2F8F7BDC046DC1C01008D
:104B200082239B0010B5C018FBF7EBFF431E984192
:104B3000C0B210BD822310B59B00C018FBF7DCFF8C
:104B400010BDD1239B0070B504000E00C058012198
:104B5000150005F069FBD5239B00E058012105F005
:104B600063FB9D229200A1186C3AABB2A0183200F0
:104B7000FCF7A2FF70BD9D239B00C2186C3B010097
:104B800010B5C018FDF778F8013843425841C0B25B
:104B900010BD82239B0010B589B2C018FDF764FADE
:104BA00080B210BDD7239B00C05C7047F7B50C00E6
:104BB000060005F033F8154B041B1B680020019319
:104BC0009C4221D9FA27052504007F0182239B00FE
:104BD000F018FBF791FF031CA04200D2231CDCB2AB
:104BE0003B00013BFDD1013D002DEFD1D7239B00C0
:104BF000F35C0120A34207D205F010F8044822001C
:104C00000449FBF7D2FF2800FEBDC046EC1C0100A2
:104C1000CC320020DF1F010082239B0070B5C0183A
:104C20003021FDF721FA084D040002000749280051
:104C3000FBF7BBFF802328000521054A2340FBF733
:104C4000BDFAE0B2C00970BDCC320020F41F0100F3
:104C500014200100D72310B59B00C154024A04213F
:104C60000248FBF7ABFA10BD22200100CC32002035
:104C7000822310B59B00C018FBF74AFF0421024AAB
:104C80000248FBF79BFA10BD36200100CC32002011
:104C900088239B0070B5C150183BC6180400300033
:104CA000FCF780FB05003000FBF74CFF2000FFF70E
:104CB000B3FF012804D00221024A0348FBF77EFA21
:104CC000280070BD44200100CC320020F8B58223BA
:104CD0009B00C51804002800FCF742F82800FCF7E8
:104CE00025F9254F28003900FBF7F6FED4239B0059
:104CF000E058002105F098FA8421204B2800E15467
:104D0000FBF7F0FECF239B00E058012105F08CFA61
:104D1000D0239B00E058002105F086FA184E19496F
:104D20003000FBF7F3FF8F239B003000E358062190
:104D3000154AFBF743FA83239B003000E358052113
:104D4000124AFBF73BFA88239B003000E358052109
:104D50000F4AFBF733FAFDF7C1FA0E4A03000621AA
:104D60003000FBF72BFA2800FBF7D2FE39002800B1
:104D7000FCF728FDF8BDC046D80000205D03000008
:104D8000CC320020652001007F200100942001002A
:104D9000B22001005618010083239B0070B5C1505A
:104DA000043BC61804003000FCF708F90500300089
:104DB000FBF7AEFE2000FFF72FFF002804D00221F2
:104DC000024A0348FBF7FAF9280070BD44200100AD
:104DD000CC32002082239B0070B5C5180400280047
:104DE000FBF796FE30212800FDF73EF9264E020023
:104DF00026493000FBF7D9FE83239B00E1582800A9
:104E0000FCF740F805212800FBF775FB0721280077
:104E1000FBF771FBCF239B00E058012105F004FA5A
:104E2000D0239B00E058002105F0FEF99D239B0054
:104E3000E1182800FCF7C6FC2800FBF769FED52323
:104E40009B00E058012105F0EFF930212800FDF723
:104E50000BF9062103000E4A3000FBF7AFF92000E2
:104E6000FFF7DAFE062103000A4A3000FBF7A6F935
:104E70002000FFF7D1FE002804D002213000064AAE
:104E8000FBF79CF970BDC046CC320020D020010059
:104E9000F42001000B21010044200100D1239B00DC
:104EA00070B500210400C05805F0BEF9D5239B0061
:104EB000E058002105F0B8F9CF239B00E05800210D
:104EC00005F0B2F9D0239B00E058012105F0ACF9C0
:104ED00002211E4BE154563BFF3BE6183000FBF726
:104EE00001FE3000FBF73CFF3000FCF71FF8184DC7
:104EF00018492800FBF70AFF9D239B00E4183000A7
:104F00002100FBF7E9FD28001349FBF7FFFE300005
:104F10002100FCF789FC30003021FDF7A5F80F498E
:104F200002002800FBF741FE28000D49FBF7EEFECA
:104F3000FDF7D4F9062103000A4A2800FBF73EF9E1
:104F400028000421084AFBF739F970BD5D03000011
:104F5000CC3200201A21010027210100D0200100BD
:104F6000281A0100561801003F2101008223F0B5E4
:104F70009B00C51887B00400280004920391FBF73A
:104F8000D5FFA0239B00E0584F4F504EF86008F02B
:104F9000CDFC4F4A0090019104213000FBF70EF93F
:104FA00039002800FBF798FD84212800FBF79AFDC3
:104FB000CF239B00E058012105F036F9D0239B0058
:104FC000E058002105F030F9D4239B00E05801217E
:104FD00005F02AF939002800FCF7F4FB3D4A0421CA
:104FE0003000039BFBF7EAF8D1239B00E058012136
:104FF00005F01AF9D5239B00E058012105F014F9BA
:10500000D4239B000121E05805F00EF904F000FEC6
:10501000FA21039B89004B430393D42307009B0091
:10502000059304F0F5FD039BC01B984203D204983E
:10503000FBF772F8F5E7059B0021E05805F0F4F85E
:10504000CF239B00E058002105F0EEF8D0239B0011
:10505000E058012105F0E8F8D1239B00E058002139
:1050600005F0E2F8D5239B00E058002105F0DCF8BC
:10507000194A30000421FBF7A1F802212800FBF7B0
:1050800031FD2800FBF752FF9D239B00E41821000F
:105090002800FBF721FD30001049FBF737FE210007
:1050A0002800FCF7C1FB30000D4A0421FBF786F80D
:1050B00030212800FCF7D8FF0A4902003000FBF736
:1050C00074FD07B0F0BDC046D8000020CC320020EF
:1050D0005E2101006E210100DA1801002721010084
:1050E000281A0100D0200100F0B585B00193CF232C
:1050F0009B0004000091C0580121150005F064F8E0
:10510000D0229200A058012105F05EF8D120800045
:105110002058012105F058F8D2239B00E0580021C7
:1051200005F052F8D323D426D5279B00E058B600CB
:10513000002105F049F8BF00A059012105F044F80D
:10514000E059012105F040F8D6239B00E0580021EA
:1051500005F03AF8CF239B00E058002105F064F8F1
:10516000D0229200A058012105F05EF8D1208000E5
:105170002058002105F058F8E059002105F054F8B6
:10518000A059002105F050F88D23002603AF9B00A5
:10519000E6543A0028006B69296901F0D7FF8323A0
:1051A000039A9B00E25028003A006B69296901F0DC
:1051B000CDFF8822039901239200A1508F2118323C
:1051C000A354444A890062509622FE21009892001E
:1051D0008905A15040490432A0501832A1509621AF
:1051E00004328901A150802104324900A1523B4A76
:1051F000A220A3543A4B80001A68A0239B00E250DF
:105200000433E65231000822201808F03DFDA223A5
:10521000A520344A9B00E25080000833E650A822C3
:105220003100201808F030FD822080002618300060
:10523000FBF77CFE9D2080002018010000903000CC
:10524000FBF74AFC30000099FBF7FCFB264D0621DA
:105250002800264AFAF7B2FF8F21890063582800F8
:105260000621234AFAF7AAFF83239B002800E3586C
:105270000621204AFAF7A2FF88229200A3580621AD
:1052800028001D4AFAF79AFFFDF728F81B4A030089
:1052900006212800FAF792FF3000FBF76EFC300081
:1052A0000099FCF7C1FA30213000FCF7DDFE14490B
:1052B00002002800FBF779FC019B01993A005B6929
:1052C0000969019801F042FFD7233A789B00E25424
:1052D00005B0F0BD006CDC02080006037E02000091
:1052E000D81C01001F852B3FCC3200206520010017
:1052F0007F20010094200100B22001005618010017
:10530000D0200100D1239B0070B500210400C058BB
:1053100004F08AFFD5239B00E058002104F084FFAD
:1053200082239B00E61830213000FCF79DFE274DBC
:10533000020027492800FBF738FC88239B00E1582E
:105340003000FBF7A5FD234B1B68002B06D0302057
:105350000321584305F0AEFB0138FDD1CF239B005C
:10536000E058002104F060FFD0239B00E0580121A9
:1053700004F05AFF28001849FBF7C8FC9D239B0046
:10538000E1183000FCF750FA3000FBF7DBFB30216E
:105390003000FCF769FE06210300104A2800FAF7E6
:1053A0000DFF2000FFF738FC062103000C4A2800FF
:1053B000FAF704FF2000FFF72FFC012804D0022198
:1053C0002800084AFAF7FAFE70BDC046CC32002029
:1053D0001D190100E81C010089210100F4200100D1
:1053E0000B21010044200100F0B58FB00193C14BA7
:1053F00009AE09934B233371BF4B0C000D935978C1
:1054000017001A787171521A01219140050001208C
:105410004A42F2809B783372984006F0EDFB011C03
:10542000FE20800505F006FFB449F06006A804F0F0
:1054300057FA83239B00E9580A2203A804F0D9FAFB
:1054400003A906A804F02DFB0100200004F07BFA5C
:1054500003A804F0FDF906A804F0FAF9A84906A883
:1054600004F03EFA88239B000A22E95803A804F0BE
:10547000C0FA03A906A804F014FB0100200004F000
:10548000FDFA03A804F0E4F906A804F0E1F99D4947
:1054900006A804F025FA9C4903A804F064FA03A9BD
:1054A00006A804F0FEFA0100200004F0E7FA03A8C1
:1054B00004F0CEF906A804F0CBF9336930005B683C
:1054C000197801F0A2FB06F097FB0C9906F07CF826
:1054D0002100061C03A804F046FA03A906A804F05C
:1054E00042FA06AB894A06218948FAF781FF06A8E5
:1054F00004F0AEF903A804F0ABF9864906A804F05D
:10550000EFF90122311C03A804F085FA03A906A8CB
:1055100004F0C7FA0100200004F0B0FA03A804F078
:1055200097F906A804F094F97B4906A804F0D8F985
:105530000A22019903A804F04AFA03A906A804F074
:10554000B0FA0100200004F099FA03A804F080F9F1
:1055500006A804F07DF9714906A804F0C1F93800E5
:10556000FEF73CFB0A22010003A804F030FA03A96D
:1055700006A804F096FA0100200004F07FFA03A8C0
:1055800004F066F906A804F063F9654906A804F07A
:10559000A7F93800FEF746FB0A22010003A804F031
:1055A00016FA03A906A804F07CFA0100200004F012
:1055B00065FA03A804F04CF906A804F049F9594922
:1055C00006A804F08DF9584B1022E95C03A804F0FA
:1055D000EDF903A906A804F064FA0100200004F024
:1055E0004DFA03A804F034F906A804F031F94F4944
:1055F00006A804F075F99E239B00E9580A2203A827
:1056000004F0F7F903A906A804F04BFA0100200002
:1056100004F034FA03A804F01BF906A804F018F902
:10562000434906A804F05CF9424B0A22E95C03A84E
:1056300004F0BCF903A906A804F033FA0100200025
:1056400004F01CFA03A804F003F906A804F000F91A
:10565000394906A804F044F9384B0A22E95C0E23C4
:1056600003A8194004F0B3F903A906A804F019FA35
:105670000100200004F002FA03A804F0E9F806A8EB
:1056800004F0E6F82E4906A804F02AF9D7239B0077
:10569000E95C0A2203A804F089F903A906A804F02A
:1056A00000FA0100200004F0E9F903A804F0D0F8A2
:1056B00006A804F0CDF8234906A804F011F9A023A8
:1056C0009B00E958032203A804F0A5F903A906A842
:1056D00004F0E7F90100200004F0D0F903A804F079
:1056E000B7F806A804F0B4F83800FEF79DFAA068F1
:1056F0000FB0F0BDE03200203C0500209F210100EA
:10570000A7210100B121010000080020BC210100F7
:10571000CC320020CB210100D3210100E221010085
:10572000F021010005220100770200000E22010095
:105730001B2201007E0200002B22010076020000E5
:10574000362201004722010010B513000A0006218D
:10575000FAF74EFE10BD0000F8B5A823474D9B0098
:105760000400C35806212800454AFAF741FEA92340
:105770009B002800E3580621424AFAF739FEAA2383
:105780009B002800E35806213F4AFAF731FEAB237D
:105790009B002800E35806213C4AFAF729FEAC2377
:1057A0009B002800E3580621394AFAF721FEB0236E
:1057B0009B002800E35C0621364AFAF719FE364BB7
:1057C0002800E35C0621354AFAF712FE344B280024
:1057D000E35C0621334AFAF70BFE334B2800E35C07
:1057E0000621324AFAF704FECA239B002800E25A37
:1057F0002F49FFF7A9FF2F4B2800E25A2E49FFF748
:10580000A3FFCB239B002800E25A2C49FFF79CFF03
:105810002B4B2800E25A2B49FFF796FFCC239B0025
:105820002800E25A2849FFF78FFF284B2800E25A48
:105830002749FFF789FFCD239B00E25A280025491D
:10584000FFF782FF244F254E28003100E25BFFF76F
:105850007BFF31002800E25BFFF776FF204B28003A
:10586000E35C06211F4AFAF7C3FD1F4B28000621FF
:10587000E35C1E4AFAF7BCFDF8BDC046CC320020FE
:105880004F220100632201007522010089220100DC
:1058900097220100A922010025030000BC2201007B
:1058A00026030000D522010027030000EE2201009C
:1058B000042301002A0300001D23010037230100F7
:1058C0002E030000502301006A2301003203000070
:1058D0007F2301009623010036030000AE23010060
:1058E0003A030000C82301003B030000DC23010051
:1058F00010B50021132004F097FC0021202004F0B3
:1059000093FC0122014B1A6010BDC0469430002068
:1059100070B505000600040039350936FF35FF363D
:10592000B54204D00C3D280003F092FFF8E72000B8
:1059300070BD10B504000C30FFF7EAFF200003F043
:1059400087FF200010BD000070B50D00040000218D
:10595000122004F069FC2A002100044801F07FFCB9
:105960000121122004F060FC70BDC046643B0020A1
:1059700007B5002009F0A0F96B460733181A0EBDD1
:10598000812270B58024030092008058A400013069
:105990001D19A84211D09850985880240170822176
:1059A00089005E5AA400B0B2A6420AD11A58013248
:1059B000954204D01A50002070BD9B50ECE71B505C
:1059C000F9E75D5A681C80B258520120002DF3D1CE
:1059D0009A581A51F0E70000802130B50B4A89012E
:1059E000845A03004058002C01D1007830BD802536
:1059F000441CAD015C505D190078AC4200D35B5093
:105A0000995A013989B29952F0E7C046082000003E
:105A100010B513000A000521FAF7D0FB10BD0000F5
:105A200082239B00C35A0A008B4204D881239B0027
:105A3000C3581878704780239B00C158054B091A3A
:105A40008918194003D5044B013919430131405CD1
:105A5000F0E7C046FF01008000FEFFFF0B4B0A008D
:105A6000C35A8B4203D80A4BC35818787047802317
:105A70009B01C158074B091A8918194003D5064BD9
:105A8000013919430131405CF0E7C04608200000AD
:105A900004200000FF1F008000E0FFFF70B58120A0
:105AA0008024822100228025374B8900A4008000B9
:105AB0005A521B511B50354BAD015B51344D86B0D2
:105AC0005B51344D5A53344B01251B51334C5A52C0
:105AD0001B502000FEF77CFE314E20003200314981
