:1020000000800020B52300009D2300009D230000D8
:1020100000000000000000000000000000000000C0
:102020000000000000000000000000009D230000F0
:1020300000000000000000009D23000009240000B3
:102040009D2300009D2300009D2300009D23000090
:102050009D2300009D2300009D230000A12300007C
:102060009D2300005D2300006D2300009D230000E0
:102070009D2300009D2300007D2300009D23000080
:102080009D2300009D2300009D2300009D23000050
:10209000000000009D2300009D2300009D23000000
:1020A0009D2300009D2300009D2300009D23000030
:1020B0000000000010B5064C2378002B07D1054B1B
:1020C000002B02D0044800E000BF0123237010BDA4
:1020D00000010020000000004C500000044B10B52F
:1020E000002B03D00349044800E000BF10BDC046E8
:1020F00000000000040100204C50000010B5E12455
:10210000640221000D4801F02BF921000C4800F079
:10211000BBFD962189010B4800F0B6FD0A4B0B4A26
:1021200013600B4A13600B4B0B4A13600B4A13608E
:1021300000F078F90A4B186010BDC046444A0020F0
:102140002C440020284700202001002020210020CE
:102150002421002028210020284100202C4100209B
:102160001C01002010B53C4800F0EAFE002829D1EF
:102170003A4800F0E5FE002834D1394B1A68394B53
:102180001B689A4243D0364B1A68364B1B689A42FA
:1021900061D03549354800F00FFC314B1B68314A9E
:1021A0001268934257D019782B4800F0B3FF2C4A9D
:1021B0001368013313602E4A9342EED1284B2D4A07
:1021C0001A60EAE7244800F07AFF2B4A1368187077
:1021D000136801331360294A9342C9D1264B284A18
:1021E0001A60C5E71D4800F06AFF1E4A13681870A0
:1021F0001368013313601E4A934204D000F012F9B1
:10220000204B1860B9E7174B1A4A1A60F6E700F03E
:1022100009F91C4B1B68C01A1B4B1B689842B2D9AA
:102220001A4B1A68144B1B689A42ACD0174B1B68A8
:10223000114A126893420ED01978084800F06AFFDC
:10224000124A1368013313600C4A9342EED10F4BCC
:102250000B4A1A60EAE710BD2C44002028470020F2
:1022600024210020202100201C4B0000444A002093
:1022700020210020200100202841002028410020AA
:10228000282100201C010020000000202C410020FB
:10229000F0B5C64600B582B0012803D002B004BC38
:1022A0009046F0BD1D4B9942F8D11D4B98461D49F3
:1022B000180000F0ABFB1C4F1C49380000F0A6FBD7
:1022C0001B491C4800F0A2FB1B491C4800F09EFB68
:1022D0001B491C4800F09AFB1B4D1C49280000F0CC
:1022E00095FB012401940326009623000022414619
:1022F000174800F0EBFD0023019300940D330B22EF
:102300003900144800F0E2FD0194009607230622EC
:102310002900114800F0DAFDC0E7C046FFFF0000C9
:10232000244A002000080042284A0020000C0042F5
:10233000001000422C4A002000140042304A0020C5
:1023400000180042344A0020384A0020001C004295
:102350002C440020304100202847002010B50248BE
:1023600000F059FE10BDC0462C44002010B50248B4
:1023700000F051FE10BDC0463041002010B50248AB
:1023800000F049FE10BDC0462847002010B50249A4
:102390000120FFF77DFF10BDFFFF0000FEE70000FA
:1023A000034B10B51B68002B00D0984710BDC046EA
:1023B0003C4A00200F4A1048110010B50F4B8242D2
:1023C00002D0934209D11300824209D100F084F86F
:1023D00000F0A2FAFEE710CB10C18142FBD3F3E775
:1023E000074A8B42F2D00021064B9A42EED202C23B
:1023F000FBE7C0460000002000010020AC500000B8
:10240000000100204850002010B500F062F80028BC
:1024100001D100F053F810BD014B18607047C04661
:102420003C4A0020014B18687047C046404A0020D3
:10243000F7B51348012284461249134C8E6863682D
:1024400005689B0E1340019288686268019F920E96
:102450003A4067463F6893420ED1BD420CD1864256
:102460000AD35B19FA254868AD00861B07486B4301
:102470007043000DC018FEBD3D0013000600E3E7E9
:10248000404A002010E000E000ED00E0555500005B
:1024900070B5041E11D0FFF7CBFFFA260500B60079
:1024A00000F016F8FFF7C4FF401BB042F8D3FA2340
:1024B000013C9B00ED18002CF4D170BD10B5034A0F
:1024C00013680133136000F08FFA10BD404A0020FA
:1024D00070470020704700001E2270B546484749EB
:1024E000436893431C3A1343436008238C69234396
:1024F0008B61434C434B9C829C8A14439C82DC68D6
:102500001442FCD00124404A14701578254203D0AF
:1025100055786DB2002DF8DB01249460547864B2D4
:10252000002CFBDB394C5460547864B2002CFBDB8C
:102530008224E4015480547864B2002CFBDB022432
:102540009C840E34DD682542FCD0314CDC621024C2
:10255000DD682542FCD09D8C2E4C2C439C8410249D
:10256000DD682542FCD002249D8C80262C439C846F
:102570004024DD683542FCD0DD682542F9D01024C6
:10258000DD682542FCD000249460547864B2002CAD
:10259000FBDB214C5460547864B2002CFBDB1C6ADA
:1025A0001E4D2C4080251C621C6AAC431C62032318
:1025B00093601B4B536053785BB2002BFBDB002313
:1025C000FF240B72174A4B728B72CB72164B1A6038
:1025D000164B174A1B6811689A065B01C90E234007
:1025E000520F12020B431343124A13858023426891
:1025F0001343436070BDC0460040004100040040EA
:102600000C06000000080040000C0040010501001D
:10261000B905FF7D040A000000070300FFFCFFFF6F
:1026200003060100006CDC0204000020246080002E
:102630002060800000400042FA212E4B10B518683F
:10264000890002F0A7F8802301385B0498424FD23A
:1026500029492A4A4860C020136A00061B021B0A47
:102660000343136200238B6007330B608021136ADE
:1026700009061B021B0A0B431362FC22204B196A3A
:102680000A431A62FF22196A12020A431A62A0223E
:10269000196AD2020A431A621A4B1C005A7852B2C3
:1026A000002AFBDB184A5A80184B1A00597EC909C8
:1026B0000129FBD0C821890099800521D970537E5A
:1026C000DB09012BFBD0C02300205B01136190705C
:1026D00000F022F863785BB2002BFBDB0C4B0D4A59
:1026E0006380D379DB09012BFBD04123537010BDEC
:1026F000FEE7C0460400002010E000E000ED00E02E
:1027000000040040000C00401E4000000040004259
:1027100021400000004800421F4900B50B004A7EDE
:10272000D209012AFBD001380A282FD802F028F854
:102730001B2E2E2E2E2E062E2E2411001A6917491E
:102740000A400F211A615A788A43110001220A4374
:1027500010E01A6911490A400F211A615A788A4318
:1027600011000322F3E71A690C490A400F211A618C
:102770005A788A435A7000BD1A6908490A400F21E5
:102780001A615A788A4311000222E0E7F02219699F
:1027900012050A43F3E7C04600400042FFFFFFF086
:1027A000182310B508245843134A13181C57013432
:1027B00012D001245B6882569C4003290CD8080083
:1027C0000E49D2015218D318403301F0D9FF02103C
:1027D000060B02211970546010BD06211970546057
:1027E0009461F9E70621197054605461F4E74221BD
:1027F00019709460F0E7C046304B0000004400417F
:102800001823F0B508245843114A13181C570134F3
:102810001BD0012635005F688356BD400D4ADB01A1
:102820009A18906805420BD10C00601E8441D219A1
:102830004032107834400336A400B0432043107077
:10284000044A9B18002901D15D61F0BD9D61FCE740
:10285000304B000000440041182370B50826434364
:102860002A4AD518AE573400013607D0072907DCAD
:1028700000291DDA01314C424C416442200070BDF8
:102880000B00083BDBB20024032BF7D8092903D146
:102890002100FFF785FFF1E70A2904D10839FFF786
:1028A0007FFF0024EAE700240B29E7D10A39F0E78B
:1028B0006C68012520009B56C9B262082840DB01E4
:1028C0002C4211D012480E351B189A18303210784D
:1028D000090128400143C9B2117041221B1940333C
:1028E00019780A431A70DCE70F26094D5B199A180C
:1028F000303215781B19B5432943117041224033FA
:10290000197804000A431A70B8E7C046304B00003B
:10291000004400417047000010B5FFF78DFE01F044
:10292000C5FFFFF7F7FF0120FFF7B2FD094C2000BC
:1029300000F09EFF200001F017F8FFF7DFFB01E039
:1029400000E000BFFFF70EFCFFF7C2FD024B002BBB
:10295000F6D1F7E7604A002000000000F8B5040057
:102960000025561E002A0BD023681B684F1C0978CF
:1029700020009847002803D0013532003900F0E7E5
:102980002800F8BD70B505000C1E09D003685E680C
:10299000080002F08FF8020021002800B04770BD47
:1029A0000020FCE710B503685B68022201499847E4
:1029B00010BDC046384F000070B50500FFF7E2FFBC
:1029C00004002800FFF7EEFF201870BD014B1860CF
:1029D0007047C04608000020024B012252421A6094
:1029E0007047C0460800002010B5064B1B685A1CF3
:1029F00004D0013B034A1360002B00D010BD024BF2
:102A00009847C04608000020515000000160704700
:102A1000F0B5944605AC257807683E689C1E621E9A
:102A20009441240662469207144334433C60046890
:102A3000606807220A40AD012A43022B04D05B03E1
:102A40001A4302436260F0BD0023F9E770B50568E0
:102A50002C680904C0239B0219401205C026B60346
:102A60003240114321432960026851680B4353608F
:102A700070BD0268136801210B43136003681A6874
:102A8000D207FBD4DB69DB07F8D470470268136810
:102A900002210B4313600368DB699B07FBD470477B
:102AA000036800225A8370470368187E4007C00FEE
:102AB00070470368187EC00970470268117E802342
:102AC0005B420B43137670470368588B8007C00F37
:102AD00070470268538B02210B435383704703688E
:102AE000187EC007C00F704710B50400FFF7F7FF4E
:102AF000002803D123681B7E9B07FBD510BD03680C
:102B0000188DC005C00DC0B2704770B504000D002F
:102B10002000FFF7E4FF0028FAD02368ADB21D853E
:102B2000012070BD036801229A7570470368012275
:102B30001A7570470023052B0AD8DA000649525847
:102B40000168914202D00133DBB2F4E758B201E0F0
:102B5000012040427047C0463C4F000070B5FFF76F
:102B6000E9FF002836DBC000264B1818047905233E
:102B7000C356002B07DB1F21194001228A4022483F
:102B8000C02149004250002B25DB9A081E4DC0325F
:102B90009200505903211940C900FF268E40B043CE
:102BA000C0268E40310001435151002B06DB1F220D
:102BB00013401E3A9A401300134A13603F232340E8
:102BC0008024E4011C43114B5C80104B5B785BB2AA
:102BD000002BFADB70BD0F221A40083A9208063229
:102BE00092000B498C466244506803211940C90089
:102BF000FF258D40A843C0258D4029000143516029
:102C0000D3E7C0463C4F000000E100E0000C00406C
:102C100000ED00E0F8B504000E0017001D00FFF7FE
:102C20009DFF2000FFF725FFB3001C2018407B0705
:102C30001B0C226818431060842322689375012EB0
:102C400000D0F8BD012F19D008210D4A1068C0002E
:102C5000694301F09FFD2168072202408B895203DE
:102C6000DB04DB0C13438B81C00822689389C0040A
:102C7000C00C5B0B5B0318439081E2E71021E4E793
:102C8000040000200120704710B503681B6A014A48
:102C9000984710BD13040000F0230B40302B01D0E7
:102CA000002070470120FCE7F0231B01194080231E
:102CB0009B0099420BD00133FF33994209D0802306
:102CC0005B00994201D0002070470520FCE70620F8
:102CD000FAE70720F8E70F231940012903D002295A
:102CE00003D1012070470020FCE70220FAE7000032
:102CF000F0B5C64600B582B004000F001500B92338
:102D00009B00C05C3D4E43001B18DB00F3180821FC
:102D10005956FFF7A1FD3A4BE05C43001B18DB005E
:102D2000F61808217156FFF797FD364BE35C022B2E
:102D30002FD0BA239B00E05CFF2839D13B00012251
:102D400001212069FFF766FF2369984629002000CA
:102D5000FFF7AAFF060029002000FFF7BCFF0700CD
:102D600029002000FFF798FF00903B00012231006E
:102D70004046FFF74DFE244BE25C224BE15C2069AC
:102D8000FFF764FE2069FFF781FE02B004BC9046A5
:102D9000F0BDBE239B00E05CFF28CAD043001B1897
:102DA000DB00164AD31808215956FFF755FDC0E736
:102DB0000121FFF7F5FCBA239B00E05C0F4B98461E
:102DC00042001318DB0041465B56DB010F4EB44650
:102DD0009C44BB26B6006146A1510D498C46634414
:102DE0000436A3511218D2004244516801228A408D
:102DF000BD21890062501A60A0E7C046304B000038
:102E0000E5020000E7020000E6020000184400416D
:102E1000144400410023B0225200835004328350F6
:102E2000704710B50400AF225200002101F07FFD71
:102E30002000FFF7EFFF200010BD0000F8B5DE46D0
:102E400057464E464546E0B504000F0016001D00EB
:102E50000AAB1B789B460BAB1B789A460CAB1B78D6
:102E600099460DAB1B78984600234360FA239B00DC
:102E70008360124B083303601430FFF7D2FF200049
:102E80007D30FF30FFF7CDFF2761B9239B00E6546B
:102E90000B4BE5540B4B5A46E2540B4B5246E25453
:102EA00001334A46E25410334246E25420003CBC0F
:102EB00090469946A246AB46F8BDC0466C4F00000E
:102EC000E5020000E6020000E702000070B584B0F1
:102ED000040008A8057809A80678FF20039002904E
:102EE000019600952000FFF7A9FF200004B070BDF7
:102EF00010B504000069FFF7BCFD20001430FFF797
:102F000089FF20007D30FF30FFF784FF10BDB02324
:102F10005B00C358B22252008058181A00D4704780
:102F20005F30FF30FBE710B5040020007D30FF303C
:102F3000FFF7EDFF0028F8D12069FFF7D5FD10BDA0
:102F400010B51430FFF7E3FF10BDB0235B00C2588B
:102F50000433C3589A420ADBB0235B00C2585E2395
:102F6000FF339B1AB2225200805818187047B223C0
:102F70005B00C358B02252008058181A0138F5E798
:102F800010B57D30FF30FFF7E0FF10BDB2235B00CE
:102F9000C258043BC3589A4204D0B2235B00C358C2
:102FA000C05C704701204042FBE710B51430FFF7CA
:102FB000EDFF10BD10B5481CAF21490001F070FCB9
:102FC000080010BD70B504000D00B0235B00C158AF
:102FD000FFF7F0FFB2235B00E358834204D0B02335
:102FE0005B00E258A554E05070BD70B50400B223F8
:102FF0005B00C258043BC3589A4209D0B2267600FF
:103000008359C55C8159FFF7D5FFA051280070BDD9
:1030100001204042FBE770B504000069FFF754FD52
:1030200000280FD12069FFF73FFD002811D120694A
:10303000FFF755FD002827D12069FFF73AFD00284A
:1030400036D170BD2069FFF75AFD2069FFF741FDB9
:10305000E8E7250014352069FFF751FD010028003D
:10306000FFF7B0FFBA239B00E35CFF2BDFD0280003
:10307000FFF76BFF0928DADCBB239B00E358BD2276
:103080009200A2581A60D2E725007D35FF3528004E
:10309000FFF73DFF002807D02800FFF7A6FFC1B2C9
:1030A0002069FFF732FDC7E72069FFF73FFDC3E75F
:1030B0002069FFF702FD2069FFF7F2FCC1E770B558
:1030C0000400060014363000FFF78FFF0500BA2316
:1030D0009B00E35CFF2B01D1280070BD3000FFF79F
:1030E00034FF0A28F8DDBC239B00E358BD22920080
:1030F000A2581A60F0E710B50400B0235B00C15875
:10310000FFF758FFB2235B00E358C01A434258410F
:10311000C0B210BD70B504000E000069FFF7DFFCFF
:10312000002823D020007D30FF30FFF7F0FE00287C
:103130001CD120693100FFF7E8FC45E00F230B406C
:10314000083B9B0806339B00204A944663445B6817
:1031500003220A40D200D3409A0903231340032BD1
:1031600004D82069FFF7BBFC002822D125007D355B
:10317000FF352800FFF7BFFF00281ED0EFF31083B4
:10318000DB07EED4114B5B68DB05DA0D002BEDD0CD
:10319000103A51B21306D1D48B08C0339B000C4AAD
:1031A0009B5803220A40D200D3409A0903231340BC
:1031B000D5E72000FFF72FFFD8E731002800FFF701
:1031C00001FF2069FFF7AEFC012070BD00ED00E0BB
:1031D00000E100E03F20704710B50300054A106889
:1031E000421C05D11A68526918009047014B1860BB
:1031F00010BDC0465C00002010B582B06B46D9718E
:1032000007330268546801221900A04702B010BDBC
:10321000012800D07047084B9942FBD1074B002191
:103220005960FA2292009A60054A08321A60054AEB
:103230001A611976EEE7C046FFFF0000444A0020FD
:10324000A04F0000604A002010B50069022100F084
:10325000FFFC10BD10B50300064A1068421C04D0E4
:10326000044B012252421A6010BD1869022100F07D
:1032700011FEF9E75C00002010B50069032100F0A1
:10328000FFFC10BD10B50400084BDB79002B03D107
:1032900001236360002010BD13000A0003210069B0
:1032A00000F008FE0028F6D1F2E7C046100000202A
:1032B00010B503780233037042220249024800F03D
:1032C000BFFE10BD18000020604A002070B5040049
:1032D00003784578A12B03D0212B0AD0002070BDA4
:1032E000212DF9D107221B491B4800F0A9FE01201E
:1032F000F5E7202D09D0222D0DD0202D0FD0222D25
:103300000DD0232D1DD00020E9E7072211491248D6
:1033100000F008FDEFE7A2780E4BDA71EDE70D4BF8
:103320001A689623DB009A4203D10A4BDB79DB074C
:1033300003D5FFF751FB0020D1E7FA20FFF746FB4A
:10334000F9E7E3781B02A2781343044A13600020D4
:10335000C5E7C04610000020604A00200C00002095
:103360007047000010B502490120FFF751FF10BD62
:10337000FFFF00007047000070B582B003000569D0
:10338000002D00D07DE0EFF310800090012001902F
:1033900072B60198441E019400280CD02420185CB9
:1033A0000028F6D1009B002B02D162B6BFF36F8FCD
:1033B000280002B070BD009C002C02D162B6BFF3A1
:1033C0006F8F90420CD2DC691D6AAC4208D2651C3A
:1033D000DD619D69AC46644424780C540130F0E70B
:1033E0001A6AD9699142E4D10022DA6101321A6184
:1033F000EFF310810091019272B6019A511E019172
:10340000002A37D024220021995411329A5C002AD4
:10341000F3D0352299545A681168FF229C681440F1
:10342000640109190931FF314C7801252C434C7096
:103430009968114049015C686518A968DC68A404B2
:1034400024094F4E31402143A96099681140490138
:103450005C686418A168890B8903A16059680968D0
:103460009C682240083252018A1811794024214375
:103470001171C2E7009B002B9BD162B6BFF36F8F27
:1034800097E7EFF3108000900120019072B6019849
:10349000441E019400280BD03420185C0028F6D17B
:1034A000009B002B02D162B6BFF36F8F002080E734
:1034B000009C002C02D162B6BFF36F8F90420CD2F9
:1034C000DC6A1D6BAC4208D2651CDD629D6AAC46AD
:1034D000644424780C540130F0E71A6BD96A9142A5
:1034E00000D066E70022DA621A61EFF310820092E0
:1034F0000122019272B6019A511E0191002A37D021
:1035000034220021995401329A5C002AF3D03522EA
:1035100099545A681168FF229C6814406401091983
:103520000931FF314C7801252C434C7099681140CA
:1035300049015C686518A968DC68A4042409104E78
:1035400031402143A9609968114049015C686418C1
:10355000A168890B8903A160596809689C682240A9
:10356000083252018A181179402421431171C2E7AF
:10357000009B002B00D01CE762B6BFF36F8F18E7EB
:10358000FF3F00F030B583B043681968FF238268BD
:1035900013401A00083252018A18D279D2076CD52A
:1035A00008335B01CB180122DA714369002B66D125
:1035B0004168FE3283681A405301CB189B689B0414
:1035C0009B0C0362036A002B29D001234361520143
:1035D0008A18816A5160EFF310820092019372B6EB
:1035E000019B5A1E0192002B13D024230122C254A6
:1035F0001033C35C002B03D135230022C254EFE704
:103600003523C254009B002B37D162B6BFF36F8FB6
:1036100033E0009B002B02D162B6BFF36F8F43688B
:103620001A68FF2381681940490152180932FF3294
:10363000517801242143517082681A405201416837
:103640008C18A268C16889040909294D2A400A43D7
:10365000A26082681A405201416889188A68920BF8
:1036600092038A604268816812680B4008335B01EC
:10367000D3181A7940210A431A7103B030BD41684A
:10368000FF2283681A405301CB189B689B049B0C54
:103690000363036B002BC2D00023436152018A18DD
:1036A00083695360EFF3108300930123019372B693
:1036B000019B5A1E0192002B13D034230122C254C5
:1036C000103BC35C002B03D135230022C254EFE72B
:1036D0003523C254009B002BCFD162B6BFF36F8F4E
:1036E000CBE7009B002B9AD162B6BFF36F8F96E7B2
:1036F000FF3F00F082B002000369002B1CD1EFF302
:10370000108300930123019372B600230198411E98
:103710000191002803D02423D35CDBB2F6E70099A3
:10372000002902D162B6BFF36F8F002B02D0136A5B
:10373000D069181A02B07047EFF310830093012389
:10374000019372B600230198411E0191002803D015
:103750003423D35CDBB2F6E70099002902D162B6CC
:10376000BFF36F8F002BE5D0136BD06A181AE1E717
:1037700010B5002204E030330724A41A0B5501329F
:10378000072A06DC0F2303400009092BF3DD37333A
:10379000F2E710BD012800D07047064B9942FBD1DB
:1037A000054B064A1A60072300E0013B002BFCDAB8
:1037B000F2E7C046FFFF00001C4F00200050004110
:1037C00010B50400806901F09FF8A06A01F09CF830
:1037D000200010BD10B50400806901F095F8A06AC2
:1037E00001F092F8200000F02BFF200010BD10B572
:1037F00082B00C0000236A46D371D01DFFF758FD3C
:1038000023689C466044206000F05AFF6B46D91D37
:1038100000F01AFF23689C46604420606B46D8790C
:1038200002B010BD10B5032902D001290FD010BD80
:103830000E4B1B68B22040001C5C80225242224387
:103840001A546822FF326338FF389854EDE7074B6B
:103850001B682431FF31585C8022524202435A5483
:103860002822FF322339FF399954E0E71C4F00200A
:1038700070B505000024334B1C7001212020FEF799
:103880008FFF01212020FEF7BBFF2F4B1C70012171
:103890001F20FEF785FF01211F20FEF7B1FF2B4AF5
:1038A000D36920210B43D361294B38315A5C012461
:1038B00022435A543C22985C493988439854995C75
:1038C00006200143C9B299545920195C2143195467
:1038D000995C4A3801409954995C60200143C9B20F
:1038E00099541C4B1C4A5A801A4B5B78DB09FBD15C
:1038F0001A48FEF791FD1A4C200000F0F3FE20005C
:1039000000F008FF226811787F230B4013702268B3
:10391000137804210B431370226813890C218B4305
:103920001381104AC121890053581B021B0A5350AE
:10393000802313602268137802210B431370012344
:103940002B7070BD814A0020804A00200004004096
:1039500000440041000C00400640000019460000F1
:103960001C4F002000E100E00078002810D0094B37
:103970001B681A8901218A431A811A8B08210A437C
:103980001A831A8B04210A431A83034B00221A60FC
:103990007047C0461C4F0020144F002010B508008F
:1039A000114A93699B0B9B03936112680823FF33B1
:1039B0000221D1540621FF31545C883BFF3B234355
:1039C00053540823FF33D35C9B07FAD5074B997AEE
:1039D0007F2202407F20814311439972997A80228D
:1039E00052420A439A7210BD1C4F00200050004101
:1039F000F8B50C00832A40D0022A58D0032A00D1FF
:103A0000CFE0822A00D1D6E0002A4FD1FF320A400F
:103A1000794F500138188368784E3340C025AD0582
:103A20002B4383608C017649641844603968130025
:103A300008335B015A5C0724A243012422435A54F1
:103A400082691640354385616E4A42615A5C702432
:103A5000A243102422435A5482686B4C14408022A3
:103A60005203224382608268920B92038260CB18D9
:103A70005A7940210A435A7118E0FF230B405E4EE9
:103A80005A01B21891695D480840C0218905014377
:103A90009161A4015B4964185461316808335B018A
:103AA0005A5C70208243402002435A54F8BD8B0078
:103AB000564A9858002802D003685B699847382016
:103AC00000F0BAFD0500524B03604B4E4660846027
:103AD00080277F00C760002303614361C3610362E5
:103AE00024228354C362036310328354013283540B
:103AF000380000F0FFFEA861380000F0FBFEA8626D
:103B0000FF231A0022405201B618B2683B49114007
:103B1000C02292050A43B2606A681068AA681A4017
:103B200008325201115C0726B14303263143115478
:103B3000AA681A40520169688C466244A9695160BA
:103B40006A681268A9681940490152180932FF329F
:103B50005178012001435170AA681A4052016968E6
:103B600088188268E96889040909274E32400A43A7
:103B70008260AA681A405201696889188A68920BA3
:103B800092038A606A681268A9680B4008335B0177
:103B9000D3181A7940210A431A71A4001B4BE5502F
:103BA00084E78C00194BE058002800D17EE70368B9
:103BB000DB6898477AE7FF230B400F4D5A01AA189C
:103BC00091690E480840C021890501439161A40113
:103BD0000C4964185461296808335B01C8180479DA
:103BE00080225242224302715A5C7020824330206C
:103BF00002435A545AE7C0461C4F0020FFFFFF8F74
:103C00004C4C00208C4A0020FF3F00F0644A00200A
:103C1000FC4F000070B505000124272C0BD8A30031
:103C2000054A9A58002A06D021002800FFF7E0FE36
:103C30000134E4B2F1E770BD6000002008314901B1
:103C4000024B9C46614420234B7170470050004159
:103C500010B58A00084BD058002803D003689B6831
:103C6000984710BDFF2319404901044B5918886833
:103C70008004800CF5E7C046644A00201C4F0020F9
:103C800010B50C00FFF7E4FF00280DD0074B1B68B0
:103C9000FF210C40083464011C19627980235B42C7
:103CA000134363710223E37110BDC0461C4F002013
:103CB00010B58A01184BD218FF231940174C4B013D
:103CC000E3185A609A681648104080229202024314
:103CD0009A609A68920B92039A6022680B000833EC
:103CE0005B01D31818794024204318710B00083366
:103CF0005B01D3189B795B06F8D50B0008335B0199
:103D0000D318DB79DB07F8D54901044B59188868CB
:103D10008004800CC0B210BD4C4C00201C4F002011
:103D2000FF3F00F070B50E0015000B4B19688222A2
:103D300052008B5C402423438B540021FFF7B8FFD3
:103D4000A84200D928000023AB4204D2034CE45C13
:103D5000F4540133F8E770BD1C4F00204C4C002098
:103D6000FF2319404A01104B9B189B689B049B0C36
:103D70003F2B11D9403B0C48801882689B049B0C58
:103D8000920B9203134383604901074B59188868CB
:103D90008004800CC0B270474B01034AD21893686C
:103DA0009B0B9B039360EFE71C4F0020F0B5C646CA
:103DB00000B507000C0015001E00314B1B68002BDE
:103DC0005BD0304B1B78002B11D02E4B64221A7025
:103DD000A3002D4A985800280ED003685B68320073
:103DE000290098470600300004BC9046F0BD002131
:103DF0001F20FEF705FDE8E721003800FFF728FF48
:103E0000B04234D321003800FFF7AAFF1F4B1B68D4
:103E1000FF222240904652019B180933FF331A7843
:103E200001210A431A70A3011949591832002800C8
:103E300000F074FD002ED6D021003800FFF708FFF7
:103E40000028D0D1114B1A68434608335B01D318C0
:103E500019794020014319710121D97143465B0151
:103E6000D3180933FF335A780A435A70BBE721004D
:103E70003800FFF7EDFE0600C4E701267642B2E700
:103E8000144F0020804A0020644A00201C4F00206C
:103E90004C4C002000B583B001236A460732FFF77F
:103EA00085FF012803D16B46D87903B000BD0120FE
:103EB0004042FAE7F8B5DE4657464E464546E0B57D
:103EC0000F0091469846444B1B68002B00D17BE0C5
:103ED0008023DB01984500D97AE0404B1B78002B0A
:103EE00005D03E4B64221A7000239A4656E000210A
:103EF0002020FEF785FCF4E7394B1868394900F0BB
:103F000049FC394B5843172100F044FC00E01800ED
:103F10002C00083464013419E3799B074CD4334BEB
:103F2000DB5D002B02D1431E0028F0D12F4B012274
:103F3000DA556D012E4B5D19AB699B0B9B03AB6191
:103F400001235B429A4650463CBC90469946A246A5
:103F5000AB46F8BD4446BB01264A9B46934422002B
:103F60004946584600F0DAFC6A01214B9B185A4634
:103F70005A619A69A104890C920B92030A439A61CF
:103F800008356D0176190223F3717279823B134370
:103F90007371A24443461B1B9846A1444346002B21
:103FA000D1D0134B1E68FF253D402B0008335B0129
:103FB000F3189B79DB099FD10C4B0022DA5543465D
:103FC000402BC7D94024C6E701235B429A46BAE793
:103FD00001235B429A46B6E7144F0020814A002035
:103FE0000400002040420F0070110100844A0020AC
:103FF0001C4F00208C4A002070B50E0011001C00E0
:10400000B5010C4BED182200280000F087FCFF22C0
:1040100032405101084A52185561936907490B40D3
:1040200093619169A3049B0C890B890319439161E6
:10403000200070BD8C4A00201C4F0020FF3F00F084
:10404000F0B5C64600B507000E009046104B1B7831
:10405000002B18D10F4B1B78002B0CD1140000251E
:10406000002C10D07219230000213800FFF7C4FF84
:104070002D18241AF4E7084D2C880848201800F061
:104080004DFC44442C80404604BC9046F0BDC046E4
:104090000C4E0020104F0020124F0020104E002028
:1040A000F8B500AF0C001500012A29D9D31DDB0893
:1040B000DB006A46D31A9D466E46080000F0FAFC03
:1040C00001304000307003237370022203E00021AE
:1040D000F1540232D2B2AA4209D22178002906D084
:1040E0000134531CDBB2B1549D42F0D11A003100AF
:1040F0000448FFF7A5FF431E9841C0B2BD46F8BD76
:104100000020FBE7604A002010B5002906D0084BCC
:1041100001221A70074B00221A8010BD044B0022A6
:104120001A70044B1A880449FFF78AFFF5E7C04666
:10413000104F0020124F0020104E0020F0B5C64650
:1041400000B584B004008846002603961B4F012565
:104150003D7003A9FFF74BFB6B469E7109236A462E
:104160001370073B53705571A023D3716E3B1372CC
:10417000039B0933538010713E704346092B17D0BF
:104180000023039301212000FFF7BEFF09226946A7
:104190002000FFF755FF03A92000FFF728FB0021AF
:1041A0002000FFF7B1FF012004B004BC9046F0BD31
:1041B000092269462000FFF743FFF4E70C4E002078
:1041C00070B592B005000C00CE78022E12D000F02F
:1041D00077FA210000F04CFA002814D1012E16D0F5
:1041E000032E5BD1A278002A17D1E388032B46D98E
:1041F0002C4949E0C9882C48FFF7A0FF431E98418D
:10420000C0B212B070BDC317181AC00FF9E7E28828
:10421000112A37D8D2B2254936E0022A05D0012A20
:1042200009D0032A0DD00020EBE7A279204928000D
:10423000FFF736FFE5E7A2791E492800FFF730FFB8
:10424000DFE71D4B186801AE3100FFF791FA1B4BF9
:10425000186803A9FFF78CFA194B186805A9FFF72E
:1042600087FA184B186807A9FFF782FA2023002263
:10427000F254A27931002800FFF712FFC1E7DAB249
:10428000084901E009490022002909D0002A00D18B
:104290000A782800FFF7D4FE0120B2E70020B0E73B
:1042A0000020AEE728500000604A0020385000008F
:1042B000145000002C5000000CA0800040A0800092
:1042C00044A0800048A08000FF230B405B0103490D
:1042D000C9188B699B0B9B038B6170471C4F002097
:1042E00070B505000C000B79002B08D000F0E8F940
:1042F000210000F0CDF9041E0DD0200070BD080093
:10430000FEF7E4FF002801D00124F6E70021280091
:10431000FFF7DAFFF8E700212800FFF7D5FFECE709
:1043200030B583B005000C004B780B2B00D999E019
:104330009B004E4AD3589F46002094E00B78002BF8
:104340000ED001AB00221A80494B1B78012B0FD0F5
:10435000022301AA00212800FFF74EFE012082E07F
:1043600001AA138002330021FFF746FE01207AE004
:1043700001AB01321A70EBE78B78012B12D101AB44
:1043800000221A803B4B1B78012B07D0022301AA85
:1043900000212800FFF730FE012064E001AB01326C
:1043A0001A70F3E7324B00221A700021FFF78CFFDE
:1043B000012058E08B78012B03D0002B0ED0002079
:1043C00051E02C4B01221A7001AA2B4B1B78137061
:1043D00001230021FFF710FE012044E0244B0122BD
:1043E0001A700021FFF770FF01203CE08978FFF789
:1043F000D5FA012037E0FFF7E3FE34E001231F4A3E
:104400000021FFF7F9FD01202DE00B78DB0601D03C
:10441000002028E0FFF7FEFBA278184B1A60184B2B
:104420001B682A21FF315A5C022002435A544A2158
:10443000FF315A5C012002435A5400212800FFF743
:1044400043FF01200FE001230E4A0021FFF7D4FDB6
:10445000012008E08A780B4B1A600021FFF734FF37
:10446000012000E0012003B030BDC046C44F000071
:10447000824A00208B4A00202C4B0000144F002061
:104480001C4F0020184F0020F8B507005B4B1B782D
:10449000002B00D0B1E05A4B1B689B8B1B075AD4F2
:1044A000574B1B689A8B520719D504229A83554B98
:1044B0001B78002B07D0534A1378013BDBB21370F3
:1044C0001378002B59D0504B1B78002B07D04E4A45
:1044D0001378013BDBB213701378002B52D0484B9A
:1044E0001B680822FF329A5CD2062CD50822FF32C4
:1044F00010219954F4315A5C402002435A54434BE2
:104500001B7860221A4242D140493800FFF708FF69
:10451000002841D03A4B19680622FF32885C80237C
:104520005B4203438B54364B1B680822FF329A5C74
:10453000520608D50822FF3240219954C8315A5CEE
:10454000402002435A542E4B1B681E8CF6B20123A6
:104550009E43002434E000220021FFF749FA284B53
:104560001B680A21FF315A5C102002435A54284A22
:104570000021116008229A8392E701212020FEF792
:104580003FF9A0E701211F20FEF73AF9A7E71F49ED
:104590003800FFF7A5FEBBE700213800FFF74EFB10
:1045A000C1E7AB001B4A9858002821D003681B685C
:1045B00098470123AB409E430134E4B2082C1CD839
:1045C000002E1AD0250033002341DB07F4D50C4B15
:1045D0001A68230008335B01D318DB79DB07E0D4CA
:1045E000230008335B01D218D3799B07E1D5D8E7C4
:1045F00021003800FFF716F9DBE7F8BD104F002067
:104600001C4F0020814A0020804A00204C4C002092
:10461000144F0020644A002010B50248FFF734FF11
:1046200010BDC046604A002010B502490120FFF7C6
:10463000B1F810BDFFFF000010B500F05BF910BD30
:1046400010B500F061F910BD70B50E00446800258A
:10465000002C0BD023685B683100200098470028AD
:1046600002DB2D18E468F3E701256D42280070BDD8
:1046700070B50D004468002C08D023689B682900A1
:1046800020009847002802D1E468F4E7002070BDBC
:1046900070B50D004468002C08D023681B68290001
:1046A00020009847002802D1E468F4E7002070BD9C
:1046B00002230370023343700023436070470000FD
:1046C00010B5064B1B68DB0701D5054810BD044833
:1046D000FFF7EEFF014B01221A60F6E720500020A1
:1046E0002450002070B50400050004CD137801218A
:1046F0000B431370802252000021280000F017F9AC
:1047000023689A78D207FBD49A789207F8D45D622E
:1047100070BD0000F0B5174B1A68530B1F210B40FA
:10472000940C2140D20D072422401F2B1CD01F299E
:104730001CD0072A1CD004681F263340258D9B01FE
:104740000D4F3D402B4323850468238D0E401F21D0
:104750008B431900314321850068038D1103074AFB
:104760001A400A430285F0BD1A3BE0E70239E0E750
:10477000043AE0E7246080003FF8FFFFFF8FFFFF6F
:1047800002B4714649084900095C49008E4402BCE4
:104790007047C046002243088B4274D303098B4202
:1047A0005FD3030A8B4244D3030B8B4228D3030C01
:1047B0008B420DD3FF22090212BA030C8B4202D3A3
:1047C0001212090265D0030B8B4219D300E0090ACB
:1047D000C30B8B4201D3CB03C01A5241830B8B42D4
:1047E00001D38B03C01A5241430B8B4201D34B03BD
:1047F000C01A5241030B8B4201D30B03C01A524122
:10480000C30A8B4201D3CB02C01A5241830A8B42A6
:1048100001D38B02C01A5241430A8B4201D34B028F
:10482000C01A5241030A8B4201D30B02C01A5241F3
:10483000CDD2C3098B4201D3CB01C01A52418309A7
:104840008B4201D38B01C01A524143098B4201D3E1
:104850004B01C01A524103098B4201D30B01C01A0C
:104860005241C3088B4201D3CB00C01A5241830886
:104870008B4201D38B00C01A524143088B4201D3B3
:104880004B00C01A5241411A00D201465241104613
:104890007047FFE701B5002000F006F802BDC046F2
:1048A0000029F7D076E770477047C04670B50026FC
:1048B0000C4D0D4C641BA410A64209D1002600F03B
:1048C00021F90A4D0A4C641BA410A64205D170BD03
:1048D000B300EB5898470136EEE7B300EB58984722
:1048E0000136F2E7EC000020EC000020EC00002094
:1048F000FC00002010B5034B0100186800F06AF8B6
:1049000010BDC0468800002010B5034B0100186898
:1049100000F016F810BDC04688000020002310B536
:104920009A4200D110BDCC5CC4540133F8E70300B7
:104930008218934200D1704719700133F9E70000E3
:1049400070B50500002910D00C1F2368002B00DA79
:10495000E418280000F0B6F81D4A1368002B05D1B2
:1049600063601460280000F0B5F870BDA34208D958
:10497000216860188342F3D118685B684118216090
:10498000EEE71A005B68002B01D0A342F9D9116849
:104990005018A0420BD120680918501811608342AA
:1049A000E0D118685B68411811605360DAE7A042F3
:1049B00002D90C232B60D5E721686018834203D10C
:1049C00018685B684118216063605460CAE7C0469C
:1049D0002C500020F8B50323CD1C9D43083506005C
:1049E0000C2D1FD20C25A9421ED8300000F06AF809
:1049F00025490A681400002C1AD1244F3B68002B6B
:104A000004D12100300000F043F838602900300064
:104A100000F03EF8431C2BD10C233000336000F033
:104A200059F803E0002DDEDA0C2333600020F8BDD6
:104A300023685B1B19D40B2B03D92360E418256072
:104A400003E06368A2420ED10B60300000F042F830
:104A5000200007220B30231D9043C21A9842E6D053
:104A60001B1AA350E3E75360EFE722006468C2E734
:104A70000323C41C9C43A042E1D0211A300000F063
:104A800007F8431CDBD1C7E72C5000203050002032
:104A9000002370B5064D040008002B6000F024F8D8
:104AA000431C03D12B68002B00D0236070BDC0468F
:104AB000385000200023C25C0133002AFBD1581E6D
:104AC0007047000010B5024800F00CF810BDC04659
:104AD0004050002010B5024800F005F810BDC04657
:104AE0004050002070477047044A030010680028B7
:104AF00002D0C318136070470148FAE73450002011
:104B000048500020F8B5C046F8BC08BC9E46704727
:104B1000F8B5C046F8BC08BC9E467047696E207266
:104B200065636569766520737461746500000000D3
:104B3000000000000B000000020000000400000064
:104B4000FF00FFFFFFFF0B00000000000A00000055
:104B50000200000004000000FF00FFFFFFFF0A004A
:104B6000000000000E00000008000000040000002B
:104B7000FF00FFFFFFFF0E00000000000900000023
:104B8000030000001C000000FF00010001000900FC
:104B90000000000008000000030000001C000000EE
:104BA000FF00000000001000000000000F000000E7
:104BB000040000001C000000FF00010301030F00BF
:104BC0000000000014000000020000002C000000A3
:104BD000FF000200020004000000000015000000B9
:104BE0000200000004000000FF00FFFFFFFF0500BF
:104BF0000000000006000000040000001C0000008F
:104C0000060000010001060000000000070000008F
:104C1000040000001C000000070001010101070062
:104C20000000000012000000040000001C00000052
:104C3000FF0000030003020000000000100000005D
:104C4000020000001C000000FF0000020002000043
:104C50000000000013000000050000002C00000010
:104C6000FF0003000300030000000000110000002B
:104C7000020000001C000000FF0001020102010010
:104C8000000000000200000001000000020000001F
:104C90000000FFFFFFFF020001000000080000000D
:104CA00001000000180000000200000400040800D9
:104CB00001000000090000000100000018000000D1
:104CC00003000104010409000000000004000000CA
:104CD00001000000000000000400FFFFFFFF0400CF
:104CE00000000000050000000100000000000000BE
:104CF0000500FFFFFFFF05000100000002000000AB
:104D000001000000000000000A00FFFFFFFF02009A
:104D1000000000000B000000010000000600000081
:104D20001300FFFFFFFF0B00000000000A0000005F
:104D300001000000060000001200FFFFFFFF0A0054
:104D40000000000008000000010000001E0000003C
:104D5000100000000000100000000000090000002A
:104D6000010000001E000000110001000100090008
:104D70000000000006000000010000001E0000000E
:104D8000060000010001060000000000070000000E
:104D9000010000001E0000000700010101010700E2
:104DA00000000000160000000200000004000000E7
:104DB000FF00FFFFFFFF06000000000017000000DB
:104DC0000200000004000000FF00FFFFFFFF0700DB
:104DD000000000000C0000000300000004000000C0
:104DE000FF00FFFFFFFF0C00010000000A000000B1
:104DF0000300000004000000FF00FFFFFFFF0A00A7
:104E0000010000000B00000003000000040000008F
:104E1000FF00FFFFFFFF0B00000000001F0000006D
:104E20000B00000004000000FF00FFFFFFFFFF0079
:104E3000000000001B0000000B0000000400000048
:104E4000FF00FFFFFFFFFF00000000001C0000004C
:104E50000600000000000000FF00FFFFFFFFFF0052
:104E60000000000018000000060000000000000024
:104E7000FF00FFFFFFFFFF0000000000190000001F
:104E80000600000000000000FF00FFFFFFFFFF0022
:104E9000010000000300000003000000000000000B
:104EA000FF00FFFFFFFFFF000100000016000000F1
:104EB0000300000000000000FF00FFFFFFFFFF00F5
:104EC00001000000170000000300000000000000C7
:104ED000FF00FFFFFFFFFF00000000000D000000CB
:104EE0000800000004000000FF00FFFFFFFF0D00AE
:104EF000000000001E000000080000000400000088
:104F0000FF00FFFFFFFFFF000000000003000000A4
:104F10000100000002000000FF00FFFFFFFFFF0094
:104F2000000000000200000001000000020000007C
:104F30001400FFFFFFFF02000D0A000000080042FE
:104F400014090000000C0042150A00000010004285
:104F5000160B000000140042170C0000001800425D
:104F6000180D0000001C0042190E00000000000097
:104F700000000000153100005D290000812F0000B5
:104F8000272F0000412F0000BF300000AB2F000092
:104F9000892C0000F12C0000F12E0000852C00006F
:104FA0000000000000000000F93100008532000020
:104FB000D53100007932000049320000553200003E
:104FC000D93100003C4300007843000064440000F5
:104FD000B443000064440000EC430000F6430000CA
:104FE00038430000FC4300000A440000464400002F
:104FF000544400000000000000000000853500005F
:1050000079330000F536000075330000C137000029
:10501000D53700004D6574726F204D302045787093
:105020007265737300000000040309044164616643
:10503000727569740000000012010002EF02014065
:105040009A23138000010102030100000000000008
:1050500072B6114A043281239B009A4212D30F4B3D
:105060001B7DDB07FBD50D4B198B2020FF30014347
:10507000198392085200DA61094A1A80074B1B7D96
:10508000DB07FBD5BFF34F8F064B074ADA60BFF350
:105090004F8FC046FDE7C0460020000000400041A1
:0C50A00002A5FFFF00ED00E00400FA058F
:1050AC000300000040420F00FFFFFFFFFFFFFFFF68
:1050BC0000C2010000000800080B00020202000000
:1050CC000904000001020200000524001001042460
:1050DC0002060524060001052401010107058103D0
:1050EC0010001009040100020A000000070502026A
:1050FC00400000070583024000000000FFFFFFFF97
:10510C00000000008300000002000000820000008C
:10511C000000000000000000000000000000000083
:10512C0000000000000000008C00002000000000C7
:10513C000000000000000000000000000000000063
:10514C000000000000000000000000000000000053
:10515C000000000000000000000000000000000043
:10516C000000000000000000000000000000000033
:10517C000000000000000000000000000000000023
:10518C00000000000000000000000000DD20000016
:10519C008D2300006533000029460000B520000077
:04000003000023B521
:00000001FF
